:100000000C946B030C94EE280C94A3030C94A303A0
:100010000C94A3030C94A3030C94A3030C94A303C8
:100020000C94A3030C94A3030C94162E0C94EA2EA8
:100030000C9485270C94A3030C94A3030C94A303A2
:100040000C94A3030C94A3030C94A3030C94A30398
:100050000C94A3030C94FD270C94A3030C94A3030A
:100060000C94A3030C94A3030C94A3030C94A30378
:100070000C94A3030C94A3030C94A3030C94A30368
:100080000C94A3030C94A3030C94A3030C94A30358
:100090000C94A3030C94A3030C94A3030C94A30348
:1000A0000C94A3030C94A3030C94A3032B0014003F
:1000B0001A00080015001700294404001600070064
:1000C00009000A0039001D001B0006001900050088
:1000D000E201E100E208E000E200E30000000000CD
:1000E00000000000000000001C0018000C001200BE
:1000F00013002A000B000D000E000F003300340027
:100100001100100036003700380035002C00235253
:1001100024522800E5004C00000000000000000010
:1001200000000000010014001A00090013000A007A
:1001300001000400150016001700070001001D0053
:100140001B0006001900050001000100010001006C
:10015000010001000000000000000000000000009D
:100160000D000F0018001C00330001000B001100EF
:1001700008000C00120034000E001000360037009A
:100180003800010001000100010001000100010030
:10019000000000000000000000000000010001005D
:1001A0000100010001000100010001000100010047
:1001B0000100010001000100010001000100010037
:1001C000010001000100E3000100E0000000000068
:1001D000000000000000000001000100010001001B
:1001E0000100010001000100010001000100010007
:1001F00001000100010001000100010001000100F7
:1002000001000100010001000000000000000000EA
:100210000000000035001E001F0020002100220009
:1002200001001E021F0220022102220201002302FD
:10023000240225022602270201000100010001001C
:1002400001000100000000000000000000000000AC
:1002500023002400250026002700010031002D0086
:100260002E002F003000310236023702010001005B
:100270000100010001000100010001000100010076
:1002800000000000000000000000000001003A0033
:100290003B003C003D003E000100440045000100E1
:1002A0000100AB0001004052415262526552AC0065
:1002B000007C0100010001000100010000000000BD
:1002C00000000000000000003F004000410042002C
:1002D00043000100A9005000510052004F000100EE
:1002E000AA004A004E004B004D000100AE00010084
:1002F00001000100010001000000000000000000FA
:1003000000000000000002780578000000000000F6
:1003100001000000000000000000000000000000DC
:1003200000000000010000000000000000000000CC
:1003300000000000000000000000000000000000BD
:1003400020782B782C782D780000000021782378F5
:10035000257827782978000022782478267828784C
:100360002A780000000001000100000000000000E9
:100370000000000000000000000000001E0F05004B
:10038000047F3F1F643214643214783C1E1E140A2A
:10039000052223252628292A2C2D2F3032333536C5
:1003A000383A3B3D3E4042434547494A4C4E505106
:1003B000535557595A5C5E6062646668696B6D6F2D
:1003C00071737577797B7D7F81838587898A8C8E30
:1003D00090929496989A9C9E9FA1A3A5A7A8AAAC38
:1003E000AEAFB1B3B4B6B8B9BBBCBEBFC1C2C3C572
:1003F000C6C7C9CACBCCCDCED0D1D2D2D3D4D5D614
:10040000D7D7D8D9D9DADADBDBDBDCDCDCDCDCDD46
:10041000DDDDDDDCDCDCDCDCDBDBDBDADAD9D9D82A
:10042000D7D7D6D5D4D3D2D2D1D0CECDCCCBCAC9C2
:10043000C7C6C5C3C2C1BFBEBCBBB9B8B6B4B3B1F1
:10044000AFAEACAAA8A7A5A3A19F9E9C9A9896948C
:1004500092908E8C8A89878583817F7D7B79777561
:1004600073716F6D6B6968666462605E5C5A595740
:10047000555351504E4C4A4947454342403E3D3BFF
:100480003A3836353332302F2D2C2A292826252389
:1004900022FFAA7F55400001010101010101010174
:1004A0000202020202020202020303030303030325
:1004B00003040404040404040505050505060606F2
:1004C0000606070707070708080808090909090AAF
:1004D0000A0A0B0B0B0C0C0C0D0D0D0E0E0E0F0F54
:1004E0000F101011111112121313141415151616E2
:1004F0001717181819191A1A1B1B1C1D1D1E1E1F51
:100500002020212222232424252626272829292A9F
:100510002B2C2D2D2E2F30313232333435363738C7
:10052000393A3B3C3D3E3F404142434445464748C3
:10053000494A4C4D4E4F50515354555658595A5B99
:100540005D5E5F616264656668696B6C6D6F707239
:10055000737577787A7B7D7E8082838587888A8CA5
:100560008E8F91939596989A9C9EA0A2A3A5A7A9D9
:10057000ABADAFB1B3B5B7BABCBEC0C2C4C6C9CBD0
:10058000CDCFD1D4D6D8DBDDDFE2E4E7E9EBEEF086
:10059000F3F5F8FAFDFF1E034E00790071007500B7
:1005A00069007300740020005200650076002E0080
:1005B0002000330000000E034B0065006500620060
:1005C00069006F0000000403090409023B000201F6
:1005D00000A0FA0904000001030101000921110132
:1005E00000012244000705810308000109040100FD
:1005F0000103000000092111010001227B00070511
:100600008203200001120100020000000810CB56F6
:100610003100030102000105010902A1018502095F
:1006200001A1000509190129081500250195087582
:100630000181020501093009311581257F95027577
:1006400008810609381581257F9501750881060501
:100650000C0A38021581257F950175088106C0C0F6
:1006600005010980A101850319012AB7001501269A
:10067000B700950175108100C0050C0901A1018525
:100680000419012AA002150126A002950175108106
:1006900000C005010906A101050719E029E71500B9
:1006A00025019508750181029501750881010507ED
:1006B000190029FF150026FF009506750881000521
:1006C0000819012905150025019505750191029567
:1006D0000175039101C011241FBECFEFDAE0DEBF28
:1006E000CDBF04B603FE18C080919F039091A00374
:1006F000A091A103B091A2038730904BA740B04BCB
:1007000059F410929F031092A0031092A10310922B
:10071000A203E0E0F8E3099512E0A0E0B1E0EAEF1F
:10072000F5E602C005900D92AA30B107D9F723E093
:10073000AAE0B2E001C01D92AF39B207E1F70E9412
:10074000F9160C94B1320C9400000E94DD1F85E074
:100750000E9450200E94051E4FEF6FEF80E00E9424
:10076000701A8BE00E94011E60E070E0CB010E94D5
:100770009D0E0E94AB0E08958630B8F46A30A8F43E
:10078000463098F450E096E0699F400D511D1124C9
:10079000FA019CE3899FE00DF11D1124EE0FFF1F6C
:1007A000E455FF4F85919491089581E090E008957C
:1007B0000E94BC03089581E008950E94DB03089520
:1007C0000E94DB03089581E008950E94DB030895F1
:1007D0000E94DB0308950E94E80308950895089598
:1007E0000E94EE03089508950895A6E0B0E0EBEFAF
:1007F000F3E00C945D3149835A839E83309111025A
:1008000089819A8131111AC03E81332399F02223C4
:1008100089F00E94500A182F682F89819A810E94BE
:100820002C0A69817A81812F0E943C112696E3E08F
:100830000C9479310E943E0A182FF3CF0E94500A7F
:1008400069817A81F1CFFC01262F4081518162813B
:100850007381848195810E94F5030895CF93DF937E
:10086000EC0161E00E942304BE010E94DD038823A5
:1008700059F061E0CE010E942304BE010E94E00312
:100880008170DF91CF91089580E0FACF0F931F938D
:10089000CF93DF93EC0160E00E9423048C01BE0142
:1008A0000E94EF03BE01C8010E94F003DF91CF91C7
:1008B0001F910F91089521E030E0A90102C0440F7B
:1008C000551F8A95E2F7CA010E944E090895CF93F9
:1008D000C82F81E090E00C2E02C0880F991F0A9467
:1008E000E2F70E948C0E8C2F0E945B04CF9108953A
:1008F00081E008950E94780408950E947804089584
:10090000CF93C82F0E9401098C2F0E947A048C2F4C
:100910000E947D042FEF84E39CE0215080409040B2
:10092000E1F700C00000CF91089581E00E948004AB
:100930000E942128089580E00E9480040E9445289A
:1009400008950F931F93CF93DF938C0161E00E9472
:100950002304EC01F801858181110E94671FB80111
:10096000CE010E94E503811106C080E0DF91CF91A6
:100970001F910F910895B801CE010E94EB038823C7
:10098000A1F3B801CE010E945720882371F3B8016A
:10099000CE010E947E25882341F3B801CE010E943A
:1009A000BA21882311F3B801CE010E949021882337
:1009B000E1F2B801CE010E9413178823B1F2B80109
:1009C000CE010E948B12882381F2F8018581882351
:1009D00061F0C330FCE7DF07E9F058F4C115ECE73C
:1009E000DE07A9F0C130DC47B9F0C8010E94E3037B
:1009F000BDCFCB358CE7D807A9F0CC35ECE7DE07C7
:100A000071F0CA35DC4789F70E94670EEECF0E946D
:100A10009504ABCF0E946F0E0E949B04A6CF0E944C
:100A20005D0EE3CF0E946B0EE0CF0E94F3030E94A5
:100A3000472780E00E9436200E943E0508950E94CC
:100A4000861F0E9442050E94F4030E944C270895CD
:100A500081E008950895CF93DF93D82F0E94280551
:100A6000C82F882319F08D2F0E942A058C2FDF9123
:100A7000CF91089508950E942B05089580E00E946B
:100A80003B0508950E94C7250E943B050895CF931A
:100A90000E94C725C82F80910C028C1779F0C09353
:100AA0000C020E94F12760930D0270930E02809356
:100AB0000F02909310028C2F0E943B05CF91089556
:100AC000ADE0B0E0E6E6F5E00C945E31488759878A
:100AD0006A877B878C879D8791110E949D0D1F825D
:100AE00086E0FE013896DE01119601900D928A95FE
:100AF000E1F78D8181110DC029813A814B815C81A3
:100B00006D817E818F810E94E70C2D96E2E00C942E
:100B10007A31CE0101960E942E048111EDCFF5CFDE
:100B2000FC012481213021F4808191810E94820A7C
:100B30000895662329F00E941B230E94EE23089546
:100B40000E947523FACFCF93C82F8823C9F082382B
:100B5000C9F40E94DB2581FD13C089E30E94912620
:100B60000E940C0E2FEF87EE93E0215080409040C2
:100B7000E1F700C0000089E30E9499260E940C0E54
:100B8000CF9108958338A1F40E94DB2580FDF8CF32
:100B900083E50E9491260E940C0E2FEF81EE94E0D7
:100BA000215080409040E1F700C0000083E5E4CF91
:100BB0008438A1F40E94DB2582FDE2CF87E40E9405
:100BC00091260E940C0E2FEF81EE94E02150804080
:100BD0009040E1F700C0000087E4CECF8CEF8C0F8F
:100BE000813A70F48C2F0E945626882329F08C2F8E
:100BF0000E9499260E940C0E8C2F0E949126BECF37
:100C000080E28C0F883048F4C77081E001C0880F03
:100C1000CA95EAF70E94800DB1CFEBE5EC0FE33007
:100C200040F4F0E0E257FE4F808190E00E94F7250B
:100C3000A7CFE8E5EC0FEB3150F4F0E0EE0FFF1F2B
:100C4000E85AFE4F808191810E941C2699CF83E350
:100C50008C0F833108F094CF61E08C2F0E949905AE
:100C60008FCF882309F456C0823879F40E94DB259F
:100C700081FF50C089E30E9491260E940C0E89E3F7
:100C80000E9499260E940C0E0895833859F40E9400
:100C9000DB2580FF3FC083E50E9491260E940C0E59
:100CA00083E5EECF843859F40E94DB2582FF32C001
:100CB00087E40E9491260E940C0E87E4E1CF9CEF0E
:100CC000980F913AE8F290E2980F983050F48770BC
:100CD00091E001C0990F8A95EAF7892F0E94860D4D
:100CE000D1CF9BE5980F933028F490E080E00E94EC
:100CF000F725089598E5980F9B3128F490E080E05F
:100D00000E941C26089593E3980F933118F460E035
:100D10000E94990508951F93CF93DF93182FEB013D
:100D20000E94A305209739F4812F0E943106DF919C
:100D3000CF911F9108958FE99FE00197F1F700C0CF
:100D400000002197EFCF70E060E0893311F460E597
:100D500070E00E948B060895882321F00E94800D88
:100D60000E940C0E0895882321F00E94860D0E9497
:100D70000C0E0895B0E0A0E0E0ECF6E00C945731E2
:100D80006C01D62FC72FFC011581068102950F70CB
:100D90000E94760DE82E8823F9F0E12E1123E1F070
:100DA0008C2F807F803461F080E28D0F883008F1D5
:100DB0008C2F807E803221F4D230D8F00023C9F00D
:100DC0008091460382FF15C082E00E94310E0E948E
:100DD000760D91E0E82EE926BC2EB2949FE0B92270
:100DE000FBE0FB15B8F1EB2DF0E0ED54FD4C0C945D
:100DF0001731E12CF1CF0C2F0F70C07F11F002954D
:100E0000007F112399F0002359F080E28D0F883084
:100E100010F0D11107C0802F0E94800D0E940C0E8F
:100E20008D2F48C0802F0E94900DF8CF8D2F0E94EB
:100E30003106002379F080E28D0F883010F0D11157
:100E400004C0802F0E94860D03C0802F0E94960D43
:100E50000E940C0EEB2DE850FF0B349708F06BC18D
:100E60000E94C7250E943B05CDB7DEB7E9E00C9490
:100E700073312C2F2F70F22EC07FC03219F0F294F4
:100E800080EFF822DD2341F0D130C9F1112309F4BC
:100E900043C00023E9F0C4CF8091460382FD14C013
:100EA000112359F0FF2029F08F2D0E94800D0E9400
:100EB0000C0E80E00E94A305CDCF80E00E94310699
:100EC000FF2041F28F2DBECF112369F0011104C024
:100ED0008F2D0E94AC06BECF013009F0BBCF8F2D05
:100EE0000E94B40DB7CF0111B5CF8F2D0E94B3066C
:100EF0008F2D0E94C00D8F2D0E94A40DABCF11230A
:100F000021F0063008F0A6CFE3CF053008F0A2CFDD
:100F10008F2D0E94B3069ECF0023D1F3D93349F41D
:100F20003FEF87EE93E0315080409040E1F700C002
:100F300000008D2F0E9431068DCF8C2F86958695CF
:100F4000837069F0813009F085CF8D2F9C2F9370CD
:100F5000111102C080E090E00E941C267BCF8D2FF3
:100F60009C2F9370111102C080E090E00E94F72541
:100F700071CF612F8D2F0E9499056CCF8C2F8370BC
:100F8000A1F5111167CF4D2F429546954770440F3B
:100F9000440F2D2F2F7030E0042E02C0220F331F7C
:100FA0000A94E2F790E080E0D4FF09C08FE090E07F
:100FB00002C0880F991F4A95E2F780959095C695D3
:100FC000C695C370822B932BC23049F058F4C130C0
:100FD00019F00E945A093ECF0E9451093BCF0E944E
:100FE000630938CF0E944E0935CF8695112311F041
:100FF0008C2F8170882309F42DCF4D2F4295469573
:101000004770440F440F2D2F2F7030E0042E02C084
:10101000220F331F0A94E2F790E080E0D4FF09C06A
:101020008FE090E002C0880F991F4A95E2F7809503
:101030009095C695C695C370822B932BC23049F00C
:1010400058F4C13019F00E94C50904CF0E94BC09B0
:1010500001CF0E94CE09FECE0E947209FBCECF7056
:10106000112329F08C2F0E948A098D2F32CF8D2FCA
:101070000E94B3068C2F0E949A09ECCED23F41F118
:1010800060F4D03FB9F0D13F81F0112309F443C09F
:101090000111C6CE8C2F8F711FC0D33F01F1D43FF9
:1010A000A1F78091460382FD24C08C2F8F711123FC
:1010B00011F312C0112341F0053008F0CBCE8C2F74
:1010C0008F710E94AC09C6CE063008F0C3CEF7CFB0
:1010D0008C2F8F711111CFCF0E948A09BBCE1123A3
:1010E00029F08C2F8F710E947E09B4CE0E9479095D
:1010F000B1CE112331F063E08C2F8F710E94130E5B
:10110000A9CE81E00E94310E023008F4A3CE82E025
:101110000E94310E9FCE002359F0D93309F009CF38
:10112000EFEFF7EE23E0E150F0402040E1F7FFCE93
:101130008C2F8F71A0CFEE2009F496CE0E94720DF5
:1011400080FD92CEF60115820E946C0D0E948A09E4
:10115000C6010E94C8080E946C0D0E949A0984CEA4
:101160000F931F93CF93DF93EC01688179818D8179
:101170000E948D0A8C010E94D7090E944D09B80176
:10118000CE010E94BA06DF91CF911F910F91089571
:10119000CF93DF93EC018C81882399F0CE010E94DC
:1011A000A104811111C00E94760D882351F08D8118
:1011B000882339F08091460382FF03C082E00E94B9
:1011C000310EDF91CF910895CE010E94B008CE017B
:1011D0000E944604F6CF90E080E00E94F72590E060
:1011E00080E00E941C260E949D0D0E940C0E0E9411
:1011F0000A240E94EE2308950E94A1260E94EB0873
:1012000008950E948D0D0E94FC08089592959F708C
:10121000963091F058F4925F9F70923058F4803F6E
:1012200019F030F4883E30F481E008959A5FF4CFED
:10123000843FD1F380E00895883EB0F3813FD1F739
:10124000F3CFFC012481222339F0808191810E9417
:10125000820A0E940609089580E00895A6E0B0E0A1
:10126000E4E3F9E00C945E312696E2E00C947A31E6
:10127000A7E0B0E0EEE3F9E00C945E312796E2E0FF
:101280000C947A3108950E94420908950E944309FE
:101290009093350280933402089508950E94460980
:1012A00008952091340230913502822B932B0E94B5
:1012B0004609089520913402309135028223932308
:1012C0000E94460908952091340230913502822708
:1012D00093270E94460908950E94420908950E949A
:1012E0006C0908950E946F09909333028093320233
:1012F000089590E080E00E947209089521E030E0B6
:10130000A90102C0440F551F8A95E2F7CA010E9445
:101310007209089521E030E002C0220F331F8A9540
:10132000E2F78091320290913302822B932B0E943C
:101330007209089521E030E002C0220F331F8A9520
:10134000E2F720953095809132029091330282230A
:1013500093230E947209089521E030E002C0220F19
:10136000331F8A95E2F780913202909133028227EF
:1013700093270E947209089520913202309133021E
:10138000822B932B0E947209089520913202309192
:101390003302822393230E9472090895209132021E
:1013A00030913302822793270E947209089508958D
:1013B000262F277091E001C0990F2A95EAF723E0C4
:1013C000769567952A95E1F7660F771F660F771F69
:1013D000FA01E60FF71F50E040E0682F70E08191BE
:1013E000DF0111979B01042E02C0369527950A94C0
:1013F000E2F7217021952827292328272C934F5F76
:101400005F4F4430510559F70895A82FA77023E086
:10141000969587952A95E1F7880F991F880F991F50
:10142000FB01E80FF91F50E040E080E0219130E03F
:101430000A2E02C0369527950A94E2F721703327C9
:10144000042E01C0220F0A94EAF7822B4F5F5F4FF0
:101450004430510559F70895262F9A3070F486309C
:1014600060F4682F70E086E0989F600D711D112474
:1014700042E152E0822F0E94D8090895292F9A3024
:1014800068F4863058F490E062E172E036E0239F21
:10149000800D911D11240E94050A089580E0089591
:1014A000B0E0A0E0E6E5FAE00C9457317C01009151
:1014B0003202109133028091340290913502082B50
:1014C000192BCFE0D0E0CC24C394D12CBC2EC60184
:1014D0000C2E02C0880F991F0A94E2F780239123F3
:1014E000892B49F4219790F7B12C8B2DCDB7DEB71E
:1014F000E9E00C947331B7018C2F0E9448110197D9
:1015000089F3F3CFCF93DF93EC010E94500ABE0121
:101510000E944811DF91CF9108951F93CF93DF93DD
:10152000EB0190911102992339F0CB010E94820ABC
:10153000DF91CF911F910895882369F0CB010E941C
:10154000500A182F682FCE010E942C0ABE01812F4D
:101550000E944811EDCFCB010E943E0A182FF6CF12
:101560001F93CF93DF93C091360217E0809137022B
:101570008C1304C0DF91CF911F910895D0E01C9F80
:10158000F0011D9FF00D1124E85CFD4F2081318199
:10159000428153816481758186810E943809219638
:1015A000C770E4CF209170023091710240917202B5
:1015B000509173026091740270917502809176026D
:1015C0000E9438090895CF93DF9380917602807F3F
:1015D00009F04DC080917502882309F448C0E0915C
:1015E000360250913702C0917102D0917002609121
:1015F00072027091730247E05E17C9F18E2F90E07E
:10160000E49FF0011124E85CFD4F2481222391F135
:10161000489FF001499FF00D1124DF01A85CBD4FE8
:1016200011962C9111972C1325C02C912D1322C0AB
:1016300015962C91159721111DC012962D913C9154
:10164000261B370B283C3105A8F4809176028F7059
:10165000806180937602E25CFD4F80818F708061B3
:10166000808380E792E00E94C8080E94B00ADF9160
:10167000CF910895FC013196E770BECF482F20919D
:1016800036029091370257E0291302C080E0089596
:1016900030E0529FF001539FF00D1124E85CFD4FA4
:1016A0008181681306C08081481303C08581811140
:1016B000EECF2F5F3F4F2770E7CFA4E1B0E0E3E626
:1016C000FBE00C9454318C0186E0F801DE011F969A
:1016D00001900D928A95E1F7F8018481E58090E709
:1016E000A92E92E0B92E9091740291111FC0882307
:1016F000D1F0EE20A9F0C8010E942109F82E88231C
:1017000079F087E0F801D50101900D928A95E1F713
:10171000C5010E9490050E94E30A0E94D20A5FC0A0
:10172000C8010E94C808FF24F39459C0C080D1802A
:1017300082809380F0907502209172023091730242
:10174000A401421B530BFF2009F4F9C0483C51058A
:1017500008F0A7C0882309F442C0909171028091DB
:101760007602282F207F09F05CC09D1116C0909151
:101770007002C91212C0E1104EC08F708061809358
:1017800076020E94D20A80E792E00E94C808809107
:101790007602F8018683F12C22C0E1103CC06D2D49
:1017A0008C2D0E943E0B6D2D8C2D0E943E0BE82E41
:1017B0008111F1CFCF86D88A8F8598890E94820ABD
:1017C000292F22952F70243078F49F702230A8F0B2
:1017D0009923B9F0F8019681907F99F4FE2C8F2D12
:1017E0006496ECE00C9470312A5F2F70223068F020
:1017F000C8010E94C808EF2CF1CF992311F088236B
:1018000069F3805E883050F3F3CF803F38F3815F17
:10181000833070F7E3CF8091760281608093760207
:10182000BACF9D1113C090917002C9120FC0E11080
:101830000DC08683C8010E94C80887E0F801A0E7B0
:10184000B2E001900D928A95E1F767CFC8010E943E
:101850002109882309F464CFEE2009F461CF809137
:101860007602803288F020917002309171023987BF
:1018700028879B868A86909174029C871D868E8716
:10188000CE0108960E94C80887E0F801A0E7B2E000
:1018900001900D928A95E1F70E94E30A0E94D20A14
:1018A00042CF90917602292F207FA1F4682D9A8A49
:1018B000898AA6017A899E2D0E942E0980E792E0EE
:1018C0000E94C80887E0F50111928A95E9F70E9405
:1018D000D20A61CF882309F482CF809171028D11E1
:1018E00010C080917002C8120CC0E1100AC096832B
:1018F000C8010E94C80887E0F50111928A95E9F7AE
:101900006ECFC8010E942109882309F409CFEE2077
:1019100009F406CF80917602803208F4B5CF209189
:101920007002309171023A8329839C828B8290915C
:1019300074029D831E828F83CE010196A3CF483C03
:101940005105B8F5882309F4EECEFE2CEE2009F4FB
:10195000E7CE809171028D111EC080917002C81275
:101960001AC08091760280FD0DC0982F907F51F0B3
:101970008683903F09F45ECF982F907F905F8F70A1
:10198000892B57CF87E0F801A0E7B2E001900D92D4
:101990008A95E1F724CFC8010E942109811174CFF3
:1019A00080917602816080937602C8010E94C80807
:1019B00016CF682D9A8A898AA6017A899E2D0E945F
:1019C0002E0987E0F50111928A95E9F7A6CEAEE0DF
:1019D000B0E0EDEEFCE00C945D31288739874A8752
:1019E0005B876C877D878E87CE0108960E945D0B92
:1019F0008823B1F06C85662341F0288539854A85B6
:101A00005B857D858E850E94380917E080913602BE
:101A10009091370289133DC02E96E3E00C94793102
:101A200087E0FE013896DE01119601900D928A95AD
:101A3000E1F78C85882349F32091370230E0C90112
:101A4000019687709927409136024817190699F038
:101A500097E0929FD001939FB00D1124A85CBD4FD9
:101A6000FE01319601900D929A95E1F7809337022D
:101A70000E94B00ACACF0E94010910923702109248
:101A8000360287E0E0E7F2E0DF011D928A95E9F790
:101A9000BCCF819FC0011124885C9D4F0E945D0BCB
:101AA000882309F4B9CFE09136021E9FF00111247A
:101AB000E85CFD4F208131814281538164817581D1
:101AC00086810E9438098091360290E001968770E5
:101AD0009927809336029ACF80917F0286958695CA
:101AE0008695089580917F028770089590917F0276
:101AF000977081E009F480E0089580918B02089549
:101B000090918B02892B80938B0208958095909100
:101B10008B02982390938B02089510928B02089564
:101B200090918A02892B80938A02089580959091E2
:101B30008A02982390938A02089510928A02089547
:101B400008950E94A00D089590918002292F2823C6
:101B500031F080958923809380020E94A10D089521
:101B600008950E94B00D089590918102292F282395
:101B7000281729F0982B909381020E94B10D0895A7
:101B800090918102292F282331F080958923809319
:101B900081020E94B10D089580918102882329F06D
:101BA0001092810280E00E94B10D08950F931F935F
:101BB000CF93DF930091040110910501C0918B0236
:101BC00080918A02C82B80918102882331F0C82B32
:101BD0000E94412681110E94CC0DF801C083C09162
:101BE0000401D091050148E050E067E772E0CE01C2
:101BF0000E942432892B59F088E0FE01A7E7B2E069
:101C000001900D928A95E1F7CE010E94DE25DF91C9
:101C1000CF911F910F9108950E94D60D08950895B8
:101C20000E940F0E08959091460392FF11C098E014
:101C3000899F90011124622B60937F020E948A0980
:101C400080917F028695869586950E94100E089554
:101C50000E948A09089510927F0280E00E94100E6F
:101C6000089590917F028095892380937F02282F89
:101C7000277069F4891759F09091460392FF07C0C5
:101C80008695869586950E949A090E942B0E089546
:101C90009091460392FB222720F9281769F080FBD8
:101CA00092F99093460380914503909146030E94D8
:101CB000970E82E00E94310E08958091460382FBC8
:101CC000882780F991E089270E94480E089581E0D5
:101CD0000E94480E089580E00E94480E08956FEF1C
:101CE0007FEF90E080E00E947C32089590E080E0F9
:101CF0000E94483221E0853E9E4F09F020E0822F6D
:101D0000089582E090E00E943A32089583E090E0E6
:101D10000E943A3290E00895682F83E090E00E949C
:101D20005E32089584E090E00E9448320895BC013C
:101D300084E090E00E947C320895AB01BC018FE00A
:101D400090E00E9470320895AB01BC0183E190E005
:101D50000E947032089560E070E0CB010E94A40EF2
:101D60000895A8E0B0E0E7EBFEE00C945E3165EE8C
:101D70007EEF90E080E00E947C3260E082E090E0C4
:101D80000E945E3281E090E09093350280933402AD
:101D90000E948C0E60E074E184E090E00E947C324E
:101DA00060E086E090E00E945E3260E087E090E0D4
:101DB0000E945E3240E050E0BA0188E090E00E946C
:101DC000703260E083E290E00E945E3260E08CE07E
:101DD00090E00E945E3260E08DE090E00E945E3212
:101DE00019821A821B821C821D821E821F82188603
:101DF00048E050E067E170E0CE0101960E944E326B
:101E000040E050E0BA018FE190E00E9470320E9401
:101E1000A5032896E2E00C947A310E94B10E089551
:101E2000682F8EE090E00E945E320895A6E0B0E058
:101E3000ECE1FFE00C945C310E94E5278C0180917D
:101E40008C0290918D028017910781F019821A827D
:101E50000E94E527682F49815A81792F80E090E020
:101E60000E94600510938D0200938C022696E4E098
:101E70000C9478310E94641260939C0270939D02CE
:101E800080939E0290939F026093980270939902B0
:101E900080939A0290939B020895089508950E945A
:101EA0004D0F089508950E94520F0E944F0F0895FC
:101EB00008950E94580F089508950E945C0F0E9493
:101EC000590F089581E0089589E892E10E940E1764
:101ED0000E944E0F0E94530F08950E945F140895B0
:101EE0000895089508950E94700F0E94710F0E9436
:101EF000720F08950E94760E811102C00E940D0F8C
:101F00000E94810E8093A0020E94920E909346033D
:101F1000809345030E94860E0E944E0980913202F2
:101F2000909133020E946F0908950E94DC270E945D
:101F30003E120E9462140E94A9130E947A0F0E940E
:101F40003A050E9429210E9478210E94861F0E9442
:101F50001D1E0E947E140E945D0F0895A6E0B0E051
:101F6000E4EBFFE00C9455310E94620F811110C028
:101F70000E94160F0E945F140E94681F0E94282171
:101F80000E942C240E9447052696EBE00C947131A8
:101F90000E94CC138EE8A82E82E0B82E750110E0C6
:101FA000F70101917F01812F0E94A5121F5F1A3056
:101FB00009F441C00817A1F38091A00281FD0E949D
:101FC000AB120E946D0FC82E10E099249394812FBC
:101FD0000E94A512082FF50181915F01081729F1D0
:101FE000F12CEE24E394D02ED8268D2D8E21A9F04D
:101FF000CC2099F0F9821A830E94E5279C838B8379
:102000009D8291E0802F8E2109F490E049815A81D0
:102010006B817C818D810E946005F394EE0CF6E06B
:10202000FF12E3CFF501319700831F5F1A3079F675
:102030000E943A0F9FCF0813BFCF9ACF1F93CF9321
:10204000DF930E944D11EC01C11580E5D807F0F532
:10205000C11580E4D80708F09CC0C03ED10520F52A
:10206000CD3CD10508F082C0C83AD10578F4C53A14
:10207000D10508F073C0C130D10519F1209709F1DD
:10208000C430D105F0F4D0E0C0E01BC0C33CD105A2
:10209000D0F7C85AD0E0CC0FDD1FCF56DE4F0990E5
:1020A000D881C02DD4640DC0C11580E2D80708F0D6
:1020B000D1C0C11581E0D80708F05AC0C83ED1058B
:1020C00010F7CE01DF91CF911F910895C03682E5C0
:1020D000D80718F5C03482E5D80708F06BC0C032C5
:1020E00082E5D80708F05FC0C11582E5D80708F47B
:1020F00097C02C2F2695269580E2289F90011124C9
:102100008C2F8370C1E0D0E002C0CC0FDD1F8A9518
:10211000E2F7C22BD32BDD68D4CFC03A82E5D807D3
:1021200060F4C03882E5D80708F459C0CF71D0E018
:10213000DC2FCC27C46FD06AC4CFC03C82E5D8075F
:1021400008F462C0C03E82E5D80708F09CCFDC2FBF
:10215000CC27CC27DF71C06FD06AB3CFC55AD0E08F
:10216000C953DE4FC881D0E0D064ABCFD065A9CFD2
:102170008D2F0E94EF11182FCE0199270E944D112B
:10218000C12FD0E0DC2FCC27CC27DF71C82BD92B77
:1021900098CFCE0199270E944D11CC27DF70C82B14
:1021A000D92BD06A8ECFCF71D0E0DC2FCC27C16F76
:1021B000D06A87CF2C2F26952695277080E2289FFE
:1021C000900111248C2F8370C1E0D0E002C0CC0FAD
:1021D000DD1F8A95E2F7C22BD32BDC6872CF2C2F40
:1021E00026952695277080E2289F900111248C2F38
:1021F0008370C1E0D0E002C0CC0FDD1F8A95E2F70A
:10220000C22BD32BDA685DCF8C2F8F710E94EF1118
:10221000C82FD0E0DC2FCC27CC27DF71D06251CF84
:102220008C2F8F710E94EF1155E0D695C7955A9566
:10223000E1F7CF70D0E0DC2FCC27282F30E084FFEF
:1022400005C044E0220F331F4A95E1F7C22BD32B80
:10225000D06937CF8D2F8F710E94EF11182FCE01CB
:1022600099270E944D11C12FD0E0DC2FCC27CC271D
:10227000DF71C82BD92BD2CF462F7A3030F466309D
:1022800020F4672F0E94D803089590E080E008951D
:102290000E943C110E941E10089582389105B9F1E8
:1022A000B0F48133910509F47DC048F48932910579
:1022B00009F46DC08A32910509F47BC00895853315
:1022C000910509F45FC08933910509F10895833EB2
:1022D0009105D9F138F4803E910529F1823E9105AE
:1022E00079F10895863E9105D9F1873E910509F46B
:1022F0003EC0843E910541F52091460321FF24C054
:102300008091450384FD19C087EE90E008952091E7
:102310004503237009F05AC02091460323FF14C0DF
:1023200089E290E008952091450320FD38C0309166
:10233000460330FF09C024FF43C090E080E00895C9
:102340002091450322FDF7CF08952091450322FDFA
:102350003AC03091460330FD39C024FFF5CFEDCFB0
:102360002091450323FFF0CF24FDE7CFCDCF20916F
:10237000450323FD2EC03091460331FFEECF84EE9E
:1023800090E008952091450325FFDECFC9CF20912D
:10239000450325FD21C02091460323FFD5CF89E3C6
:1023A00090E0D2CF2091450326FFCECF8AE290E085
:1023B00008952091450326FFC7CF81E390E008955B
:1023C00083EE90E0089582EE90E0089580EE90E034
:1023D000089586EE90E0089585E390E00895909149
:1023E000450392FF10C041E0282F2471243009F0EA
:1023F00040E031E0282F2871283009F030E0431701
:1024000011F02CE0822793FF10C041E0282F2471A7
:10241000243109F040E031E0282F2871283109F0FB
:1024200030E0431711F02CE082273091460330FF53
:1024300010C051E0282F2171213009F050E041E017
:10244000282F2871283009F040E0541711F029E0B6
:10245000822731FF10C041E0282F2171213109F07E
:1024600040E031E0282F2871283109F030E043178F
:1024700011F029E0822794FD877E0895109247038A
:10248000109248031092490310924A030895CF9284
:10249000DF92EF92FF926B017C010E945F14811129
:1024A0000EC00E94F127C61AD70AE80AF90AC0929C
:1024B0004703D0924803E0924903F0924A03FF9009
:1024C000EF90DF90CF9008950F931F930E945F14B9
:1024D000882329F00E94F1271F910F9108950E94EF
:1024E000F12700914703109148032091490330914F
:1024F0004A03600F711F821F931FEECF0E945F146B
:10250000882319F00E94E52708950E946412CB01E8
:10251000089580E00895CF939C01205E3245C1E08C
:102520002032310538F4FB01C581C11103C08F7120
:102530000E9467048C2FCF91089508950E949D12E8
:10254000089508950E94A1120895E82FF0E0EA5A34
:10255000FC4F80810895089580EA8A95F1F70895E7
:1025600000C008950E94AC12089508950E94B5120B
:102570000895A5E0B0E0EFEBF2E10C945A310E942F
:102580005F14F82E60916003882309F440C085E051
:10259000E82E8E010F5F1F4FF8018E2D11928A9544
:1025A000E9F7862F90E0B8018A5A9C4F0E948C145C
:1025B0008823B9F080914B0390E045E050E0B801EA
:1025C0008A5A9C4F0E94243221E02093A102892B39
:1025D00091F4F12C0E94A2128F2D2596E6E00C9426
:1025E00076318091A1028823A1F3F8011192EA9437
:1025F000E9F71092A102A0914B03B0E0AA5ABC4F98
:1026000085E0F80101900D928A95E1F7E3CF70E043
:102610006A5A7C4F80914B0390E08A5A9C4F0E94EB
:1026200013150E94B612D8CFF894E82FE295EF70F8
:10263000F0E031A1282F2F7081E090E001C0880FD9
:102640002A95EAF7982F9095932391A392A1892B2D
:1026500082A3789408950F931F93CF93DF93C0EDD7
:10266000D1E089918F3F11F00E94141381E0C53DA4
:10267000D807B9F7CAECD1E000ED11E089918F3F9E
:1026800011F00E9414130C171D07C1F7DF91CF91B1
:102690001F910F910895B0E0A0E0E1E5F3E10C9403
:1026A0005831EC01D62E062F10E0C80180539E4F02
:1026B0007C01FC0180818F3F09F444C0F894E82F2D
:1026C000E295EF70F0E091A18F7021E030E001C061
:1026D000220F8A95EAF7892F822B81A382A1209568
:1026E000282322A378940E94B012EAECF1E031E0B2
:1026F000C12C21912F3F59F1A22FA295AF70B0E0CC
:1027000090968C9190E02F7002C0959587952A95B0
:10271000E2F780FD1CC0832FC82A330F81E0E03D23
:10272000F80739F7F70180818F3F11F00E941413E9
:1027300061E0C11001C060E08D2D0E94B212C00F97
:10274000D11FC882CDB7DEB7E8E00C94743180E0C9
:10275000E3CF809106018091060195E0811190E020
:102760009093600385E0891B80934B030E942B1399
:102770008AE0E6E5F3E0DF01982F1D929A95E9F7EC
:10278000ECE4F3E0DF011D928A95E9F785E00E9411
:102790000A140E949E120895AAE0B0E0E2EDF3E16F
:1027A0000C945B318E010F5F1F4F8AE0F80111928C
:1027B0008A95E9F7F12C6F2DC8010E944B13F39411
:1027C000F5E0FF12F8CF4AE050E0B8018CE493E066
:1027D0000E94243221E0009709F420E0892B41F087
:1027E0008AE0F801ACE4B3E001900D928A95E1F73C
:1027F0006091600370E06A5A7C4F45E08CE493E09E
:102800000E940B14182F0E94B912812B2A96E5E022
:102810000C9477310895B0E0A0E0E1E1F4E10C948C
:1028200058316C017B01042FC22F222379F081E003
:102830008093A4020E94E5279093A3028093A202B2
:1028400080E0CDB7DEB7E8E00C947431D091A402FB
:10285000DD23B1F38091A2029091A3020E9463272D
:10286000059770F310E0A801B601C7010E94243259
:10287000892B31F0A801B601C7010E943132CD2F5A
:102880001092A4028C2FDDCF55985D988FE891E0CF
:102890000197F1F700C0000089B185FB882780F916
:1028A0000895CF930E949630C82F811102C00E94D4
:1028B00091308C2FCF9108958091A8020895809136
:1028C000A70208950E9451148093A7020E94441405
:1028D0008093A8020E945C14809306010E945C14FD
:1028E00066E0882349F080E00E94FA170E945F1496
:1028F00081110E94C214089586E0F6CF0E945F14F1
:10290000811102C00E94C514089581E09091A9022E
:102910009A3008F080E008950F931F93CF93DF93D0
:10292000EC018B018091A9028A30B8F4B801CE0184
:102930000E941015C82F811122C08091A9028F3FDB
:10294000B9F40E94E5279093A6028093A5028C2FEC
:10295000DF91CF911F910F9108958091A5029091E1
:10296000A6020E946327843F914000F7C0E0EFCFAA
:102970008F5F8093A9028A3020F7C1E0E8CF1092E0
:10298000A902E5CF0E94A82808950E94AB280895C7
:10299000B0E0A0E0EEECF4E10C9459317901C82FDD
:1029A000880FDD0B41155105A9F0FE0193E0EE0FF4
:1029B000FF1F9A95E1F7E95FFE4F8181928186556D
:1029C0009D4F208130E04217530708F49A01A90176
:1029D0000E943132CE010E949429D82E8823D1F052
:1029E00001151105B9F083E0CC0FDD1F8A95E1F7E1
:1029F000FE01E95FFE4F438150E00417150708F41C
:102A0000A801C95FDE4F6C817D8166557D4FC7018E
:102A10000E9431328D2DCDB7DEB7E7E00C947531D1
:102A20000E947E1608950E94A7160895A4E0B0E0C3
:102A3000ECE1F5E10C945C316091CD027091CE0235
:102A40008091CF029091D0020E946D2711E06436F0
:102A500071058105910518F10E9464126E5F7F4F28
:102A60008F4F9F4F69837A838B839C8310E000E0B4
:102A700030E020E044E050E0BE016F5F7F4F82E035
:102A80000E94C814182F882351F00E94F1276093E8
:102A9000CD027093CE028093CF029093D002812F0B
:102AA0002496E4E00C947831B0E0A0E0EAE5F5E1AA
:102AB0000C945631C82F7B01D42F69015801FB01BA
:102AC00060817181828193810E946D2764367105D6
:102AD0008105910510F4DD23C9F010E000E030E03D
:102AE00020E0A501B6018C2F0E94C814C82F8823AE
:102AF00039F00E94F127F701608371838283938309
:102B00008C2FCDB7DEB7EAE00C947231C1E0F8CF7C
:102B1000ABE0B0E0EEE8F5E10C945C31CE0101965B
:102B20000E943A1D41E08B85811101C040E00BE01D
:102B300010E09E012F5F3F4F65ED72E084E00E9440
:102B40005415182F81110E94371D812F2B96E4E018
:102B50000C947831A1E0B0E0E0EBF5E10C945C314D
:102B60000E946B1F8823D1F00E94801F8983E0910F
:102B7000D501F091D60141E09285981301C040E063
:102B800001E010E09E012F5F3F4F61ED72E083E0B6
:102B90000E9454152196E4E00C94783180E0E6CF51
:102BA000B0E0A0E0E6EDF5E10C9456317C015B016C
:102BB0006A010E94851401E010E0882311F00AE008
:102BC00010E0C1E0D0E0B501C701F601099581111F
:102BD00004C021960C171D072CF4CDB7DEB7EAE030
:102BE0000C947231CC9F9001CD9F300D300D11248B
:102BF00090E080E045E34A95F1F7000001968217E6
:102C00009307C1F7E0CFA6E0B0E0E9E0F6E10C946D
:102C100056317B01C090D501D090D60101E010E083
:102C20009E012A5F3F4F50E040E070E060E080E0AE
:102C30000E94C814182F882309F448C056018FEF4A
:102C4000A81AB80A6091C9027091CA028091CB0299
:102C50009091CC020E946D27643671058105910523
:102C600068F105E010E09E012F5F3F4F50E040E02B
:102C700070E060E081E00E94C814D82E65E070E04A
:102C8000C5010E94792111E09E81981310E01D2159
:102C900041F10E94F1276093C9027093CA028093A8
:102CA000CB029093CC0285E0FE013196A4ECB2E019
:102CB00001900D928A95E1F711E013C065E070E094
:102CC000C5010E9479219E818913CBCF85E0F60151
:102CD0003196DE01119601900D928A95E1F711115E
:102CE000E2CF85E0E4ECF2E0D70101900D928A9505
:102CF000E1F7812F2696EAE00C9472310F931F932F
:102D0000CF93DF93EC018B0143E056E10E94D01595
:102D1000811106C080E0DF91CF911F910F9108953E
:102D200046E155E1B801CE010E94D015882391F308
:102D30004AEA55E1B801CE010E94D015882351F32B
:102D400048E855E1B801CE010E94D015E4CFABE0D0
:102D5000B0E0EDEAF6E10C9458310091D501109104
:102D6000D601C801019625E0FB01DC0101900D921E
:102D70002A95E1F765E070E00E947921F8018083EF
:102D80006681778180859185C090C002D090C10214
:102D9000E090C202F090C3026C157D058E059F0580
:102DA00051F06093C0027093C1028093C20290936D
:102DB000C3020E944712F80182850E9436208BE0F0
:102DC000F8013B96DE01119601900D928A95E1F78C
:102DD000F801158A8B85882329F060E0CE010196E1
:102DE0000E94631E2B96E8E00C9474310E94AE0F93
:102DF00008950E947E270E944D2B0E94640F0E941E
:102E0000672B0E94950F0E94742B0E94792B0E94C1
:102E1000F6160E94932B0E94730FF7CF90930B022C
:102E200080930A0208950F931F93CF938C01FB01A7
:102E3000C581CC2309F447C00E947D0D8272F80140
:102E4000E052F847EB30F10538F4E154FD4C0C94B6
:102E500017310E940F1EC0E08C2FCF911F910F9150
:102E60000895882329F00E94FD1DF5CF8823D9F30A
:102E70000E94ED1DF0CF882329F00E94281AEBCF85
:102E80008823D9F30E94191AE6CF882329F00E94DB
:102E90004A1AE1CF8823D9F30E94391ADCCF88235C
:102EA00029F00E946C1AD7CF8823D9F30E945B1AAD
:102EB000D2CF882329F00E94E218CDCF8823D9F3FE
:102EC0000E94C218C8CFC1E0C7CFEF92FF920F9304
:102ED0001F93CF93DF939B01682F31110EC04423C2
:102EE00029F0E82FF0E0EA56FB4F6491762F862F09
:102EF000CDB7DEB7E6E00C947631C32FD0E0E82FF3
:102F0000F0E0442321F0EA56FB4FE491F0E046E084
:102F1000249FC00111240FEF10E0B8010E94CD30B2
:102F2000AB01822F90E0880F991F25E5249FB00107
:102F3000259F700D1124861B970B982F990F980FC2
:102F4000B8016C1B7D0B6E9FD0016F9FB00D7E9FF3
:102F5000B00D11248B2F939F90011124232F332721
:102F6000B801621B730B6E9F90016F9F300D7E9FA7
:102F7000300D11247801E91AF108EC9EB001ED9EA4
:102F8000700DFC9E700D1124672F7727061B170B01
:102F90000E9FE0010F9FD00D1E9FD00D11247D2F9D
:102FA0009E2F4230510599F048F44115510569F0C2
:102FB0004130510581F07B2F832F07C044305105EC
:102FC00069F080F046305105B1F7692F91CF9B2F02
:102FD0008D2F7E2FFACF7E2F932FF7CF9D2F7B2F14
:102FE0008E2FF3CF732F9B2FFBCF41E00E946517ED
:102FF00008950895E2E3F1E08083618308950E94DB
:10300000F517089590913201291B922FE091040247
:10301000F0910502242F462F682F892F90E0099503
:103020000895CF93DF93762FE901682F842F0E94B4
:10303000FF17962F672F9E01482F892F0E94021895
:10304000DF91CF91089580916103982F9C7F29F49F
:10305000837084608093610308958C3AE8F38370F1
:10306000886AF8CFB0E0A0E0E8E3F8E10C945831CA
:1030700088E090E00E9442326B017C0183E290E0A4
:103080000E943A32282F30E040E050E060E070E0EB
:1030900080E090E000E20E948531B22FA32FF42F50
:1030A000E52FD62FC72F97018601BC29A12BFE291A
:1030B0005E2F532B2B2F3A2F4F2F6D2F7C2FCDB7F9
:1030C000DEB7E8E00C947431B0E0A0E0EAE6F8E1A5
:1030D0000C94543149015A016B017C010E94231860
:1030E0008401A4016A2D7B2D88E090E00E9470325B
:1030F00094014A2D5B2DB601C70100E20E94A03168
:10310000622F83E290E00E945E32CDB7DEB7ECE042
:103110000C947031E1E6F3E085E0808311828FEF5B
:10312000828383831482A1E2B3E012968C9112977A
:10313000836012968C93758125E030E04FEF5FEF4E
:1031400060E0868197810E946418089590916503DC
:10315000933018F49F5F90936503882391F020913A
:103160006103309162034091630350916403609165
:1031700065037091660380916703909168030E94D4
:103180006418089581E00E94A6180895909165033F
:10319000992319F0915090936503882391F0209121
:1031A0006103309162034091630350916403609125
:1031B00065037091660380916703909168030E9494
:1031C0006418089581E00E94C61808950F931F9314
:1031D000CF938091610380FF09C0E0910802F091D4
:1031E00009020995CF911F910F910895C091340163
:1031F000009104021091050280913501C81768F70B
:10320000809132019C2F981B892F20E040E060E0E4
:1032100090E0F8010995CF5FEFCFEF92FF920F9307
:103220001F93CF93DF93D82F162F042F8091610324
:1032300080FF0CC0C0913401E0900402F0900502C0
:1032400080913501C81738F00E94E618CDB7DEB777
:10325000E6E00C947631809132019C2F981B892FE7
:10326000202F412F6D2F90E0F7010995CF5FE8CF18
:10327000762F9091610390FF0AC0682F842F0E94DF
:10328000F517962F672F482F892F0E940D19089543
:10329000CF93DF93EC01EC81F0E0EF56FC4F4491CB
:1032A000E1E6F3E0628181810E9438198C818F5FB1
:1032B0008C83DF91CF910895CF93DF93EC01E1E60A
:1032C000F3E0438162818C810E9438198C818F5F89
:1032D0008C83DF91CF910895CF93DF93EC014091E0
:1032E00064039C81892F817090FD842F692F627007
:1032F00091FD642F92FF40E00E940D198C8190E0B7
:103300000196877099278C83DF91CF910895B0E063
:10331000A0E0EDE8F9E10C945931D82F062F142FD5
:10332000E22E9091610390FF3FC020916203281329
:1033300008C080916303861304C0809164038417DE
:1033400029F080912303826080932303E92FE6957F
:10335000E695AE2FB0E0A952BE4F8C918093210329
:103360009C7F943031F56D2F702F812F0E94F517BF
:10337000962F672F482F892F0E940D19D093620333
:103380000093630310936403EE2071F020916103B6
:1033900060916503709166033D2FA80180916703DA
:1033A000909168030E946418CDB7DEB7E7E00C94F3
:1033B0007531823019F410916403E0CF863061F1E9
:1033C000893051F18931D1F6E9518E2F8170D82E93
:1033D000E695F0E0EF56FB4FC491F12C6091360179
:1033E000F61618F00E94E618C9CFFC9EC001112401
:1033F00070E00E94CD308D2FD1100CC0860F20912F
:1034000034012F0D3327331F412F602F0E941118D5
:10341000F394E4CF861BF3CFD22FB0CFE1E6F3E0F5
:103420009181282F4381628188E0890F0E9487194A
:10343000089581E00E940E1A0895E1E6F3E091817B
:10344000282F4381628188EF890F0E948719089590
:1034500081E00E941D1A0895E1E6F3E0628121E116
:10346000620F08F46FEF282F438181810E94871932
:10347000089581E00E942C1A0895E1E6F3E062814C
:1034800021E1621B08F460E0282F438181810E94C2
:103490008719089581E00E943D1A0895E1E6F3E05E
:1034A000438121E1420F08F44FEF282F628181818F
:1034B0000E948719089581E00E944E1A0895E1E65E
:1034C000F3E0438121E1421B08F440E0282F6281B0
:1034D00081810E948719089581E00E945F1A0895F2
:1034E00021E00E948719089520E00E94871908951D
:1034F000EF92FF921F93CF93DF93EC0110E0EE2445
:10350000EA94F12C60913601161770F00E94E618CB
:103510009A818C8190FF1EC08F5F8C83DF91CF9149
:103520001F91FF90EF90089520913401210F3327D0
:10353000331F70E0C7010E94E130962F8C814091CB
:10354000640360916303199F800D11240E94111878
:103550001F5FD8CF8150E1CFB0E0A0E0E2EBFAE10D
:103560000C945431EC018A81BB24BA9480FD02C0D2
:10357000BB24B3948C8181110AC081E0B81226C0AB
:103580008091360181508093DA0281E08C83A12CF6
:10359000E0900402F09005029CE0992E80913601A3
:1035A000A816B8F00E94E6188091DA02F1E0BF1286
:1035B00057C0811150C08091360181508093DA024A
:1035C0001C82CDB7DEB7ECE00C9470311092DA02B9
:1035D000DCCF8091340190913201891B8A0D20E06B
:1035E00040E060E090E0F701099504E010E0812CF4
:1035F000CA2CD12C8091DA02880D8D3034F1692DDE
:103600000E94BF30892F082E000C990BC816D906CE
:10361000B1F4209134012C0D3D2D311D80916403B6
:10362000809FA001819F500D112455954795559578
:10363000479560916303809162030E9411188B0C7F
:1036400001501109B9F6A394A9CF87FFDCCF90915F
:103650003601890FD8CF81508093DA02BC82B1CF76
:1036600090E001966091360170E00E94E130809315
:10367000DA028C83A6CFEF92FF921F93CF93DF9352
:10368000EC018C81811109C081E08C831092D902F8
:1036900092E0909331018093300110913401E090D9
:1036A0000402F090050280913501181778F110E0BE
:1036B000E0900402F090050260913601161798F12F
:1036C0000E94E618809130012091D902280F2093A2
:1036D000D90290913101980F90933101191654F449
:1036E000022E000C330B409136014150550B24172C
:1036F000350734F0819580933001813009F41C82C4
:10370000DF91CF911F91FF90EF900895809132014A
:10371000912F981B892F20E040E060E090E0F701B6
:1037200009951F5FC0CFE12FF0E070E0CF010E944C
:10373000E13020913401820F2091D902022E000C39
:10374000330BE217F307A4F020913101022E000C95
:10375000330B2E173F0764F0282F30E040916403AD
:1037600060916303809162030E9411181F5FA4CFD0
:1037700090913201891B20E040E060E090E0F70189
:103780000995F4CFB0E0A0E0E8ECFBE10C945431F3
:10379000EC014C81042F10E09801D8010E942531E2
:1037A0009B01AC010E943B314B015C01E0E2F0E087
:1037B000E01BF10BA5E5B0E0AC019B010E943B31A1
:1037C0006B017C019F01DF010E941D319B01AC0157
:1037D0000E9446319B01AC01280D391D4A1D5B1D1D
:1037E000C701B6010E94F530F22E822F90E039E237
:1037F0003F1520F143E0249F900111243595279532
:10380000122F109500E085E5E82EEF188091360123
:10381000081720F10E94E6189C8181E0992319F095
:10382000903219F48FEF80932F0180912F01890F2F
:103830008C83CDB7DEB7ECE00C94703125E530E039
:10384000A901481B590BCA019A01220F331F280FE7
:10385000391F37FFD3CF2F5F3F4FD0CF8E2D01FDC4
:103860008F2D20913401200F3327331F412F60917A
:1038700063030E9411180F5FC9CF0F931F93CF935B
:10388000DF938C01D0E0C0E0909136019C171D06BB
:1038900009F074F40E94E618F801848190E0019622
:1038A000817099278483DF91CF911F910F910895A3
:1038B000F8014481209134012C0F3D2F311D60917E
:1038C00063038091620396959C171D0649F044F0AE
:1038D000442341F0409164030E9411182196D4CFF3
:1038E0004423C1F340E0F8CFB0E0A0E0EAE7FCE118
:1038F0000C945031FC016280448081E08483E1E9D2
:10390000F3E07490E0E1F4E0E491C0916403C695C3
:10391000C158D0E0CC0FDD1FCD2FDD27812C25E055
:10392000922EAA24AA94B12C55245A94E719EE2E6B
:10393000F12C80913601881638F00E94E618CDB738
:10394000DEB7E0E10C946C31C82CD12C82E08615F6
:1039500068F09C9CF0019D9CF00D1124E252FD4FFB
:1039600080916203808380916303818341101CC036
:103970009C9CF0019D9CF00D1124E252FD4F13829E
:103980001282209134012C0D3D2D311D9C9CF001A3
:103990009D9CF00D1124E252FD4F42816181808196
:1039A0000E9411188394C5CF9C9C80019D9C100D92
:1039B000112402521D4FF80183818823F1F08150B8
:1039C0008383859DC0011124648170E00E94CD3005
:1039D000FB01FF27EF56FC4F8491E82FE719E59D87
:1039E000C0011124B7010E94CD3080916403689F0B
:1039F000B0011124F8017283C4CF0E940732B501CF
:103A00000E94E1308C179D070CF0BBCFF2E0F61559
:103A100098F40E940732B5010E94E130F8018083DA
:103A20000E940732209163032695622F70E00E9466
:103A3000E130280FF80121839C9CF0019D9CF00D42
:103A40001124E252FD4F128280916403893C58F0A8
:103A500088EC9C9CF0019D9CF00D1124E252FD4FDE
:103A6000848383838ECF8431A0F784E1F2CF1092D8
:103A70002303089528E0E1E6F3E0DC0101900D92D4
:103A80002A95E1F7209121033091220340912303ED
:103A9000FC012087318742870895E1E2F3E011823B
:103AA0008281846082830895E1E6F3E080818E7FE5
:103AB00080830E944D1DE1E2F3E082818160828378
:103AC0000E94E6180895E1E6F3E020812E7F20832E
:103AD00031814281538164817581868197810E9401
:103AE00064180E944D1DE1E2F3E0828181608283CF
:103AF0000E94E6180895609161036695669570E0EE
:103B00004BE050E087E391E00E941732892B19F4D3
:103B100081E0809322030E947E1290931B03809386
:103B20001A03809123038460809323030895909166
:103B3000610390FF39C09370811137C094609093F6
:103B4000610380912303816080932303662391F0B6
:103B500020916103309162034091630350916403AB
:103B6000609165037091660380916703909168038B
:103B70000E946418609161036695669570E04BE061
:103B800050E087E391E00E941732892BB1F00E9448
:103B90004D1D81E080931D03409164036091630398
:103BA000809162030E94741A08958B3210F0986A13
:103BB000C6CF880F880F982BC2CF0E947B1DE9CFFC
:103BC000682F909161039695969581E0890F8B32CD
:103BD00008F081E00E94971D089581E00E94E01D99
:103BE0000895682F90916103969596958FEF890FB0
:103BF00009F48AE20E94971D089581E00E94F11D58
:103C0000089561E00E94971D0895E1E6F3E0808148
:103C100081608083869586950E94011E089580911B
:103C2000610380FF03C00E94631D08950E94051E6A
:103C3000089560E00E94971D0895809120038111EE
:103C400041C00E9432182093610330936203409375
:103C500063035093640360936503709366038093DA
:103C60006703909368038091230383608093230309
:103C70002C7FA1F40E948A180E94321820936103BD
:103C8000309362034093630350936403609365032E
:103C90007093660380936703909368030E942318D0
:103CA0000E944D1DE0910202F0910302099580915E
:103CB000610380FF04C0869586950E94191E81E0ED
:103CC0008093200308951F93CF93DF93EC01162F69
:103CD0008A8580FF0DC0888180FF25C080916103A7
:103CE0008160809361038881869586950E94971DE7
:103CF0008A8581FF06C0212F4B816A8189810E94BC
:103D000087198A8582FF05C08985882379F00E94FA
:103D10007B1D8A8583FF03C081E080931D03DF91B3
:103D2000CF911F9108950E94541DE2CF0E944D1D16
:103D3000F0CFEF92FF920F931F93CF93DF93809179
:103D40002203882309F464C080912103E091610378
:103D5000E695E695E81BE0931C03823009F05DC010
:103D6000F0E0E357FC4FE491CE2FD0E008E419E1F6
:103D700080911D03882361F010921D030E947E1222
:103D800090931B0380931A0310921F0310921E033B
:103D90000E947E12E0911A03F0911B039C012E1BDE
:103DA0003F0B2F3F3F47A0F52091DD022223B1F0CA
:103DB0001092DD022091DB023091DC02821B930B1A
:103DC0008F3F9F4758F4205D3A483093DC022093A0
:103DD000DB0280912303886080932303E0901E031D
:103DE000F0901F03EC0FFD1FF0931B03E0931A03E9
:103DF0008AE193E0F801099580911E0390911F03D9
:103E0000892B31F4E114F10419F081E08093DD0293
:103E1000CDB7DEB7E6E00C947631863049F4F0E0B9
:103E2000E657FC4FE491CE2FD0E00CE519E1A0CF8E
:103E3000893051F4E695F0E0E957FC4FE491CE2F3C
:103E4000D0E008E71AE194CF8F3051F4E695F0E026
:103E5000EC57FC4FE491CE2FD0E00CEA1AE188CF6A
:103E6000853149F4F0E0EF57FC4FE491CE2FD0E0DC
:103E70000BE31BE17DCFC8E2D0E002EC1BE188310F
:103E800009F476CF833239F4EFE7F3E0C591D491AA
:103E90000CE619E16DCFC4EFD1E00DE31CE18432F3
:103EA00009F466CFC0EDD7E009EF17E1853209F0DC
:103EB0005FCF8E2F63E00E94B330E92FF0E0E4582B
:103EC000FC4FE491CE2FD0E004E71CE151CF0895E0
:103ED0000E94991E0895809169038170089586E07B
:103EE00090E00E943A320895682F86E090E00E94A8
:103EF0005E3208958DE3809369030E94741F0895D4
:103F00008091690386958695869508950E946F1F16
:103F10008093690382FF0E947A1F80916903803435
:103F200020F0877088638093690390916903892FDB
:103F3000817090FF04C0892F8695869586950E9492
:103F40008720089580916903982F96959695969568
:103F5000973040F49F5F990F990F990F8770892BC5
:103F600080936903809169038160809369030E9453
:103F7000741F809169038695869586950E94872097
:103F8000089580916903982F987F79F088508093E5
:103F90006903887F91E009F490E08091690390FBC8
:103FA00080F9809369030E94741F8091690386954C
:103FB000869586950E94872008958091690380FDEB
:103FC00013C0816080936903813019F489E0809384
:103FD0006903809169030E94741F8091690386952B
:103FE000869586950E94872008958091690380FFB9
:103FF00008C08E7F809369030E94741F80E00E9436
:10400000872008958091690380FF03C00E94F51FF7
:1040100008950E94DD1F089590916903892F869568
:10402000869586958F5F8F7197708830E0F4880F42
:10403000880F880F892B8093690380916903887F9B
:1040400091E009F490E08091690390FB80F98093FE
:1040500069030E94741F80916903869586958695F1
:104060000E948720089590936903E7CF883008F075
:1040700087E0909169039770282F220F220F220F5B
:10408000922B90936903987F21E009F420E09091AE
:10409000690320FB90F9909369030E94872008959B
:1040A0000E943620809169030E94741F08959C012C
:1040B000FB018581882349F12230F8E73F07F9F0B9
:1040C00040F42115E8E73E0769F02130384779F0E0
:1040D0000895243098E7390779F058F025303847AB
:1040E00089F0089587E00E94502080E0089580E0E4
:1040F000FACF0E94C11FF9CF0E94A21FF6CF0E94E3
:104100000220F3CF0E940C20F0CF81E008958F921F
:104110009F92AF92BF92EF92FF920F931F93CF9314
:10412000DF938830B0F5811135C0909180009F7782
:1041300090938000A0918600B0918700282F30E0F6
:104140000E94253127E030E040E050E00E94F53049
:1041500089019A0180918600909187006CE070E05F
:104160000E94CD3060177107C8F0C80169E070E0A7
:104170000E94CD307093890060938800DF91CF91C9
:104180001F910F91FF90EF90BF90AF909F908F90F5
:10419000089587E0909180009068CACF8091860052
:1041A00090918700E0908600F0908700E091860073
:1041B000F0918700C6E0D0E0BE010E94CD30060F2E
:1041C000171F211D311D4801590185E0880C991CDC
:1041D000AA1CBB1C8A95D1F7C701BE010E94CD3035
:1041E0009F0150E040E0260F371F411D511DC501C2
:1041F000B4010E94F53049015A01E0918600F09126
:104200008700CA01B9010E94A3309B01AC01DF0104
:104210000E943B319B01AC01C501B4010E94A33057
:104220002FE096958795779567952A95D1F7009118
:1042300086001091870030E020E006171707280756
:10424000390708F097CF609186007091870092CF70
:104250000895259A2D9882E88093800089E18093C3
:1042600081008FEF9FEF90938700809386000E94DC
:10427000861F0895249A0895FC01EE0FFF1FE80F92
:10428000F91FE659FC4F6183408322830895EAE6D3
:10429000F3E0818360834283339693E0EE38F9073D
:1042A000C1F7089535B13F7E25B120614FB7F8942D
:1042B0008AE693E0FC015191CF0168E025B9000046
:1042C00000C057FF35B9550F000000C000C000C046
:1042D00035B900C06A9591F7F3E08E389F0751F722
:1042E0004FBF8FE594E00197F1F700C000000895FB
:1042F0000895FC01680F791F8FEF91E3E617F70728
:1043000009F408952191822728E030E087FF06C054
:10431000880F892721503109C9F7F0CF880FFACFCC
:10432000CF93DF93EB0186319C4711F50E947D0D01
:104330009D81992399F08A7A91E009F490E0909315
:104340002403811109C089E20E9491260E940C0E6B
:1043500080E0DF91CF91089585E3F6CF809124032B
:10436000811104C089E20E949926F0CF85E3FBCF3A
:1043700081E0EFCFCF93DF93EC01FB0185818823B0
:1043800009F4D2C09E0130572332310508F0B2C083
:104390000E94920E9093460380934503FE01E150E4
:1043A000F047E232F10520F4E653FD4C0C9417314E
:1043B0008091450381608093450393C080914603BB
:1043C0008860809346038DC0809145038260F3CF5F
:1043D000809145038460EFCF809145038860EBCFE7
:1043E000809146038160EDCF809146038260E9CFE2
:1043F000809145038061DFCF809145038062DBCFF0
:10440000809145038064D7CF0E94010980914503C4
:104410008068D1CF809145038C60CDCF80914603D9
:104420008360CFCF809145038E7FC5CF80914603B7
:10443000877FC7CF809145038D7FBDCF8091450396
:104440008B7FB9CF80914503877FB5CF809146039D
:104450008E7FB7CF809146038D7FB3CF8091450388
:104460008F7EA9CF809145038F7DA5CF8091450395
:104470008F7BA1CF0E940109809145038F779BCF4D
:1044800080914503837F97CF809146038C7F99CF9E
:104490008091450382FB992790F921E0922790FBB8
:1044A00082F990FB83F987CF80914603982F9095EE
:1044B00091708E7F892B90FB81F983CF909145037A
:1044C000892F8F7B96FF806476CF0E94010990919F
:1044D0004503892F97FB87F980586DCF81E00E94B3
:1044E000100F80914503909146030E94970E0E9401
:1044F000010980E0DF91CF91089580E0F0CF9091A5
:104500004503892F8F7E94FF806155CF909145039D
:10451000892F8E7F90FF81604ECF90914603892F27
:10452000877F93FF88604DCF81E0E4CF282F35EB64
:104530002303C001112497FF04C080589109892FDB
:10454000089580589F4FFBCF80912B0380FF0DC0B3
:104550006091470170E0660F771F6038710570F554
:104560006115710569F1862F089581FF07C060917B
:10457000470184E0689FB0011124EFCF60914701AB
:1045800082FD0AC080912A038823A9F02091460168
:1045900060914701821710F088E0ECCF869FC00140
:1045A000112433E0880F991F3A95E1F7622F70E0EC
:1045B0000E94E130D2CF68E070E0D5CF8FE7089558
:1045C00081E0089580912B0380FF0CC0609143012E
:1045D00070E075956795759567956115710549F159
:1045E000862F089581FF06C06091430170E07595A4
:1045F0006795F3CF6091430182FD0BC09091290331
:104600009923A1F06091420180914301961738F0FF
:10461000682F70E06038710500F38FE70895899F77
:10462000C001112470E00E94E130F4CF61E070E03D
:10463000D7CF81E008958D3C31F40E94A42281956A
:1046400080932F0308958E3C19F40E94A422F8CF82
:104650008F3C31F40E94A422819580932E0308950B
:10466000803D19F40E94A422F8CF893D29F40E94CC
:10467000E2228093300308958A3D21F40E94E222D1
:104680008195F7CF8B3D31F40E94E2228195809392
:10469000310308958C3D19F40E94E222F8CF9FE285
:1046A000980F983070F4815D990B21E030E001C0E3
:1046B000220F8A95EAF780912D03822B80932D0398
:1046C00008958D3D31F480912B03816080932B03FD
:1046D00008958E3D21F480912B038260F7CF8F3DAA
:1046E000B9F780912B038460F1CF40912E038D3C6C
:1046F00059F480912F0387FF0DC010922F034111B1
:104700000BC010922A0308C08E3C81F480912F03C5
:1047100018169CF3442381F080913003909131036B
:10472000892B09F05AC01092290308958F3C49F44F
:1047300047FFF0CF10922E0380912F038111ECCF11
:10474000E0CF803D19F41416ACF3E4CF9091300320
:10475000893D29F41916F4F610923003DBCF8A3D17
:1047600019F497FFD7CFF8CF909131038B3D29F4FF
:1047700097FFD0CF10923103CDCF8C3D19F419168D
:10478000CCF3C8CF9FE2980F983090F4815D990BDD
:1047900021E030E0B90102C0660F771F8A95E2F789
:1047A000CB01809590912D03892380932D03B2CF67
:1047B0008D3D31F480912B038E7F80932B03AACF04
:1047C0008E3D21F480912B038D7FF7CF8F3D09F033
:1047D000A1CF80912B038B7FF0CF08950E94E52716
:1047E0009C0190912E0380912F03982B21F0309300
:1047F0002803209327039091300380913103982B55
:1048000021F030932603209325038CE293E00E944D
:10481000E925089586E0ECE2F3E0DF011D928A9538
:10482000E9F710922A031092290310922B0308959E
:10483000FC01828181110EC0838181110BC08481B2
:10484000811108C091E08581811101C090E0892F1C
:104850008170089581E0FCCFA6E0B0E0E2E3F4E2ED
:104860000C945D3186E0ECE2F3E0DE0111960190FC
:104870000D928A95E1F710922E0310922F03109259
:104880003003109231038B819C81892B89F08091B8
:104890002703909128030E946327AC0190912A037B
:1048A0009923C9F1809148018417150608F440C086
:1048B0008D819E81892B91F0809125039091260313
:1048C0000E946327AC0190912903992309F46AC0DF
:1048D000809144018417150608F472C0BE016F5F11
:1048E0007F4F8CE293E00E94AC26811105C08CE2E0
:1048F00093E00E94182481110E94EE2386E0FE01BD
:104900003196ACE2B3E001900D928A95E1F72696DC
:10491000E3E00C947931209149018AE0289F9001CD
:1049200011242417350720F69F5F90932A0302C0B5
:104930009F3FD1F71B81112359F00E94A4229FEFC2
:1049400011160CF491E0899F802D112480932E0381
:104950001C81112359F00E94A4229FEF11160CF420
:1049600091E0899F802D112480932F0380912E0345
:10497000882309F49DCF10912F03112309F498CFB8
:104980000E949622882351F080932E03812F0E944B
:104990009622882329F080932F038ACF81E0F4CFD9
:1049A00081E0F9CF209145018AE0289F90011124F0
:1049B0002417350708F092CF9F5F9093290302C018
:1049C0009F3FD1F71D81112359F00E94E2229FEFF2
:1049D00011160CF491E0899F802D112480933003EF
:1049E0001E81112359F00E94E2229FEF11160CF450
:1049F00091E0899F802D11248093310380913003B1
:104A0000882309F46BCF10913103112309F466CF89
:104A10000E949622882351F080933003812F0E94B8
:104A20009622882329F08093310358CF81E0F4CF78
:104A300081E0F9CF0F931F93CF93DF93C42FD22F31
:104A4000FC0185818823C9F0409334030E94E52747
:104A5000909333038093320380E28C0F883040F4CC
:104A6000C77081E001C0880FCA95EAF70E94AC06C2
:104A7000DF91CF911F910F9108951091340314137A
:104A800032C080913203909133030E946327883CA7
:104A9000910548F5C0E2CD0F1D17B9F080E2810FF6
:104AA000883040F4177081E001C0880F1A95EAF74A
:104AB0000E94B306C83048F481E09D2F977001C072
:104AC000880F9A95EAF70E94AC06802F0E94A306F1
:104AD000C83070F6D77081E001C0880FDA95EAF728
:104AE0000E94B306C5CF80E28C0F883008F6C770ED
:104AF00081E001C0880FCA95EAF7F2CF0F93DB017E
:104B000088519C4787309105A0F5FC01E451FD4C8C
:104B10000C94173106E221EE41EE6AE17CE7CD010B
:104B20000E941A2580E00F91089507E225EE45EED8
:104B30006BE17CE7F4CF06E221EE40EE68E17CE732
:104B4000EECF07E225EE44EE69E17CE7E8CF06E22E
:104B500021EE42EE6CE17CE7E2CF07E225EE46EE85
:104B60006DE17CE7DCCF08E221E045EE6EE17CE719
:104B7000D6CF15968C91882319F010923403D3CF99
:104B800081E0D1CF90933B0380933A0308950E9434
:104B90005F14811103C0809135030895E0913A03B9
:104BA000F0913B03309729F00190F081E02D0995B9
:104BB000089580E008950E94C7250895E0913A0382
:104BC000F0913B03309721F00280F381E02D0995AD
:104BD0000895E0913A03F0913B03309739F022E0D9
:104BE000DC012C930680F781E02D09950895A3E060
:104BF000B0E0EDEFF5E20C945E3120913803309196
:104C0000390328173907A1F09093390380933803AB
:104C1000E0913A03F0913B03309751F023E0298370
:104C20009B838A830084F185E02DCE01019609954E
:104C30002396E2E00C947A31A3E0B0E0E2E2F6E2FF
:104C40000C945E31209136033091370328173907D1
:104C5000A1F09093370380933603E0913A03F091EB
:104C60003B03309751F024E029839B838A8300849F
:104C7000F185E02DCE01019609952396E2E00C9492
:104C80007A3140910401509105019A012E5F3F4F06
:104C9000485F5F4F80E02417350709F40895F90154
:104CA00091919F019923B9F38F5FF5CF882371F01C
:104CB0002091040130910501F9013296285F3F4FA0
:104CC0009191981729F0E217F307D1F780E0089542
:104CD00081E008959C01FC0132969FEF80E04191B4
:104CE000461751F09F3F19F4411101C0982F8F5F73
:104CF0008630A9F79F3F09F40895290F311D97FDCC
:104D00003A95F90162830895FC0132960896219143
:104D1000261303C0DF0111971C92E817F907B9F7B2
:104D20000895682F80910401909105010E946A26E0
:104D30000895682F80910401909105010E948426B6
:104D40000895E0910401F0910501329686E0DF01BB
:104D50001D928A95E9F70895DC01FB0111969C915B
:104D600011978181981322C012968C9112978823F3
:104D700019F0928189131AC013968C911397882386
:104D800019F09381891312C015968C911597882379
:104D900019F0958189130AC014969C91992321F0EA
:104DA00081E02481291303C080E001C081E081708B
:104DB000089508950E94D926089581110EC081E0BA
:104DC00080934D0160914A0170914B0180914C019B
:104DD00090914D010E94DA26089582E0F1CF83E0A0
:104DE00080934D0160914A0170914B0180914C017B
:104DF00090914D010E94DA2608950E94DD260895C3
:104E000081E080934D0160914A0170914B01809146
:104E10004C0190914D010E94DA2608950E940027CE
:104E2000089591E0811101C090E090934C01609150
:104E30004A0170914B0180914C0190914D010E946B
:104E4000DA26089580914C01089580934B0160917A
:104E50004A0170914B0180914C0190914D010E944B
:104E6000DA26089580914B01089580934A0160915C
:104E70004A0170914B0180914C0190914D010E942B
:104E8000DA26089580914A010895089508950E94B0
:104E900046270895089508950E9445270895CF93C1
:104EA0000E944A270E94CC130E944B27C0E08C2FFF
:104EB0000E94A512811105C0CF5FCA30C1F7CF9102
:104EC000089581E0FCCFCF93DF93EC010E94E527AA
:104ED0008C1B9D0BDF91CF910895CF92DF92EF92C3
:104EE000FF926B017C010E94F1276C197D098E09EC
:104EF0009F09FF90EF90DF90CF90089585B780686D
:104F000085BF85B7806885BF08951F921FB61F9221
:104F100011248F939F93AF93BF9380913C03811192
:104F200013C080918E0390918F03A0919003B09154
:104F300091034196A11DB11D80938E0390938F0321
:104F4000A0939003B0939103BF91AF919F918F91E4
:104F50001F901FBE1F90189580919603843031F1E9
:104F60000E94150510923C0388E190E020E40FB602
:104F7000F894A895809360000FBE2093600083B7DB
:104F8000817F846083BF83B7816083BF7894889575
:104F900083B78E7F83BF0FB6F894A8958091600089
:104FA000886180936000109260000FBE08950E9497
:104FB00001090E941F05089582E084BD93E095BD1C
:104FC0009AEF97BD80936E0008952FB7F894809163
:104FD0008E0390918F03A0919003B09191032FBF06
:104FE00008952FB7F89460918E0370918F0380918C
:104FF0009003909191032FBF089578941F921FB64C
:105000001F9211248F939F93AF93BF9380918E0330
:1050100090918F03A0919003B09191030196A11DEF
:10502000B11D80938E0390938F03A0939003B09350
:105030009103BF91AF919F918F911F901FBE1F90C1
:10504000189581E08093E00080E28093D800109270
:10505000C9008FE19EE40197F1F700C0000087E0EE
:1050600090EBDC0180939F039093A003A093A10396
:10507000B093A20388E19CE00FB6F894A8958093C2
:1050800060000FBE90936000FFCF88E19CE00FB6F8
:10509000F894A895809360000FBE90936000FFCFB6
:1050A0008EE1489B02C08150E1F7489BFECF0895F6
:1050B000589880E28A95F1F7589A0895FC013BE0F0
:1050C0003A95F1F798E020E080E031E040E14A9540
:1050D000F1F7880F489B02C08160232742E04A9580
:1050E000F1F7000040E14A95F1F7915079F790E12E
:1050F0009A95F1F799B132E03A95F1F7000040E165
:105100004A95F1F7917092272081920F908308952C
:10511000A1E0B0E0EEE8F8E20C945A3119828C017B
:105120007C01E60EF11C0E151F0541F481E099810A
:10513000911180E02196E6E00C9476310E9450288F
:10514000CE0101960E945E28F80181938F01EBCF7A
:10515000509A589A08955098589AE89AE9E6F0E0DB
:1051600080818C7F808308956150770B91E001C02E
:10517000990F6A95EAF720E031E0911108C02223E7
:1051800091F0589A80E28A95F1F758980895492F3E
:10519000482339F0589A232740E24A95F1F796952B
:1051A000ECCF5898F9CF5898EDCFFF920F931F93FB
:1051B000CF93DF93EC018C01060F111DC017D107AF
:1051C00029F4CDB7DEB7E5E00C947731F9900E9471
:1051D000582868E08F2D0E94B428F0CF1F920F92BC
:1051E0000FB60F9211240F931F932F933F934F935A
:1051F0005F936F937F938F939F93AF93BF93EF933F
:10520000FF93CF93DF930F92CDB7DEB719820E9441
:105210005028CE0101960E945E28082F069506951B
:105220000695282F22952570902F9570290F922F83
:10523000937026952695920F982797708981982BC1
:1052400009F05CC0063008F059C080E18A95F1F79A
:10525000589A509A82E08A95F1F700C0589888E0F1
:10526000089F80011124D801A95FBE4F1696ED91C9
:10527000FC9117973097A9F06091D5017091D601F4
:1052800014962D913C911597260F371F11968D91ED
:105290009C911297680F791F13964C9113978C91DC
:1052A0000995F801E95FFE4F6381662351F0209173
:1052B000D5013091D60184819581820F931F0E9480
:1052C000D5280E94582880E18A95F1F7589850987F
:1052D000589A80E18A95F1F7F801E95FFE4F608105
:1052E000662351F02091D5013091D60181819281C0
:1052F000820F931F0E9488280E9450280F90DF91F0
:10530000CF91FF91EF91BF91AF919F918F917F913D
:105310006F915F914F913F912F911F910F910F903E
:105320000FBE0F901F9018950F931F93CF93DF938D
:10533000EC0106970CF04CC0F894509A589885E010
:105340008A95F1F700009C2F969595708C2F8570AB
:10535000980F892F83709695969523E0CC0FDD1FCB
:105360002A95E1F7980F8E01092B0E94582800C05A
:1053700068E0802F0E94B42880E18A95F1F7509868
:10538000589A489B1EC087E090E048991CC0FE01D7
:10539000E95FFE4F63816623F9F02091D5013091DA
:1053A000D60184819581820F931F0E9488288111E4
:1053B00013C0509A589A7894DF91CF911F910F9112
:1053C000089500C0DECF019729F4509A589A789436
:1053D00080E0F2CF00C0D9CF0E94502880E28A95A9
:1053E000F1F75898509A80E18A95F1F7C95FDE4F3E
:1053F0006881662351F02091D5013091D6018981D1
:105400009A81820F931F0E94D5280E945828789471
:1054100081E0D2CF08959B01BA0190919603943018
:10542000E9F48F708093E9009FEF8091E80091503C
:1054300085FD06C085ED8A95F1F700009111F5CF45
:105440008091E80085FF0AC050E040E0C9010E9459
:105450000A2C8091E8008E778093E800089543E05D
:1054600050E0BC0182E00E940B2A089546E050E023
:10547000BC0182E00E940B2A0895CF93DF93EC01D8
:105480000E94222748E050E0BE0181E00E940B2AE2
:1054900088E0FE01ADE3B3E001900D928A95E1F75B
:1054A000DF91CF91089580919503811109C00E94E9
:1054B0009A2D0E94F72D8091E20084608093E20093
:1054C00008951092950308950E94002781E00E949C
:1054D000112708956091920381E0611101C080E07D
:1054E0000E94EF2608959091960381E0943009F090
:1054F00080E0609192030E94FD26089542E061ECF5
:1055000081E00E94162D42E261EC82E00E94162D9D
:105510009091960381E0943009F080E060919203CD
:105520000E94DD26089580919803833009F461C0BC
:1055300030F48130D1F1823009F49EC008958A3070
:1055400009F48AC08B3009F46FC0893009F050C06B
:1055500080919703813209F04BC080919B03909119
:105560009C03029708F044C08091E800877F8093F5
:10557000E8008091E80082FF37C09091F3008091AD
:10558000F200029731F48091F100813011F0863001
:1055900021F48091F1000E9425278091E8008B770B
:1055A0008093E8000E944A2D23C080919703813A9E
:1055B000F9F48091E800877F8093E80080919B0355
:1055C00090919C03892B61F468E08DE393E070E097
:1055D0000E94592C8091E8008B778093E800089511
:1055E00060E090E080E0F3CF809196038111C1CF1D
:1055F000089580919703813AD9F780919B03909108
:105600009C03892BA9F78091E800877F8093E800AD
:105610008091E80080FFFCCF0E9422278093F10058
:105620008091E8008E77BCCF80919703813201F79B
:1056300080919B0390919C03892BD1F68091E80087
:10564000877F8093E8000E944A2D809199030E94F1
:1056500011270E940109089580919703813241F634
:105660008091E800877F8093E8000E944A2D809116
:105670009A030E943527089580919703813A09F093
:10568000B7CF8091E800877F8093E8008091E800A1
:1056900080FFFCCF0E944227C1CF84B7877F84BFA1
:1056A0000FB6F894A895809160008861809360009F
:1056B000109260000FBE80E890E00FB6F8948093DF
:1056C0006100909361000FBE0E940E2708950E9412
:1056D0009A2D0E94F72DE2EEF0E0808184608083B5
:1056E00078940E94763008958EE491E00E94C2255D
:1056F000089580919603853031F48091960385302A
:1057000019F00E94D72708950E94AC270E944F27C6
:10571000882399F380919403882379F30E94F42BD2
:105720000E940109EACF08959A0140919D0350918A
:105730009E030E949C2B0895492F55274330510505
:1057400019F168F44130510509F444C04230510563
:1057500009F445C090E080E050E040E025C04132CF
:10576000510549F142325105A9F784E490E042E93C
:1057700056E061157105C1F08BE790E047E156E016
:105780006130710589F0E6CF99278130910581F06C
:10579000009729F00297F1F6E6E9F5E002C0E6ECA1
:1057A000F5E0849190E0AF01F901518340830895C1
:1057B000E6EBF5E0F6CF89E090E04CED55E06115C1
:1057C000710591F389E090E045EF55E06130710596
:1057D00059F3C0CF82E190E045E056E0E5CF8BE39E
:1057E00090E04AEC55E0E0CF80E189BD82E189BDDF
:1057F00009B400FEFDCF8091D8008F7D8093D80042
:105800008091E00082608093E0008091E00081FD63
:10581000FCCF0895AF92BF92CF92DF92FF920F9389
:105820001F93CF93DF936C01EB018A010E94692DD6
:10583000F82E811123C00115110539F0F80180817E
:105840009181C81BD90BC80ED91EB12CA12C209751
:10585000A9F08091E80085FD22C08091E8008E7754
:105860008093E80001151105A1F0F8018081918174
:10587000A80EB91EB182A08285E0F82E8F2DDF918F
:10588000CF911F910F91FF90DF90CF90BF90AF907D
:1058900008950E94692D8823D1F2F82EEFCFF601EA
:1058A00081916F018093F1002197FFEFAF1ABF0A3A
:1058B000CECFFC0180919D0390919E0386179707A0
:1058C000A0F06115710529F49091E8009E779093FE
:1058D000E80090E06115710551F4911108C08091C4
:1058E000E80082FF34C080E00895BC01F2CF8091CF
:1058F00096038823C1F18530C1F18091E80083FDD2
:1059000030C08091E80082FDEACF8091E80080FFFE
:10591000E1CF8091F3002091F200382F61157105DD
:1059200019F02830310558F091E02830310509F0A0
:1059300090E02091E8002E772093E800CBCF819172
:105940008093F100615071092F5F3F4FE7CF809145
:105950009603882341F0853041F08091E80083FF71
:10596000BECF81E0089582E0089583E00895FC01B0
:1059700080919D0390919E0386179707A0F0611573
:10598000710529F48091E8008E778093E80090E01B
:105990006115710551F4911108C08091E80082FFF2
:1059A00035C080E00895BC01F2CF80919603882332
:1059B000C9F18530C9F18091E80083FD31C0809143
:1059C000E80082FDEACF8091E80080FFE1CF80917E
:1059D000F3002091F200382F6115710519F028307D
:1059E000310558F091E02830310509F090E08091C0
:1059F000E8008E778093E800CBCF84918093F1000C
:105A00003196615071092F5F3F4FE6CF8091960329
:105A1000882341F0853041F08091E80083FFBDCFBD
:105A200081E0089582E0089583E00895982F9730EB
:105A300028F08F708093E90081E008959093E90049
:105A4000242F762F50E0981731F07091EC002091C0
:105A5000ED005091F00021FD02C09F5FE8CF309132
:105A6000EB003E7F3093EB003091ED003D7F3093B3
:105A7000ED003091EB0031603093EB007093EC005F
:105A80002093ED005093F0002091EE0027FDE5CF2C
:105A900080E008958091970387FF13C08091E8000C
:105AA00082FF06C08091E8008B778093E80004C0F5
:105AB000809196038111F2CF0895809196038823F7
:105AC000D9F38091E80080FFF8CF8091E8008E77CD
:105AD000ECCF2091E4003091E50095E6A9012091FA
