:100000006AC300000C9482269EC300009CC30000BB
:100010009AC3000098C3000096C3000094C3000078
:1000200092C3000090C300000C94682B0C94352CF4
:100030000C941E2588C3000086C3000084C3000002
:1000400082C3000080C300007EC300007CC30000A8
:100050007AC300000C94952576C3000074C3000099
:1000600072C3000070C300006EC300006CC30000C8
:100070006AC3000068C3000066C3000064C30000D8
:1000800062C3000060C300005EC300005CC30000E8
:100090005AC3000058C3000056C3000054C30000F8
:1000A00052C3000050C300004EC300002B001400D8
:1000B0001A00080015001700294404001600070064
:1000C00009000A0039001D001B0006001900050088
:1000D000E201E100E208E000E200E30000000000CD
:1000E00000000000000000001C0018000C001200BE
:1000F00013002A000B000D000E000F003300340027
:100100001100100036003700380035002C00235253
:1001100024522800E5004C00000000000000000010
:1001200000000000010014001A00090013000A007A
:1001300001000400150016001700070001001D0053
:100140001B0006001900050001000100010001006C
:10015000010001000000000000000000000000009D
:100160000D000F0018001C00330001000B001100EF
:1001700008000C00120034000E001000360037009A
:100180003800010001000100010001000100010030
:10019000000000000000000000000000010001005D
:1001A0000100010001000100010001000100010047
:1001B0000100010001000100010001000100010037
:1001C000010001000100E3000100E0000000000068
:1001D000000000000000000001000100010001001B
:1001E0000100010001000100010001000100010007
:1001F00001000100010001000100010001000100F7
:1002000001000100010001000000000000000000EA
:100210000000000035001E001F0020002100220009
:1002200001001E021F0220022102220201002302FD
:10023000240225022602270201000100010001001C
:1002400001000100000000000000000000000000AC
:1002500023002400250026002700010031002D0086
:100260002E002F003000310236023702010001005B
:100270000100010001000100010001000100010076
:1002800000000000000000000000000001003A0033
:100290003B003C003D003E000100440045000100E1
:1002A0004600AB0001004052415262526552AC0020
:1002B000007C0100010001000100010000000000BD
:1002C00000000000000000003F004000410042002C
:1002D00043000100A9005000510052004F000100EE
:1002E000AA004A004E004B004D000100AE00010084
:1002F0000100E40001000100000000000000000017
:1003000000000000000002780578000000000000F6
:1003100001000000000000000000000000000000DC
:1003200000000000010000000000000000000000CC
:1003300000000000000000000000000000000000BD
:1003400020782B782C782D780000000021782378F5
:10035000257827782978000022782478267828784C
:100360002A780000000001000100000000000000E9
:100370000000000000000000000000001E0F05004B
:10038000047F3F1F643214643214783C1E1E140A2A
:10039000052223252628292A2C2D2F3032333536C5
:1003A000383A3B3D3E4042434547494A4C4E505106
:1003B000535557595A5C5E6062646668696B6D6F2D
:1003C00071737577797B7D7F81838587898A8C8E30
:1003D00090929496989A9C9E9FA1A3A5A7A8AAAC38
:1003E000AEAFB1B3B4B6B8B9BBBCBEBFC1C2C3C572
:1003F000C6C7C9CACBCCCDCED0D1D2D2D3D4D5D614
:10040000D7D7D8D9D9DADADBDBDBDCDCDCDCDCDD46
:10041000DDDDDDDCDCDCDCDCDBDBDBDADAD9D9D82A
:10042000D7D7D6D5D4D3D2D2D1D0CECDCCCBCAC9C2
:10043000C7C6C5C3C2C1BFBEBCBBB9B8B6B4B3B1F1
:10044000AFAEACAAA8A7A5A3A19F9E9C9A9896948C
:1004500092908E8C8A89878583817F7D7B79777561
:1004600073716F6D6B6968666462605E5C5A595740
:10047000555351504E4C4A4947454342403E3D3BFF
:100480003A3836353332302F2D2C2A292826252389
:1004900022FFAA7F55400001010101010101010174
:1004A0000202020202020202020303030303030325
:1004B00003040404040404040505050505060606F2
:1004C0000606070707070708080808090909090AAF
:1004D0000A0A0B0B0B0C0C0C0D0D0D0E0E0E0F0F54
:1004E0000F101011111112121313141415151616E2
:1004F0001717181819191A1A1B1B1C1D1D1E1E1F51
:100500002020212222232424252626272829292A9F
:100510002B2C2D2D2E2F30313232333435363738C7
:10052000393A3B3C3D3E3F404142434445464748C3
:10053000494A4C4D4E4F50515354555658595A5B99
:100540005D5E5F616264656668696B6C6D6F707239
:10055000737577787A7B7D7E8082838587888A8CA5
:100560008E8F91939596989A9C9EA0A2A3A5A7A9D9
:10057000ABADAFB1B3B5B7BABCBEC0C2C4C6C9CBD0
:10058000CDCFD1D4D6D8DBDDDFE2E4E7E9EBEEF086
:10059000F3F5F8FAFDFF1E034E00790071007500B7
:1005A00069007300740020005200650076002E0080
:1005B0002000330000000E034B0065006500620060
:1005C00069006F0000000403090409023B000201F6
:1005D00000A0FA0904000001030101000921110132
:1005E00000012244000705810308000109040100FD
:1005F0000103000000092111010001227B00070511
:100600008203200001120100020000000810CB56F6
:100610003100030102000105010902A1018502095F
:1006200001A1000509190129081500250195087582
:100630000181020501093009311581257F95027577
:1006400008810609381581257F9501750881060501
:100650000C0A38021581257F950175088106C0C0F6
:1006600005010980A101850319012AB7001501269A
:10067000B700950175108100C0050C0901A1018525
:100680000419012AA002150126A002950175108106
:1006900000C005010906A101050719E029E71500B9
:1006A00025019508750181029501750881010507ED
:1006B000190029FF150026FF009506750881000521
:1006C0000819012905150025019505750191029567
:1006D0000175039101C011241FBECFEFDAE0DEBF28
:1006E000CDBF04B603FE18C080919F039091A00374
:1006F000A091A103B091A2038730904BA740B04BCB
:1007000059F410929F031092A0031092A10310922B
:10071000A203E0E0F8E3099512E0A0E0B1E0EEE129
:10072000F0E602C005900D92AA30B107D9F723E098
:10073000AAE0B2E001C01D92AF39B207E1F70E9412
:1007400000160C94C32F5CCC0E94B41D85E00E945F
:10075000211E0E94131C4FEF6FEF80E00E94B5181E
:100760008BE00E94111C60E070E0CB010E94BC0D88
:100770000C94790D8630B8F46A30A8F4463098F4B9
:1007800050E096E0699F400D511D1124FA019CE351
:10079000899FE00DF11D1124EE0FFF1FE455FF4F5F
:1007A00085919491089581E090E00895E3CF0895B4
:1007B00081E00895FDCF0895FBCF089581E008956D
:1007C000F7CF0895F5CF0895FDCF089508950895C2
:1007D000FDCF089508950895A6E0B0E0E2EFF3E0BC
:1007E0000C94912E49835A839E8330911102898102
:1007F0009A81311117C03E81332389F0222379F089
:10080000A0D5182F682F89819A817AD569817A813C
:10081000812F0E94B40F2696E3E00C94AD2E81D573
:10082000182FF4CF8ED569817A81F3CFFC01262F62
:10083000408151816281738184819581CDCFCF9335
:10084000DF93EC0161E0F2DFBE01B4DF882349F001
:1008500061E0CE01EBDFBE01AFDF8170DF91CF91B0
:10086000089580E0FACF0F931F93CF93DF93EC01AD
:1008700060E0DCDF8C01BE01AADFBE01C801A8DF99
:10088000DF91CF911F910F91089521E030E0A901F0
:1008900002C0440F551F8A95E2F7CA016AC4CF937C
:1008A000C82F81E090E00C2E02C0880F991F0A9497
:1008B000E2F70E94AE0D8C2FE8DFCF91089581E022
:1008C0000895FDCF0895FBCF0895CF93C82F09D485
:1008D0008C2FF7DF8C2FF7DF2FEF84E39CE0215084
:1008E00080409040E1F700C00000CF91089581E082
:1008F000ECDF0C94B92580E0E8DF0C94DD250F9344
:100900001F93CF93DF938C0161E090DFEC01F8013E
:10091000858181110E944A1DB801CE0151DF8111EC
:1009200006C080E0DF91CF911F910F910895B8012B
:10093000CE014ADF8823A9F3B801CE010E94261E0A
:10094000882379F3B801CE010E942623882349F336
:10095000B801CE010E94801F882319F3B801CE018F
:100960000E94581F8823E9F2B801CE010E94161692
:100970008823B9F2B801CE010E94FA10882389F2C7
:10098000F8018581882361F0C330FCE7DF07D9F0E7
:1009900050F4C115ECE7DE07A1F0C130DC47A9F047
:1009A000C8010CDFBFCFCB358CE7D80799F0CC3529
:1009B000ECE7DE0761F0CA35DC4791F70E94750D60
:1009C000EFCF95DFAECF0E94A60D95DFAACF0E9494
:1009D0006D0DE6CF0E94770DE3CFFCDE0E94E6248A
:1009E00080E00E94091E19C00E945E1D18D0F3DE2F
:1009F0000C94EA2481E008950895CF93DF93D82FD3
:100A0000F9DFC82F882311F08D2FF6DF8C2FDF91AF
:100A1000CF9108950895F1CF089580E0FCCF0E9412
:100A20006E23F9CFCF930E946E23C82F80910C02C2
:100A30008C1771F0C0930C020E94892560930D02FF
:100A400070930E0280930F02909310028C2FE3DFBD
:100A5000CF910895ADE0B0E0E0E3F5E00C94922E84
:100A6000488759876A877B878C879D8791118BD7A9
:100A70001F8286E0FE013896DE01119601900D92EC
:100A80008A95E1F78D8181110CC029813A814B81D2
:100A90005C816D817E818F81C6D62D96E2E00C94BB
:100AA000AE2ECE010196CBDE8111EFCFF6CFFC0149
:100AB0002481213019F48081918174C408956623C2
:100AC00021F00E94DD200C94A8210E942F21FBCF51
:100AD000CF93C82F8823B9F08238B9F40E948423B9
:100AE00081FD11C089E30E944324B5D72FEF87EE23
:100AF00093E0215080409040E1F700C0000089E37E
:100B00000E944924A8D7CF910895833899F40E9470
:100B1000842380FDF8CF83E50E9443249CD72FEFE8
:100B200081EE94E0215080409040E1F700C0000049
:100B300083E5E6CF843899F40E94842382FDE3CFD5
:100B400087E40E94432487D72FEF81EE94E0215061
:100B500080409040E1F700C0000087E4D1CF8CEFE7
:100B60008C0F813A68F48C2F0E940824882321F08E
:100B70008C2F0E9449246FD78C2F0E944324C2CF10
:100B800080E28C0F883040F4C77081E001C0880F8C
:100B9000CA95EAF7DBD6B6CFEBE5EC0FE33040F4CD
:100BA000F0E0E257FE4F808190E00E94A523ABCF9A
:100BB000E8E5EC0FEB3150F4F0E0EE0FFF1FE85AE0
:100BC000FE4F808191810E94CC239DCF83E38C0FC7
:100BD000833108F098CF61E08C2F71DF94CF8823A8
:100BE00009F44DC0823861F40E94842381FF47C01C
:100BF00089E30E9443242FD789E30E9449242BC70D
:100C0000833851F40E94842380FF39C083E50E9419
:100C1000432421D783E5F1CF843851F40E94842303
:100C200082FF2DC087E40E94432415D787E4E5CFD7
:100C30009CEF980F913A08F390E2980F983048F49F
:100C4000877091E001C0990F8A95EAF7892F84D6C1
:100C5000D6CF9BE5980F933020F490E080E00C9481
:100C6000A52398E5980F9B3120F490E080E00C9448
:100C7000CC2393E3980F933110F460E020CF0895D4
:100C80001F93CF93DF93182FEB0122DF209731F4CE
:100C9000812FA5DFDF91CF911F9108958FE99FE00C
:100CA0000197F1F700C000002197F0CF70E060E0FD
:100CB000893311F460E570E0E3CF882311F046D664
:100CC000CAC60895882311F047D6C5C60895B0E076
:100CD000A0E0EDE6F6E00C948B2E6C01D62FC72F2A
:100CE000FC011581068102950F7026D6E82E882317
:100CF000E9F0E12E1123D1F08C2F807F803461F058
:100D000080E28D0F8830F8F08C2F807E803221F4C5
:100D1000D230C8F00023B9F08091460382FF13C09F
:100D200082E0B5D609D691E0E82EE926BC2EB29431
:100D30009FE0B922FBE0FB1580F1EB2DF0E0EB53D7
:100D4000F04D0C94512EE12CF1CF0C2F0F70C07F81
:100D500011F00295007F112381F0002349F080E219
:100D60008D0F883010F0D11105C0802FEFD573D6CC
:100D70008D2F40C0802FFAD5FACF8D2F30DF002382
:100D800061F080E28D0F883010F0D11103C0802F08
:100D9000E3D502C0802FF0D55ED6EB2DE850FF0BD7
:100DA000349708F04CC10E946E2335DECDB7DEB714
:100DB000E9E00C94A72E2C2F2F70F22EC07FC032AA
:100DC00019F0F29480EFF822DD2341F0D13081F167
:100DD000112309F439C00023C9F0CACF809146031A
:100DE00082FD10C0112341F0FF2019F08F2DAED5E8
:100DF00032D680E06DDED1CF80E0F1DEFF2069F2F7
:100E00008F2DC6CF112359F0011103C08F2D55DF4F
:100E1000C4CF013009F0C1CF8F2DC9D5BECF01118C
:100E2000BCCF8F2D4FDF8F2DCDD58F2DB2D5B5CF28
:100E3000112321F0063008F0B0CFE8CF053008F0DC
:100E4000ACCF8F2D3FDFA9CF0023D9F3D93349F49D
:100E50003FEF87EE93E0315080409040E1F700C0D3
:100E600000008D2FBCDE99CF8C2F869586958370E0
:100E700069F0813009F091CF8D2F9C2F9370111163
:100E800002C080E090E00E94CC2387CF8D2F9C2F62
:100E90009370111102C080E090E00E94A5237DCFE5
:100EA000612F8D2F0CDE79CF8C2F837081F511117E
:100EB00074CF4D2F429546954770440F440F2D2F08
:100EC0002F7030E0042E02C0220F331F0A94E2F785
:100ED00090E080E0D4FF09C08FE090E002C0880F6E
:100EE000991F4A95E2F780959095C695C695C3706F
:100EF000822B932BC23039F040F4C13011F042D133
:100F00004CCF39D14ACF45D148CF33D146CF869542
:100F1000112311F08C2F8170882309F43ECF4D2FBF
:100F2000429546954770440F440F2D2F2F7030E0A7
:100F3000042E02C0220F331F0A94E2F790E080E0F3
:100F4000D4FF09C08FE090E002C0880F991F4A9536
:100F5000E2F780959095C695C695C370822B932B2A
:100F6000C23039F040F4C13011F067D116CF5ED1F4
:100F700014CF6AD112CF1AD110CFCF70112321F024
:100F80008C2F28D18D2F43CF8D2F9CDE8C2F30D1ED
:100F900004CFD23F39F160F4D03FB9F0D13F81F0B6
:100FA000112309F43CC00111E3CE8C2F8F711EC0B8
:100FB000D33FF1F0D43FA1F78091460382FD20C0DA
:100FC0008C2F8F71112319F311C0112339F00530C3
:100FD00008F0E3CE8C2F8F711BD1DFCE063008F0E6
:100FE000DCCEF8CF8C2F8F711111D1CFF3D0D5CEAD
:100FF000112321F08C2F8F71E3D0CFCEDED0CDCE58
:10100000112329F063E08C2F8F712AD5C6CE81E0A1
:101010003ED5023008F4C1CE82E039D5BECE0023E1
:1010200059F0D93309F01DCFEFEFF7EE23E0E1508F
:10103000F0402040E1F713CF8C2F8F71A8CFEE2026
:1010400009F4B4CE75D480FDB1CEF60115826AD410
:10105000C1D0C60117D066D4CBD0A8CE0F931F93B2
:10106000CF93DF93EC01688179818D81A4D18C01CC
:10107000F2D07ED0B801CE012ADEDF91CF911F9150
:101080000F910895CF93DF93EC018C81882381F039
:10109000CE0135DC81110FC04FD4882349F08D81FA
:1010A000882331F08091460382FF02C082E0EFD4B2
:1010B000DF91CF910895CE01D1DFCE01D4DBF8CFFF
:1010C00090E080E00E94A52390E080E00E94CC2385
:1010D0005AD4C1D40E94C1210C94A8210E944F244B
:1010E000EFCF41D4FBCF92959F70963091F058F49A
:1010F000925F9F70923058F4803F19F030F4883E30
:1011000030F481E008959A5FF4CF843FD1F380E01A
:101110000895883EB0F3813FD1F7F3CFFC012481DD
:10112000222321F0808191813DD1DDCF80E008959F
:10113000A6E0B0E0EEE9F8E00C94922E2696E2E00C
:101140000C94AE2EA7E0B0E0E8EAF8E00C94922E02
:101150002796E2E00C94AE2E0895FECF0895FDCFC1
:101160000895FADFFCDF90933502809334020895EE
:101170000895F7CF08952091340230913502822BE3
:10118000932BEFCF209134023091350282239323A9
:10119000E8CF209134023091350282279327E1CFA6
:1011A000DBCF0895FDCF0895D7CF0895FDDFFADF97
:1011B0009093330280933202089590E080E0F6CF5E
:1011C00021E030E0A90102C0440F551F8A95E2F7E3
:1011D000CA01ECCF21E030E002C0220F331F8A9514
:1011E000E2F78091320290913302822B932BDECF73
:1011F00021E030E002C0220F331F8A95E2F72095EC
:101200003095809132029091330282239323CECF86
:1012100021E030E002C0220F331F8A95E2F780916F
:1012200032029091330282279327C0CF209132025D
:1012300030913302822B932BB9CF2091320230911F
:10124000330282239323B2CF2091320230913302B2
:1012500082279327ABCF0895262F277091E001C0F6
:10126000990F2A95EAF723E0769567952A95E1F795
:10127000660F771F660F771FFA01E60FF71F50E022
:1012800040E0682F70E08191DF0111979B01042EEF
:1012900002C0369527950A94E2F7217021952827F8
:1012A000292328272C934F5F5F4F4430510559F76E
:1012B0000895A82FA77023E0969587952A95E1F7C2
:1012C000880F991F880F991FFB01E80FF91F50E045
:1012D00040E080E0219130E00A2E02C0369527954B
:1012E0000A94E2F721703327042E01C0220F0A94DA
:1012F000EAF7822B4F5F5F4F4430510559F708954D
:10130000262F9A3068F4863058F4682F70E086E013
:10131000989F600D711D112442E152E0822F9CCFF5
:101320000895292F9A3058F4863048F490E062E10D
:1013300072E036E0239F800D911D1124BACF80E02A
:101340000895B0E0A0E0E7EAF9E00C948B2E7C0170
:101350000091320210913302809134029091350253
:10136000082B192BCFE0D0E0CC24C394D12CBC2E79
:10137000C6010C2E02C0880F991F0A94E2F7802341
:101380009123892B49F4219790F7B12C8B2DCDB760
:10139000DEB7E9E00C94A72EB7018C2FF0D50197AA
:1013A00091F3F4CFCF93DF93EC01CBDFBE01E7D510
:1013B000DF91CF9108951F93CF93DF93EB0190912D
:1013C0001102992331F0CB01EDDFDF91CF911F9115
:1013D0000895882351F0CB01B4DF182F682FCE0178
:1013E0008FDFBE01812FCBD5F0CFCB019ADF182F35
:1013F000F8CF1F93CF93DF93C091360217E080910F
:1014000037028C1304C0DF91CF911F910895D0E073
:101410001C9FF0011D9FF00D1124E85CFD4F208101
:101420003181428153816481758186818BDE219671
:10143000C770E5CF20917002309171024091720225
:1014400050917302609174027091750280917602DE
:1014500079CECF93DF9380917602807F09F04BC0E5
:1014600080917502882309F446C0E09136025091BC
:101470003702C0917102D091700260917202709136
:10148000730247E05E17B9F18E2F90E0E49FF00100
:101490001124E85CFD4F2481222381F1489FF00153
:1014A000499FF00D1124DF01A85CBD4F11962C91CE
:1014B00011972C1323C02C912D1320C015962C911D
:1014C000159721111BC012962D913C91261B370BAD
:1014D000283C310598F4809176028F70806180936A
:1014E0007602E25CFD4F80818F708061808380E7AF
:1014F00092E0C8DD7EDFDF91CF910895FC01319647
:10150000E770C0CF482F209136029091370257E004
:10151000291302C080E0089530E0529FF001539FEC
:10152000F00D1124E85CFD4F8181681306C08081B5
:10153000481303C085818111EECF2F5F3F4F277085
:10154000E7CFA4E1B0E0E7EAFAE00C94882E8C0142
:1015500086E0F801DE011F9601900D928A95E1F771
:10156000F8018481E58090E7A92E92E0B92E909150
:10157000740291111AC08823A9F0EE2089F0C801E5
:10158000CDDDF82E882361F087E0F801D5010190C8
:101590000D928A95E1F7C5018ADA5BDF4BDF59C00E
:1015A000C80170DDFF24F39454C0C080D1808280D4
:1015B0009380F09075022091720230917302A40121
:1015C000421B530BFF2009F4E9C0483C510508F0C9
:1015D0009CC0882309F43DC09091710280917602ED
:1015E000282F207F09F056C09D1114C090917002E1
:1015F000C91210C0E11048C08F70806180937602DC
:1016000019DF80E792E03EDD80917602F801868363
:10161000F12C1FC0E11038C06D2D8C2D73DF6D2DA6
:101620008C2D70DFE82E8111F3CFCF86D88A8F857D
:101630009889B8DE292F22952F70243078F49F7076
:101640002230A0F09923B1F0F8019681907F91F4B7
:10165000FE2C8F2D6496ECE00C94A42E2A5F2F7044
:10166000223060F0C8010EDDEF2CF2CF992311F08B
:10167000882371F3805E883058F3F4CF803F40F3C5
:10168000815F833078F7E4CF809176028160809328
:101690007602BECF9D1112C090917002C9120EC089
:1016A000E1100CC08683C801EDDC87E0F801A0E7FB
:1016B000B2E001900D928A95E1F770CFC8012EDD5E
:1016C000882309F46DCFEE2009F46ACF8091760269
:1016D000803280F020917002309171023987288722
:1016E0009B868A86909174029C871D868E87CE0188
:1016F0000896C8DC87E0F801A0E7B2E001900D92FF
:101700008A95E1F7A6DE96DE4DCF90917602292FDD
:10171000207F89F4682D9A8A898AA6017A899E2D6C
:1017200007DD80E792E0AEDC87E0F50111928A9553
:10173000E9F780DE6DCF882309F48BCF80917102A9
:101740008D110FC080917002C8120BC0E11009C04A
:101750009683C80197DC87E0F50111928A95E9F735
:1017600078CFC801DBDC882309F41ACFEE2009F416
:1017700017CF80917602803208F4BCCF209170029E
:10178000309171023A8329839C828B8290917402FA
:101790009D831E828F83CE010196ABCF483C5105BD
:1017A000A8F5882309F4FECEFE2CEE2009F4F8CE2D
:1017B000809171028D111EC080917002C8121AC0F2
:1017C0008091760280FD0DC0982F907F51F0868326
:1017D000903F09F468CF982F907F905F8F70892B8E
:1017E00061CF87E0F801A0E7B2E001900D928A9501
:1017F000E1F72FCFC80192DC81117CCF8091760276
:10180000816080937602C8013DDC23CF682D9A8ADF
:10181000898AA6017A899E2D8BDC87E0F5011192D9
:101820008A95E9F7BBCEAEE0B0E0E9E1FCE00C94CC
:10183000912E288739874A875B876C877D878E87BB
:10184000CE0108967EDE8823A9F06C85662339F0E8
:10185000288539854A855B857D858E8573DC17E013
:10186000809136029091370289133BC02E96E3E0B7
:101870000C94AD2E87E0FE013896DE0111960190A2
:101880000D928A95E1F78C85882349F320913702E0
:1018900030E0C901019687709927409136024817B8
:1018A000190691F097E0929FD001939FB00D1124FB
:1018B000A85CBD4FFE01319601900D929A95E1F71B
:1018C0008093370296DDCBCF0CDC1092370210925A
:1018D000360287E0E0E7F2E0DF011D928A95E9F742
:1018E000BECF819FC0011124885C9D4F2ADE8823D2
:1018F00009F4BCCFE09136021E9FF0011124E85C90
:10190000FD4F2081318142815381648175818681BF
:1019100019DC8091360290E00196877099278093B8
:1019200036029ECF80917F02869586958695089592
:1019300080917F028770089590917F02977081E077
:1019400009F480E0089580918B02089590918B02B4
:10195000892B80938B020895809590918B02982318
:1019600090938B02089510928B02089590918A02B1
:10197000892B80938A020895809590918A029823FA
:1019800090938A02089510928A0208950895FECFD6
:10199000089590918002292F282329F0809589238A
:1019A00080938002F4CF08950895FECF089590911A
:1019B0008102292F2823281721F0982B9093810248
:1019C000F4CF089590918102292F282329F0809542
:1019D000892380938102E9CF089580918102882331
:1019E00021F01092810280E0E0CF08950F931F93C1
:1019F000CF93DF930091040110910501C0918B02F8
:101A000080918A02C82B80918102882329F0C82BFB
:101A10000E94F3238111E1DFF801C083C09104012A
:101A2000D091050148E050E067E772E0CE010E94E6
:101A3000512F892B59F088E0FE01A7E7B2E0019011
:101A40000D928A95E1F7CE010E948623DF91CF9116
:101A50001F910F910895CACF08950895FECF08955C
:101A60009091460392FF0EC098E0899F9001112447
:101A7000622B60937F02AEDB80917F028695869514
:101A80008695ECCFA7CB10927F0280E0E7CF9091B4
:101A90007F028095892380937F02282F277059F435
:101AA000891749F09091460392FF05C08695869567
:101AB00086959EDBE8CF08959091460392FB2227FE
:101AC00020F9281749F080FB92F99093460385E4AA
:101AD00093E048D082E0DBCF08958091460382FBFB
:101AE000882780F991E08927E7CF81E0E5CF80E082
:101AF000E3CF60E070E0CB014EC4A4E0B0E0E3E8E7
:101B0000FDE00C94922E88D393D31C82CE010496D0
:101B1000A6D381E090E09093350280933402ABD35A
:101B20001A8219828A8184618A83CE010196B4D394
:101B30001B82CE010396C2D30E9425170E94A403E4
:101B40002496E2E00C94AE2ED8CF089577C3089582
:101B500064C3089579C3089588C308958CC3089514
:101B60008FC3089599C308959EC30895A7C3089588
:101B7000ABC30895EAC3089508C4089512C4089534
:101B8000A6E0B0E0E6ECFDE00C94902E0E947D25EE
:101B90008C0180918C0290918D028017910781F0C9
:101BA00019821A820E947D25682F49815A81792FD6
:101BB00080E090E00E942A0510938D0200938C0231
:101BC0002696E4E00C94AC2EF2D260939C027093C3
:101BD0009D0280939E0290939F026093980270935F
:101BE000990280939A0290939B0208950895089514
:101BF000FDCF08950895FEDFFBCF0895FECF089531
:101C00000895FEDFFBCF81E0089588EF90E10E9408
:101C10001116EDDFF0CF77C5089508950895089562
:101C2000FCDFFCDFFCCF94DF811101C08DDF80EA97
:101C300092E090DF85E493E093DF8EDF9ADA809183
:101C4000320290913302AECA0E9474258BD25ED5C7
:101C5000ABD4E9DF0E940A050E94F31E0E94401FD8
:101C60000E945E1D0E94231C66D5CBCFA6E0B0E08B
:101C7000ECE3FEE00C94892EC6DF81110EC080DFFC
:101C800042D50E944B1D0E94F21E0E94E3210E9439
:101C900012052696EBE00C94A52EA5D48EE8A82E6E
:101CA00082E0B82E750110E0F70101917F01812FCC
:101CB00083D31F5F1A3009F43DC00817A9F3809140
:101CC000A00281FD7FD3A7DFC82E10E09924939452
:101CD000812F72D3082FF50181915F01081729F137
:101CE000F12CEE24E394D02ED8268D2D8E21A9F050
:101CF000CC2099F0F9821A830E947D259C838B83E6
:101D00009D8291E0802F8E2109F490E049815A81D3
:101D10006B817C818D810E942A05F394EE0CF6E0A4
:101D2000FF12E3CFF501319700831F5F1A3081F670
:101D30004BDFA6CF0813C3CFA2CF1F93CF93DF9360
:101D400020D1EC01C11580E5D807F0F5C11580E47C
:101D5000D80708F09AC0C03ED10520F5CD3CD1058A
:101D600008F082C0C83AD10578F4C53AD10508F028
:101D700073C0C130D10519F1209709F1C430D105E4
:101D8000F0F4D0E0C0E01BC0C33CD105D0F7C85A86
:101D9000D0E0CC0FDD1FCF56DE4F0990D881C02D8B
:101DA000D4640DC0C11580E2D80708F0CDC0C115BC
:101DB00081E0D80708F05AC0C83ED10510F7CE011F
:101DC000DF91CF911F910895C03682E5D80718F5AD
:101DD000C03482E5D80708F068C0C03282E5D80771
:101DE00008F05CC0C11582E5D80708F493C02C2F19
:101DF0002695269580E2289F900111248C2F8370D0
:101E0000C1E0D0E002C0CC0FDD1F8A95E2F7C22B03
:101E1000D32BDD68D4CFC03A82E5D80760F4C03850
:101E200082E5D80708F456C0CF71D0E0DC2FCC276C
:101E3000C46FD06AC4CFC03C82E5D80708F45FC045
:101E4000C03E82E5D80708F09CCFDC2FCC27CC27FA
:101E5000DF71C06FD06AB3CFC55AD0E0C953DE4F2F
:101E6000C881D0E0D064ABCFD065A9CF8D2F2BD166
:101E7000182FCE01992785D0C12FD0E0DC2FCC2799
:101E8000CC27DF71C82BD92B9ACFCE01992779D0D7
:101E9000CC27DF70C82BD92BD06A91CFCF71D0E07F
:101EA000DC2FCC27C16FD06A8ACF2C2F26952695A0
:101EB000277080E2289F900111248C2F8370C1E04D
:101EC000D0E002C0CC0FDD1F8A95E2F7C22BD32BE6
:101ED000DC6875CF2C2F26952695277080E2289FE9
:101EE000900111248C2F8370C1E0D0E002C0CC0F90
:101EF000DD1F8A95E2F7C22BD32BDA6860CF8C2FD7
:101F00008F71E1D0C82FD0E0DC2FCC27CC27DF7138
:101F1000D06255CF8C2F8F71D6D055E0D695C7950E
:101F20005A95E1F7CF70D0E0DC2FCC27282F30E096
:101F300084FF06C044E0220F331F4A95E1F73327A0
:101F4000C22BD32BD0693BCF8D2F8F71BCD0182FD4
:101F5000CE01992716D0C12FD0E0DC2FCC27CC277B
:101F6000DF71C82BD92BD4CF462F7A3028F46630B6
:101F700018F4672F0C94D60390E080E00895F4DF06
:101F8000DCCE82389105B9F1B0F48133910509F4C2
:101F90007DC048F48932910509F46DC08A329105FB
:101FA00009F47BC008958533910509F45FC0893336
:101FB000910509F10895833E9105D9F138F4803EE9
:101FC000910529F1823E910579F10895863E9105AA
:101FD000D9F1873E910509F43EC0843E910541F553
:101FE0002091460321FF24C08091450384FD19C040
:101FF00087EE90E0089520914503237009F05AC0C0
:102000002091460323FF14C089E290E008952091B7
:10201000450320FD38C03091460330FF09C024FF3E
:1020200043C090E080E008952091450322FDF7CF62
:1020300008952091450322FD3AC03091460330FDBA
:1020400039C024FFF5CFEDCF2091450323FFF0CF1A
:1020500024FDE7CFCDCF2091450323FD2EC0309145
:10206000460331FFEECF84EE90E0089520914503C2
:1020700025FFDECFC9CF2091450325FD21C020914A
:10208000460323FFD5CF89E390E0D2CF20914503CB
:1020900026FFCECF8AE290E008952091450326FFE7
:1020A000C7CF81E390E0089583EE90E0089582EE3B
:1020B00090E0089580EE90E0089586EE90E0089517
:1020C00085E390E008959091450392FF10C041E0B0
:1020D000282F2471243009F040E031E0282F2871A6
:1020E000283009F030E0431711F02CE0822793FFED
:1020F00010C041E0282F2471243109F040E031E084
:10210000282F2871283109F030E0431711F02CE016
:1021100082273091460330FF10C051E0282F2171F3
:10212000213009F050E041E0282F2871283009F0D3
:1021300040E0541711F029E0822731FF10C041E040
:10214000282F2171213109F040E031E0282F28713A
:10215000283109F030E0431711F029E0822794FD7F
:10216000877E089510924703109248031092490306
:1021700010924A030895CF92DF92EF92FF926B0183
:102180007C01C1D281110EC00E948925C61AD70ACE
:10219000E80AF90AC0924703D0924803E092490343
:1021A000F0924A03FF90EF90DF90CF9008950F9345
:1021B0001F93A9D2882329F00E9489251F910F918E
:1021C00008950E94892500914703109148032091AA
:1021D000490330914A03600F711F821F931FEECF96
:1021E00092D2882311F00C947D25E1DFCB01089574
:1021F00080E00895CF939C01205E3245C1E02032FB
:10220000310538F4FB01C581C11103C08F710E94F3
:102210004F048C2FCF910895089590E080E00E94A4
:10222000742F21E0833E9E4F09F020E0822F089515
:1022300063EE7EEF90E080E00C94932F6FEF7FEFE2
:1022400090E080E00C94932FCF93DF93EC0182E039
:1022500090E00E94672F8883DF91CF910895FC0161
:10226000608182E090E00C94792F83E090E00E94FE
:10227000672F90E00895682F83E090E00C94792F09
:10228000CF93DF93EC0184E090E00E94742F998358
:102290008883DF91CF910895FC016081718184E092
:1022A00090E00C94932FCF93DF93EC0186E090E0C5
:1022B0000E94672F8883DF91CF910895FC01608190
:1022C00086E090E00C94792F4F925F926F927F920C
:1022D0008F929F92AF92BF920F93CF93DF93EC01B7
:1022E00088E090E00E946F2F2B013C0168835982A7
:1022F0008A837B821C821D821E821F8283E290E081
:102300000E94672F282F30E040E050E060E070E04E
:1023100080E090E000E20E94B92E24293529462968
:102320005729288339834A835B836C837D838E831B
:102330009F83DF91CF910F91BF90AF909F908F902F
:102340007F906F905F904F9008950F93CF93DF939E
:10235000EC01488159816A817B8188E090E00E948C
:102360008B2F288139814A815B816C817D818E81AF
:102370009F8100E20E94D42E622F83E290E00E94AF
:10238000792FDF91CF910F910895AB01BC018FE0C0
:1023900090E00C948B2FAB01BC0183E190E00C9496
:1023A0008B2F682F8EE090E00C94792F0895FECF4C
:1023B00008950895FECF0895E82FF0E0EA5AFC4F03
:1023C00080810895089580EA8A95F1F7089500C004
:1023D0000895F9CF08950895FECF0895A5E0B0E0DF
:1023E000E4EFF1E10C948E2E8ED1F82E6091600313
:1023F000882309F43EC085E0E82E8E010F5F1F4F51
:10240000F8018E2D11928A95E9F7862F90E0B80198
:102410008A5A9C4F9CD18823B1F080914B0390E065
:1024200045E050E0B8018A5A9C4F0E94512F21E0AC
:102430002093A102892B89F4F12CBCDF8F2D2596E6
:10244000E6E00C94AA2E8091A1028823A9F3F8015A
:102450001192EA94E9F71092A102A0914B03B0E027
:10246000AA5ABC4F85E0F80101900D928A95E1F7D8
:10247000E4CF70E06A5A7C4F80914B0390E08A5A17
:102480009C4FEAD1A9DFDACFF894E82FE295EF70FC
:10249000F0E031A1282F2F7081E090E001C0880F7B
:1024A0002A95EAF7982F9095932391A392A1892BCF
:1024B00082A3789408950F931F93CF93DF93C0ED79
:1024C000D1E089918F3F09F0DFDF81E0C53DD8077A
:1024D000C1F7CAECD1E000ED11E089918F3F09F01E
:1024E000D3DF0C171D07C9F7DF91CF911F910F9113
:1024F0000895B0E0A0E0EFE7F2E10C948C2EEC013F
:10250000D62E062F10E0C80180539E4F7C01FC019F
:1025100080818F3F09F441C0F894E82FE295EF7075
:10252000F0E091A18F7021E030E001C0220F8A9588
:10253000EAF7892F822B81A382A12095282322A349
:10254000789445DFEAECF1E031E0C12C21912F3F96
:1025500049F1A22FA295AF70B0E090968C9190E0D7
:102560002F7002C0959587952A95E2F780FD1AC0D5
:10257000832FC82A330F81E0E03DF80739F7F701D0
:1025800080818F3F09F080DF61E0C11001C060E011
:102590008D2D1FDFC00FD11FC882CDB7DEB7E8E099
:1025A0000C94A82E80E0E5CF809106018091060171
:1025B00095E0811190E09093600385E0891B809302
:1025C0004B0379DF8AE0E6E5F3E0DF01982F1D9207
:1025D0009A95E9F7ECE4F3E0DF011D928A95E9F7BB
:1025E00085E03CD0E4CEAAE0B0E0E9EFF2E10C9463
:1025F0008F2E8E010F5F1F4F8AE0F80111928A958E
:10260000E9F7F12C6F2DC80174DFF394F5E0FF12A8
:10261000F9CF4AE050E0B8018CE493E00E94512FDA
:1026200021E0009709F420E0892B41F08AE0F801CD
:10263000ACE4B3E001900D928A95E1F760916003FC
:1026400070E06A5A7C4F45E08CE493E008D0182F84
:10265000C5DE812B2A96E5E00C94AB2E0895B0E000
:10266000A0E0E5E3F3E10C948C2E6C017B01042FD8
:10267000C22F222379F081E08093A4020E947D255D
:102680009093A3028093A20280E0CDB7DEB7E8E08A
:102690000C94A82ED091A402DD23B1F38091A20264
:1026A0009091A3020E94FE24059770F310E0A80108
:1026B000B601C7010E94512F892B31F0A801B60144
:1026C000C7010E945E2FCD2F1092A4028C2FDDCF68
:1026D00055985D988FE891E00197F1F700C00000F0
:1026E00089B185FB882780F90895CF930E94D32D67
:1026F000C82F811102C00E94CF2D8C2FCF91089539
:102700008091A80208958091A7020895EEDF80933A
:10271000A702DEDF8093A802F3DF80930601F0DFDB
:1027200066E0882331F080E05BD3EDDF811144C0A7
:10273000089586E0F9CFE7DF811101C040C0089518
:1027400081E09091A9029A3008F080E008950F93FB
:102750001F93CF93DF93EC018B018091A9028A3004
:10276000B0F4B801CE0176D0C82F811122C080917B
:10277000A9028F3FB9F40E947D259093A602809311
:10278000A5028C2FDF91CF911F910F910895809119
:10279000A5029091A6020E94FE24843F914008F772
:1027A000C0E0EFCF8F5F8093A9028A3020F7C1E0AD
:1027B000E8CF1092A902E5CF0C943E2608950C9420
:1027C00041260895B0E0A0E0E8EEF3E10C948D2EF0
:1027D0007901C82F880FDD0B41155105A9F0FE01C5
:1027E00093E0EE0FFF1F9A95E1F7E95FFE4F8181BD
:1027F000928186559D4F208130E04217530708F49F
:102800009A01A9010E945E2FCE010E942227D82E94
:102810008823D1F001151105B9F083E0CC0FDD1F3D
:102820008A95E1F7FE01E95FFE4F438150E004170E
:10283000150708F4A801C95FDE4F6C817D816655DC
:102840007D4FC7010E945E2F8D2DCDB7DEB7E7E02B
:102850000C94A92E61C1089584C10895A4E0B0E04C
:10286000E4E3F4E10C94902E6091CD027091CE02DD
:102870008091CF029091D0020E94072511E064362A
:1028800071058105910508F192DC6E5F7F4F8F4FD6
:102890009F4F69837A838B839C8310E000E030E054
:1028A00020E044E050E0BE016F5F7F4F82E08ADFAE
:1028B000182F882351F00E9489256093CD027093D0
:1028C000CE028093CF029093D002812F2496E4E031
:1028D0000C94AC2EB0E0A0E0E0E7F4E10C948A2E7A
:1028E000C82F7B01D42F69015801FB0160817181E0
:1028F000828193810E9407256436710581059105C7
:1029000010F4DD23C1F010E000E030E020E0A5018C
:10291000B6018C2F57DFC82F882339F00E948925F4
:10292000F70160837183828393838C2FCDB7DEB7E9
:10293000EAE00C94A62EC1E0F8CFABE0B0E0E3EA09
:10294000F4E10C94902ECE010196C9D641E08B851E
:10295000811101C040E00BE010E09E012F5F3F4F6E
:1029600065ED72E084E0B6DF182F8111B5D6812FB6
:102970002B96E4E00C94AC2EA1E0B0E0E2ECF4E1A4
:102980000C94902E0E944D1D8823C9F00E94581D62
:102990008983E091D501F091D60141E092859813A9
:1029A00001C040E001E010E09E012F5F3F4F61ED6C
:1029B00072E083E08FDF2196E4E00C94AC2E80E09F
:1029C000E7CFB0E0A0E0E7EEF4E10C948A2E7C01C2
:1029D0005B016A01B5DE01E010E0882311F00AE036
:1029E00010E0C1E0D0E0B501C701F6010995811101
:1029F00004C021960C171D072CF4CDB7DEB7EAE012
:102A00000C94A62ECC9F9001CD9F300D300D11243B
:102A100090E080E045E34A95F1F7000001968217C7
:102A20009307C1F7E0CFA6E0B0E0E9E1F5E10C944F
:102A30008A2E7B01C090D501D090D60101E010E034
:102A40009E012A5F3F4F50E040E070E060E080E090
:102A5000B9DE182F882309F447C056018FEFA81A52
:102A6000B80A6091C9027091CA028091CB0290911C
:102A7000CC020E940725643671058105910560F13D
:102A800005E010E09E012F5F3F4F50E040E070E016
:102A900060E081E097DED82E65E070E0C5010E941D
:102AA000411F11E09E81981310E01D2141F10E9409
:102AB00089256093C9027093CA028093CB029093D8
:102AC000CC0285E0FE013196A4ECB2E001900D92BB
:102AD0008A95E1F711E013C065E070E0C5010E943E
:102AE000411F9E818913CCCF85E0F6013196DE012E
:102AF000119601900D928A95E1F71111E2CF85E0D0
:102B0000E4ECF2E0D70101900D928A95E1F7812F74
:102B10002696EAE00C94A62E0F931F93CF93DF9393
:102B2000EC018B0143E155E14CDF811106C080E0EF
:102B3000DF91CF911F910F9108954EE254E1B801BA
:102B4000CE013FDF882399F34CEB54E1B801CE016D
:102B500038DF882361F34DE954E1B801CE0131DF5C
:102B6000E7CFABE0B0E0E7EBF5E10C948C2E009101
:102B7000D5011091D601C801019625E0FB01DC01C9
:102B800001900D922A95E1F765E070E00E94411FE7
:102B9000F80180836681778180859185C090C0022D
:102BA000D090C102E090C202F090C3026C157D0586
:102BB0008E059F0549F06093C0027093C102809317
:102BC000C2029093C302D7DAF80182850E94091EDF
:102BD0008BE0F8013B96DE01119601900D928A95EB
:102BE000E1F7F801158A8B85882321F060E0CE019A
:102BF000019651D62B96E8E00C94A82E37C808957C
:102C00000E9417250E94B62800D80E94CE281CD802
:102C10000E94D7280E94DA28F1DF0E94F02800D80D
:102C2000F9CF90930B0280930A0208950F931F939C
:102C3000CF938C01FB01C581CC2309F43CC00E94D9
:102C4000A30C8272F801E052F847EB30F10530F442
:102C5000EF52F04D0C94512EEED5C0E08C2FCF9159
:102C60001F910F910895882321F0D9D5F6CF88239D
:102C7000E1F3C9D5F2CF882321F041D2EECF8823EA
:102C8000E1F332D2EACF882321F053D2E6CF882372
:102C9000E1F342D2E2CF882321F065D2DECF882350
:102CA000E1F354D2DACF882321F0FFD0D6CF8823A6
:102CB000E1F3EBD0D2CFC1E0D1CFEF92FF920F93EF
:102CC0001F93CF93DF939B01682F31110EC04423D4
:102CD00029F0E82FF0E0EA56FB4F6491762F862F1B
:102CE000CDB7DEB7E6E00C94AA2EC32FD0E0E82FD4
:102CF000F0E0442321F0EA56FB4FE491F0E046E097
:102D0000249FC00111240FEF10E0B8010E94082E8B
:102D1000AB01822F90E0880F991F25E5249FB00119
:102D2000259F700D1124861B970B982F990F980FD4
:102D3000B8016C1B7D0B6E9FD0016F9FB00D7E9F05
:102D4000B00D11248B2F939F90011124232F332733
:102D5000B801621B730B6E9F90016F9F300D7E9FB9
:102D6000300D11247801E91AF108EC9EB001ED9EB6
:102D7000700DFC9E700D1124672F7727061B170B13
:102D80000E9FE0010F9FD00D1E9FD00D11247D2FAF
:102D90009E2F4230510599F048F44115510569F0D4
:102DA0004130510581F07B2F832F07C044305105FE
:102DB00069F080F046305105B1F7692F91CF9B2F14
:102DC0008D2F7E2FFACF7E2F932FF7CF9D2F7B2F26
:102DD0008E2FF3CF732F9B2FFBCF41E06ECF089543
:102DE000E2E3F1E0808361830895F7CF0895909145
:102DF0003201291B922FE0910402F0910502242F49
:102E0000462F682F892F90E009950895CF93DF937F
:102E1000762FE901682F842FE8DF962F672F9E0118
:102E2000482F892FE4DFDF91CF91089580916103CE
:102E3000982F9C7F29F483708460809361030895A8
:102E40008C3AE8F38370886AF8CFE1E6F3E085E036
:102E5000808311828FEF828383831482E1E2F3E027
:102E600082818360828381E693E00C94BA0D909115
:102E70006503933018F49F5F90936503882321F0D6
:102E800081E693E00C94BA0D089581E0F0CF909123
:102E90006503992319F0915090936503882321F0DD
:102EA00081E693E00C94BA0D089581E0F0CF0F9382
:102EB0001F93CF938091610380FF09C0E0910802C6
:102EC000F09109020995CF911F910F910895C0913A
:102ED0003401009104021091050280913501C81758
:102EE00068F7809132019C2F981B892F20E040E0E9
:102EF00060E090E0F8010995CF5FEFCFEF92FF928D
:102F00000F931F93CF93DF93D82F162F042F809109
:102F1000610380FF0BC0C0913401E0900402F09087
:102F2000050280913501C81730F0C1DFCDB7DEB79B
:102F3000E6E00C94AA2E809132019C2F981B892FD9
:102F4000202F412F6D2F90E0F7010995CF5FE9CF3A
:102F5000762F9091610390FF08C0682F842F45DF82
:102F6000962F672F482F892FC9CF0895CF93DF93CE
:102F7000EC01EC81F0E0EF56FC4F4491E1E6F3E028
:102F800062818181E5DF8C818F5F8C83DF91CF91BE
:102F90000895CF93DF93EC01E1E6F3E04381628192
:102FA0008C81D6DF8C818F5F8C83DF91CF910895E8
:102FB000CF93DF93EC01409164039C81892F817052
:102FC00090FD842F692F627091FD642F92FF40E085
:102FD00095DF8C8190E00196877099278C83DF9133
:102FE000CF910895B0E0A0E0E8EFF7E10C948D2ECA
:102FF000D82FF62E142FE22E9091610390FF33C04C
:1030000020916203281308C080916303861304C0D3
:1030100080916403841729F0809123038260809358
:103020002303E92FE695E695AE2FB0E0A952BE4FF7
:103030008C91809321039C7F9430D1F46D2F7F2D50
:10304000812FD3DE962F672F482F892F57DFD093FC
:103050006203F092630310936403EE2021F081E693
:1030600093E00E94BA0DCDB7DEB7E7E00C94A92E2D
:10307000823019F410916403EACF863051F189301F
:1030800041F1893121F7E9518E2F8170D82EE695D3
:10309000F0E0EF56FB4FC49100E060913601061757
:1030A00010F005DFD4CF0C9FC001112470E00E9406
:1030B000082E8D2FD1100BC0860F20913401200FC8
:1030C0003327331F412F6F2DA1DE0F5FE6CF861B05
:1030D000F4CFD22FBCCFE1E6F3E09181282F4381DA
:1030E000628188E0890F7ECF81E0F5CFE1E6F3E0F1
:1030F0009181282F4381628188EF890F73CF81E00E
:10310000F5CFE1E6F3E0628121E1620F08F46FEFB1
:10311000282F4381818166CF81E0F3CFE1E6F3E0A0
:10312000628121E1621B08F460E0282F43818181E4
:1031300059CF81E0F3CFE1E6F3E0438121E1420F93
:1031400008F44FEF282F628181814CCF81E0F3CFCB
:10315000E1E6F3E0438121E1421B08F440E0282F3F
:10316000628181813FCF81E0F3CF21E03BCF20E03E
:1031700039CFEF92FF921F93CF93DF93EC0110E0D2
:10318000EE24EA94F12C60913601161768F08FDE78
:103190009A818C8190FF1DC08F5F8C83DF91CF91CE
:1031A0001F91FF90EF90089520913401210F332754
:1031B000331F70E0C7010E941C2E962F8C81409116
:1031C000640360916303199F800D11241FDE1F5F4C
:1031D000DACF8150E2CFB0E0A0E0E1EFF8E10C946B
:1031E000882EEC018A81BB24BA9480FD02C0BB24E6
:1031F000B3948C8181110AC081E0B81225C08091FE
:10320000360181508093DA0281E08C83A12CE0901A
:103210000402F09005029CE0992E80913601A816D8
:10322000B0F045DE8091DA02F1E0BF1256C08111A4
:103230004FC08091360181508093DA021C82CDB755
:10324000DEB7ECE00C94A42E1092DA02DDCF809170
:10325000340190913201891B8A0D20E040E060E04A
:1032600090E0F701099504E010E0812CCA2CD12CE4
:103270008091DA02880D8D302CF1692D0E94FB2D92
:10328000892F082E000C990BC816D906A9F4209195
:1032900034012C0D3D2D311D80916403809FA001D0
:1032A000819F500D112455954795559547956091EF
:1032B000630380916203AADD8B0C01501109C1F6F2
:1032C000A394ABCF87FFDDCF90913601890FD9CF83
:1032D00081508093DA02BC82B2CF90E00196609177
:1032E000360170E00E941C2E8093DA028C83A7CFF7
:1032F000EF92FF921F93CF93DF93EC018C818111AA
:1033000009C081E08C831092D90292E09093310140
:103310008093300110913401E0900402F090050296
:1033200080913501181770F110E0E0900402F090E0
:10333000050260913601161790F1B9DD80913001D8
:103340002091D902280F2093D90290913101980F32
:1033500090933101191654F4022E000C330B409156
:1033600036014150550B2417350734F08195809371
:103370003001813009F41C82DF91CF911F91FF90C1
:10338000EF90089580913201912F981B892F20E0B2
:1033900040E060E090E0F70109951F5FC1CFE12FA9
:1033A000F0E070E0CF010E941C2E20913401820FCA
:1033B0002091D902022E000C330BE217F3079CF088
:1033C00020913101022E000C330B2E173F075CF0C9
:1033D000282F30E040916403609163038091620381
:1033E00015DD1F5FA6CF90913201891B20E040E0E0
:1033F00060E090E0F7010995F4CFB0E0A0E0E3E0F1
:10340000FAE10C94882EEC014C81042F10E0980115
:10341000D8010E945D2E9B01AC010E94722E4B01CF
:103420005C01E0E2F0E0E01BF10BA5E5B0E0AC01EF
:103430009B010E94722E6B017C019F01DF010E94A3
:10344000572E9B01AC010E947C2E9B01AC01280DE4
:10345000391D4A1D5B1DC701B6010E942F2EF22E99
:10346000822F90E039E23F1518F143E0249F90014C
:10347000112435952795122F109500E085E5E82E4B
:10348000EF1880913601081718F111DD9C8181E059
:10349000992319F0903219F48FEF80932F018091C6
:1034A0002F01890F8C83CDB7DEB7ECE00C94A42EEE
:1034B00025E530E0A901481B590BCA019A01220FEA
:1034C000331F280F391F37FFD4CF2F5F3F4FD1CF86
:1034D0008E2D01FD8F2D20913401200F3327331FB6
:1034E000412F6091630392DC0F5FCBCF0F931F934B
:1034F000CF93DF938C01D0E0C0E0909136019C1710
:103500001D0609F06CF4D3DCF801848190E001968B
:10351000817099278483DF91CF911F910F91089536
:10352000F8014481209134012C0F3D2F311D609111
:1035300063038091620396959C171D0641F03CF051
:10354000442339F04091640361DC2196D6CF4423B3
:10355000C9F340E0F9CFB0E0A0E0E1EBFAE10C9470
:10356000842EFC016280448081E08483E1E9F3E001
:103570007490E0E1F4E0E491C0916403C695C15811
:10358000D0E0CC0FDD1FCD2FDD27812C25E0922E42
:10359000AA24AA94B12C55245A94E719EE2EF12CA2
:1035A00080913601881630F082DCCDB7DEB7E0E1DD
:1035B0000C94A02EC82CD12C82E0861568F09C9C1F
:1035C000F0019D9CF00D1124E252FD4F80916203A9
:1035D000808380916303818341101BC09C9CF00118
:1035E0009D9CF00D1124E252FD4F13821282209116
:1035F00034012C0D3D2D311D9C9CF0019D9CF00D46
:103600001124E252FD4F428161818081FFDB83946E
:10361000C7CF9C9C80019D9C100D112402521D4F10
:10362000F80183818823F1F081508383859DC00157
:103630001124648170E00E94082EFB01FF27EF56E1
:10364000FC4F8491E82FE719E59DC0011124B701D3
:103650000E94082E80916403689FB0011124F80134
:103660007283C5CF0E94362FB5010E941C2E8C1785
:103670009D070CF0BCCFF2E0F61598F40E94362FAF
:10368000B5010E941C2EF80180830E94362F2091E4
:1036900063032695622F70E00E941C2E280FF8010C
:1036A00021839C9CF0019D9CF00D1124E252FD4F62
:1036B000128280916403893C58F088EC9C9CF00154
:1036C0009D9CF00D1124E252FD4F848383838FCFA4
:1036D0008431A0F784E1F2CF10922303089528E00B
:1036E000E1E6F3E0DC0101900D922A95E1F72091EB
:1036F00021033091220340912303FC01208731876D
:1037000042870895E1E2F3E011828281846082833E
:103710000895E1E6F3E080818E7F8083F3DFE1E2CC
:10372000F3E0828181608283C2CBE1E6F3E08081B5
:103730008E7F8083CF010E94BA0DE4DFE1E2F3E0E7
:10374000828181608283B3CB6091610366956695C7
:1037500070E04BE050E087E391E00E94442F892B1A
:1037600019F481E0809322030E94F01090931B03D0
:1037700080931A0380912303846080932303089528
:103780009091610390FF29C09370811127C09460CC
:1037900090936103809123038160809323036623C8
:1037A00021F081E693E00E94BA0D60916103669575
:1037B000669570E04BE050E087E391E00E94442F73
:1037C000892BA1F09FDF81E080931D03409164036A
:1037D0006091630380916203CACC08958B3210F02C
:1037E000986AD6CF880F880F982BD2CFADDFEBCF5A
:1037F000682F909161039695969581E0890F8B32A1
:1038000008F081E0BDCF81E0F3CF682F9091610394
:10381000969596958FEF890F09F48AE2B1CF81E0F2
:10382000F4CF61E0ADCFE1E6F3E080818160808399
:1038300086958695F6CF8091610380FF01C075CF94
:10384000F2CF60E09DCF80912003811123C081E6FB
:1038500093E00E94B80D809123038360809323033B
:10386000809161038C7F29F4F0DA81E693E00E9475
:10387000B80DDCDA47DFE0910202F091030209950E
:103880008091610380FF03C086958695DADF81E031
:103890008093200308951F93CF93DF93EC01162F9D
:1038A0008A8580FF0CC0888180FF22C080916103DF
:1038B00081608093610388818695869561DF8A8522
:1038C00081FF05C0212F4B816A8189818BDB8A852D
:1038D00082FF04C08985882369F036DF8A8583FFEB
:1038E00003C081E080931D03DF91CF911F91089564
:1038F00010DFE5CF07DFF2CFEF92FF920F931F9318
:10390000CF93DF9380912203882309F464C08091D0
:103910002103E0916103E695E695E81BE0931C0323
:10392000823009F05DC0F0E0E357FC4FE491CE2F08
:10393000D0E006EB17E180911D03882361F010921F
:103940001D030E94F01090931B0380931A031092A2
:103950001F0310921E030E94F010E0911A03F091D1
:103960001B039C012E1B3F0B2F3F3F47A0F52091CF
:10397000DD022223B1F01092DD022091DB023091B2
:10398000DC02821B930B8F3F9F4758F4205D3A481F
:103990003093DC022093DB028091230388608093C4
:1039A0002303E0901E03F0901F03EC0FFD1FF09324
:1039B0001B03E0931A038AE193E0F80109958091D3
:1039C0001E0390911F03892B31F4E114F10419F0C7
:1039D00081E08093DD02CDB7DEB7E6E00C94AA2E3D
:1039E000863049F4F0E0E657FC4FE491CE2FD0E06A
:1039F00009EC17E1A0CF893051F4E695F0E0E957E2
:103A0000FC4FE491CE2FD0E009EB18E194CF8F303A
:103A100051F4E695F0E0EC57FC4FE491CE2FD0E066
:103A20000BEE18E188CF853149F4F0E0EF57FC4FF9
:103A3000E491CE2FD0E008E719E17DCFC8E2D0E0D5
:103A40000DEF19E1883109F476CF833239F4EFE7CD
:103A5000F3E0C591D49108ED17E16DCFC4EFD1E04B
:103A600006E71AE1843209F466CFC0EDD7E00FEE25
:103A700016E1853209F05FCF8E2F63E00E94EF2DB3
:103A8000E92FF0E0E458FC4FE491CE2FD0E00BEAB0
:103A90001AE151CF089530CF089580916903817064
:103AA00008958DE38093690389E693E00C94B60D45
:103AB00080916903869586958695089589E693E0B9
:103AC0000E94B40D8091690382FFEBDF809169034E
:103AD000803420F087708863809369039091690334
:103AE000892F817090FF04C0892F869586958695D1
:103AF000D8C080916903982F9695969596959730A2
:103B000040F49F5F990F990F990F8770892B8093CD
:103B100069038091690381608093690389E693E07A
:103B20000E94B60D80916903869586958695B9C0E9
:103B300080916903982F987F89F08850809369035A
:103B4000887F91E009F490E08091690390FB80F90F
:103B50008093690389E693E00E94B60D8091690322
:103B60008695869586959DC08091690380FD12C0DB
:103B7000816080936903813019F489E0809369033F
:103B800089E693E00E94B60D80916903869586953B
:103B9000869587C008958091690380FF09C08E7F54
:103BA0008093690389E693E00E94B60D80E079C0B6
:103BB00008958091690380FF01C0EDCFD5CF90912A
:103BC0006903892F8695869586958F5F8F7197708B
:103BD0008830E0F4880F880F880F892B8093690361
:103BE00080916903887F91E009F490E080916903F6
:103BF00090FB80F98093690389E693E00E94B60DFB
:103C0000809169038695869586954BC0909369034C
:103C1000E7CF883008F087E0909169039770282FEC
:103C2000220F220F220F922B90936903987F21E09D
:103C300009F420E09091690320FB90F990936903C7
:103C400030C0E7DF89E693E00C94B60D9C01FB01E0
:103C50008581882321F12230F8E73F07E1F040F425
:103C60002115E8E73E0769F02130384771F00895E3
:103C7000243098E7390769F050F02530384769F06B
:103C8000089587E0DEDF80E0089580E0FBCF50DF1D
:103C9000FACF2FDFF8CF8DDFF6CF91DFF4CF81E0C1
:103CA00008958F929F92AF92BF92EF92FF920F93DF
:103CB0001F93CF93DF938830B0F5811135C0909179
:103CC00080009F7790938000A0918600B09187003C
:103CD000282F30E00E945D2E27E030E040E050E0E9
:103CE0000E942F2E89019A01809186009091870071
:103CF0006CE070E00E94082E60177107C8F0C801E0
:103D000069E070E00E94082E70938900609388003B
:103D1000DF91CF911F910F91FF90EF90BF90AF90E7
:103D20009F908F90089587E0909180009068CACF0F
:103D30008091860090918700E0908600F090870047
:103D4000E0918600F0918700C6E0D0E0BE010E94BD
:103D5000082E060F171F211D311D4801590185E04E
:103D6000880C991CAA1CBB1C8A95D1F7C701BE01FF
:103D70000E94082E9F0150E040E0260F371F411D92
:103D8000511DC501B4010E942F2E49015A01E09135
:103D90008600F0918700CA01B9010E94E02D9B01C5
:103DA000AC01DF010E94722E9B01AC01C501B40180
:103DB0000E94E02D2FE096958795779567952A9537
:103DC000D1F7009186001091870030E020E00617BF
:103DD00017072807390708F097CF60918600709180
:103DE000870092CF0895259A2D9882E880938000CD
:103DF00089E1809381008FEF9FEF909387008093FC
:103E000086005CCE249A0895FC01EE0FFF1FE80F98
:103E1000F91FE659FC4F6183408322830895EAE647
:103E2000F3E0818360834283339693E0EE38F907B1
:103E3000C1F7089535B13F7E25B120614FB7F894A1
:103E40008AE693E0FC015191CF0168E025B90000BA
:103E500000C057FF35B9550F000000C000C000C0BA
:103E600035B900C06A9591F7F3E08E389F0751F796
:103E70004FBF8FE594E00197F1F700C0000008956F
:103E80000895FC01680F791F8FEF91E3E617F7079C
:103E900009F408952191822728E030E087FF06C0C9
:103EA000880F892721503109C9F7F0CF880FFACF41
:103EB000CF93DF93EB0186319C4701F50E94A30C61
:103EC0009D81992391F08A7A91E009F490E0909392
:103ED0002403811108C089E2D6D40E942B0D80E012
:103EE000DF91CF91089585E3F7CF8091240381116D
:103EF00003C089E2CED4F1CF85E3FCCF81E0F0CFDF
:103F0000CF93DF93EC01FB018581882309F4CEC0B8
:103F10009E0130572332310508F0AEC085E493E0AE
:103F20000E94B00DFE01E150F047E232F10520F4AD
:103F3000E452F04D0C94512E8091450381608093A2
:103F4000450393C0809146038860809346038DC0EB
:103F5000809145038260F3CF809145038460EFCF69
:103F6000809145038860EBCF809146038160EDCF5F
:103F7000809146038260E9CF809145038061DFCF65
:103F8000809145038062DBCF809145038064D7CF69
:103F90000E947108809145038068D1CF80914503CC
:103FA0008C60CDCF809146038360CFCF8091450355
:103FB0008E7FC5CF80914603877FC7CF8091450311
:103FC0008D7FBDCF809145038B7FB9CF8091450315
:103FD000877FB5CF809146038E7FB7CF8091460310
:103FE0008D7FB3CF809145038F7EA9CF809145030C
:103FF0008F7DA5CF809145038F7BA1CF0E94710853
:10400000809145038F779BCF80914503837F97CF26
:10401000809146038C7F99CF8091450382FB99273D
:1040200090F921E0922790FB82F990FB83F987CFEA
:1040300080914603982F909591708E7F892B90FBED
:1040400081F983CF90914503892F8F7B96FF806400
:1040500076CF0E94710890914503892F97FB87F9CD
:1040600080586DCF81E00E94BE0D85E493E00E94F0
:10407000B20D0E94710880E0DF91CF91089580E039
:10408000F2CF90914503892F8F7E94FF806157CFA7
:1040900090914503892F8E7F90FF816050CF909142
:1040A0004603892F877F93FF88604FCF81E0E4CF5D
:1040B000282F35EB2303C001112497FF04C080583B
:1040C0009109892F089580589F4FFBCF80912B0332
:1040D00080FF0DC06091470170E0660F771F603868
:1040E000710570F56115710569F1862F089581FFDD
:1040F00007C06091470184E0689FB0011124EFCFB1
:104100006091470182FD0AC080912A038823A9F0AB
:104110002091460160914701821710F088E0ECCFB2
:10412000869FC001112433E0880F991F3A95E1F76B
:10413000622F70E00E941C2ED2CF68E070E0D5CFD5
:104140008FE7089581E0089580912B0380FF0CC0D4
:104150006091430170E07595679575956795611558
:10416000710549F1862F089581FF06C060914301D2
:1041700070E075956795F3CF6091430182FD0BC0A8
:10418000909129039923A1F060914201809143010C
:10419000961738F0682F70E06038710500F38FE7EC
:1041A0000895899FC001112470E00E941C2EF4CF55
:1041B00061E070E0D7CF81E008958D3C29F486DF7F
:1041C000819580932F0308958E3C11F47FDFF9CF02
:1041D0008F3C29F47BDF819580932E030895803DE9
:1041E00011F474DFF9CF893D21F4AEDF8093300301
:1041F00008958A3D19F4A8DF8195F8CF8B3D29F405
:10420000A3DF81958093310308958C3D11F49CDFE9
:10421000F9CF9FE2980F983070F4815D990B21E0FF
:1042200030E001C0220F8A95EAF780912D03822B9E
:1042300080932D0308958D3D31F480912B0381608F
:1042400080932B0308958E3D21F480912B0382608F
:10425000F7CF8F3DB9F780912B038460F1CF409168
:104260002E038D3C59F480912F0387FF0DC01092CF
:104270002F0341110BC010922A0308C08E3C81F419
:1042800080912F0318169CF3442381F08091300312
:1042900090913103892B09F05AC010922903089597
:1042A0008F3C49F447FFF0CF10922E0380912F03EB
:1042B0008111ECCFE0CF803D19F41416ACF3E4CFBC
:1042C00090913003893D29F41916F4F610923003C9
:1042D000DBCF8A3D19F497FFD7CFF8CF9091310308
:1042E0008B3D29F497FFD0CF10923103CDCF8C3D79
:1042F00019F41916CCF3C8CF9FE2980F983090F4B8
:10430000815D990B21E030E0B90102C0660F771F93
:104310008A95E2F7CB01809590912D0389238093B4
:104320002D03B2CF8D3D31F480912B038E7F80938E
:104330002B03AACF8E3D21F480912B038D7FF7CFE5
:104340008F3D09F0A1CF80912B038B7FF0CF089593
:10435000D4D39C0190912E0380912F03982B21F0B0
:1043600030932803209327039091300380913103E9
:10437000982B21F030932603209325038CE293E0C1
:10438000D2C186E0ECE2F3E0DF011D928A95E9F705
:1043900010922A031092290310922B030895FC0116
:1043A000828181110EC0838181110BC084818111B2
:1043B00008C091E08581811101C090E0892F817052
:1043C000089581E0FCCFA6E0B0E0E9EEF1E20C94C4
:1043D000912E86E0ECE2F3E0DE01119601900D9261
:1043E0008A95E1F710922E0310922F03109230035A
:1043F000109231038B819C81892B81F0809127035E
:1044000090912803FBD2AC0190912A039923A9F142
:10441000809148018417150608F43CC08D819E8167
:10442000892B89F08091250390912603E7D2AC0176
:1044300090912903992309F463C080914401841762
:10444000150608F46BC0BE016F5F7F4F8CE293E0EE
:1044500031D2811104C08CE293E0A1DF811178DFB9
:1044600086E0FE013196ACE2B3E001900D928A95B0
:10447000E1F72696E3E00C94AD2E209149018AE005
:10448000289F900111242417350740F69F5F9093D1
:104490002A0302C09F3FD1F71B81112351F016DE82
:1044A0009FEF11160CF491E0899F802D11248093C9
:1044B0002E031C81112351F009DE9FEF11160CF41D
:1044C00091E0899F802D112480932F0380912E03EA
:1044D000882309F4A3CF10912F03112309F49ECF51
:1044E000E7DD882349F080932E03812FE1DD8823C7
:1044F00029F080932F0392CF81E0F5CF81E0F9CFAF
:10450000209145018AE0289F900111242417350746
:1045100008F099CF9F5F9093290302C09F3FD1F786
:104520001D81112351F010DE9FEF11160CF491E064
:10453000899F802D1124809330031E81112351F017
:1045400003DE9FEF11160CF491E0899F802D11245A
:104550008093310380913003882309F474CF109144
:104560003103112309F46FCFA3DD882349F0809331
:104570003003812F9DDD882329F08093310363CFA1
:1045800081E0F5CF81E0F9CF0F931F93CF93DF93B5
:10459000C42FD22FFC0185818823C1F040933403BE
:1045A000ACD2909333038093320380E28C0F883037
:1045B00040F4C77081E001C0880FCA95EAF70E94F5
:1045C0005D06DF91CF911F910F91089510913403F3
:1045D000141331C080913203909133030FD2883C81
:1045E000910548F5C0E2CD0F1D17B9F080E2810FAB
:1045F000883040F4177081E001C0880F1A95EAF7FF
:104600000E946206C83048F481E09D2F977001C077
:10461000880F9A95EAF70E945D06802F0E94560641
:10462000C83078F6D77081E001C0880FDA95EAF7D4
:104630000E946206C6CF80E28C0F883010F6C770E9
:1046400081E001C0880FCA95EAF7F2CF0F93DB0132
:1046500088519C478730910598F5FC01E250F04D58
:104660000C94512E06E221EE41EE6AE17CE7CD0189
:104670008BDF80E00F91089507E225EE45EE6BE1B8
:104680007CE7F5CF06E221EE40EE68E17CE7EFCF74
:1046900007E225EE44EE69E17CE7E9CF06E221EE90
:1046A00042EE6CE17CE7E3CF07E225EE46EE6DE1FA
:1046B0007CE7DDCF08E221E045EE6EE17CE7D7CF75
:1046C00015968C91882319F010923403D3CF81E092
:1046D000D1CF90933B0380933A0308950E948313B4
:1046E000811103C0809135030895E0913A03F09160
:1046F0003B03309739F00190F081E02D309711F0B5
:104700000995089580E00895E9CF0895E0913A036E
:10471000F0913B03309731F00280F381E02D309728
:1047200009F009950895E0913A03F0913B03309721
:1047300059F026813781232B39F022E0DC012C93BC
:104740000680F781E02D09950895A3E0B0E0EBEA3B
:10475000F3E20C94922E20913803309139032817FC
:104760003907B1F09093390380933803E0913A030D
:10477000F0913B03309761F00084F185E02D309794
:1047800039F023E029839B838A83CE010196099522
:104790002396E2E00C94AE2EA3E0B0E0E2EDF3E26B
:1047A0000C94922E20913603309137032817390745
:1047B000B1F09093370380933603E0913A03F09180
:1047C0003B03309761F00084F185E02D309739F09C
:1047D00024E029839B838A83CE0101960995239641
:1047E000E2E00C94AE2E40910401509105019A0133
:1047F0002E5F3F4F485F5F4F80E02417350709F475
:104800000895F90191919F019923B9F38F5FF5CF35
:10481000882371F02091040130910501F90132964D
:10482000285F3F4F9191981729F0E217F307D1F7CE
:1048300080E0089581E008959C01FC0132969FEF8D
:1048400080E04191461751F09F3F19F4411101C09A
:10485000982F8F5F8630A9F79F3F09F40895290F9D
:10486000311D97FD3A95F90162830895FC01329656
:1048700008962191261303C0DF0111971C92E817B7
:10488000F907B9F70895682F809104019091050107
:10489000D3CF682F8091040190910501E7CFE0917B
:1048A0000401F0910501329686E0DF011D928A95A0
:1048B000E9F70895DC01FB0111969C911197818124
:1048C000981322C012968C911297882319F0928126
:1048D00089131AC013968C911397882319F093812A
:1048E000891312C015968C911597882319F095811C
:1048F00089130AC014969C91992321F081E02481A8
:10490000291303C080E001C081E0817008950895FB
:10491000FECF089581110CC081E080934D0160911C
:104920004A0170914B0180914C0190914D01F0CF63
:1049300082E0F3CF83E080934D0160914A01709152
:104940004B0180914C0190914D01E2CFE3CF08954E
:1049500081E080934D0160914A0170914B018091FB
:104960004C0190914D01D4CFF3CF089591E0811186
:1049700001C090E090934C0160914A0170914B010D
:1049800080914C0190914D01C3CF80914C010895CD
:1049900080934B0160914A0170914B0180914C01D1
:1049A00090914D01B5CF80914B01089580934A01BC
:1049B00060914A0170914B0180914C0190914D01A1
:1049C000A7CF80914A01089508950895FECF0895D4
:1049D00008950895F9CF0895CF93FADF0E94F31256
:1049E000F8DFC0E08C2F0E94DC11811105C0CF5F81
:1049F000CA30C1F7CF91089581E0FCCFCF93DF9308
:104A0000EC017BD08C1B9D0BDF91CF910895CF9251
:104A1000DF92EF92FF926B017C017BD06C197D09D4
:104A20008E099F09FF90EF90DF90CF90089585B792
:104A3000806885BF85B7806885BF08951F921FB6BF
:104A40001F9211248F939F93AF93BF9380913C0348
:104A5000811113C080918E0390918F03A0919003D8
:104A6000B09191034196A11DB11D80938E03909347
:104A70008F03A0939003B0939103BF91AF919F9147
:104A80008F911F901FBE1F901895809196038430C0
:104A900031F10E94ED0410923C0388E190E020E4A3
:104AA0000FB6F894A895809360000FBE2093600025
:104AB00083B7817F846083BF83B7816083BF78942D
:104AC000889583B78E7F83BF0FB6F894A8958091A1
:104AD0006000886180936000109260000FBE0895AE
:104AE0000E9471080C94F40482E084BD93E095BDAB
:104AF0009AEF97BD80936E0008952FB7F894809138
:104B00008E0390918F03A0919003B09191032FBFDA
:104B100008952FB7F89460918E0370918F03809160
:104B20009003909191032FBF089578941F921FB620
:104B30001F9211248F939F93AF93BF9380918E0305
:104B400090918F03A0919003B09191030196A11DC4
:104B5000B11D80938E0390938F03A0939003B09325
:104B60009103BF91AF919F918F911F901FBE1F9096
:104B7000189581E08093E00080E28093D800109245
:104B8000C9008FE19EE40197F1F700C0000087E0C3
:104B900090EBDC0180939F039093A003A093A1036B
:104BA000B093A20388E19CE00FB6F894A895809397
:104BB00060000FBE90936000FFCF88E19CE00FB6CD
:104BC000F894A895809360000FBE90936000FFCF8B
:104BD0008EE1489B02C08150E1F7489BFECF0895CB
:104BE000589880E28A95F1F7589A0895FC013BE0C5
:104BF0003A95F1F798E020E080E031E040E14A9515
:104C0000F1F7880F489B02C08160232742E04A9554
:104C1000F1F7000040E14A95F1F7915079F790E102
:104C20009A95F1F799B132E03A95F1F7000040E139
:104C30004A95F1F7917092272081920F9083089501
:104C4000A1E0B0E0E6E2F6E20C948E2E19828C012F
:104C50007C01E60EF11C0E151F0541F481E09981DF
:104C6000911180E02196E6E00C94AA2EB1DFCE01EE
:104C70000196BCDFF80181938F01EDCF509A589ACD
:104C800008955098589AE89AE9E6F0E080818C7F80
:104C9000808308956150770B91E001C0990F6A9568
:104CA000EAF720E031E0911108C0222391F0589AF0
:104CB00080E28A95F1F758980895492F482339F0F2
:104CC000589A232740E24A95F1F79695ECCF5898E9
:104CD000F9CF5898EDCFFF920F931F93CF93DF93A7
:104CE000EC018C01060F111DC017D10729F4CDB7B7
:104CF000DEB7E5E00C94AB2EF99072DF68E08F2D03
:104D0000C9DFF2CF1F920F920FB60F9211240F93AB
:104D10001F932F933F934F935F936F937F938F9343
:104D20009F93AF93BF93EF93FF93CF93DF930F9234
:104D3000CDB7DEB719824CDFCE01019657DF082FC1
:104D4000069506950695282F22952570902F95702B
:104D5000290F922F937026952695920F982797707A
:104D60008981982B09F058C0063008F055C080E1C1
:104D70008A95F1F7589A509A82E08A95F1F700C027
:104D8000589888E0089F80011124D801A95FBE4F80
:104D90001696ED91FC9117973097A9F06091D50187
:104DA0007091D60114962D913C911597260F371FBF
:104DB00011968D919C911297680F791F13964C91C3
:104DC00013978C910995F801E95FFE4F6381662383
:104DD00049F02091D5013091D60184819581820FCF
:104DE000931F79DFFDDE80E18A95F1F7589850989E
:104DF000589A80E18A95F1F7F801E95FFE4F6081EA
:104E0000662349F02091D5013091D60181819281AC
:104E1000820F931F15DFDCDE0F90DF91CF91FF91A2
:104E2000EF91BF91AF919F918F917F916F915F9122
:104E30004F913F912F911F910F910F900FBE0F90A7
:104E40001F9018950F931F93CF93DF93EC01069754
:104E50000CF049C0F894509A589885E08A95F1F77B
:104E600000009C2F969595708C2F8570980F892F38
:104E700083709695969523E0CC0FDD1F2A95E1F778
:104E8000980F8E01092BACDE00C068E0802F02DF96
:104E900080E18A95F1F75098589A489B1DC087E0A9
:104EA00090E048991BC0FE01E95FFE4F63816623D5
:104EB000F1F02091D5013091D60184819581820F46
:104EC000931FBEDE811113C0509A589A7894DF91D7
:104ED000CF911F910F91089500C0DFCF019729F462
:104EE000509A589A789480E0F2CF00C0DACF70DE02
:104EF00080E28A95F1F75898509A80E18A95F1F707
:104F0000C95FDE4F6881662349F02091D501309159
:104F1000D60189819A81820F931FDDDE61DE78944C
:104F200081E0D5CF08959B01BA019091960394300A
:104F3000E1F48F708093E9009FEF8091E800915039
:104F400085FD06C085ED8A95F1F700009111F5CF3A
:104F50008091E80085FF09C050E040E0C901B5D16B
:104F60008091E8008E778093E800089543E050E058
:104F7000BC0182E0D8CF46E050E0BC0182E0D3CF54
:104F8000CF93DF93EC0101DD48E050E0BE0181E00A
:104F9000CADF88E0FE01ADE3B3E001900D928A958F
:104FA000E1F7DF91CF91089580919503811107C0BA
:104FB0001AD371D38091E20084608093E200089557
:104FC000109295030895C4DC81E0D0CC60919203E7
:104FD00081E0611101C080E0ADCC9091960381E049
:104FE000943009F080E060919203B0CC42E061EC33
:104FF00081E075D242E261EC82E071D29091960339
:1050000081E0943009F080E06091920383CC80913C
:105010009803833009F45EC030F48130C1F18230EE
:1050200009F494C008958A3009F483C08B3009F4E0
:105030006BC0893009F04DC080919703813209F02F
:1050400048C080919B0390919C03029708F041C057
:105050008091E800877F8093E8008091E80082FFDC
:1050600034C09091F3008091F200029731F4809166
:10507000F100813011F0863019F48091F10088DC64
:105080008091E8008B778093E8005DD222C0809108
:105090009703813AF1F48091E800877F8093E800DC
:1050A00080919B0390919C03892B59F468E08DE3D8
:1050B00093E070E057D18091E8008B778093E8000F
:1050C000089560E090E080E0F4CF80919603811134
:1050D000C4CF089580919703813AD9F780919B03BB
:1050E00090919C03892BA9F78091E800877F80939A
:1050F000E8008091E80080FFFCCF47DC8093F1005E
:105100008091E8008E77BFCF80919703813209F7B5
:1051100080919B0390919C03892BD9F68091E800A4
:10512000877F8093E8000FD2809199031FDC0C9455
:10513000710880919703813261F68091E800877F42
:105140008093E80000D280919A0330CC809197033D
:10515000813A09F0BECF8091E800877F8093E80014
:105160008091E80080FFFCCF2CDCC8CF84B7877F1C
:1051700084BF0FB6F894A8958091600088618093F1
:105180006000109260000FBE80E890E00FB6F894C7
:1051900080936100909361000FBEE6CB24D27BD256
:1051A000E2EEF0E08081846080837894DEC48EE457
:1051B00091E08FCA80919603853029F480919603FF
:1051C000853011F08DCC089560DC06DC8823B1F3C6
:1051D00080919403882391F362D00E947108EECFEE
:1051E00008959A0140919D0350919E0300C0492F5C
:1051F00055274330510519F168F44130510509F440
:1052000044C04230510509F445C090E080E050E0D0
:1052100040E025C04132510549F142325105A9F71C
:1052200084E490E042E956E061157105C1F08BE736
:1052300090E047E156E06130710589F0E6CF9927AB
:105240008130910581F0009729F00297F1F6E6E9A7
:10525000F5E002C0E6ECF5E0849190E0AF01F901E1
:10526000518340830895E6EBF5E0F6CF89E090E0C6
:105270004CED55E06115710591F389E090E045EF43
:1052800055E06130710559F3C0CF82E190E045E00F
:1052900056E0E5CF8BE390E04AEC55E0E0CF80E1CB
:1052A00089BD82E189BD09B400FEFDCF8091D8009F
:1052B0008F7D8093D8008091E00082608093E00031
:1052C0008091E00081FDFCCF0895AF92BF92CF9214
:1052D000DF92FF920F931F93CF93DF936C01EB014B
:1052E0008A0150D1F82E811123C00115110539F022
:1052F000F80180819181C81BD90BC80ED91EB12C31
:10530000A12C2097A9F08091E80085FD21C0809113
:10531000E8008E778093E80001151105A1F0F801EF
:1053200080819181A80EB91EB182A08285E0F82EFD
:105330008F2DDF91CF911F910F91FF90DF90CF9034
:10534000BF90AF9008951ED18823D9F2F82EF0CFE8
:10535000F60181916F018093F1002197FFEFAF1A61
:10536000BF0ACFCFFC0180919D0390919E038617C9
:105370009707A0F06115710529F49091E8009E77D8
:105380009093E80090E06115710551F4911108C007
:105390008091E80082FF34C080E00895BC01F2CF24
:1053A000809196038823C1F18530C1F18091E80096
:1053B00083FD30C08091E80082FDEACF8091E80053
:1053C00080FFE1CF8091F3002091F200382F61152A
:1053D000710519F02830310558F091E02830310579
:1053E00009F090E02091E8002E772093E800CBCFE1
:1053F00081918093F100615071092F5F3F4FE7CF9A
:1054000080919603882341F0853041F08091E80037
:1054100083FFBECF81E0089582E0089583E0089580
:10542000FC0180919D0390919E0386179707A0F041
:105430006115710529F48091E8008E778093E8006A
:1054400090E06115710551F4911108C08091E80058
:1054500082FF35C080E00895BC01F2CF80919603B1
:105460008823C9F18530C9F18091E80083FD31C0FE
:105470008091E80082FDEACF8091E80080FFE1CFD3
:105480008091F3002091F200382F6115710519F019
:105490002830310558F091E02830310509F090E0CE
:1054A0008091E8008E778093E800CBCF8491809341
:1054B000F1003196615071092F5F3F4FE6CF809127
:1054C0009603882341F0853041F08091E80083FF06
:1054D000BDCF81E0089582E0089583E00895982F7C
:1054E000973028F08F708093E90081E008959093C1
:1054F000E900242F762F50E0981731F07091EC00DE
:105500002091ED005091F00021FD02C09F5FE8CF97
:105510003091EB003E7F3093EB003091ED003D7F0A
:105520003093ED003091EB0031603093EB007093DD
:10553000EC002093ED005093F0002091EE0027FD49
:10554000E5CF80E008958091970387FF13C0809195
:10555000E80082FF06C08091E8008B778093E80026
:1055600004C0809196038111F2CF08958091960333
:105570008823D9F38091E80080FFF8CF8091E8007C
:105580008E77ECCF2091E4003091E50095E6A901FB
:105590002091EC00822F817020FF06C08091E800EE
:1055A00080FF06C080E008952091E80022FD1AC027
:1055B00080919603882389F0853089F08091EB00F3
:1055C00085FD0FC02091E4003091E500421753079C
:1055D000F9F29150E1F684E0089582E0089583E0C5
:1055E000089581E0089567D06ED0E0EEF0E080810C
:1055F00081608083E8EDF0E080818F77808319BC43
:10560000A7EDB0E08C918E7F8C9380818F7E80831C
:105610001092950308950F931F93CF93DF934BD070
:1056200052D0C8EDD0E088818F77888388818068E8
:10563000888388818F7D888319BC1092960310928D
:105640009203109294031092930300EE10E0F8017D
:1056500080818B7F808388818160888342E060E0E5
:1056600080E03DDFE1EEF0E080818E7F8083E2EE3E
:10567000F0E0808181608083808188608083F80190
:1056800080818E7F8083888180618883DF91CF9144
:105690001F910F910895E8EDF0E080818F7E808367
:1056A000E7EDF0E080818160808384E082BF81E06B
:1056B00080939503B0CFE8EDF0E080818E7F80830A
:1056C0001092E20008951092DA001092E10008951D
:1056D0001F920F920FB60F9211242F933F934F9367
:1056E0005F936F937F938F939F93AF93BF93EF934A
:1056F000FF938091E10082FF0AC08091E20082FF67
:1057000006C08091E1008B7F8093E1002DD28091D3
:10571000DA0080FF18C08091D80080FF14C080910B
:10572000DA008E7F8093DA008091D90080FF91C0EB
:1057300080E189BD82E189BD09B400FEFDCF81E031
:105740008093960331DC8091E10080FF18C0809146
:10575000E20080FF14C08091E2008E7F8093E2001F
:105760008091E20080618093E2008091D8008062A5
:105770008093D80019BC85E08093960327DC809144
:10578000E10084FF2AC08091E20084FF26C080E10E
:1057900089BD82E189BD89B5982F917080FFFBCFCB
:1057A0008091D8008F7D8093D8008091E1008F7E1A
:1057B0008093E1008091E2008F7E8093E2008091EF
:1057C000E20081608093E20080919203882309F4D3
:1057D00045C084E08093960300DC8091E10083FF64
:1057E00027C08091E20083FF23C08091E100877F82
:1057F0008093E10082E0809396031092920380915F
:10580000E1008E7F8093E1008091E2008E7F8093A3
:10581000E2008091E20080618093E20042E060E07B
:1058200080E05DDE8091F00088608093F000CBDB4B
:10583000FF91EF91BF91AF919F918F917F916F9168
:105840005F914F913F912F910F900FBE0F901F903E
:10585000189519BC10929603B3DB75CF8091E300C5
:1058600087FD93E090939603B7CF1F920F920FB6E8
:105870000F9211242F933F934F935F936F937F93D6
:105880008F939F93AF93BF93CF93DF93EF93FF9348
:10589000D091E900DF708091EC00C82FC17080FDCD
:1058A000C0E81092E9008091F000877F8093F000BB
:1058B00078941ED01092E9008091F0008860809367
:1058C000F000CD2BCF70C093E900FF91EF91DF91F5
:1058D000CF91BF91AF919F918F917F916F915F9188
:1058E0004F913F912F910F900FBE0F901F901895E1
:1058F000AAE2B0E0EDE7FCE214C287E993E0209170
:10590000F100FC012193CF01F3E08F399F07B9F734
:105910007EDB8091E80083FF16C180919703909110
:1059200098039A3008F00FC1E92FF0E0EB5FFF4CCD
:10593000B8C1803899F0823809F005C180919B0385
:105940008F70873008F0FFC08093E9008091EB00F2
:1059500085FB882780F91092E90006C080919303A7
:1059600090919403911182609091E800977F9093B9
:10597000E8008093F1001092F1008091E8008E77AA
:10598000DFC0882309F4CDC0823009F0DCC08091EB
:1059900099038111D0C080919B038F702FEF280F46
:1059A000263008F0D0C08093E9002091EB0020FF62
:1059B000C2C0933031F48091EB0080628093EB00A1
:1059C000BAC09091EB0090619093EB0021E030E041
:1059D00001C0220F8A95EAF72093EA001092EA00AC
:1059E0008091EB008860EACF8111ADC010919903DE
:1059F0001F778091E3008078812B8093E300809172
:105A0000E800877F8093E8009EDD8091E80080FFBA
:105A1000FCCF8091E30080688093E30082E0111165
:105A200083E0809396038FC08058823008F08BC04B
:105A30008091990390919A038C3D23E0920799F508
:105A400083E08A838AE289834FB7F894DE01139654
:105A500020E03EE051E2E32FF0E050935700E49164
:105A600020FF03C0E295EF703F5FEF708E2F90E054
:105A7000EA30B8F0C7968D939D932F5F243159F784
:105A80004FBF8091E800877F8093E8006AE270E072
:105A9000CE01019667DC8091E8008B778093E80067
:105AA00052C0C096E8CF60919B0370919C03AE01F9
:105AB0004F5F5F4F96DBBC01892B09F444C0909186
:105AC000E800977F9093E80089819A81A9DCE3CF71
:105AD0008038C9F58091E800877F8093E800809145
