:100000000C94AA050C94E2050C94E2050C94E2050C
:100010000C94E2050C94E2050C94E2050C94E205C4
:100020000C94E2050C94E2050C949D260C94712727
:100030000C94F6200C94E2050C94E2050C94E20575
:100040000C94E2050C94E2050C94E2050C94E20594
:100050000C94E2050C947D210C94E2050C94E205CD
:100060000C94E2050C94E2050C94E2050C94E20574
:100070000C94E2050C94E2050C94E2050C94E20564
:100080000C94E2050C94E2050C94E2050C94E20554
:100090000C94E2050C94E2050C94E2050C94E20544
:1000A0000C94E2050C94E2050C94E2052B001A0076
:1000B000150000001C000C001300290016000900A8
:1000C0004B000B000E0033004C001B0019004E00CB
:1000D0001100360038003900E201E20028002C004F
:1000E0002452E500E100E000E300000023526452E6
:1000F00001001D000600050000001000370035005B
:10010000040007000A0000000D000F003400140076
:10011000080017000000180012002A0001001A0051
:10012000130000000D001800330001001500170037
:1001300001000B000800120001001B001900010063
:100140000E0036003800010001000100010001002E
:100150000100010001000100010000000100010098
:1001600001001D000600050000001000370001001E
:10017000040016000700000011000C0034001400F9
:1001800009000A0000000F001C000100010001002E
:100190000100000001000100010001000100010058
:1001A0000100010001000100010001000100010047
:1001B0000100010001000100010001000100010037
:1001C000010001000100E300E00000000100010067
:1001D0000100010001000100000001000100010018
:1001E0000100010001000000010001000100010008
:1001F00001000100000001000100010035001F00A6
:100200002100000023002500270001001F02210219
:10021000A90031002E003000010024022602AA00AD
:10022000360201000100010001000100AE000100E2
:1002300001000100010001000100000001000100B7
:1002400001002302250227020000370201000100FD
:100250001E022002220200002D002F0031021E008B
:1002600020002200000024002600010001003B00C5
:100270003D0000003F00410043000100450023789D
:100280000100217851004F000100207824780100FE
:10029000227841520100007C0100010001000100B0
:1002A0000100010001000100010000000100010047
:1002B00001000100287826780000405262520100B7
:1002C00044002778257800005000520001003A00D1
:1002D0003C003E0000004000420001004445425501
:1002E000473A2064697361626C65642E0A00444574
:1002F0004255473A20656E61626C65642E0A000AB9
:100300000025303258006C65645F7461736B3A206D
:10031000004F6E6573686F743A2061637469766527
:100320003A2025640A000A0025303862003A20008D
:1003300025303258000A722F632030313233343581
:1003400036370A00313A0964656C6179282A313000
:100350006D73293A2025750A323A09696E746572FF
:1003600076616C286D73293A2025750A333A096D38
:1003700061785F73706565643A2025750A343A09BF
:1003800074696D655F746F5F6D61783A2025750AD9
:10039000353A09776865656C5F6D61785F73706584
:1003A00065643A2025750A363A09776865656C5F99
:1003B00074696D655F746F5F6D61783A2025750AA9
:1003C00000703A097072696E742076616C7565739D
:1003D0000A643A097365742064656661756C7473A8
:1003E0000A75703A092B310A646E3A092D310A6C8C
:1003F000743A092B31300A72743A092D31300A45AA
:1004000053432F713A09717569740A0A73706565EF
:1004100064203D2064656C7461202A206D61785FE2
:100420007370656564202A20287265706561742088
:100430002F2074696D655F746F5F6D6178290A772D
:10044000686572652064656C74613A2063757273C7
:100450006F723D25642C20776865656C3D25640AC4
:1004600053656520687474703A2F2F656E2E776916
:100470006B6970656469612E6F72672F77696B694C
:100480002F4D6F7573655F6B6579730A004D3E2064
:10049000004D25753A25733E20003F0A003D20257A
:1004A000750A003F0A0064656661756C74730A0022
:1004B00025750A003F0A000A092D2056616C7565F2
:1004C00073202D0A00710A000A092D204D6F7573E3
:1004D000656B6579202D0A003F00433E20004C25C6
:1004E000640A000A092D20537461747573202D0A63
:1004F000686F73745F6B6579626F6172645F6C655E
:10050000647328293A20253032580A6B6579626F66
:100510006172645F70726F746F636F6C3A20253024
:1005200032580A6B6579626F6172645F69646C65E9
:100530003A20253032580A74696D65725F726561C0
:1005400064333228293A202530386C580A00257344
:10055000000A092D20436F6E736F6C65202D0A45CC
:1005600053432F713A09717569740A6D3A096D6FB9
:100570007573656B65790A000A092D204D616769FD
:1005800063202D0A443A094465627567204D6573FE
:100590007361676520546F67676C650A583A094D47
:1005A0006174726978204465627567204D6F646577
:1005B00020546F67676C65202D2053686F77206B20
:1005C00065797072657373657320696E206D6174EF
:1005D00072697820677269640A4B3A094B657962DF
:1005E0006F61726420446562756720546F67676C41
:1005F00065202D2053686F77206B65797072657365
:1006000073207265706F72740A4D3A0944656275A1
:1006100067204D6F75736520546F67676C650A5668
:100620003A0956657273696F6E0A533A09537461D9
:100630007475730A433A094163746976617465207D
:10064000436F6E736F6C65204D6F64650A46312D84
:100650004631303A0953776974636820746F204CCF
:100660006179657220302D392028463130203D20B7
:100670004C30290A302D393A095377697463682060
:10068000746F204C6179657220302D390A475241D0
:1006900056453A0953776974636820746F204C613A
:1006A00079657220302028616C7465726E617465A2
:1006B000290A423A094A756D7020746F20426F6FA3
:1006C000746C6F616465720A4553433A094A756DEB
:1006D0007020746F20426F6F746C6F61646572205C
:1006E00028616C7465726E617465290A453A095017
:1006F00072696E7420454550524F4D205365747495
:10070000696E67730A4241434B53504143453A096E
:10071000436C65617220454550524F4D0A006B6530
:10072000796D61705F636F6E6669672E7261773A8B
:1007300020253032580A2E737761705F636F6E74B4
:10074000726F6C5F636170736C6F636B3A202575B9
:100750000A2E636170736C6F636B5F746F5F636F9E
:100760006E74726F6C3A2025750A2E737761705F14
:100770006C63746C5F6C6775693A2025750A2E731B
:100780007761705F7263746C5F726775693A202578
:10079000750A2E737761705F6C616C745F6C67753E
:1007A000693A2025750A2E737761705F72616C74E7
:1007B0005F726775693A2025750A2E6E6F5F6775DF
:1007C000693A2025750A2E737761705F67726176CA
:1007D000655F6573633A2025750A2E737761705FD4
:1007E0006261636B736C6173685F6261636B73708A
:1007F0006163653A2025750A2E6E6B726F3A20256B
:10080000750A2E737761705F6573636170655F63EE
:100810006170736C6F636B3A2025750A00646562C2
:1008200075675F636F6E6669672E7261773A202520
:100830003032580A2E656E61626C653A2025750A61
:100840002E6D61747269783A2025750A2E6B657970
:10085000626F6172643A2025750A2E6D6F7573653B
:100860003A2025750A006565636F6E6669673A0A06
:1008700064656661756C745F6C617965723A202598
:10088000750A003F000A6D6F7573653A206F6666E2
:100890000A000A6D6F7573653A206F6E0A000A6B65
:1008A0006579626F6172643A206F66660A000A6B4E
:1008B0006579626F6172643A206F6E0A000A6D6139
:1008C000747269783A206F66660A000A6D61747204
:1008D00069783A206F6E0A000A64656275673A208B
:1008E0006F66660A000A64656275673A206F6E0A71
:1008F000000A0A4A756D70696E6720746F20626F16
:100900006F746C6F616465722E2E2E2000433E2042
:1009100000436C656172696E6720454550524F4DCA
:100920000A00290A002575002F002575005D2800A2
:100930002564002000256400200025640020002597
:1009400064007C0025303258006D6F7573656B65EF
:1009500079205B62746E7C782079207620685D282F
:100960007265702F61636C293A205B000A002530A4
:10097000325820006B6579626F6172645F726570D6
:100980006F72743A2025303258207C2000737573C2
:1009900070656E64696E67206B6579626F61726401
:1009A0000D0A005B575D005B535D005B525D005BB1
:1009B000445D005B435D0030036D006F006E0074AA
:1009C00000730069006E006700650072002F0072FE
:1009D00000650062006F0075006E0064002F0072F9
:1009E00000650076003400000016034D006F006EB5
:1009F000007400730069006E0067006500720000FB
:100A0000000403090409025B00030100A0FA0904C1
:100A1000000001030101000921110100012244002D
:100A2000070581030800010904010001030000001B
:100A3000092111010001227B00070582032000012A
:100A40000904020002030000000921110100012233
:100A5000220007058303200001070503032000018E
:100A600012010002000000084D52010002000102C4
:100A700000010631FF0974A1010975150026FF0068
:100A80009520750881020976150026FF00952075CE
:100A9000089102C005010902A10185020901A10016
:100AA000050919012908150025019508750181021C
:100AB0000501093009311581257F950275088106E8
:100AC00009381581257F950175088106050C0A38BE
:100AD000021581257F950175088106C0C0050109B1
:100AE00080A101850319012AB700150126B70095D9
:100AF0000175108100C0050C0901A10185041901CF
:100B00002AA002150126A002950175108100C005DA
:100B1000010906A101050719E029E715002501953E
:100B200008750181029501750881010507190029E1
:100B3000FF150026FF0095067508810005081901BC
:100B4000290515002501950575019102950175038B
:100B50009101C00011241FBECFEFDAE0DEBFCDBF90
:100B600004B603FE18C08091CF039091D003A091EA
:100B7000D103B091D2038730904BA740B04B59F4CA
:100B80001092CF031092D0031092D1031092D2038F
:100B9000E0E0F8E3099512E0A0E0B1E0E2E6F4E578
:100BA00002C005900D92A43EB107D9F723E0A4EE50
:100BB000B2E001C01D92AF3CB207E1F70E94D0162F
:100BC0000C94F0290C940000FF93EF93E091E40261
:100BD000F091E502309709F00995EF91FF910895A2
:100BE000FC018591803011F0EFDFFBCF0895FF27E6
:100BF000E0E230E247FF0CC0419597FF09C0EDE20B
:100C00006095709580959095611D711D811D911D58
:100C100027FF02C0219530E350E2AA27660F771F15
:100C2000881F991FAA1FA41710F0A41B63955A953B
:100C3000A9F7AA3008F0A95FA05DAF93F3956115FD
:100C400071058105910541F7ED3211F4EF93F395AC
:100C5000F21718F43F93F395FBCF8F91B5DFFA9518
:100C6000E1F70895E991F9918591803021F085327D
:100C700019F0AADFF9CF089520E0E8945591553294
:100C8000C1F3503311F4689455915A3348F45053DA
:100C900090F3220F022E220F220F200D250FF4CFEA
:100CA0000EF4219589919991533619F3533729F10F
:100CB000533559F1BC0188279927E8945C3621F413
:100CC0008991999168945591543639F446EF7EF0A4
:100CD00077FF0DC08FEF9FEF0AC055374AE039F01C
:100CE000583540E121F0523642E009F00895FF9373
:100CF000EF937DDFEF91FF91B7CFFF93EF93FC016F
:100D000081918030B9F360DFFBCFFF93EF9368DF11
:100D1000F1CFDF93CF93CDB7DEB72596A3DFCF9189
:100D2000DF9108958530B8F46830A8F4473098F41E
:100D300050E097E0699F400D511D1124FA0198E39E
:100D4000899FE00DF11D1124EE0FFF1FE455FF4FA9
:100D500085919491089581E090E008950E94920613
:100D6000089581E008950E94B106089581E00895F4
:100D70000E94B10608950E94B806089508950E9441
:100D8000BE060895A6E0B0E0E8ECF6E00C944C292D
:100D900049835A839E833091EB0289819A81311174
:100DA0001AC03E81332399F0222389F00E94180D46
:100DB000182F682F89819A810E94F40C69817A81A9
:100DC000812F0E9402142696E3E00C9468290E9469
:100DD000060D182FF3CF0E94180D69817A81F1CF8B
:100DE000FC01262F4081518162817381848195812C
:100DF0000E94C2060895CF93DF93EC0161E00E9448
:100E0000F006BE010E94B306DF91CF910895CF9303
:100E1000DF93EC0160E00E94F006BE010E94BF0675
:100E2000DF91CF91089581E008950E9413070895FE
:100E3000CF93C82F0E94C90B8C2F0E9415072FEF4C
:100E400084E39CE0215080409040E1F700C0000026
:100E5000CF91089581E00E9418070E94A121089572
:100E600080E00E9418070E94C52108950F931F93E8
:100E7000CF93DF938C0161E00E94F006EC01B80192
:100E80000E94BB06811106C080E0DF91CF911F91C7
:100E90000F910895B801CE010E941E1F8823A1F36F
:100EA000B801CE010E94C61A882371F3B801CE01A1
:100EB0000E949C1A882341F3F8018581882369F0F8
:100EC000C330FCE7DF0781F160F4C130ECE7DE07F7
:100ED00069F1C0F4C115DC4791F0C8010E94B60663
:100EE000D4CFCB35ECE7DE0739F1CC35FCE7DF07B3
:100EF00001F1CA35DC4789F70E944211EECF0E940A
:100F00002A07C2CF90917803892F8E7F90FF81604E
:100F10008093780380FF05C08EEE92E00E94F0057A
:100F2000B3CF8CED92E0FACF0E944A110E943007B5
:100F3000ABCF0E943811D1CF0E944611CECF0E9474
:100F4000D3200E94DE0708950E94E2070E94D82065
:100F50000895829590E09C01220F331F220F331FCA
:100F60002C7C95958795959587958373282B30E0F4
:100F7000C901880F991F8A7A359527952575822B87
:100F80000895089581E008950895CF93DF93D82FB1
:100F90000E94C207C82F882319F08D2F0E94C40712
:100FA0008C2FDF91CF9108950895CF93C82F0E9481
:100FB000C1078C2F0E94C507CF91089580E00E9441
:100FC000D50708950E94671F0E94D5070895CF9303
:100FD0000E94671FC82F8091E6028C1789F1C09389
:100FE000E6020E9462216093E7027093E802809318
:100FF000E9029093EA028091780382FF1EC080FF8D
:101000001CC086E093E00E94F0058091780380FF89
:1010100014C01F92CF9381E093E09F938F930E941F
:101020008906809178030F900F900F900F9080FFAA
:1010300004C08FEF92E00E94F0058C2F0E94D5072C
:10104000CF910895ADE0B0E0E8E2F8E00C944D29CE
:10105000488759876A877B878C879D8791110E9473
:1010600065101F8286E0FE013896DE011196019020
:101070000D928A95E1F78D8181110DC029813A8108
:101080004B815C816D817E818F810E94AF0F2D9697
:10109000E2E00C946929CE0101960E94FB068111C1
:1010A000EDCFF5CFFC012481213021F480819181A5
:1010B0000E944A0D0895662329F00E94271C0E9471
:1010C0000C1D08950E94931CFACFCF93C82F88233C
:1010D000C9F08238C9F40E94741F81FD13C089E3EE
:1010E0000E9469200E94D4102FEF87EE93E02150D8
:1010F00080409040E1F700C0000089E30E94712029
:101100000E94D410CF9108958338A1F40E94741FD7
:1011100080FDF8CF83E50E9469200E94D4102FEF54
:1011200081EE94E0215080409040E1F700C0000043
:1011300083E5E4CF8438A1F40E94741F82FDE2CFDE
:1011400087E40E9469200E94D4102FEF81EE94E082
:10115000215080409040E1F700C0000087E4CECFEE
:101160008CEF8C0F813A98F48C2F0E94481A8111D1
:10117000C9CF8C2F0E942E20882329F08C2F0E940B
:1011800071200E94D4108C2F0E946920B9CF80E278
:101190008C0F883048F4C77081E001C0880FCA9571
:1011A000EAF70E944810ACCFEBE5EC0FE33040F4D7
:1011B000F0E0E55BFE4F808190E00E94CF1FA2CF60
:1011C000E8E5EC0FEB3150F4F0E0EE0FFF1FEB5EC3
:1011D000FE4F808191810E94F41F94CF83E38C0F96
:1011E000833108F08FCF61E08C2F0E945B088ACF9B
:1011F000882309F456C0823879F40E94741F81FF55
:1012000050C089E30E9469200E94D41089E30E94A3
:1012100071200E94D4100895833859F40E94741FDD
:1012200080FF3FC083E50E9469200E94D41083E5BF
:10123000EECF843859F40E94741F82FF32C087E4D5
:101240000E9469200E94D41087E4E1CF9CEF980FA0
:10125000913AE8F290E2980F983050F4877091E05C
:1012600001C0990F8A95EAF7892F0E944E10D1CFBD
:101270009BE5980F933028F490E080E00E94CF1F08
:10128000089598E5980F9B3128F490E080E00E9443
:10129000F41F089593E3980F933118F460E00E94CF
:1012A0005B0808951F93CF93DF93182FEB010E94E3
:1012B0006508209739F4812F0E94F808DF91CF91BB
:1012C0001F9108958FE99FE00197F1F700C000009A
:1012D0002197EFCF70E060E0893311F460E570E0B2
:1012E0000E9452090895882321F00E9448100E940C
:1012F000D4100895882321F00E944E100E94D4102B
:101300000895B0E0A0E0E7E8F9E00C9446296C010C
:10131000D62FC72FFC011581068102950F700E9400
:101320003E10E82E8823F9F0E12E1123E1F08C2FF6
:10133000807F803461F080E28D0F883008F18C2F3F
:10134000807E803221F4D230D8F00023C9F0809121
:10135000AD0382FF15C082E00E94F9100E943E108A
:1013600091E0E82EE926BC2EB2949FE0B922FBE082
:10137000FB15B8F1EB2DF0E0EE50F64D0C9437294B
:10138000E12CF1CF0C2F0F70C07F11F00295007F80
:10139000112399F0002359F080E28D0F883010F06E
:1013A000D11107C0802F0E9448100E94D4108D2FA9
:1013B0005AC0802F0E945810F8CF8D2F0E94F80835
:1013C000002379F080E28D0F883010F0D11104C035
:1013D000802F0E944E1003C0802F0E945E100E943A
:1013E000D410EB2DE850FF0B349720F40E94671FB8
:1013F0000E94D507EE2089F00E943A1080FD0DC0B2
:10140000F60115820E9434100E94520CC6010E94FF
:10141000900B0E9434100E94620CCDB7DEB7E9E059
:101420000C9462292C2F2F70F22EC07FC03219F03D
:10143000F29480EFF822DD2341F0D130D1F1112375
:1014400009F444C00023F1F0B2CF8091AD0382FDD6
:1014500015C0112359F0FF2029F08F2D0E9448104C
:101460000E94D41080E00E946508BBCF80E00E94FB
:10147000F808FF2009F4B5CF8F2DABCF112369F009
:10148000011104C08F2D0E947309ABCF013009F008
:10149000A8CF8F2D0E947C10A4CF0111A2CF8F2D39
:1014A0000E947A098F2D0E9488108F2D0E946C1047
:1014B00098CF112321F0063008F093CFE3CF053009
:1014C00008F08FCF8F2D0E947A098BCF0023D1F3A4
:1014D000D93349F43FEF87EE93E03150804090409C
:1014E000E1F700C000008D2F0E94F8087ACF8C2F02
:1014F00086958695837069F0813009F072CF8D2FC3
:101500009C2F9370111102C080E090E00E94F41FA4
:1015100068CF8D2F9C2F9370111102C080E090E056
:101520000E94CF1F5ECF612F8D2F0E945B0859CF85
:101530008C2F8370A1F5111154CF4D2F42954695F4
:101540004770440F440F2D2F2F7030E0042E02C03F
:10155000220F331F0A94E2F790E080E0D4FF09C025
:101560008FE090E002C0880F991F4A95E2F78095BE
:101570009095C695C695C370822B932BC23049F0C7
:1015800058F4C13019F00E94220C2BCF0E94190C84
:1015900028CF0E942B0C25CF0E94160C22CF8695B7
:1015A000112311F08C2F8170882309F41ACF4D2F4D
:1015B000429546954770440F440F2D2F2F7030E011
:1015C000042E02C0220F331F0A94E2F790E080E05D
:1015D000D4FF09C08FE090E002C0880F991F4A95A0
:1015E000E2F780959095C695C695C370822B932B94
:1015F000C23049F058F4C13019F00E948D0CF1CE80
:101600000E94840CEECE0E94960CEBCE0E943A0C07
:10161000E8CECF70112329F08C2F0E94520C8D2F11
:1016200032CF8D2F0E947A098C2F0E94620CD9CE66
:10163000D23F41F160F4D03FB9F0D13F81F01123A6
:1016400009F446C00111B3CE8C2F8F711FC0D33F58
:1016500001F1D43FA1F78091AD0382FD24C08C2F0E
:101660008F71112311F312C0112341F0053008F0DE
:10167000B8CE8C2F8F710E94740CB3CE063008F058
:10168000B0CEF7CF8C2F8F711111CFCF0E94520C9B
:10169000A8CE112329F08C2F8F710E94460CA1CE69
:1016A0000E94410C9ECE112349F0CF718C2F0E94D5
:1016B000520C63E08C2F0E94DB1093CE81E00E94DD
:1016C000F910023008F48DCE82E00E94F91089CE24
:1016D000002359F0D93309F006CFEFEFF7EE23E0FE
:1016E000E150F0402040E1F7FCCE8C2F8F719DCF70
:1016F0000F931F93CF93DF93EC01688179818D81E4
:101700000E94550D8C010E949F0C0E94150CB8017F
:10171000CE010E948109DF91CF911F910F91089511
:10172000CF93DF93EC018C81882399F0CE010E9446
:101730003607811111C00E943E10882351F08D811F
:10174000882339F08091AD0382FF03C082E00E94BC
:10175000F910DF91CF910895CE010E94780BCE0150
:101760000E940707F6CF90E080E00E94CF1F90E034
:1017700080E00E94F41F0E9465100E94D4100E9415
:10178000AA1D0E940C1D08950E9479200E94B30B8F
:1017900008950E9455100E94C40B089592959F7061
:1017A000963091F058F4925F9F70923058F4803FD9
:1017B00019F030F4883E30F481E008959A5FF4CF58
:1017C000843FD1F380E00895883EB0F3813FD1F7A4
:1017D000F3CFFC012481222339F0808191810E9482
:1017E0004A0D0E94CE0B089580E00895A6E0B0E077
:1017F000ECEFFBE00C944D292696E2E00C9469296D
:10180000A7E0B0E0E6E0FCE00C944D292796E2E08A
:101810000C94692908950E940A0C08950E940B0CEB
:1018200090930B0380930A03089508950E940E0C71
:10183000089520910A0330910B03822B932B0E9471
:101840000E0C089520910A0330910B0382239323F9
:101850000E940E0C089520910A0330910B038227F9
:1018600093270E940E0C08950E940A0C08950E946E
:10187000340C08950E94370C909309038093080359
:10188000089590E080E00E943A0C089521E030E055
:10189000A90102C0440F551F8A95E2F7CA010E94B0
:1018A0003A0C089521E030E002C0220F331F8A95E0
:1018B000E2F78091080390910903822B932B0E94F9
:1018C0003A0C089521E030E002C0220F331F8A95C0
:1018D000E2F72095309580910803909109038223C7
:1018E00093230E943A0C089521E030E002C0220FB9
:1018F000331F8A95E2F780910803909109038227AC
:1019000093270E943A0C089520910803309109030F
:10191000822B932B0E943A0C08952091080330915A
:101920000903822393230E943A0C0895209108030F
:1019300030910903822793270E943A0C0895089555
:10194000262F277091E001C0990F2A95EAF723E02E
:10195000769567952A95E1F7660F771F660F771FD3
:10196000FA01E60FF71F50E040E0682F70E0819128
:10197000DF0111979B01042E02C0369527950A942A
:10198000E2F7217021952827292328272C934F5FE0
:101990005F4F4430510559F70895A82FA77023E0F1
:1019A000969587952A95E1F7880F991F880F991FBB
:1019B000FB01E80FF91F50E040E080E0219130E0AA
:1019C0000A2E02C0369527950A94E2F72170332734
:1019D000042E01C0220F0A94EAF7822B4F5F5F4F5B
:1019E0004430510559F70895262F983070F4873008
:1019F00060F4682F70E087E0989F600D711D1124DE
:101A00004CEE52E0822F0E94A00C0895292F9830AE
:101A100068F4873058F490E06CEE72E037E0239F72
:101A2000800D911D11240E94CD0C089580E0089531
:101A3000B0E0A0E0EEE1FDE00C9446297C010091CD
:101A400008031091090380910A0390910B03082B5E
:101A5000192BCFE0D0E0CC24C394D12CBC2EC601EE
:101A60000C2E02C0880F991F0A94E2F7802391235D
:101A7000892B49F4219790F7B12C8B2DCDB7DEB788
:101A8000E9E00C946229B7018C2F0E940E14019793
:101A900089F3F3CFCF93DF93EC010E94180DBE01C1
:101AA0000E940E14DF91CF9108951F93CF93DF937F
:101AB000EB019091EB02992339F0CB010E944A0D82
:101AC000DF91CF911F910895882369F0CB010E9487
:101AD000180D182F682FCE010E94F40CBE01812F23
:101AE0000E940E14EDCFCB010E94060D182FF6CFE9
:101AF0001F93CF93DF93C0910C0317E080910D03E8
:101B00008C1304C0DF91CF911F910895D0E01C9FEA
:101B1000F0011D9FF00D1124E25FFC4F2081318107
:101B2000428153816481758186810E94000C2196D7
:101B3000C770E4CF2091460330914703409148039A
:101B40005091490360914A0370914B0380914C037B
:101B50000E94000C0895CF93DF9380914C03807F07
:101B600009F04DC080914B03882309F448C0E091EF
:101B70000C0350910D03C0914703D091460360912F
:101B800048037091490347E05E17C9F18E2F90E03A
:101B9000E49FF0011124E25FFC4F2481222391F1A4
:101BA000489FF001499FF00D1124DF01A25FBC4F57
:101BB00011962C9111972C1325C02C912D1322C016
:101BC00015962C91159721111DC012962D913C91BF
:101BD000261B370B283C3105A8F480914C038F70ED
:101BE000806180934C03EC5EFC4F80818F7080613C
:101BF000808386E493E00E94900B0E94780DDF9131
:101C0000CF910895FC013196E770BECF482F209107
:101C10000C0390910D0357E0291302C080E0089552
:101C200030E0529FF001539FF00D1124E25FFC4F12
:101C30008181681306C08081481303C085818111AA
:101C4000EECF2F5F3F4F2770E7CFA4E1B0E0EBE28C
:101C5000FEE00C9443298C0186E0F801DE011F961A
:101C600001900D928A95E1F7F8018481E58096E470
:101C7000A92E93E0B92E90914A0391111FC0882399
:101C8000D1F0EE20A9F0C8010E94E90BF82E8823BC
:101C900079F087E0F801D50101900D928A95E1F77E
:101CA000C5010E9452080E94AB0D0E949A0D5FC0B0
:101CB000C8010E94900BFF24F39459C0C080D180CA
:101CC00082809380F0904B03209148033091490328
:101CD000A401421B530BFF2009F4F9C0483C5105F5
:101CE00008F0A7C0882309F442C09091470380916F
:101CF0004C03282F207F09F05CC09D1116C09091E5
:101D00004603C91212C0E1104EC08F7080618093EB
:101D10004C030E949A0D86E493E00E94900B809100
:101D20004C03F8018683F12C22C0E1103CC06D2DDC
:101D30008C2D0E94060E6D2D8C2D0E94060EE82E15
:101D40008111F1CFCF86D88A8F8598890E944A0D5C
:101D5000292F22952F70243078F49F702230A8F01C
:101D60009923B9F0F8019681907F99F4FE2C8F2D7C
:101D70006496ECE00C945F292A5F2F70223068F0A3
:101D8000C8010E94900BEF2CF1CF992311F088230A
:101D900069F3805E883050F3F3CF803F38F3815F82
:101DA000833070F7E3CF80914C03816080934C03C4
:101DB000BACF9D1113C090914603C9120FC0E11014
:101DC0000DC08683C8010E94900B87E0F801A6E44D
:101DD000B3E001900D928A95E1F767CFC8010E94A8
:101DE000E90B882309F464CFEE2009F461CF8091D8
:101DF0004C03803288F020914603309147033987A5
:101E000028879B868A8690914A039C871D868E87A9
:101E1000CE0108960E94900B87E0F801A6E4B3E09B
:101E200001900D928A95E1F70E94AB0D0E949A0DE8
:101E300042CF90914C03292F207FA1F4682D9A8ADC
:101E4000898AA6017A899E2D0E94F60B86E493E08A
:101E50000E94900B87E0F50111928A95E9F70E94A4
:101E60009A0D61CF882309F482CF809147038D11A9
:101E700010C080914603C8120CC0E1100AC09683BE
:101E8000C8010E94900B87E0F50111928A95E9F74D
:101E90006ECFC8010E94E90B882309F409CFEE2018
:101EA00009F406CF80914C03803208F4B5CF20911D
:101EB0004603309147033A8329839C828B82909119
:101EC0004A039D831E828F83CE010196A3CF483C97
:101ED0005105B8F5882309F4EECEFE2CEE2009F466
:101EE000E7CE809147038D111EC080914603C81232
:101EF0001AC080914C0380FD0DC0982F907F51F047
:101F00008683903F09F45ECF982F907F905F8F700B
:101F1000892B57CF87E0F801A6E4B3E001900D923A
:101F20008A95E1F724CFC8010E94E90B811174CF93
:101F300080914C03816080934C03C8010E94900BF8
:101F400016CF682D9A8A898AA6017A899E2D0E94C9
:101F5000F60B87E0F50111928A95E9F7A6CEAEE07F
:101F6000B0E0E5EBFFE00C944C29288739874A87DD
:101F70005B876C877D878E87CE0108960E94250E31
:101F80008823B1F06C85662341F0288539854A8520
:101F90005B857D858E850E94000C17E080910C0387
:101FA00090910D0389133DC02E96E3E00C946829AF
:101FB00087E0FE013896DE01119601900D928A9518
:101FC000E1F78C85882349F320910D0330E0C901A6
:101FD00001968770992740910C034817190699F0CC
:101FE00097E0929FD001939FB00D1124A25FBC4F48
:101FF000FE01319601900D929A95E1F780930D03C1
:102000000E94780DCACF0E94C90B10920D03109246
:102010000C0387E0E6E4F3E0DF011D928A95E9F71F
:10202000BCCF819FC0011124825F9C4F0E94250E6E
:10203000882309F4B9CFE0910C031E9FF00111240D
:10204000E25FFC4F2081318142815381648175813F
:1020500086810E94000C80910C0390E001968770AD
:10206000992780930C039ACF809155038695869586
:102070008695089580915503877008959091550332
:10208000977081E009F480E00895809161030895DC
:1020900090916103892B80936103089580959091BD
:1020A000610398239093610308951092610308954A
:1020B00090916003892B809360030895809590919F
:1020C000600398239093600308951092600308952D
:1020D00008950E946810089590915603292F28238F
:1020E00031F080958923809356030E9469100895EA
:1020F00008950E947810089590915703292F28235E
:10210000281729F0982B909357030E94791008956F
:1021100090915703292F282331F0809589238093AC
:1021200057030E947910089580915703882329F05E
:102130001092570380E00E94791008950F931F9327
:10214000CF93DF930091000110910101C0916103D1
:1021500080916003C82B80915703882331F0C82BEE
:102160000E94192081110E949410F801C083C0912F
:102170000001D091010148E050E06DE473E0CE0130
:102180000E948829892B59F088E0FE01ADE4B3E074
:1021900001900D928A95E1F7CE010E94771FDF91A1
:1021A000CF911F910F9108950E949E100895089558
:1021B0000E94D71008959091AD0392FF11C098E04E
:1021C000899F90011124622B609355030E94520C49
:1021D000809155038695869586950E94D81008951E
:1021E0000E94520C08951092550380E00E94D8106E
:1021F0000895909155038095892380935503282F46
:10220000277069F4891759F09091AD0392FF07C0C8
:102210008695869586950E94620C0E94F31008951B
:10222000CF93C82F8091AD0382FB992790F99C171B
:10223000E9F0C0FB82F98093AD038091AC039091EB
:10224000AD030E946B1182E00E94F9108091780327
:1022500080FF0CC01F92CF9381E193E09F938F93F7
:102260000E9489060F900F900F900F90CF910895C4
:102270008091AD0382FB882780F991E089270E9435
:102280001011089581E00E941011089580E00E94CD
:10229000101108956FEF7FEF90E080E00E94DA293F
:1022A000089590E080E00E94A62921E0863E9E4F9E
:1022B00009F020E0822F089582E090E00E949E299C
:1022C000089583E090E00E949E29089584E090E0C4
:1022D0000E94A6290895BC0184E090E00E94DA29BA
:1022E0000895AB01BC018FE090E00E94CE290895D3
:1022F000AB01BC0183E190E00E94CE29089560E02B
:1023000070E0CB010E947811089560E070E0CB018D
:102310000E9471110E947F110895A8E0B0E0E3E9E6
:10232000F1E10C944D2966EE7EEF90E080E00E9492
:10233000DA2960E082E090E00E94BC2981E090E030
:1023400090930B0380930A0361E083E090E00E9486
:10235000BC2960E074E184E090E00E94DA2960E04A
:1023600086E090E00E94BC296FEF87E090E00E9439
:10237000BC2940E050E0BA0188E090E00E94CE29FC
:1023800060E084E290E00E94BC2960E087E190E098
:102390000E94BC2960E08CE090E00E94BC2960E0D3
:1023A0008DE090E00E94BC2919821A821B821C8257
:1023B0001D821E821F82188648E050E068E170E0AE
:1023C000CE0101960E94AC2940E050E0BA0180E2C3
:1023D00090E00E94CE290E9485112896E2E00C949C
:1023E00069290E948D110895682F8EE090E00E9467
:1023F000BC290895A6E0B0E0E0E0F2E10C944B299E
:102400000E9456218C018091620390916303801792
:10241000910781F019821A820E945621682F498102
:102420005A81792F80E090E00E9422081093630384
:10243000009362032696E4E00C9467290E946221CF
:10244000609374037093750380937603909377037E
:10245000609370037093710380937203909373037E
:1024600008950E94622160937403709375038093B2
:1024700076039093770360936C0370936D0380935E
:102480006E0390936F030895089508950E94441277
:10249000089508950E94491208958BE693E20E94E0
:1024A000DD160E9445120E944612089581E00895AB
:1024B0000E94561208950E94561208950895089594
:1024C0000E945E120E945F1208950E9421150E94D0
:1024D000D40708950E944D210E94FF160E943316D2
:1024E0000E9465120E944A120895A6E0B0E0EBE750
:1024F000F2E10C9444290E94581281110FC00E94ED
:10250000FA110E941E1781110E9431120E94CC1DE7
:102510000E94E7072696EBE00C9460290E9449167A
:1025200084E6A82E83E0B82E750110E0F701019132
:102530007F01812F0E9447151F5F183009F441C0A9
:102540000817A1F38091780381FD0E944D150E9428
:102550005B12C82E10E099249394812F0E94471596
:10256000082FF50181915F01081729F1F12CEE2464
:10257000E394D02ED8268D2D8E21A9F0CC2099F071
:10258000F9821A830E9456219C838B839D8291E05D
:10259000802F8E2109F490E049815A816B817C81E2
:1025A0008D810E942208F394EE0CF7E0FF12E3CF36
:1025B000F501319700831F5F183079F60E941E12D3
:1025C000A0CF0813BFCF9BCF1F93CF93DF930E9461
:1025D0001314EC01C11580E5D807F0F5C11580E4AE
:1025E000D80708F09CC0C03ED10520F5CD3CD105F0
:1025F00008F082C0C83AD10578F4C53AD10508F090
:1026000073C0C130D10519F1209709F1C430D1054B
:10261000F0F4D0E0C0E01BC0C33CD105D0F7C85AED
:10262000D0E0CC0FDD1FC25BDE4F0990D881C02DFA
:10263000D4640DC0C11580E2D80708F0D1C0C1151F
:1026400081E0D80708F05AC0C83ED10510F7CE0186
:10265000DF91CF911F910895C03682E5D80718F514
:10266000C03482E5D80708F06BC0C03282E5D807D5
:1026700008F05FC0C11582E5D80708F497C02C2F79
:102680002695269580E2289F900111248C2F837037
:10269000C1E0D0E002C0CC0FDD1F8A95E2F7C22B6B
:1026A000D32BDD68D4CFC03A82E5D80760F4C038B8
:1026B00082E5D80708F459C0CF71D0E0DC2FCC27D1
:1026C000C46FD06AC4CFC03C82E5D80708F462C0AA
:1026D000C03E82E5D80708F09CCFDC2FCC27CC2762
:1026E000DF71C06FD06AB3CFC55AD0E0CC57DE4F90
:1026F000C881D0E0D064ABCFD065A9CF8D2F0E9428
:10270000B514182FCE0199270E941314C12FD0E0C1
:10271000DC2FCC27CC27DF71C82BD92B98CFCE014B
:1027200099270E941314CC27DF70C82BD92BD06AAD
:102730008ECFCF71D0E0DC2FCC27C16FD06A87CF8E
:102740002C2F26952695277080E2289F9001112432
:102750008C2F8370C1E0D0E002C0CC0FDD1F8A95C2
:10276000E2F7C22BD32BDC6872CF2C2F269526954F
:10277000277080E2289F900111248C2F8370C1E084
:10278000D0E002C0CC0FDD1F8A95E2F7C22BD32B1D
:10279000DA685DCF8C2F8F710E94B514C82FD0E0FE
:1027A000DC2FCC27CC27DF71D06251CF8C2F8F71DB
:1027B0000E94B51455E0D695C7955A95E1F7CF70AC
:1027C000D0E0DC2FCC27282F30E084FF05C044E088
:1027D000220F331F4A95E1F7C22BD32BD06937CF95
:1027E0008D2F8F710E94B514182FCE0199270E944A
:1027F0001314C12FD0E0DC2FCC27CC27DF71C82BDE
:10280000D92BD2CF462F783030F4673020F4672FA1
:102810000E94AE06089590E080E008950E940214A0
:102820000E94E412089582389105B9F1B0F4813321
:10283000910509F47DC048F48932910509F46DC011
:102840008A32910509F47BC008958533910509F416
:102850005FC08933910509F10895833E9105D9F14F
:1028600038F4803E910529F1823E910579F1089571
:10287000863E9105D9F1873E910509F43EC0843E1C
:10288000910541F52091AD0321FF24C08091AC0357
:1028900084FD19C087EE90E008952091AC03237069
:1028A00009F05AC02091AD0323FF14C089E290E0E3
:1028B00008952091AC0320FD38C03091AD0330FF66
:1028C00009C024FF43C090E080E008952091AC034C
:1028D00022FDF7CF08952091AC0322FD3AC030913C
:1028E000AD0330FD39C024FFF5CFEDCF2091AC030F
:1028F00023FFF0CF24FDE7CFCDCF2091AC0323FD04
:102900002EC03091AD0331FFEECF84EE90E00895FC
:102910002091AC0325FFDECFC9CF2091AC0325FD6C
:1029200021C02091AD0323FFD5CF89E390E0D2CF22
:102930002091AC0326FFCECF8AE290E0089520914B
:10294000AC0326FFC7CF81E390E0089583EE90E0CB
:10295000089582EE90E0089580EE90E0089586EE6E
:1029600090E0089585E390E008959091AC0392FF84
:1029700010C041E0282F2471243009F040E031E0FC
:10298000282F2871283009F030E0431711F02CE08F
:10299000822793FF10C041E0282F2471243109F0D1
:1029A00040E031E0282F2871283109F030E043174A
:1029B00011F02CE082273091AD0330FF10C051E0C0
:1029C000282F2171213009F050E041E0282F287193
:1029D000283009F040E0541711F029E0822731FF38
:1029E00010C041E0282F2171213109F040E031E091
:1029F000282F2871283109F030E0431711F029E021
:102A0000822794FD877E08950E944A1108950E94AE
:102A100049162FEF86E791E0215080409040E1F782
:102A200000C000000E94491680E00E94471580FF08
:102A300004C00E9404150E94A12108950E94071558
:102A400008950E945111811102C00E94F1110E944B
:102A50005C11809378030E9466119093AD0380937C
:102A6000AC030E941E150E94611190E00E94160C9A
:102A700080910803909109030E94370C08950895EE
:102A80000E943F15089508950E9443150895E82F68
:102A9000F0E0EA54FC4F80810895B0E0A0E0E3E567
:102AA000F5E10C94472985E393E00E94F00586EB5D
:102AB000E82E83E0F82ED0E0C0E090E3C92E93E04A
:102AC000D92E08E213E0DF93CF93DF92CF920E94DA
:102AD00089068DE293E00E94F005F70181917F0164
:102AE0000E94A9071F928F931F930F930E9489063C
:102AF00086E293E00E94F00521968DB79EB7089676
:102B00000FB6F8949EBF0FBE8DBFC830D105D9F661
:102B1000CDB7DEB7E8E00C94632980EA8A95F1F737
:102B2000089500C008950E948D150895F894E82F27
:102B3000E295EF70F0E031A1282F2F7081E090E056
:102B400001C0880F2A95EAF7982F9095932391A3B7
:102B500092A1892B82A3789408950F931F93CF930A
:102B6000DF93C7E8D1E089918F3F11F00E9496155D
:102B700081E0CE38D807B9F7CEE8D1E006E911E018
:102B800089918F3F11F00E9496150C171D07C1F710
:102B9000DF91CF911F910F910895B0E0A0E0E3ED98
:102BA000F5E10C9447297C01162F042FC62FD0E0A5
:102BB000C957DE4F28812F3F09F44CC0F894E22F0B
:102BC000E295EF70F0E031A12F7081E090E001C05C
:102BD000880F2A95EAF7932F982B91A392A18095BD
:102BE000892382A378940E9491158EE8C82E81E0F3
:102BF000D82EF701A701485F5F4FF12CE02EE0943B
:102C0000D6019D916D0181919F01215031099F3F16
:102C100031F1692F62956F7070E0DB0190966C91D5
:102C200070E09F7002C0759567959A95E2F760FD18
:102C300016C0802BD9018C93FF24F394E417F50779
:102C4000F9F688818F3F11F00E9496156F2D812F24
:102C50000E949315CDB7DEB7E8E00C9463298E216E
:102C6000D9018C93EBCF0E94AD1588E0E6EBF3E041
:102C7000DF01982F1D929A95E9F7EEEAF3E0DF0164
:102C80001D928A95E9F788E00E9488160E944015F7
:102C90000895A8E0B0E0EFE4F6E10C9449298E0134
:102CA0000F5F1F4F88E0F80111928A95E9F7F12C28
:102CB000EE24E3944E2D6F2DC8010E94CD15F394A0
:102CC000EE0CF7E0FF12F6CF48E050E0B8018EEAD4
:102CD00093E00E94882921E0009709F420E0892BE5
:102CE00041F088E0F801AEEAB3E001900D928A95D8
:102CF000E1F748E066EB73E08EEA93E00E94891604
:102D0000182F0E944415812F2896E6E00C9465291F
:102D10000895B0E0A0E0EFE8F6E10C9447296C01DB
:102D20007B01042FC22F222379F081E080937B0363
:102D30000E94562190937A038093790380E0CDB767
:102D4000DEB7E8E00C946329D0917B03DD23B1F377
:102D50008091790390917A030E946E21059770F318
:102D600010E0A801B601C7010E948829892B31F023
:102D7000A801B601C7010E949529CD2F10927B03AF
:102D80008C2FDDCF0E94E7230E946A120E94F42359
:102D900008950E94F9230E9475120E941B24089531
:102DA0000E94EF200E94CD230E944D120E94C21665
:102DB0000E94C9160E946012FBCF9093E502809397
:102DC000E40208958FE891E00197F1F700C0000058
:102DD000089581E00895CF93DF93D62F0E94E916DE
:102DE000C82F882341F06AE070E089EAD11101C060
:102DF0008AEA0E9452098C2FDF91CF91089581E0D9
:102E000080937D0352985A9A53985B9A0E94E216D7
:102E100020917D034FE753E0FA018E2F841B821728
:102E200008F0089589B182FB882780F94B9904C086
:102E300090E0892B8193F1CF92E0FBCFB0E0A0E04E
:102E4000E4E2F7E10C944729F12CE12C84E0C82E50
:102E5000D12C80917D03F81630F08E2DCDB7DEB7E2
:102E6000E8E00C9463290F2D10E0E9B1E2FBEE27B6
:102E7000E0F94B9940C080E08E2BD801A158BC4F9F
:102E8000EC919E2F93709817A1F1EE0FEE0FE82BA7
:102E9000EC93EF70F0E0EA56FE4FE801C258DC4FC9
:102EA00080819881890F888320E084305CF0F8016C
:102EB000E458FC4F80818F5F808360E08F2D0E94FB
:102EC000EB1621E088818D3F5CF4F801E458FC4F5B
:102ED00080818150808361E08F2D0E94EB1621E07C
:102EE0008881082E000C990BB6010E942329888343
:102EF000E22AF394AECF82E0BFCF809102011F920D
:102F00008F93809103011F928F93809106011F92EE
:102F10008F93809107011F928F93809108011F92D8
:102F20008F93809109011F928F9384E493E09F9384
:102F30008F930E9489068DB79EB70E960FB6F894B0
:102F40009EBF0FBE8DBF0895883228F58E3108F0E0
:102F500072C08B3041F130F4873009F4CFC083EA7E
:102F600094E0E0C0833109F45FC08431C1F785EC9F
:102F700094E00E94F00580918403882309F4FEC048
:102F800010928403109283031092820310928103A3
:102F90001092800320C08F3409F4C7C0D8F589325D
:102FA00031F38833E1F688EC94E00E94F0050E944A
:102FB0007D171F9281E08F931F9288E08F9381ECA1
:102FC00093E09F938F930E9489060F900F900F902C
:102FD0000F900F900F9020918403222309F4C9C011
:102FE0008091800390918103009711F486EA91E02B
:102FF0009F938F931F922F9381E994E09F938F93D8
:103000000E9489060F900F900F900F900F900F90D5
:1030100081E00895813509F49CC008F49CC0823594
:1030200009F09DCF81E082C087EB94E00E94F0051B
:103030000E947D17D0CF8D5180938403833009F493
:1030400042C058F48130C1F08230A1F11092840363
:1030500084EB94E00E94F0051BC0853009F445C064
:10306000D8F1863099F782E091E0909383038093C2
:1030700082038EEE91E008C089E091E09093830393
:10308000809382038AEA91E0909381038093800386
:1030900080918403882309F49ECF1F928F9380EB45
:1030A00094E09F938F930E9489060F900F900F904A
:1030B0000F9091CF88E091E09093830380938203F7
:1030C00083EB91E0E1CF87E091E0909383038093DD
:1030D00082038FEB91E0D8CF86E091E09093830359
:1030E000809382038CEC91E0CFCF83E091E09093CA
:1030F0008303809382038BED91E0C6CF81E08093C0
:10310000090184E1809308018AE0809307018EE140
:103110008093060188E08093030188E28093020196
:1031200086EA94E00E94F00556CF8AE0E09182039F
:10313000F09183033097D1F02081082E000C990B79
:10314000820F911D8F3F910541F03CF08FEF8083FE
:1031500007C08FEFEBCF86EFE9CF97FFF8CF108254
:1031600080811F928F938DE994E09BCF8AE994E050
:10317000D9CF8DE894E00E94F0054ACF80E0089511
:10318000CF93C82F1F928F938EED94E09F938F93D0
:103190000E94890681E090E002C0880F991FCA95BD
:1031A000E2F70E94160C0E94C90B0F900F900F902F
:1031B0000F90CF910895EF92FF920F931F93CF93AB
:1031C000DF938B3109F410C108F0B0C08B3009F4E3
:1031D000CCC008F082C0863009F4DAC048F48530EB
:1031E00009F4B2C083E898E00E94F00580E0E0C0F6
:1031F000873009F4E2C08830A9F70E9461111F925C
:103200008F9386E698E09F938F930E9489060E9491
:103210005C1183FB992790F91F929F9382FB99275A
:1032200090F91F929F9381FB992790F91F929F938A
:10323000982F91701F929F931F928F938DE198E02A
:103240009F938F930E9489060E94661193FB222709
:1032500020F91F922F9387FB222720F91F922F938B
:1032600086FB222720F91F922F9385FB222720F926
:103270001F922F9384FB222720F91F922F9383FB09
:10328000222720F91F922F9382FB222720F91F92D9
:103290002F9391FB222720F91F922F93292F217022
:1032A0001F922F9381FB222720F91F922F93282F03
:1032B00021701F922F939F938F938EE197E09F939E
:1032C0008F930E9489068DB79EB78A960FB6F894A1
:1032D0009EBF0FBE8DBF81E06BC0803109F49CC0E2
:1032E00080F48E3009F07ECF90917803892F8B7F08
:1032F00092FF84608093780382FF8BC08EEA98E00F
:103300007FC0863109F498C0893109F06BCF83E022
:1033100092E09F938F938EE495E09F938F930E940A
:1033200089060F900F900F900F90D5CF8A3249F1F8
:1033300090F4873211F128F48E3108F453CF8D5177
:103340001DC0893209F04ECF81EF98E00E94F00550
:103350000E942A07C0CF833468F48A3308F091C0F2
:10336000853359F0883309F03DCF88E795E00E9416
:10337000F005B1CF833409F035CF80E00E94C0184A
:10338000AACF81E199E00E94F0050E94F111A3CF3C
:1033900080917803807F8093780381E595E00E9497
:1033A000F0058DE099E00E94F00581E080938503AF
:1033B000CDB7DEB7E6E00C94652990917803892FAC
:1033C0008E7F90FF81608093780380FF03C085EE3D
:1033D00098E0CDCF88ED98E00E94F00580917803C9
:1033E000817F8093780377CF90917803892F8D7FA9
:1033F00091FF82608093780381FF08C08BEC98E096
:103400000E94F005809178038160EBCF8DEB98E00E
:10341000AECF8EE998E0ABCF90917803892F877F6C
:1034200093FF88608093780383FF03C082E998E06C
:10343000E7CF85E898E09BCF0E946221162F072FE7
:10344000F82EE92ED091AB03C09114010E94671FA2
:10345000EF92FF920F931F931F92DF931F92CF93D0
:103460001F928F9383EE94E09F938F930E9489061F
:103470008DB79EB70C960FB6F8949EBF0FBE8DBF4A
:103480002ACF89537BCF80E008950E94431A089584
:10349000CF93C82F809185038130C1F0882339F004
:1034A000823009F444C01092850380E00DC00E9470
:1034B00045108232D1F78C2F0E94431A81111BC014
:1034C0008C2F0E94DB188170CF9108950E944510C7
:1034D000823289F38C2F0E94451A81111BC0C4319E
:1034E000D9F060F4CB3071F0C031D1F088ED94E0C8
:1034F0000E94F00513C081E090E0E5CFC93261F091
:10350000C833A1F781E595E00E94F0058AED94E0CB
:103510000E94F00581E0D7CF1092850380E0D3CFE1
:1035200082E08093850388E30E94A417F3CF8C2F59
:103530000E94A41781E0C8CFCF93DF93EB018631BF
:103540009C4711F50E9445109D81992399F08A7A34
:1035500091E009F490E090938603811109C089E21B
:103560000E9469200E94D41080E0DF91CF910895DD
:1035700085E3F6CF80918603811104C089E20E9421
:103580007120F0CF85E3FBCF81E0EFCFCF93DF93C6
:10359000EC01FB018581882309F4D2C09E013057DC
:1035A0002332310508F0B2C00E9466119093AD033A
:1035B0008093AC03FE01E150F047E232F10520F4C4
:1035C000E250F64D0C9437298091AC0381608093D2
:1035D000AC0393C08091AD0388608093AD038DC030
:1035E0008091AC038260F3CF8091AC038460EFCF15
:1035F0008091AC038860EBCF8091AD038160EDCF0B
:103600008091AD038260E9CF8091AC038061DFCF10
:103610008091AC038062DBCF8091AC038064D7CF14
:103620000E94C90B8091AC038068D1CF8091AC031C
:103630008C60CDCF8091AD038360CFCF8091AC0300
:103640008E7FC5CF8091AD03877FC7CF8091AC03BC
:103650008D7FBDCF8091AC038B7FB9CF8091AC03C0
:10366000877FB5CF8091AD038E7FB7CF8091AD03BB
:103670008D7FB3CF8091AC038F7EA9CF8091AC03B7
:103680008F7DA5CF8091AC038F7BA1CF0E94C90B0A
:103690008091AC038F779BCF8091AC03837F97CFD2
:1036A0008091AD038C7F99CF8091AC0382FB9927E9
:1036B00090F921E0922790FB82F990FB83F987CF64
:1036C0008091AD03982F909591708E7F892B90FB00
:1036D00081F983CF9091AC03892F8F7B96FF806413
:1036E00076CF0E94C90B9091AC03892F97FB87F985
:1036F00080586DCF81E00E94F4118091AC039091CD
:10370000AD030E946B110E94C90B80E0DF91CF9145
:10371000089580E0F0CF9091AC03892F8F7E94FFC5
:10372000806155CF9091AC03892F8E7F90FF81608F
:103730004ECF9091AD03892F877F93FF88604DCF47
:1037400081E0E4CF282F35EB2303C001112497FF3C
:1037500004C080589109892F089580589F4FFBCF4E
:1037600080918D0380FF0DC06091070170E0660FAE
:10377000771F6038710570F56115710569F1862F45
:10378000089581FF07C06091070184E0689FB00140
:103790001124EFCF6091070182FD0AC080918C0354
:1037A0008823A9F02091060160910701821710F08B
:1037B00088E0ECCF869FC001112433E0880F991F69
:1037C0003A95E1F7622F70E00E942329D2CF68E09A
:1037D00070E0D5CF8FE7089581E0089580918D0343
:1037E00080FF0CC06091030170E075956795759539
:1037F00067956115710549F1862F089581FF06C00F
:103800006091030170E075956795F3CF60910301B6
:1038100082FD0BC090918B039923A1F0609102016E
:1038200080910301961738F0682F70E060387105B9
:1038300000F38FE70895899FC001112470E00E9472
:103840002329F4CF61E070E0D7CF81E00895909113
:10385000900320919103922B20919303922B20911E
:103860009203922B31F098E090938C0391E0909327
:103870008B038D3C31F40E94B01B819580939103A2
:1038800008958E3C19F40E94B01BF8CF8F3C31F4A0
:103890000E94B01B8195809390030895803D19F498
:1038A0000E94B01BF8CF893D29F40E94EE1B809343
:1038B000920308958A3D21F40E94EE1B8195F7CF73
:1038C0008B3D31F40E94EE1B819580939303089504
:1038D0008C3D19F40E94EE1BF8CF9FE2980F9830B0
:1038E00070F4815D990B21E030E001C0220F8A95D0
:1038F000EAF780918F03822B80938F0308958D3D8B
:1039000031F480918D03816080938D0308958E3D05
:1039100021F480918D038260F7CF8F3DB9F78091BC
:103920008D038460F1CF409190038D3C59F48091D8
:10393000910387FF0DC01092910341110BC01092AB
:103940008C0308C08E3C81F48091910318169CF37F
:10395000442381F08091920390919303892B09F085
:103960005AC010928B0308958F3C49F447FFF0CF63
:1039700010929003809191038111ECCFE0CF803DB4
:1039800019F41416ACF3E4CF90919203893D29F415
:103990001916F4F610929203DBCF8A3D19F497FFC3
:1039A000D7CFF8CF909193038B3D29F497FFD0CFD9
:1039B00010929303CDCF8C3D19F41916CCF3C8CFD8
:1039C0009FE2980F983090F4815D990B21E030E0F0
:1039D000B90102C0660F771F8A95E2F7CB01809587
:1039E00090918F03892380938F03B2CF8D3D31F463
:1039F00080918D038E7F80938D03AACF8E3D21F41D
:103A000080918D038D7FF7CF8F3D09F0A1CF8091FD
:103A10008D038B7FF0CF08958091780383FF7EC064
:103A200089E499E00E94F00580918F031F928F93A3
:103A300084E499E09F938F930E94890682E499E041
:103A40000E94F00580919003282F082E000C330B64
:103A50003F938F938FE399E09F938F930E94890602
:103A60008DE399E00E94F00580919103282F082EA4
:103A7000000C330B3F938F938AE399E09F938F93CE
:103A80000E94890688E399E00E94F00580919203E4
:103A9000282F082E000C330B3F938F9385E399E07A
:103AA0009F938F930E94890683E399E00E94F0051B
:103AB00080919303282F082E000C330B3F938F9394
:103AC00080E399E09F938F930E9489068DE299E0AD
:103AD0000E94F00580918C031F928F938AE299E0F7
:103AE0009F938F930E94890688E299E00E94F005D7
:103AF00080918D031F928F9385E299E09F938F931E
:103B00000E94890682E299E00E94F0058DB79EB777
:103B10004C960FB6F8949EBF0FBE8DBF0E945621E3
:103B20009C019091900380919103982B21F0309308
:103B30008A03209389039091920380919303982B99
:103B400021F030938803209387038EE893E00E944E
:103B5000C11F089586E0EEE8F3E0DF011D928A952B
:103B6000E9F710928C0310928B0310928D03089545
:103B7000FC01828181110EC0838181110BC084817F
:103B8000811108C091E08581811101C090E0892FE9
:103B90008170089581E0FCCFA6E0B0E0E2EDFDE1A8
:103BA0000C944C2986E0EEE8F3E0DE0111960190DA
:103BB0000D928A95E1F71092900310929103109262
:103BC0009203109293038B819C81892B89F08091C1
:103BD000890390918A030E946E21AC0190918C031D
:103BE0009923C9F1809108018417150608F440C093
:103BF0008D819E81892B91F080918703909188031C
:103C00000E946E21AC0190918B03992309F46AC044
:103C1000809104018417150608F472C0BE016F5F1D
:103C20007F4F8EE893E00E948420811105C08EE8CA
:103C300093E00E94B81D81110E940C1D86E0FE01D8
:103C40003196AEE8B3E001900D928A95E1F72696A1
:103C5000E3E00C946829209109018AE0289F9001F3
:103C600011242417350720F69F5F90938C0302C020
:103C70009F3FD1F71B81112359F00E94B01B9FEF8A
:103C800011160CF491E0899F802D112480939003EC
:103C90001C81112359F00E94B01B9FEF11160CF4E8
:103CA00091E0899F802D112480939103809190034E
:103CB000882309F49DCF10919103112309F498CF23
:103CC0000E94A21B882351F080939003812F0E94B1
:103CD000A21B882329F0809391038ACF81E0F4CF3F
:103CE00081E0F9CF209105018AE0289F90011124FD
:103CF0002417350708F092CF9F5F90938B0302C083
:103D00009F3FD1F71D81112359F00E94EE1B9FEFB9
:103D100011160CF491E0899F802D11248093920359
:103D20001E81112359F00E94EE1B9FEF11160CF417
:103D300091E0899F802D11248093930380919203B9
:103D4000882309F46BCF10919303112309F466CFF4
:103D50000E94A21B882351F080939203812F0E941E
:103D6000A21B882329F08093930358CF81E0F4CFDE
:103D700081E0F9CF0F931F93CF93DF93C42FD22FFE
:103D8000FC0185818823C9F0409396030E94562147
:103D9000909395038093940380E28C0F883040F4D5
:103DA000C77081E001C0880FCA95EAF70E947309C5
:103DB000DF91CF911F910F910895109196031413E5
:103DC00032C080919403909195030E946E21883CAB
:103DD000910548F5C0E2CD0F1D17B9F080E2810FC3
:103DE000883040F4177081E001C0880F1A95EAF717
:103DF0000E947A09C83048F481E09D2F977001C075
:103E0000880F9A95EAF70E947309802F0E946A0929
:103E1000C83070F6D77081E001C0880FDA95EAF7F4
:103E20000E947A09C5CF80E28C0F883008F6C770EF
:103E300081E001C0880FCA95EAF7F2CF0F93DB014A
:103E400088519C4787309105A0F5FC01E05EF54D57
:103E50000C94372906E221EE41EE6AE17CE7CD01C0
:103E60000E94BA1E80E00F91089507E225EE45EE0C
:103E70006BE17CE7F4CF06E221EE40EE68E17CE7FF
:103E8000EECF07E225EE44EE69E17CE7E8CF06E2FB
:103E900021EE42EE6CE17CE7E2CF07E225EE46EE52
:103EA0006DE17CE7DCCF08E221E045EE6EE17CE7E6
:103EB000D6CF15968C91882319F010929603D3CF04
:103EC00081E0D1CF90939C0380939B030895E09170
:103ED0009B03F0919C03309729F00190F081E02D35
:103EE0000995089580E008950E94671F0895EF9254
:103EF000FF920F931F93CF93DF93EC01E0919B030D
:103F0000F0919C033097C1F10280F381E02D099577
:103F10008091780382FF30C080FF0DC088811F929E
:103F20008F9384E799E09F938F930E9489060F9067
:103F30000F900F900F907E0186E0E80EF11C0EE6C8
:103F400019E08091780380FF0BC08A811F928F93C4
:103F50001F930F930E9489060F900F900F900F9060
:103F60002196CE15DF0569F78091780380FF04C0A4
:103F70008CE699E00E94F005CDB7DEB7E6E00C9440
:103F80006529E0919B03F0919C03309739F022E082
:103F9000DC012C930680F781E02D09950895A3E0BC
:103FA000B0E0E5EDFFE10C944D29209199033091AB
:103FB0009A0328173907A1F090939A0380939903E5
:103FC000E0919B03F0919C03309751F023E029830B
:103FD0009B838A830084F185E02DCE0101960995AB
:103FE0002396E2E00C946929A3E0B0E0EAEFFFE158
:103FF0000C944D2920919703309198032817390785
:10400000A1F09093980380939703E0919B03F09124
:104010009C03309751F024E029839B838A8300849A
:10402000F185E02DCE01019609952396E2E00C94EE
:10403000692940910001509101019A012E5F3F4F83
:10404000485F5F4F80E02417350709F40895F901B0
:1040500091919F019923B9F38F5FF5CF882371F078
:104060002091000130910101F9013296285F3F4F04
:104070009191981729F0E217F307D1F780E008959E
:1040800081E008959C01FC0132969FEF80E0419110
:10409000461751F09F3F19F4411101C0982F8F5FCF
:1040A0008630A9F79F3F09F40895290F311D97FD28
:1040B0003A95F90162830895FC01329608962191A0
:1040C000261303C0DF0111971C92E817F907B9F70F
:1040D0000895682F80910001909101010E94422073
:1040E0000895682F80910001909101010E945C2049
:1040F0000895E0910001F0910101329686E0DF0120
:104100001D928A95E9F70895DC01FB0111969C91B7
:1041100011978181981322C012968C91129788234F
:1041200019F0928189131AC013968C9113978823E2
:1041300019F09381891312C015968C9115978823D5
:1041400019F0958189130AC014969C91992321F046
:1041500081E02481291303C080E001C081E08170E7
:10416000089508950E94B1200895811106C081E04C
:1041700080939D030E94B220089582E0F9CF83E0EE
:1041800080939D030E94B22008950E94B520089557
:1041900081E080939D030E94B22008950E94C82070
:1041A0000895089508950E94D220089508950895CD
:1041B0000E94D1200895CF930E94D6200E944916D4
:1041C0000E94D720C0E08C2F0E944715811105C0A6
:1041D000CF5FC830C1F7CF91089581E0FCCF85B79C
:1041E000806885BF85B7806885BF08951F921FB618
:1041F0001F9211248F939F93AF93BF9380919E033F
:10420000811113C08091BE039091BF03A091C003A0
:10421000B091C1034196A11DB11D8093BE0390933F
:10422000BF03A093C003B093C103BF91AF919F910F
:104230008F911F901FBE1F9018958091C6038430E8
:1042400031F10E949F0710929E0388E190E020E4E4
:104250000FB6F894A895809360000FBE209360007D
:1042600083B7817F846083BF83B7816083BF789485
:10427000889583B78E7F83BF0FB6F894A8958091F9
:104280006000886180936000109260000FBE089506
:104290000E94C90B0E94A407089582E084BD93E0A8
:1042A00095BD9AEF97BD80936E0008952FB7F8944F
:1042B0008091BE039091BF03A091C003B091C10350
:1042C0002FBF08952FB7F8946091BE037091BF037C
:1042D0008091C0039091C1032FBF08959C014FB7F7
:1042E000F8948091BE039091BF03A091C003B09158
:1042F000C1034FBF821B930B089578941F921FB682
:104300001F9211248F939F93AF93BF938091BE030D
:104310009091BF03A091C003B091C1030196A11D6C
:10432000B11D8093BE039093BF03A093C003B093CD
:10433000C103BF91AF919F918F911F901FBE1F909E
:10434000189581E08093E00080E28093D80010927D
:10435000C9008FE19EE40197F1F700C0000087E0FB
:1043600090EBDC018093CF039093D003A093D10313
:10437000B093D20388E19CE00FB6F894A89580939F
:1043800060000FBE90936000FFCF88E19CE00FB605
:10439000F894A895809360000FBE90936000FFCFC3
:1043A0008091AA03089508959B01BA019091C603D4
:1043B0009430E9F48F708093E9009FEF8091E800DA
:1043C000915085FD06C085ED8A95F1F700009111A9
:1043D000F5CF8091E80085FF0AC050E040E0C901B8
:1043E0000E9491248091E8008E778093E8000895E0
:1043F00043E050E0BC0182E00E94D421089546E0F1
:1044000050E0BC0182E00E94D4210895CF93DF9355
:10441000EC0148E050E0BC0181E00E94D42188E03A
:10442000FE01A2EAB3E001900D928A95E1F7DF91D7
:10443000CF91089583EB99E00E94F0058091C50328
:10444000811109C00E9421260E947E268091E200EF
:1044500084608093E20008958FEA99E00E94F0055D
:104460001092C50308958BEA99E00E94F0050E941E
:10447000C820089587EA99E00E94F0056091C20380
:1044800081E0611101C080E00E94BF20089583EAAD
:1044900099E00E94F0059091C60381E0943009F004
:1044A00080E06091C2030E94C52008952091A0037E
:1044B0002F5F822F62E30E941729992319F020931E
:1044C000A00308951092A0038091A1038823F1F026
:1044D0008091C6038430C1F49091E9009F702091CF
:1044E000EC00822F817020FD80E8892B93E090936F
:1044F000E9009091EB0090FF04C09091EE0097FDD1
:1045000008C08F708093E9001092A1030895109263
:10451000F1009091E80095FDFACF9091E80090FFAE
:10452000F0CF9091E8009E779093E800EACF42E0C8
:1045300061EC81E00E949D2542E261EC82E00E94F4
:104540009D2542E261EC83E00E949D259091C60387
:1045500081E0943009F080E06091C2030E94B520B0
:1045600008958091C803833009F461C030F481302C
:10457000D1F1823009F49EC008958A3009F48AC0CE
:104580008B3009F46FC0893009F050C08091C703A7
:10459000813209F04BC08091CB039091CC030297FC
:1045A00008F044C08091E800877F8093E800809104
:1045B000E80082FF37C09091F3008091F2000297EB
:1045C00031F48091F100813011F0863021F4809136
:1045D000F1008093AA038091E8008B778093E80034
:1045E0000E94D12523C08091C703813AF9F48091BC
:1045F000E800877F8093E8008091CB039091CC0303
:10460000892B61F468E082EA93E070E00E94E02484
:104610008091E8008B778093E800089560E090E057
:1046200080E0F3CF8091C6038111C1CF08958091BE
:10463000C703813AD9F78091CB039091CC03892BA2
:10464000A9F78091E800877F8093E8008091E800D7
:1046500080FFFCCF809114018093F1008091E800ED
:104660008E77BCCF8091C703813201F78091CB0355
:104670009091CC03892BD1F68091E800877F8093BD
:10468000E8000E94D1258091C903809314010E9403
:10469000C90B08958091C703813241F68091E800EB
:1046A000877F8093E8000E94D1258091CA03809380
:1046B000AB0308958091C703813A09F0B7CF809189
:1046C000E800877F8093E8008091E80080FFFCCFBE
:1046D0008091AB03C1CF9FB7F8941092A1039FBF05
:1046E0009091C603943009F048C02091E9002F70E2
:1046F0003091EC00932F917030FD90E8922B23E0E5
:104700002093E9002091EB0020FF34C02091EE00BF
:1047100027FF30C020919F03222321F02091E80041
:1047200025FF28C010929F0326E03091E80035FF56
:1047300014C08093F1008091E80085FD27C080912E
:10474000E80080FFFCCF8091E8008E778093E8003E
:104750009F709093E90080E008953091C603343053
:1047600049F43091EB0035FD05C0215041F481E062
:1047700080939F039F709093E9008FEF0895EFE976
:10478000FFE03197F1F700C00000CFCF8FB7F8946A
:1047900021E02093A1038FBFDBCF84B7877F84BF45
:1047A0000FB6F894A89580916000886180936000AE
:1047B000109260000FBE80E890E00FB6F8948093EE
:1047C0006100909361000FBE0E94CE2008950E9468
:1047D00021260E947E26E2EEF0E0808184608083C4
:1047E00078940E94FC2808958AE091E00E94621F5C
:1047F00008958091C603853071F48091780380FF1D
:1048000004C08DE899E00E94F0058091C6038530D0
:1048100019F00E94482108950E941D218091C4032F
:10482000882399F30E94DB20882379F30E947B245C
:104830000E94C90BEACF08959A014091CD0350918F
:10484000CE030E9424240895492F55274330510553
:1048500021F168F44130510509F443C0423051055B
:1048600009F444C090E080E050E040E026C04132CE
:10487000510551F142325105A9F76330710590F7A6
:10488000FB01EE0FFF1FE952FD4F408151816C5239
:104890007D4FFB01808190E010C099278130910508
:1048A00081F0009729F00297E9F6E7EBF9E002C002
:1048B000E1E0FAE0849190E0AF01F9015183408397
:1048C0000895E9EEF9E0F6CF6330710558F6660F0A
:1048D000771FFB01E352FD4F4081518189E090E059
:1048E000ECCF82E190E040E65AE0E7CF8BE590E044
:1048F00045E05AE0E2CF80E189BD82E189BD09B49B
:1049000000FEFDCF8091D8008F7D8093D8008091EC
:10491000E00082608093E0008091E00081FDFCCFA8
:104920000895AF92BF92CF92DF92FF920F931F93A1
:10493000CF93DF936C01EB018A010E94F025F82EE2
:10494000811123C00115110539F0F8018081918191
:10495000C81BD90BC80ED91EB12CA12C2097A9F0C9
:104960008091E80085FD22C08091E8008E778093D9
:10497000E80001151105A1F0F80180819181A80ED0
:10498000B91EB182A08285E0F82E8F2DDF91CF91E4
:104990001F910F91FF90DF90CF90BF90AF9008953F
:1049A0000E94F0258823D1F2F82EEFCFF6018191F5
:1049B0006F018093F1002197FFEFAF1ABF0ACECFAE
:1049C000FC018091CD039091CE0386179707A0F04C
:1049D0006115710529F49091E8009E779093E800A5
:1049E00090E06115710551F4911108C08091E800C3
:1049F00082FF34C080E00895BC01F2CF8091C603ED
:104A00008823C1F18530C1F18091E80083FD30C079
:104A10008091E80082FDEACF8091E80080FFE1CF3D
:104A20008091F3002091F200382F6115710519F083
:104A30002830310558F091E02830310509F090E038
:104A40002091E8002E772093E800CBCF81918093CE
:104A5000F100615071092F5F3F4FE7CF8091C6038E
:104A6000882341F0853041F08091E80083FFBECF7C
:104A700081E0089582E0089583E00895FC0180912B
:104A8000CD039091CE0386179707A0F061157105AD
:104A900029F48091E8008E778093E80090E061151A
:104AA000710551F4911108C08091E80082FF35C072
:104AB00080E00895BC01F2CF8091C6038823C9F13C
:104AC0008530C9F18091E80083FD31C08091E80014
:104AD00082FDEACF8091E80080FFE1CF8091F30072
:104AE0002091F200382F6115710519F02830310539
:104AF00058F091E02830310509F090E08091E8000D
:104B00008E778093E800CBCF84918093F10031962B
:104B1000615071092F5F3F4FE6CF8091C603882314
:104B200041F0853041F08091E80083FFBDCF81E006
:104B3000089582E0089583E00895982F973028F033
:104B40008F708093E90081E008959093E900242F0D
:104B5000762F50E0981731F07091EC002091ED0025
:104B60005091F00021FD02C09F5FE8CF3091EB0033
:104B70003E7F3093EB003091ED003D7F3093ED00B0
:104B80003091EB0031603093EB007093EC00209398
:104B9000ED005093F0002091EE0027FDE5CF80E07E
:104BA00008958091C70387FF13C08091E80082FFBA
:104BB00006C08091E8008B778093E80004C0809164
:104BC000C6038111F2CF08958091C6038823D9F3DB
:104BD0008091E80080FFF8CF8091E8008E77ECCFDD
:104BE0002091E4003091E50095E6A9012091EC00C8
:104BF000822F817020FF06C08091E80080FF06C0F0
:104C000080E008952091E80022FD1AC08091C6033B
:104C1000882389F0853089F08091EB0085FD0FC0F5
:104C20002091E4003091E50042175307F9F29150CA
:104C3000E1F684E0089582E0089583E0089581E03C
:104C400008950E9490260E949826E0EEF0E0808170
:104C500081608083E8EDF0E080818F77808319BCEC
:104C6000A7EDB0E08C918E7F8C9380818F7E8083C6
:104C70001092C50308950F931F93CF93DF930E9463
:104C800090260E949826C8EDD0E088818F7788838F
:104C900088818068888388818F7D888319BC109281
:104CA000C6031092C2031092C4031092C30300EE15
:104CB00010E0F80180818B7F808388818160888308
:104CC00042E060E080E00E949D25E1EEF0E080811E
:104CD0008E7F8083E2EEF0E080818160808380813E
:104CE00088608083F80180818E7F808388818061E5
:104CF0008883DF91CF911F910F910895E8EDF0E047
:104D000080818F7E8083E7EDF0E080818160808309
:104D100084E082BF81E08093C5030E943B26089512
:104D2000E8EDF0E080818E7F80831092E2000895AC
:104D30001092DA001092E10008951F920F920FB6C0
:104D40000F9211242F933F934F935F936F937F9311
:104D50008F939F93AF93BF93EF93FF938091E10065
:104D600082FF0BC08091E20082FF07C08091E100CA
:104D70008B7F8093E1000E9456228091DA0080FFB1
:104D800019C08091D80080FF15C08091DA008E7F15
:104D90008093DA008091D90080FF96C080E189BDC0
:104DA00082E189BD09B400FEFDCF81E08093C60396
:104DB0000E941A228091E10080FF19C08091E200D8
:104DC00080FF15C08091E2008E7F8093E200809189
:104DD000E20080618093E2008091D800806280933D
:104DE000D80019BC85E08093C6030E943A228091C6
:104DF000E10084FF2BC08091E20084FF27C080E1A6
:104E000089BD82E189BD89B5982F917080FFFBCF64
:104E10008091D8008F7D8093D8008091E1008F7EB3
:104E20008093E1008091E2008F7E8093E200809188
:104E3000E20081608093E2008091C203882309F43C
:104E400049C084E08093C6030E9447228091E1001C
:104E500083FF29C08091E20083FF25C08091E1009B
:104E6000877F8093E10082E08093C6031092C203A3
:104E70008091E1008E7F8093E1008091E2008E7F3F
:104E80008093E2008091E20080618093E20042E042
:104E900060E080E00E949D258091F0008860809312
:104EA000F0000E943322FF91EF91BF91AF919F914B
:104EB0008F917F916F915F914F913F912F910F90C3
:104EC0000FBE0F901F90189519BC1092C6030E9438
:104ED0002C2270CF8091E30087FD93E09093C6036E
:104EE000B3CF1F920F920FB60F9211242F933F93BF
:104EF0004F935F936F937F938F939F93AF93BF93E2
:104F0000CF93DF93EF93FF93D091E900DF7080910F
:104F1000EC00C82FC17080FDC0E81092E9008091BC
:104F2000F000877F8093F00078940E94B52710925C
:104F3000E9008091F00088608093F000CD2BCF7065
:104F4000C093E900FF91EF91DF91CF91BF91AF91B5
:104F50009F918F917F916F915F914F913F912F9191
:104F60000F900FBE0F901F901895AAE2B0E0EBEBE8
:104F7000F7E20C944C2987EC93E02091F100FC01BE
:104F80002193CF01F3E08F3C9F07B9F70E94B12234
:104F90008091E80083FF1EC18091C7039091C803F0
:104FA0009A3008F017C1E92FF0E0E95DF54D0C9457
:104FB0003729803899F0823809F00CC18091CB03F1
:104FC0008F70873008F006C18093E9008091EB0074
:104FD00085FB882780F91092E90006C08091C30301
:104FE0009091C403911182609091E800977F909313
:104FF000E8008093F1001092F1008091E8008E7734
:10500000E5C0882309F4D3C0823009F0E3C0809161
:10501000C9038111D6C08091CB038F702FEF280F69
:10502000263008F0D7C08093E9002091EB0020FFE4
:10503000C8C0933031F48091EB0080628093EB0024
:10504000C0C09091EB0090619093EB0021E030E0C4
:1050500001C0220F8A95EAF72093EA001092EA0035
:105060008091EB008860EACF8111B4C01091C90330
:105070001F778091E3008078812B8093E3008091FB
:10508000E800877F8093E8000E94D1258091E800A6
:1050900080FFFCCF8091E30080688093E30082E092
:1050A000111183E08093C60395C08058823008F0C8
:1050B00091C08091C9039091CA038C3D23E092076F
:1050C000A1F583E08A838AE289834FB7F894DE01F1
:1050D000139620E03EE051E2E32FF0E050935700BA
:1050E000E49120FF03C0E295EF703F5FEF708E2FD9
:1050F00090E0EA30C0F0C7968D939D932F5F2431E6
:1051000059F74FBF8091E800877F8093E8006AE2FB
:1051100070E0CE0101960E94E0248091E8008B7738
:105120008093E80057C0C096E7CF6091CB037091A1
:10513000CC03AE014F5F5F4F0E941C24BC01892B42
:1051400009F448C09091E800977F9093E800898126
:105150009A810E943E25E1CF8038E1F58091E800F8
:10516000877F8093E8008091C2038093F10045CF50
:10517000811130C09091C903923060F58091E800B0
:10518000877F8093E8009093C2030E94D12580918D
:10519000C203882311F084E005C08091E30087FDFD
:1051A000FACF81E08093C6030E94972213C08091BA
:1051B000C903813079F481E0933009F080E0809375
:1051C000C4031092E9008091E800877F8093E80093
:1051D0000E94D1258091E80083FF0AC08091E800F9
:1051E000877F8093E8008091EB0080628093EB00E2
:1051F000AA96E3E00C946829CF938091C603882394
:10520000A1F0C091E900CF709091EC00892F8170DE
:1052100090FD80E8C82B1092E9008091E80083FDA2
:105220000E94B527CF70C093E900CF910895991BD4
:1052300079E004C0991F961708F0961B881F7A958D
:10524000C9F78095089597FB072E16F4009407D0B0
:1052500077FD09D00E94742907FC05D03EF4909593
:1052600081959F4F0895709561957F4F0895EE0F3A
:10527000FF1F0590F491E02D09942F923F924F92D9
:105280005F926F927F928F929F92AF92BF92CF92D6
:10529000DF92EF92FF920F931F93CF93DF93CDB7DF
:1052A000DEB7CA1BDB0B0FB6F894DEBF0FBECDBF57
:1052B00009942A88398848885F846E847D848C8428
:1052C0009B84AA84B984C884DF80EE80FD800C8131
:1052D0001B81AA81B981CE0FD11D0FB6F894DEBF14
:1052E0000FBECDBFED010895AA1BBB1B51E107C046
:1052F000AA1FBB1FA617B70710F0A61BB70B881F66
:10530000991F5A95A9F780959095BC01CD010895F4
:10531000FB01DC0104C08D910190801921F4415002
:105320005040C8F7881B990B0895FB01DC0102C0AF
:1053300001900D9241505040D8F70895F999FECF51
:1053400092BD81BDF89A992780B50895A8E1B0E093
:1053500042E050E00C94E229DC01A40FB51F41505B
:10536000504048F0CB01840F951F2E910E94BD291B
:1053700041505040D0F70895262FF999FECF92BDA5
:1053800081BDF89A019700B4021639F01FBA20BD0A
:105390000FB6F894FA9AF99A0FBE08950396272F3C
:1053A0000E94BD290E94BC29252F0E94BD29242FBF
:1053B0000C94BD290196272F0E94BD290C94BC296D
:1053C000DC01CB01FC01F999FECF06C0F2BDE1BDC5
:1053D000F89A319600B40D9241505040B8F70895B4
:1053E000F894FFCFC209C209120A120A770A930A77
:1053F000F109F109980A090B180B180B1E1B921BD7
:10540000261BF01AF41A2A1BF81A2E1B3A1B041B2F
:105410008B1B081B3E1B0C1B421B6A1B101B461BD5
:10542000711B161B4C1B541BFC1A321B001B361B1A
:105430001A1B501B601B7A1B891BEA1A221B991B23
:105440003B1F411F2A1F351F471F4D1F531FD927C1
:105450000128EA280128EA2834285528EA28AC2817
:02546000B8286A
:105462005803280850011E0A1401D0210622D32114
:10547200FF21F82101E200E900EA00B500B600B719
:1054820000CD008301CC008A019201940121022304
:105492000224022502260227022A02B300B4006F68
:1054A2000070009F01CB019F02A002818283E20073
:1054B200E900EA00B500B600B700CD008301CC00D8
:1054C2008A0192019401210223022402250226026A
:1054D20027022A02B300B4006F0070009F01CB01C3
:1054E2009F02A00281828397C63435323331919074
:1054F2009466F7F6F5F400FF0100010000FFFF00DB
:1055020000010001FF003F3F3F006D6B5F64656C6F
:105512006179006D6B5F696E74657276616C006DA6
:105522006B5F6D61785F7370656564006D6B5F744E
:10553200696D655F746F5F6D6178006D6B5F776831
:1055420065656C5F6D61785F7370656564006D6B36
:105552005F776865656C5F74696D655F746F5F6DB9
:105562006178000A092D2056657273696F6E202DCD
:105572000A5649443A2030783532344428224D6F55
:105582006E7473696E6765722229205049443A200D
:1055920030783030303128226D6F6E7473696E67E7
:1055A20065722F7265626F756E642F726576342232
:1055B20029205645523A203078303030320A42554E
:1055C200494C443A2020284A616E20313920323039
:1055D2003234290A4F5054494F4E533A204C5546C3
:1055E20041204D4F5553454B455920455854524142
:1055F2004B455920434F4E534F4C4520434F4D4D41
:10560200414E4420343039360A4743433A20382E3B
:10561200332E30204156522D4C4942433A20322EED
:10562200302E30204156525F415243483A20617633
:1056320072350A00447B220F0B940A720A170A3051
:045642000A490A0007
:00000001FF
