:100000000C94EE030C9435040C9435040C943504D4
:100010000C9435040C9435040C9435040C9435047C
:100020000C9435040C9435040C940D290C94DF29A0
:100030000C94931D0C9435040C9435040C943504E5
:100040000C9435040C9435040C9435040C9435044C
:100050000C9435040C94FB1D0C9435040C9435045D
:100060000C9435040C9435040C9435040C9435042C
:100070000C9435040C9435040C9435040C9435041C
:100080000C9435040C9435040C9435040C9435040C
:100090000C9435040C9435040C9435040C943504FC
:1000A0000C9435040C9435040C943504120A140A8B
:1000B0001F0A160A180A1A0A1C0A1E0A210A230A0B
:1000C000250A300A270A290A2B0A2D0A2F0A320A82
:1000D000C312C312F512F5122C134C13D414D414FA
:1000E0008E13D4142F142F14A014A914D414CD14C7
:1000F0003C143C143C143C143C143C143C143C1480
:100100003C143C143C143C143C143C143C143C146F
:100110004D145A146114681472146315631575151F
:1001200075156C15751575157515631563157115B0
:100130007515751571154C2A732A652B732A652B55
:10014000BF2AE22A652B382B472B0A00253031368F
:1001500062003A200025303258000A722F632030A6
:100160003132333435363738394142434445460A13
:10017000006D6370323330313720646561747461AF
:10018000636865642121210A006D63703233303168
:10019000372061747461636865642121210A002934
:1001A000001E001F0020002100220036023702231B
:1001B0000024002500260027002A002B0014001A26
:1001C00000080015001700260227021C0018000C6A
:1001D000001200130031004C000400160007000953
:1001E000000A00000000000B000D000E000F00339D
:1001F000003400E1001D001B000600190005002F5F
:1002000000300011001000360037003800E5000112
:100210000000000000350039000000000000000070
:10022000005000510052004F0012500000E000E268
:1002300000E30000412D002E004A004D004B004E0F
:100240000028002C000000005C3A003B003C003D10
:10025000003E00000000003F00400041004200431B
:10026000000000000000000000000000000000008E
:10027000000000000000000000000044000000003A
:10028000000000000000000000000000000000006E
:100290000000000000000045000000000000000019
:1002A000000000000000000000000000000000004E
:1002B000000000000000000000000000000000003E
:1002C000000000000000000000AC00AA00A900AB84
:1002D000000000000000000000000001000000001D
:1002E0000000000000000000000000AE0000002937
:1002F000001E001F002000210022003602370223CA
:100300000024002500260027002A002B0014001AD4
:1003100000080015001700260227021C0018000C18
:10032000001200130031004C000400160007000901
:10033000000A00000000000B000D000E000F00334B
:10034000003400E1001D001B000600190005002F0D
:1003500000300011001000360037003800E50010B2
:1003600050000000003500390000000000000000CF
:10037000005000510052004F0001000000E300E275
:1003800000E00000432D002E004A004D004B004EBF
:100390000028002C000000005C3A003B003C003DBF
:1003A000003E00000000003F0040004100420043CA
:1003B000000000000000000000000000000000003D
:1003C00000000000000000000000004400000000E9
:1003D000000000000000000000000000000000001D
:1003E00000000000000000450000000000000000C8
:1003F00000000000000000000000000000000000FD
:1004000000000000000000000000000000000000EC
:10041000000000000000000000BC0081008000BB64
:1004200000000000000000000000000100000000CB
:100430000000000000000000000000AE00000044CA
:10044000454255473A2064697361626C65642E0ABF
:100450000044454255473A20656E61626C65642EE2
:100460000A00556E69636F646520696E707574204B
:100470006D6F64652073657420746F3A2025750A6A
:1004800000556E69636F646520696E707574206DC8
:100490006F646520696E697420746F3A2025750A4F
:1004A000000A002530325820006B6579626F617256
:1004B000645F7265706F72743A20000A00253032F2
:1004C00058006B6579626F6172645F7365745F6C0D
:1004D00065643A200064656C5F6B65795F6269747E
:1004E0003A2063616E27742064656C3A20253032AF
:1004F000580A006164645F6B65795F6269743A20D1
:1005000063616E2774206164643A20253032580A92
:1005100000646F6E652E0A00626F6F746D616769AB
:1005200063207363616E3A202E2E2E2000290A006C
:100530002575002F002575005D280025640020002A
:10054000256400200025640020002564007C00252F
:10055000303258006D6F7573656B6579205B62741E
:100560006E7C782079207620685D287265702F6116
:10057000636C293A205B006261636B6C6967687425
:1005800020737465703A2025750A006261636B6C94
:10059000696768742064697361626C650A006261EE
:1005A000636B6C6967687420656E61626C650A00D4
:1005B0006261636B6C6967687420746F67676C65F0
:1005C0003A2025750A006261636B6C696768742064
:1005D00064656372656173653A2025750A0062611E
:1005E000636B6C6967687420696E637265617365BB
:1005F0003A2025750A005B735D004B6579626F6177
:1006000072642073746172742E0A005B575D005B24
:10061000535D005B525D005B445D005B435D000425
:1006200003300000000E0348006F00740044006FA8
:10063000007800000012035A002E0050002E005ACD
:10064000002E004F002E0000000403090409025B85
:1006500000030100A0FA09040000010301010009E0
:1006600021110100012240000705810308000A0949
:10067000040100010300000009211101000122C052
:10068000000705820320000A09040200020300009B
:100690000009211101000122220007058303200027
:1006A00001070503032000011201100100000008EA
:1006B000EDFE1DE10100010203010631FF0974A1F5
:1006C000010975150026FF0095207508810209763D
:1006D000150026FF00952075089102C0050109024A
:1006E000A10185020901A1000509190129051500CB
:1006F00025019505750181029501750381010501AB
:10070000093009311581257F950275088106093860
:100710001581257F950175088106050C0A3802159B
:1007200081257F950175088106C0C005010980A15A
:100730000185031601002603001A81002A83007533
:100740001095018100C0050C0901A1018504160165
:1007500000269C021A01002A9C0275109501810056
:10076000C005010906A1018505050719E029E7155E
:1007700000250195087501810205081901290595D3
:10078000057501910295017503910105071900296D
:10079000EF1500250195F075018102C005010906DC
:1007A000A101050719E029E7150025019508750144
:1007B0008102950175088101050819012905950532
:1007C000750191029501750391010507190029FF33
:1007D000150026FF00950675088100C011241FBE74
:1007E000CFEFDAE0DEBFCDBF04B603FE27C08091B5
:1007F000870290918802A0918902B0918A02873085
:10080000904BA740B04BD1F410928702109288020F
:100810001092890210928A0214BE84B7877F84BF27
:100820000FB6F894A895809160008861809360006D
:10083000109260000FBEE0E0F8E3099511E0A0E03F
:10084000B1E0E4ECF8E502C005900D92A232B107E8
:10085000D9F722E0A2E2B1E001C01D92A738B207A9
:10086000E1F70E9428260C94602C0C940000FF9362
:10087000EF93E0912201F0912301309709F009955F
:10088000EF91FF910895FC018591803011F0EFDF29
:10089000FBCF0895FF27E0E230E247FF0CC041950F
:1008A00097FF09C0EDE26095709580959095611D68
:1008B000711D811D911D27FF02C0219530E350E27B
:1008C000AA27660F771F881F991FAA1FA41710F069
:1008D000A41B63955A95A9F7AA3008F0A95FA05DFB
:1008E000AF93F395611571058105910541F7ED32DF
:1008F00011F4EF93F395F21718F43F93F395FBCFB0
:100900008F91B5DFFA95E1F70895E991F991859115
:10091000803021F0853219F0AADFF9CF089520E068
:10092000E89455915532C1F3503311F468945591C0
:100930005A3348F4505390F3220F022E220F220F05
:10094000200D250FF4CF0EF42195899199915336FE
:1009500019F3533729F1533559F1BC0188279927E9
:10096000E8945C3621F489919991689455915436B4
:1009700039F446EF7EF077FF0DC08FEF9FEF0AC08E
:1009800055374AE039F0583540E121F0523642E01F
:1009900009F00895FF93EF937DDFEF91FF91B7CFBB
:1009A000FF93EF93FC0181918030B9F360DFFBCFBF
:1009B000FF93EF9368DFF1CFDF93CF93CDB7DEB72F
:1009C0002596A3DFCF91DF91089580B38C7080BB13
:1009D00081B38C7081BB0C94570784B1807F84B93C
:1009E00085B18F6085B98AB1837F8AB98BB18C60FC
:1009F0008BB93E98469A0C949D07089508950C94DF
:100A0000FE0480E885BF85BF0E94E5040E94ED04D6
:100A1000E8E7F1E084E291E01192119220E030E009
:100A2000DC01A20FB31F1C922F5F3F4F2E30310508
:100A3000B9F70E9621E08837920771F70C949B095D
:100A40000E94E5040E94ED04E8E7F1E011821082C3
:100A500013821282158214821782168211861086E2
:100A60001386128608959EE0899FB001112420E02C
:100A700030E040E050E0A1E0B0E0F901E60FF71F00
:100A8000EC5DFE4F9081992319F09150908309C03D
:100A9000CD01022E02C0880F991F0A94E2F7482B5D
:100AA000592B2F5F3F4F2E30310539F7CA0108957A
:100AB000CF932EE0629FB001112420E030E0A1E04E
:100AC000B0E0C5E0AD01022E02C0440F551F0A94EC
:100AD000E2F748235923452B31F0F901E60FF71FC0
:100AE000EC5DFE4FC0832F5F3F4F2E30310551F735
:100AF000CF910895CF92DF92EF92FF920F931F93C1
:100B0000CF930E94790788E7C82E81E0D82EC0E0F5
:100B1000C33091F038F4C13091F0C23099F4859A25
:100B20008D9812C0C43029F0C53061F4809A88983D
:100B30000BC0819A899808C0849A8C9805C0869ABF
:100B40008E9802C0879A8F988C2F0E945B0780EA4C
:100B50008A95F1F78C2F0E9433057C010E94D30700
:100B6000282F30E0369903C080E890E002C080E092
:100B700090E04B9903C000E011E002C000E010E0FB
:100B8000082B192B4A9903C080E092E002C080E054
:100B900090E0082B192B1B9903C040E054E002C0E1
:100BA00040E050E0042B152B1A9903C060E078E078
:100BB00002C060E070E0062B172B199903C080E09B
:100BC00090E102C080E090E0082B192B189903C037
:100BD00040E050E202C040E050E0F60180819181A7
:100BE000042B152B022B132B0E211F21E094F094C4
:100BF000E822F9220E291F296C2F802791270E94B5
:100C00005805F601019311936F010E94E504CF5F2F
:100C1000C63009F07DCF0E941A0981E0CF911F9163
:100C20000F91FF90EF90DF90CF900895E82FF0E0C4
:100C3000EE0FFF1FE858FE4F808191810895CF92FB
:100C4000DF92EF92FF920F931F93CF93DF938AE58A
:100C500091E00E94430488E7E82E81E0F82EC0E08E
:100C6000D0E095E5C92E91E0D92E0CE411E0DF9398
:100C7000CF93DF92CF920E94DC0482E591E00E9444
:100C80004304F701819191917F010E94D61B9F93AC
:100C90008F931F930F930E94DC048AE491E00E94DB
:100CA000430421968DB79EB708960FB6F8949EBF61
:100CB0000FBE8DBFC630D105D1F6DF91CF911F9108
:100CC0000F91FF90EF90DF90CF9008951092B900B0
:100CD0008CE08093B8000895EF92FF920F931F93DA
:100CE000CF93DF93182FEB011092BC0084EA80931E
:100CF000BC000E94C51D7C019091BC0097FD0EC0F8
:100D0000CF3F8FEFD807C1F30E94C51D8E199F09F1
:100D10008C179D0788F38EEF9FEF2EC09091B9003E
:100D2000987F983041F09091B900987F903119F0F8
:100D30008FEF9FEF21C01093BB0084E88093BC002D
:100D40000E94C51D8C019091BC0097FD0CC0CF3F47
:100D50008FEFD807C1F30E94C51D801B910B8C1724
:100D60009D0788F3D8CF8091B900887F883111F032
:100D70008034F1F680E090E0DF91CF911F910F91E8
:100D8000FF90EF9008950F931F93CF93DF93EB01A4
:100D90008093BB0084E88093BC000E94C51D8C0139
:100DA0009091BC0097FD0EC0CF3F8FEFD807C1F3E5
:100DB0000E94C51D801B910B8C179D0788F38EEF39
:100DC0009FEF0CC02091B900287F81E090E028328D
:100DD00011F480E090E0919581959109DF91CF9198
:100DE0001F910F9108950F931F93CF93DF93EC0101
:100DF00084E88093BC000E94C51D8C019091BC00CA
:100E000097FD0EC0CF3F8FEFD807C1F30E94C51DDD
:100E1000801B910B8C179D0788F38EEF9FEF03C00B
:100E20008091BB0090E0DF91CF911F910F910895C9
:100E300084E98093BC000895109284010E946606A4
:100E40002FEF83ED90E3215080409040E1F700C008
:100E5000000080E008950F931F93CF93DF931F92BC
:100E6000CDB7DEB7909184019923D1F0062F182FCA
:100E700064E670E080E40E946C0681110CC064E6B8
:100E800070E0812F0E94C306811105C064E670E006
:100E9000802F0E94C30689830E941807898101C0A0
:100EA00080E00F90DF91CF911F910F9108956FE334
:100EB00081E00C942B0761E070E001C0660F8A9519
:100EC000EAF7609581E00C942B076FE780E00E94C1
:100ED0002B076FE782E00E942B076FE78CE00E94F0
:100EE0002B076FEF81E00E942B0760EC83E10C94ED
:100EF0002B0764E670E080E40E946C06811110C04C
:100F00000E94180780918401811116C081E08093AE
:100F100084010E9465070E94531589E891E00AC088
:100F200080918401882341F0109284010E9453151E
:100F300081E791E00C94430408950E941C070C94EF
:100F400079070F931F93CF93DF9390918401992397
:100F500021F18B01D82F64E670E080E40E946C06DA
:100F6000C82F811116C064E670E08D2F0E94C30661
:100F7000C82F81110EC064E670E081E40E946C0607
:100F8000C82F811106C084E690E00E94F306F801A4
:100F900080830E9418078C2F01C080E0DF91CF91E1
:100FA0001F910F910895CF93DF931F92CDB7DEB7B6
:100FB0001982BE016F5F7F4F82E10E94A107898184
:100FC0000F90DF91CF910895279A2F98259A2D9A07
:100FD000269A2E9A249A2C9A259A2D982FEF80E7FC
:100FE00092E0215080409040E1F700C00000269A36
:100FF0002E982FEF80E792E0215080409040E1F75B
:1010000000C00000249A2C982FEF80E792E0215036
:1010100080409040E1F700C00000259A2D9A2FEF04
:1010200080E792E0215080409040E1F700C000004E
:10103000269A2E9A2FEF80E792E021508040904030
:10104000E1F700C00000249A2C9A279A2F9A259A3B
:101050002D98269A2E98249A2C982FE782E490E1D6
:10106000215080409040E1F700C00000279A2F985F
:10107000259A2D9A269A2E9A249A2C9A08950E949F
:10108000E4070C94FD040F931F93CF93DF939C010F
:101090003A9521153F4148F5EB018C0190FF03C0C3
:1010A00080EEFB01099511FF03C081EEFE01099559
:1010B00012FF03C082EEFE01099513FF03C083EE09
:1010C000FE0109950115104180F084EEFE0109959D
:1010D00085EEFE01099586EEFE01099587EEFE017B
:1010E000DF91CF911F910F910994DF91CF911F91C3
:1010F0000F910895877091E001C0990F8A95EAF7E2
:10110000892F0E941E1B0C94571B877091E001C011
:10111000990F8A95EAF7892F0E941E1B0C94571B82
:10112000877091E001C0990F8A95EAF7892F0E9494
:10113000241B0C94571B877091E001C0990F8A956E
:10114000EAF7892F0E94241B0C94571BCF93DF933F
:10115000EC01805E9109089710F0209719F465E87A
:1011600078E002C06AE778E0CE010E9443088C2F45
:10117000DF91CF910C94E610CF93DF93EC010E94A6
:101180000412CE01805E9109089710F0209719F49F
:101190006BE978E002C060E978E0CE01DF91CF91A1
:1011A0000C944308CF93DF93EC010E94A608CE0174
:1011B000DF91CF910C94BC0881E0089581E00895FF
:1011C0000C94DE081F93CF93DF9300D000D01F92C2
:1011D000CDB7DEB749835A8320919C0189819A81DA
:1011E000211112C0662349F00E94881A182F682F17
:1011F00089819A810E942D1A03C00E945C1A182FBF
:1012000069817A81812F04C00E94881A69817A815C
:101210000F900F900F900F900F90DF91CF911F9133
:101220000C94CD0AFC0140815181628173818481DB
:101230000C94E2080C94FF04E82FE295EF70F0E0C4
:1012400032A1282F2F7081E090E001C0880F2A95ED
:10125000EAF78095832382A30895CF92DF92EF92DD
:10126000FF92843030F4811105C090918000977F07
:1012700004C083E090918000986090938000282FB4
:1012800030E0AFEFBFEF0E94042C23E030E040E0FD
:1012900050E00E94DC2B2C3784E1380741055105D2
:1012A00030F4C90169E070E00E94B42B29C0DA0172
:1012B000C9018A50974DAF4FBF4F6627782F892FAE
:1012C0009A2F25EF38E241E050E00E94DC2B6901C3
:1012D0007A01CA01B9010E94982B9B01AC01C70198
:1012E000B6010E94982BBB27A92F982F872F009714
:1012F00021E0A207B10511F0BC0102C06FEF7FEF42
:1013000070938D0060938C00FF90EF90DF90CF90F2
:101310000895279A87E30E941C098AE08093800041
:1013200089E1809381008FEF9FEF909387008093F6
:1013300086000C9465220E94F01B811102C00E945D
:10134000891C0E9489090E948F0D0C943F08282F48
:101350002F7041F0822F90E02A3010F44D960895BE
:101360000697089587E290E0089508950C94B509D2
:101370000C94B60908950E9453150E94BA092FEFE4
:1013800084E39CE0215080409040E1F700C00000E1
:101390000C94211E0F931F93CF93DF938C010E9417
:1013A0001209EC01B8010E94E008882309F4EAC0A0
:1013B000B801CE010E942C0E882309F4E3C0B801C5
:1013C000CE010E94CB0E882309F4DCC0C531FCE5B8
:1013D000DF0708F087C0C2308CE5D80708F452C098
:1013E000F8018281882309F454C00E94F01B811106
:1013F00002C00E94891C0E940D1C90E0909378020C
:1014000080937702FE01E350FC45E231F10530F4B0
:10141000EA5AFF4F809177020C94FE2B809177025D
:10142000816027C0826025C0846023C0806121C0A4
:1014300080621FC080641DC080681BC0846088609B
:1014400018C08E7F16C08D7F14C08B7F12C08F7E18
:1014500010C08F7D0EC08F7B0CC08F770AC08B7F32
:10146000877F07C087FB222720F991E0922790FB16
:1014700087F980937702809177020E94111C0E9465
:10148000531580C0C115ECE5DE0751F0C130DC45D5
:1014900079F0C801DF91CF911F910F910C94DC0876
:1014A000F801C281CC2309F46EC00E94BB096AC056
:1014B000F801C281CC2309F466C080913902C82F9B
:1014C000C095C170C0FB80F980933902CC2329F00C
:1014D00081E594E00E94430455C08FE394E00E94AC
:1014E000430451C0CC3D8CE5D80739F4F801C281E2
:1014F000CC2309F448C080E00DC0CD3DECE5DE070B
:1015000060F0CD3D8CE5D80799F5F801C281CC2378
:10151000D1F182E00E94D02635C0C631DC4509F009
:10152000B8CF0E94081B282FF8018281409100014A
:1015300050910101882379F02A7A91E009F490E032
:1015400090938501911102C069E201C065E3CA016F
:101550000E94121D0AC080918501811102C069E2BA
:1015600001C065E3CA010E941D1D0E94571B0AC0ED
:10157000CE3DDC4509F08DCFF801C281CC2319F0B6
:101580000E94891CC0E08C2FDF91CF911F910F9199
:10159000089580E090E0089508959EE0799FF0011D
:1015A000112494E5899FE00DF11D1124E60FF11D32
:1015B000EE0FFF1FE156FE4F859194910895880F1D
:1015C000991FFC01EE59FB4F859194910895CF939B
:1015D000DF930E94CD0A0E94DA0CEC01811521E50F
:1015E000920708F042C0811560E5960708F031C106
:1015F000883E910500F5803E910508F0D7C1883AF4
:10160000910570F4853A910508F0A6C081309105E6
:1016100009F4CCC108F47DC1049708F0C7C179C1B1
:101620008F3B910508F4A3C0803C910508F471C17B
:10163000805C9109FDC0C11580E3D80780F4C11515
:1016400090E2D90708F0F2C0C03FD10508F461C1AB
:10165000CF3FD10511F008F0A9C1D065A7C1C115D0
:1016600020E4D20708F0F2C0E7C0811569E59607CB
:1016700060F5C11588E5D80708F037C1C11594E5B4
:10168000D90778F4C11523E5D20708F013C1C115B5
:1016900062E5D60708F0F8C0DC2FCC27C16FD06A0E
:1016A00085C1C11585E5D80708F41AC1C11596E5AD
:1016B000D90708F02EC18C2F0E94570D8F71C82FAB
:1016C000D0E0DC2FCC27D06271C18D3B2CE5920796
:1016D00009F416C1F0F4CB3B8CE5D80709F40AC134
:1016E00008F00BC1C1152AE5D20708F012C18C2FF2
:1016F0008F700E94570D94E0D695C7959A95E1F7A3
:10170000CF70D0E0DC2FCC27D06A8F70806EC82BD2
:101710004DC1803C9C4509F4F9C0C13C8CE5D8071B
:1017200060F4CE3B9CE5D90709F4EDC0CF3BDC4526
:1017300009F0EFC0C0E0D2ED39C1CE01905681155D
:10174000904208F0E6C08D2F8F710E94570DDD2763
:10175000D0628F71D82B2AC1853A910509F4DCC07B
:10176000863A910509F0DBC0C2E8D0E41FC1883A8F
:10177000910509F4D7C0893A910509F4D6C08A3A8F
:10178000910509F4D5C08B3A910509F4D4C08C3A7F
:10179000910509F4D3C08B3B910509F4D2C08C3B71
:1017A000910509F4D1C08D3A910509F4D0C0803B70
:1017B000910509F4CFC08E3A910509F4CEC08F3A55
:1017C000910509F4CDC0813B910509F4CCC0823B61
:1017D000910509F4CBC0833B910509F4CAC0843B51
:1017E000910509F4C9C0853B910509F4C8C0863B41
:1017F000910509F4C7C0873B910509F4C6C0883B31
:10180000910509F4C5C0893B910509F4C4C08D3B1D
:10181000910509F4C3C08E3B910509F4C2C08A3B0F
:10182000910509F4C1C0C0E0D4E4C0C0CE019F70EE
:101830000E94DF0AEC01BAC0CE019927D3FF03C092
:10184000EC01D86CB3C0EC01D06CB0C0DF70D06AD2
:10185000ADC0837021E030E002C0220F331F8A95B3
:10186000E2F73C68CE0174E0969587957A95E1F7AA
:101870008370382BCF70C695C69580E2C89FE00173
:101880001124C22BD32B92C04C2F4695469590E243
:10189000499FA0011124C370DD2721E030E0C90178
:1018A00002C0880F991FCA95E2F7EC01C42BD52B13
:1018B000DC687CC04C2F4695469580E2489FA0018D
:1018C0001124C370DD2721E030E0C90102C0880F78
:1018D000991FCA95E2F7EC01C42BD52BDA6866C0D4
:1018E000DC2FCC27C46FD06A61C0DC2FCC27C06F3F
:1018F000D06A5CC0C0E0D4ED59C0C0E0D5ED56C0A0
:10190000C0E0D1ED53C0C0E0D0ED50C0C0E0D3ED99
:101910004DC0C0E0D0E04AC0C1E8D0E447C0C3E851
:10192000D0E444C0C2EED4E441C0C9EED4E43EC029
:10193000CAEED4E43BC0C5EBD4E438C0C6EBD4E473
:1019400035C0C3EBD4E432C0C4EBD4E42FC0C7EB42
:10195000D4E42CC0CCECD4E429C0CDECD4E426C033
:10196000C3E8D5E423C0CAE8D5E420C0C2E9D5E481
:101970001DC0C4E9D5E41AC0C1E2D6E417C0C3E271
:10198000D6E414C0C4E2D6E411C0C5E2D6E40EC069
:10199000C6E2D6E40BC0C7E2D6E408C0CFE6D4E482
:1019A00005C0C0E7D4E402C0CAE2D6E4CE01DF91AC
:1019B000CF9108958238910549F1B0F481339105B2
:1019C00009F458C048F48932910509F44EC08A32AE
:1019D000910509F454C008958533910509F440C078
:1019E0008933910599F00895833E910529F138F4E2
:1019F000803E910591F0823E9105A1F00895863ECA
:101A00009105F9F0873E910531F108952091770213
:101A100020FD3AC021FD38C008958091770280FDF5
:101A200035C032C08091770282FF32C08091770248
:101A300084FD30C083EE39C08091770282FD28C0DA
:101A4000F5CF8091770283FF27C08091770284FDD4
:101A500021C087EE2AC08091770283FD1DC0F5CF9B
:101A60008091770285FD1AC01BC08091770285FDA9
:101A700017C014C08091770286FD14C015C08091F4
:101A8000770286FD11C00EC080EE0FC089E30DC045
:101A900082EE0BC080E009C086EE07C089E205C077
:101AA00085E303C08AE201C081E390E0089590914C
:101AB000770292FF0DC0282F2871283019F4877FF4
:101AC000846006C0282F2471243011F48B7F886035
:101AD00093FF0DC0282F2871283119F4877E846167
:101AE00006C0282F2471243111F48B7E886194FD67
:101AF000877E0895CF93DF9397FF0DC0FB0122816E
:101B0000222349F0EC010E94CE0DCE019F770E9466
:101B10000F0E0E94F80D81E0DF91CF9108958CE0C7
:101B200090E00E941E2C90E0A0E0B0E080936C0258
:101B300090936D02A0936E02B0936F028091390270
:101B400080FF0EC080916C021F928F9381E894E019
:101B50009F938F930E94DC040F900F900F900F9033
:101B6000089560916C028CE090E00C942C2C809392
:101B70006C020E94B10D8091390280FF0EC08091ED
:101B80006C021F928F9382E694E09F938F930E9442
:101B9000DC040F900F900F900F9008950E94081B87
:101BA000809370020E941B1B80916C02813071F047
:101BB00048F0823081F08430A1F486EE0E946C12ED
:101BC00088E10DC082EE0E94E6100BC088E193E030
:101BD0000E94D20806C082EE0E94E61087E50E94AD
:101BE0006C128FE39CE90197F1F700C000000895A3
:101BF00080916C02813039F040F0823031F08430D5
:101C000051F488E206C08CE204C082EE0E94041205
:101C100002C00E946C12809170020C94181B0F93EA
:101C20001F93CF93DF938C01CCE0D0E0C8010C2E42
:101C300002C0969587950A94E2F78F700E94A709D3
:101C40000E946C122497CC3F8FEFD80779F7DF9171
:101C5000CF911F910F9108950F931F93CF93DF930F
:101C6000EC018B01FB018281882301F1C33EFCE57D
:101C7000DF07B9F050F4C13EECE5DE0781F0C23E6B
:101C8000FCE5DF0799F481E00FC0C43E8CE5D8077E
:101C900051F0C53EECE5DE0749F484E005C080E084
:101CA00003C082E001C083E00E94B70DB801CE01FD
:101CB000DF91CF911F910F910C947A0D0F931F9389
:101CC000CF93DF93C62FD42F022FFC01828188236C
:101CD000C9F0609388010E94C51D9093870180938D
:101CE000860180E28C0F883008F050C0C77081E018
:101CF00001C0880FCA95EAF7DF91CF911F910F912C
:101D00000C947F1210918801161330C080918601C7
:101D1000909187010E94D11D883C910538F5C0E261
:101D2000CD0F1D17B9F080E2810F883040F4177095
:101D300081E001C0880F1A95EAF70E948612C83028
:101D400048F481E09D2F977001C0880F9A95EAF7BB
:101D50000E947F12802F0E946C12C830B8F4D77096
:101D600081E001C0880FDA95EAF70AC080E28C0FA3
:101D7000883060F4C77081E001C0880FCA95EAF727
:101D8000DF91CF911F910F910C948612DF91CF912B
:101D90001F910F9108959C01CB01203F4CE5340722
:101DA000F9F078F4283DFCE53F07B9F0293D4CE512
:101DB000340711F1273D3C4531F526E241EE61EE55
:101DC0001EC0223FFCE53F0799F070F0233F3C45E1
:101DD000D1F427E245EE66EE12C027E245EE0EC0D2
:101DE00026E241EE60EE0BC027E245EE64EE07C04E
:101DF00026E241EE62EE03C028E241E065EE0E9479
:101E00005E0E80E00895FC018281882319F0109213
:101E10008801089581E0089590938E0180938D014B
:101E20000895E0918D01F0918E01309721F001909D
:101E3000F081E02D099480E00895EF92FF921F93C6
:101E4000CF93DF93FC01A0918D01B0918E0110978B
:101E500009F442C080911101882341F080917702FA
:101E600087FF04C08081818385E08083EF01129623
:101E7000ED91FC911397CE0109958091390282FF73
:101E80002BC080FF04C089EA94E00E94430418E05C
:101E900083EAE82E84E0F82E8091390280FF0BC09F
:101EA00088811F928F93FF92EF920E94DC040F9023
:101EB0000F900F900F90115021961111EDCF80913E
:101EC000390280FF09C081EA94E0DF91CF911F9130
:101ED000FF90EF900C944304DF91CF911F91FF90FE
:101EE000EF900895E0918D01F0918E01309739F0D7
:101EF00022E0DC012C930480F581E02D0994089503
:101F000020918B0130918C018217930771F090938F
:101F10008C0180938B01E0918D01F0918E013097BF
:101F200021F00680F781E02D099408952091890120
:101F300030918A018217930771F090938A01809300
:101F40008901E0918D01F0918E01309721F000849C
:101F5000F185E02D0994089585B7806885BF85B720
:101F6000806885BF0895089508950C94B40F08956E
:101F70000C94B70F0E94AC0F0E94B30F0C94B50FD6
:101F800081E008950E94BC1D0E9401050E94911EDF
:101F90000E9465220C94B80FCF93C82F809139020C
:101FA00082FF1EC080FF04C082EC94E00E944304C4
:101FB0008091390280FF0CC01F92CF938DEB94E08B
:101FC0009F938F930E94DC040F900F900F900F90BF
:101FD0008091390280FF04C08BEB94E00E9443049F
:101FE0008C2FCF910C94B8094F925F927F928F9271
:101FF0009F92AF92BF92CF92DF92EF92FF920F9398
:102000001F93CF93DF93CDB7DEB72A970FB6F8941F
:10201000DEBF0FBECDBF0E947A050E94C00F8111A6
:1020200011C08FEF89838A831B820E94C51D816046
:10203000782F9D838C8349815A816B818D810E9489
:10204000B21057C090E9C92E91E0D92E00E010E0FF
:10205000AA24A394B12C702E802F0E9416064C0146
:10206000F601419051906F014826592641145104C0
:1020700031F40F5F1F4F0630110569F7D2CF809101
:10208000390281FD0E941F0620E030E07501022E1A
:1020900002C0EE0CFF1C0A94E2F7C70184219521CF
:1020A000892B09F12E837F828E209F2091E0892841
:1020B00009F490E098870E94C51D8160782F9A8767
:1020C00089874E815F8168858A850E94B210000FE2
:1020D000111FF801E057FE4F80819181E826F92613
:1020E000F182E08206C02F5F3F4F2E30310571F63E
:1020F000C0CF0E94BE2110918F010E94110F1817AE
:10210000D9F00E94110F80938F012A960FB6F89490
:10211000DEBF0FBECDBFDF91CF911F910F91FF901A
:10212000EF90DF90CF90BF90AF909F908F907F9077
:102130005F904F900C94CC0F2A960FB6F894DEBFA8
:102140000FBECDBFDF91CF911F910F91FF90EF9008
:10215000DF90CF90BF90AF909F908F907F905F90D7
:102160004F900895CF93DF93CDB7DEB72B970FB67F
:10217000F894DEBF0FBECDBF4F83588769877A873B
:102180008B87DE01119686E0FD0111928A95E9F7B1
:1021900085E0FE01379601900D928A95E1F749811D
:1021A0005A816B817C818D819E810E94FD172B96C7
:1021B0000FB6F894DEBF0FBECDBFDF91CF9108956B
:1021C000FC01808191810E94C91A0895882309F435
:1021D0001AC18238C1F40E94110F81FD14C169E354
:1021E00080910001909101010E94121D0E94571BD5
:1021F0002FEF81EE94E0215080409040E1F700C045
:10220000000069E319C08338F9F40E94110F80FDC2
:10221000FAC063E580910001909101010E94121DB6
:102220000E94571B2FEF81EE94E021508040904098
:10223000E1F700C0000063E5809100019091010189
:102240000E941D1D0C94571B8438C1F40E94110F6D
:1022500082FDD9C067E480910001909101010E9444
:10226000121D0E94571B2FEF81EE94E021508040F9
:102270009040E1F700C0000067E4DECF9CEF980FCC
:10228000913A40F4682F80910001909101010E94E1
:10229000121DD8CF90E2980F983050F4877091E0DB
:1022A00001C0990F8A95EAF7892F0E940B1BCACFAC
:1022B0009BE5980F933070F4853A29F0863A31F017
:1022C00083E890E005C081E890E002C082E890E0F9
:1022D0000C94800F98E5980F973108F08EC0883ADB
:1022E00009F445C0893A09F445C08A3A09F445C061
:1022F0008B3A09F445C08C3A09F445C08B3B09F48C
:1023000045C08C3B09F445C08D3A09F445C0803B7B
:1023100009F445C08E3A09F445C08F3A09F445C026
:10232000813B09F445C0823B09F445C0833B09F475
:1023300045C0843B09F445C0853B09F445C0863B54
:1023400009F445C0873B09F445C0883B09F445C002
:10235000893B09F445C08D3B09F445C08E3B09F427
:1023600045C08A3B09F445C080E090E044C082EE5D
:1023700090E041C089EE90E03EC08AEE90E03BC024
:1023800085EB90E038C086EB90E035C083EB90E0C1
:1023900032C084EB90E02FC087EB90E02CC08CEC37
:1023A00090E029C08DEC90E026C083E891E023C046
:1023B0008AE891E020C082E991E01DC084E991E0C3
:1023C0001AC081E292E017C083E292E014C084E276
:1023D00092E011C085E292E00EC086E292E00BC06E
:1023E00087E292E008C08FE690E005C080E790E0C9
:1023F00002C08AE292E00C94960F803F20F00E9487
:1024000044200C9431210895882309F464C0823853
:1024100079F40E94110F81FF5EC069E38091000191
:10242000909101010E94121D0E94571B69E310C088
:102430008338B1F40E94110F80FF4DC063E5809195
:102440000001909101010E94121D0E94571B63E53B
:1024500080910001909101010E941D1D0C94571B59
:10246000843879F40E94110F82FF35C067E48091AF
:102470000001909101010E94121D0E94571B67E408
:10248000E7CF9CEF980F913A10F4682FE1CF90E2DC
:10249000980F983050F4877091E001C0990F8A9599
:1024A000EAF7892F0E94111BD9CF9BE5980F933033
:1024B00020F480E090E00C94800F98E5980F97311D
:1024C00020F480E090E00C94960F803F20F00E9472
:1024D000AC200C9431210895CF93C82F0E94E610B0
:1024E000C93349F42FEF87EE93E0215080409040AC
:1024F000E1F700C000008C2FCF910C9404128823C8
:1025000021F00E940B1B0C94571B0895882321F087
:102510000E94111B0C94571B08954F925F926F926B
:102520007F92BF92CF92DF92EF92FF920F931F9311
:10253000CF93DF937C01062FC72FFC0115811295E5
:102540001F70D281D1110E942B1B0E94011B882376
:1025500079F0DD2369F080E2800F883048F082E076
:102560000E94A21B0E94011B91E0B82EB92601C057
:10257000B12CCC2EC2948FE0C822D12CF601E859A0
:10258000FF4F0C94FE2B8C2F807FCF70882311F08F
:10259000C295C07FDD2399F0CC2309F4BCC180E251
:1025A000800F883010F0011104C08C2F0E940B1B8B
:1025B00003C08C2F0E941E1B0E94571BACC1802F92
:1025C0000E940412CC2309F4EFC180E2800F88300E
:1025D00010F0011104C08C2F0E94111B03C08C2F1E
:1025E0000E94241B0E94571BDFC18C2F807FCF705D
:1025F000803211F0C295C07F002319F00130C9F07C
:1026000021C0DD2371F0112341F0113031F40E941B
:102610003E1B8C2B0E94441BC7C10E943E1B8C2B6F
:1026200033C1112319F0113009F4BEC10E944D1BB2
:1026300011C0DD2321F0123008F0B6C107C011111E
:10264000B3C108C0DD2321F0111165C18C2F1CC15D
:10265000111172C18C2F1EC18C2F869586958370A7
:1026600090E0009719F0019761F09EC1DD2321F001
:10267000802F9C2F937002C080E090E00E94800F1A
:10268000A3C1DD2321F0802F9C2F937002C080E036
:1026900090E00E94960F98C1DD23F9F0053F51F0BC
:1026A000063F71F0043FA9F480917102909172028B
:1026B00081600BC08091710290917202826005C0AE
:1026C0008091710290917202846090937202809363
:1026D0007102802F0E9444201EC0053F51F0063F2A
:1026E00071F0043FA9F480917102909172028E7F83
:1026F0000BC080917102909172028D7F05C0809114
:102700007102909172028B7F90937202809371029A
:10271000802F0E94AC200E94312156C18C2F8370E3
:1027200009F04BC0D1114CC1202F2295269527705E
:10273000220F220F602F6F70862F90E0A0E0B0E094
:102740002C013D01022E04C0440C551C661C771C54
:102750000A94D2F704FF10C08FE090E0A0E0B0E050
:1027600004C0880F991FAA1FBB1F2A95D2F7809516
:102770009095A095B09503C080E090E0DC01C695EF
:10278000C695C370D0E0BC01CD01642975298629A6
:102790009729C230D10559F0C330D10559F021979E
:1027A00019F00E9442190CC10E94301909C10E94FF
:1027B000541906C10E942E1903C1DD2319F08C2F74
:1027C000817001C08695882309F4FAC0202F2295D4
:1027D00026952770220F220F602F6F70862F90E0B2
:1027E000A0E0B0E02C013D01022E04C0440C551CB9
:1027F000661C771C0A94D2F704FF10C08FE090E0AB
:10280000A0E0B0E004C0880F991FAA1FBB1F2A9543
:10281000D2F780959095A095B09503C080E090E0A8
:10282000DC01C695C695C370D0E0BC01CD0164291A
:10283000752986299729C230D10559F0C330D105B1
:1028400059F0219719F00E94081ABAC00E94F6198F
:10285000B7C00E941A1AB4C00E946919B1C0802F73
:1028600090E0FC01E05EF109E531F10508F04FC0B0
:10287000E858FF4F0C94FE2B0F708C2F8F71DD23C7
:1028800031F00E948F19802F0E947F128DC00E940C
:10289000B019802F0E94861287C0DD2339F01111F4
:1028A00083C08C2F8F710E94D5197EC0123008F022
:1028B0007BC0F7CFDD2339F08C2F8F710E948F19E9
:1028C00073C0DD23C9F38C2F8F710E94B0196CC0C7
:1028D000DD2329F08C2F8F710E947A1965C00E9428
:1028E000751962C0DD2349F0CF718C2F0E948F19BA
:1028F00063E08C2F0E948D1B57C081E00E94A21BB9
:10290000123008F451C082E00E94A21B4DC0DD23AA
:1029100031F0112389F2802F0E94E61045C0112367
:1029200091F2093349F4FFEF27EE83E0F1502040A4
:102930008040E1F700C00000802F0E94041234C0E4
:102940004C2F4F70602FC7010E94C90A0E94A11826
:102950003BC0D11139C0CF70D0E0C230D10599F061
:102960003CF4209769F02197F9F40E94BE222CC014
:10297000C430D10571F054F02597B1F480E00AC05D
:102980000E94862221C00E9432231EC00E944E2334
:102990001BC083E00E948C2317C04C2F4F70602F08
:1029A000C7010E94CC0A10C098E0C916D10441F0BA
:1029B0005CF0FAE0CF1AD10822E0C216D10420F46C
:1029C0000E94110F0E94B809BB20F1F00E94FD1A6D
:1029D00080FD1AC0F70112820E94F71A0E948F1917
:1029E000C7010E9412150E94F71ADF91CF911F9123
:1029F0000F91FF90EF90DF90CF90BF907F906F90FE
:102A00005F904F900C94B019DF91CF911F910F916F
:102A1000FF90EF90DF90CF90BF907F906F905F908E
:102A20004F9008950F931F93CF93DF93EC0188810C
:102A300099812B813C81232BB9F09F3F11F48F3F6B
:102A400099F0CE010E94CA09882371F068817981CA
:102A50008A810E94D41A8C010E942C1A0E942D197E
:102A6000B801CE010E948D12DF91CF911F910F917D
:102A700008950E942B1B0E943B1B0E94571B0E9423
:102A800059220E94312180E090E00E94800F80E076
:102A900090E00C94960F80910001909101010E94AA
:102AA000281D0C9439150E941B1B0C944B15E92F03
:102AB000E295EF70F0E03297EE30F105B0F4E357B5
:102AC000FF4F0C94FE2B803F91F018F4803E68F489
:102AD0000EC0843F51F40BC0803E48F0813F29F482
:102AE00006C093FB882780F9089580E0089581E06F
:102AF00008950E94C91A0E9457150895CF93DF9335
:102B000000D000D01F92CDB7DEB70F900F900F907E
:102B10000F900F90DF91CF910895CF93DF9300D066
:102B200000D000D0CDB7DEB726960FB6F894DEBF42
:102B30000FBECDBFDF91CF9108951F93CF93DF9349
:102B4000C0919D0116E080919E01C81799F0D0E0D8
:102B50001C9FF0011D9FF00D1124E156FE4F408196
:102B6000518162817381848195810E948D152196A6
:102B7000C770E9CFDF91CF911F9108954091CF01A8
:102B80005091D0016091D1017091D2018091D30117
:102B90009091D4010C948D158091D40182958F7001
:102BA00009F054C08091D101882309F44FC080916D
:102BB0009D01A0919E016091CF017091D001409143
:102BC000D2015091D301B6E08A1709F43FC090E0DA
:102BD00041155105C1F17F3F11F46F3FA1F1B89F3D
:102BE000F001B99FF00D1124E156FE4F21817213BF
:102BF0002AC02081621327C02281211124C0238191
:102C000034812417350710F421503109241B350B6A
:102C1000283C3105C0F42091D4012F70206120930D
:102C2000D40126E0289FF001299FF00D1124EC55D6
:102C3000FE4F80818F70806180838FEC91E00E94D5
:102C400012150C949D1501968770BECF0895CF92F2
:102C5000DF92EF92FF920F931F93CF93DF93CDB745
:102C6000DEB762970FB6F894DEBF0FBECDBF8C0102
:102C700085E0F801DE011D9601900D928A95E1F73D
:102C8000D8014C9111965C91119712966C91129704
:102C90001396CD90DC9014973091CF017091D001B4
:102CA0008091D2019091D301009709F46BC17F3FCD
:102CB00019F43F3F09F466C1E090D101EE2009F418
:102CC000C0C02091D401C816D90628F0F601E81B2F
:102CD000F90BCF0104C0809590958C0D9D1DFF24AC
:102CE000F394883C910578F0F12C207F09F0C6C060
:102CF0007C2DD98AC88A89890E947E158FEC91E043
:102D00000E941215B1C0822F807F09F046C0751352
:102D100014C0341312C0611110C02F7020612093B1
:102D2000D4010E94BE158FEC91E00E941215809193
:102D3000D401D80115968C932EC0CD2819F15F3F90
:102D400011F44F3FF9F0F62E61111CC080919D01E6
:102D500020919E0136E0821709F45AC090E0389F16
:102D6000F001399FF00D1124E156FE4F7181571388
:102D700006C07081471303C07281711103C00196B0
:102D80008770E9CFF62E662309F427C18091D4011C
:102D900081608093D401F12C20C1751308C03413D5
:102DA00006C0611104C08091D401D801C3C04D8711
:102DB0005E878D859E856A8B0E9479156A89882336
:102DC000E1F16623D1F12091D401822F82958F7099
:102DD00090E0029774F08091CF019091D001988794
:102DE0008F831986DB86CA862C87CE0107960E94C0
:102DF000121586E0F801AFECB1E001900D928A95D2
:102E0000E1F70E94CC150E94BE15FF24F394E5C0A3
:102E10004D875E878D859E850E94C91A292F229530
:102E20002F7030E0223031050CF0CBC09F7009F0DC
:102E3000C5C0805E883008F4D0C0C8010E94121559
:102E4000E4CFC816D90608F453C0F601E81BF90B05
:102E5000CF01883C910508F450C0F12C7C2DD98A13
:102E6000C88A89890E947E15EFECF1E086E0DF01D7
:102E70001D928A95E9F70E94BE15AFC0751314C064
:102E8000341312C0611110C08091D401F801858300
:102E9000C8010E94121586E0EFECF1E0DF011D92FF
:102EA0008A95E9F7FE2C99C04D875E878D859E85B2
:102EB0006A8B0E9479156A89882309F4BECF66233C
:102EC00009F4BBCF2091D401822F82958F7090E0BE
:102ED00002970CF48ECF8091CF019091D0019A830C
:102EE00089831B82DD82CC822E83CE0101967FCF27
:102EF000809590958C0D9D1DACCFF62E662309F420
:102F00009CCF75132EC034132CC02091D40120FD0A
:102F10001FC0822F82958F70D9F0D80115962C93FF
:102F200015978F3049F08F5F982F9295907F822F61
:102F30008F70892B15968C93C8010E94121586E01C
:102F4000F801AFECB1E001900D928A95E1F793CFD3
:102F500086E0F801AFECB1E001900D928A95E1F7BF
:102F60003CC04D875E878D859E850E9479158111B5
:102F700040CF8091D40181608093D401C8010E9428
:102F800012152BC0662309F458CF4D875E878D85B7
:102F90009E850E947915F82E882309F44ECF86E08D
:102FA000F801AFECB1E001900D928A95E1F78FEC5A
:102FB00091E00E94E0100E94CC155DCF811139CFC5
:102FC0000CC0243031050CF038CF9F7009F431CF9C
:102FD000F8019581907F09F02CCF8F2D62960FB666
:102FE000F894DEBF0FBECDBFDF91CF911F910F913F
:102FF000FF90EF90DF90CF9008951F93CF93DF93D2
:10300000CDB7DEB72C970FB6F894DEBF0FBECDBF9D
:103010004F83588769877A878B879C87CE0107966D
:103020000E942716882369F08F8198852A853B8521
:10303000232BF1F19F3F09F063C08F3F09F060C07F
:1030400037C086E0FE013796DE01119601900D92A1
:103050008A95E1F76F817885EA85FB85309741F1A4
:103060007F3F11F46F3F21F120919E0130E0C901B3
:1030700001968770992740919D0150E0841795072C
:1030800009F447C069837A83FD83EC8396E0929FBD
:10309000D001939FB00D1124A156BE4FFE01319671
:1030A00001900D929A95E1F780939E010E949D15E3
:1030B00016E080919D0190919E018917C1F1189FA2
:1030C000C001112481569E4F0E942716882379F152
:1030D000E0919D011E9FF0011124E156FE4F4081B9
:1030E000518162817381848195810E948D158091C7
:1030F0009D0190E001968770992780939D01D9CF1B
:103100004F81588569857A858B859C850E948D15B0
:10311000CFCF0E94531510929E0110929D01EFECAB
:10312000F1E086E0DF011D928A95E9F7C1CF2C9688
:103130000FB6F894DEBF0FBECDBFDF91CF911F91C8
:103140000895EF92FF920F931F93CF93DF938C011B
:10315000892B09F46CC0F12CEE24E394E80121964C
:10316000F8018491843740F4843008F051C08130F4
:1031700081F0823019F15BC0853709F444C0A8F1B1
:103180009CE7980F903708F052C08F770E94041286
:1031900041C00E5F1F4FFE01C49180E28C0F88304A
:1031A00048F4C7708E2D01C0880FCA95EAF70E94B7
:1031B0002E1B14C08C2F0E94E6102DC00E5F1F4FD7
:1031C000FE01C49180E28C0F883058F4C7708E2DB8
:1031D00001C0880FCA95EAF70E94341B0E94571B52
:1031E0001AC08C2F0E94041216C00E5F1F4FFE01E2
:1031F000C491CC2381F08FE99FE00197F1F700C0E3
:103200000000C150F6CF0E5F1F4FFE01F49003C0C7
:103210000E94E6108E018F2D882309F49FCFEFE9DD
:10322000FFE03197F1F700C000008150F5CFDF914A
:10323000CF911F910F91FF90EF90089508950C94F6
:103240001E190E941F19609310027093110280933F
:103250001202909313020C94391508950C942119BD
:103260000F931F93009110021091110220911202EE
:1032700030911302602B712B822B932B1F910F9196
:103280000C9421190F931F930091100210911102B9
:103290002091120230911302602371238223932321
:1032A0001F910F910C9421190F931F9300911002FD
:1032B00010911102209112023091130260277127A0
:1032C000822793271F910F910C94211908950C9434
:1032D00066190E94671960930C0270930D02809327
:1032E0000E0290930F020C94391560E070E0CB0150
:1032F0000C9469190F931F9341E050E060E070E077
:103300008A019B0104C0000F111F221F331F8A95E1
:10331000D2F7C901B8011F910F910C9469190F934D
:103320001F9341E050E060E070E004C0440F551F7F
:10333000661F771F8A95D2F780910C0290910D023B
:10334000A0910E02B0910F028A019B01082B192B4C
:103350002A2B3B2BC901B8011F910F910C946919BD
:103360000F931F9341E050E060E070E004C0440F11
:10337000551F661F771F8A95D2F740955095609527
:10338000709580910C0290910D02A0910E02B09167
:103390000F028A019B01082319232A233B23C90119
:1033A000B8011F910F910C9469190F931F9341E07D
:1033B00050E060E070E004C0440F551F661F771FA7
:1033C0008A95D2F780910C0290910D02A0910E0285
:1033D000B0910F028A019B01082719272A273B2752
:1033E000C901B8011F910F910C9469190F931F9394
:1033F00000910C0210910D0220910E0230910F02EB
:10340000602B712B822B932B1F910F910C946919B8
:103410000F931F9300910C0210910D0220910E0248
:1034200030910F0260237123822393231F910F9108
:103430000C9469190F931F9300910C0210910D02C7
:1034400020910E0230910F02602771278227932767
:103450001F910F910C94691908952EE0929F800D91
:103460001124A82FA695A695A695877051E001C0B6
:10347000550F8A95EAF785E0A89FD001112420E036
:1034800030E070E0F901EA0FFB1FEB52FE4F408184
:10349000CB01022E02C0969587950A94E2F78170BF
:1034A0009927819584278523842780832F5F3F4F29
:1034B0002530310539F708952EE0929F800D1124B3
:1034C000682F669566956695982F977085E0689F3A
:1034D000B001112440E050E080E0FA01E60FF71F50
:1034E000EB52FE4F208130E0092E02C03695279521
:1034F0000A94E2F721703327042E01C0220F0A94A8
:10350000EAF7822B4F5F5F4F4530510531F7089541
:10351000BF92CF92DF92EF92FF920F931F93CF93C0
:10352000DF938C01C0901002D0901102E090120243
:10353000F090130280910C0290910D02A0910E0266
:10354000B0910F02C82AD92AEA2AFB2ACFE1D0E09B
:10355000D701C6010C2E04C0B695A79597958795FF
:103560000A94D2F780FF07C0BC2EB8018C2F0E94AE
:10357000E70A019719F4219758F7B12C8B2DDF91A9
:10358000CF911F910F91FF90EF90DF90CF90BF9060
:103590000895CF93DF93EC010E94881ABE010E9428
:1035A000E70ADF91CF9108951F93CF93DF93EB014B
:1035B00090919C01992321F0CB010E94C91A13C05C
:1035C000882349F0CB010E94881A182F682FCE015A
:1035D0000E942D1A04C0CB010E945C1A182FBE0154
:1035E000812F0E94E70ADF91CF911F91089580916A
:1035F00014028595859585950895809114028770AC
:10360000089590911402977081E009F480E0089584
:1036100080913802089590913802892B8093380266
:1036200008958095909138028923809338020895F7
:1036300080933802089510923802089590913702CD
:10364000892B8093370208958095909137028923C2
:1036500080933702089510923702089590913602B0
:10366000892B8093360208958095909136028923A4
:1036700080933602089510923602089580911502C3
:10368000089508950C94411B90911502981721F00C
:10369000809315020C94421B089580911502882393
:1036A00029F01092150280E00C94421B0895E091DD
:1036B0000001F0910101809138028083E0910001C6
:1036C000F0910101908180913702892B8083E091F4
:1036D0000001F0910101908180913602892B808355
:1036E00080911502882381F0E0910001F0910101A1
:1036F0009081892B808380910001909101010E942B
:103700008B1C81110E944D1B809100019091010141
:103710000C941D0F08950C948A1B98E0899F9001CA
:103720001124262B209314020E948F1980911402D9
:103730008595859585950C948B1B1092140280E0DD
:103740000C948B1B20911402809582238093140289
:10375000982F977079F430E0482F082E000C550B05
:103760002417350739F08595859585950E94B01900
:103770000C949D1B0895909323018093220108953A
:103780008295982F9C7C392F36953695282F237358
:1037900044E0249FC0011124932F982B292F2A7ACB
:1037A0002695892F8575880F822B08951F93CF93B7
:1037B000DF931F92CDB7DEB799830E94C01B182FED
:1037C0009981892F0E94C01B212F30E0322F2227A0
:1037D000A901482BCA010F90DF91CF911F91089545
:1037E00080E090E00E94262C21E08D3E9E4F09F063
:1037F00020E0822F089582E090E00C941E2C682F28
:1038000082E090E00C942C2C83E090E00C941E2C31
:10381000682F83E090E00C942C2C84E090E00C94D2
:103820001E2C682F84E090E00C942C2C86E090E015
:103830000C941E2C682F86E090E00C942C2CAB018D
:10384000BC018FE090E00C943E2CAB01BC0183E105
:1038500090E00C943E2C60E070E0CB010C94251CB1
:1038600060E070E0CB010E941F1C0C942B1C6DEEDD
:103870007EEF80E090E00E944A2C60E082E090E0E1
:103880000E942C2C60E083E090E00E942C2C10928F
:10389000100210921102109212021092130260E0B4
:1038A00084E090E00E942C2C60E085E090E00E9493
:1038B0002C2C60E086E090E00E942C2C6FEF87E0DB
:1038C00090E00E942C2C40E050E0BA0188E090E0AB
:1038D0000E943E2C60E08DE090E00E942C2C40E0A5
:1038E00050E0BA0188E190E00E943E2C60E087E160
:1038F00090E00E942C2C40E050E0BA018CE190E076
:103900000E943E2C60E080E290E00E942C2C0C94FF
:10391000301C0C94371CFC013296809111018823D5
:1039200031F08091770287FF02C09EE101C096E0EE
:1039300080E0915028F021912223D9F38F5FF9CFB5
:1039400008959C01FC0132969FEF80E0419146175B
:1039500089F09F3F19F4411101C0982F8F5F863085
:10396000A9F79F3F39F0F901E90FF11D97FDFA958D
:10397000628308950895FC013296089620812613EB
:1039800001C010823196E817F907C1F70895262F74
:103990002695269526952E3170F4FC01E20FF11D37
:1039A000677021E030E001C0220F6A95EAF782815A
:1039B000282B228308958091390280FF0CC01F922A
:1039C0006F9383EF94E09F938F930E94DC040F909A
:1039D0000F900F900F900895262F269526952695E7
:1039E0002E3178F4FC01E20FF11D677021E030E028
:1039F00001C0220F6A95EAF720958281282322834D
:103A000008958091390280FF0CC01F926F9385ED5D
:103A100094E09F938F930E94DC040F900F900F907F
:103A20000F90089520911101222329F0209177020F
:103A300027FD0C94C71C0C94A11C2091110122237A
:103A400029F02091770227FD0C94EC1C0C94BB1CF0
:103A500020911101FC013296222331F080917702EE
:103A600087FF02C08EE101C086E0DF011D928A95CA
:103A7000E9F7089508950C943A1D0E943B1D80912A
:103A80007E02843061F110923A0220E488E190E0F5
:103A90000FB6F894A895809360000FBE2093600045
:103AA00080E00E942D0980E00E94B8090E943B1D21
:103AB00083B7817F846083BF83B7816083BF78943D
:103AC000889583B78E7F83BF0FB6F894A8958091B1
:103AD0006000886180936000109260000FBE0895BE
:103AE0000895CF930E9420050E947A050E94701DC0
:103AF000C0E08C2F0E941606892B29F4CF5FC630B8
:103B0000C1F780E001C081E0CF91089508950C9441
:103B1000861D0E9453150E9465220E94110F0E946B
:103B2000B8090C94871D1F920F920FB60F921124A3
:103B30008F939F93AF93BF9380913A02811113C0EB
:103B40008091730290917402A0917502B0917602F7
:103B50004196A11DB11D8093730290937402A093AE
:103B60007502B0937602BF91AF919F918F910F90A4
:103B70000FBE0F901F90189582E084BD93E095BD15
:103B80009AEF97BD80936E0008952FB7F8948091B7
:103B9000730290917402A0917502B09176022FBFCA
:103BA0000895CF92DF92EF92FF920F931F932FB75A
:103BB000F894409173025091740260917502709173
:103BC00076022FBF6A017B01EE24FF248C0120E0E6
:103BD00030E0C016D106E206F30610F44150510958
:103BE0009A01281B390BC9011F910F91FF90EF908B
:103BF000DF90CF90089578941F920F920FB60F9296
:103C000011248F939F93AF93BF93809173029091F0
:103C10007402A0917502B09176020196A11DB11DAA
:103C20008093730290937402A0937502B09376020E
:103C3000BF91AF919F918F910F900FBE0F901F90EA
:103C4000189581E08093E00080E28093D800109284
:103C5000C9008FE19EE40197F1F700C0000087E002
:103C600090EBDC018093870290938802A0938902F5
:103C7000B0938A029CE088E10FB6F894A8958093EF
:103C800060000FBE90936000FFCFAF92BF92CF92C3
:103C9000DF92EF92FF920F931F93CF93C0E0CC245B
:103CA000C394D12CE82EF12C8C2F0E9416065C01B7
:103CB00000E010E09601002E02C0220F331F0A948C
:103CC000E2F72A213B21232B31F40F5F1F4F0E30E7
:103CD000110581F70AC0602F7C2F80E00E94CD0A79
:103CE000E816F90691F781E004C0CF5FC630E1F62F
:103CF00080E0CF911F910F91FF90EF90DF90CF90D8
:103D0000BF90AF900895CF93C82F8CE20E94451EBC
:103D1000882321F08C2FCF910C94451E80E0CF9109
:103D20000895CF930E94F01B811102C00E94891C4C
:103D300088E195E00E944304C5E6C15049F00E9425
:103D40007A058FE39CE90197F1F700C00000F5CFF9
:103D500081E195E00E94430489E20E94831E811163
:103D60000FC18AE20E94831E81110E94891C85E096
:103D70000E94831E81110E94211E0E94FB1B8093C2
:103D8000390287E00E94831E8823A9F18BE10E94FB
:103D9000831E882351F08091390281FB222720F96C
:103DA00091E0922790FB81F90EC08EE00E94831E65
:103DB000882361F08091390282FB222720F991E06B
:103DC000922790FB82F98093390215C080E10E940E
:103DD000831E90913902882341F093FB222720F91A
:103DE00081E0822780FB93F904C0892F809580FBB6
:103DF00090F990933902809139020E94FF1B0E9432
:103E00000D1C90E0909378028093770280EE0E94E0
:103E1000831E882341F080917702982F909590FB24
:103E200080F98093770289E30E94831E882359F0EA
:103E30008091770281FB222720F991E0922790FB65
:103E400081F98093770282EE0E94831E882359F0C5
:103E50008091770282FB222720F991E0922790FB44
:103E600082F98093770286EE0E94831E882359F0A0
:103E70008091770283FB222720F991E0922790FB23
:103E800083F98093770283EE0E94831E882359F082
:103E90008091770284FB222720F991E0922790FB02
:103EA00084F98093770285E30E94831E882359F06A
:103EB0008091770285FB222720F991E0922790FBE1
:103EC00085F98093770281E30E94831E882359F04D
:103ED0008091770286FB222720F991E0922790FBC0
:103EE00086F98093770281E10E94831E882359F02E
:103EF0008091770287FB222720F991E0922790FB9F
:103F000087F980937702809177020E94111C87E2E3
:103F10000E94831EC82F8EE10E94831E8111C26001
:103F20008FE10E94831E8111C46080E20E94831E83
:103F30008111C86081E20E94831E8111C06182E20A
:103F40000E94831E8111C06283E20E94831E811140
:103F5000C06484E20E94831E882311F0C06802C0FE
:103F6000CC2329F08C2F0E94081C6C2F03C00E94C8
:103F7000041C682F70E080E090E0CF910C942E1923
:103F8000CF91089580913F0280FF0BC060910501A1
:103F900085E0689FB00111247595679575956795C3
:103FA0002BC081FF09C06091050185E0689FB001C9
:103FB00011247595679520C082FF07C060910501A7
:103FC00085E0689FB001112417C090913E029923AB
:103FD000D1F060910401961788F72091050185E0E2
:103FE000289F90011124929FA001939F500D1124AE
:103FF00070E0CA010E94C82B6038710540F4611559
:10400000710539F002C065E070E0862F08958FE7F2
:10401000089581E0089580913F0280FF08C060917B
:10402000030170E0759567957595679521C081FFCF
:1040300006C06091030170E07595679519C082FF15
:1040400004C06091030170E010C090913E0299237A
:10405000C1F0609102019617A0F780910301899F3A
:10406000C001112470E00E94C82B6038710528F44B
:104070006115710521F0862F08958FE7089581E07D
:10408000089561E070E0F4CF803F21F40E94C21FE8
:10409000819504C0813F29F40E94C21F809343028E
:1040A0000895823F21F40E94C21F819504C0833F7E
:1040B00029F40E94C21F809342020895893F19F497
:1040C0000E940B2005C08A3F31F40E940B2081958D
:1040D0008093440208958B3F21F40E940B20819528
:1040E00004C08C3F29F40E940B2080934502089560
:1040F000843F21F480914102816017C0853F21F403
:1041000080914102826011C0863F21F4809141027A
:1041100084600BC0873F21F480914102886005C014
:10412000883F31F48091410280618093410208957B
:104130008D3F21F480913F0281600BC08E3F21F4BE
:1041400080913F02826005C08F3F29F480913F0239
:10415000846080933F020895803F39F48091430248
:1041600087FF6CC01092430269C0813F29F480919F
:1041700043021816BCF362C090914202823F29F4B8
:1041800097FF5CC01092420259C0833F19F4191680
:10419000CCF354C0893F41F48091440218160CF0CE
:1041A0004DC0109244024AC08A3F29F480914402D3
:1041B00087FF44C0F6CF8B3F39F48091450287FFDB
:1041C0003DC0109245023AC08C3F29F480914502CF
:1041D0001816BCF333C0843F21F4809141028E7FD6
:1041E00017C0853F21F4809141028D7F11C0863F29
:1041F00021F4809141028B7F0BC0873F21F4809195
:104200004102877F05C0883F31F4809141028F7E53
:104210008093410213C08D3F21F480913F028E7F35
:104220000BC08E3F21F480913F028D7F05C08F3FF0
:1042300029F480913F028B7F80933F02809142025C
:1042400081110EC08091430281110AC08091440205
:10425000811106C080914502811102C010923E0278
:1042600008958091390283FF7EC084E595E00E9425
:104270004304809141021F928F938FE495E09F93B6
:104280008F930E94DC048DE495E00E9443048091AA
:104290004202282F082E000C330B3F938F938AE4A1
:1042A00095E09F938F930E94DC0488E495E00E9440
:1042B000430480914302282F082E000C330B3F93B8
:1042C0008F9385E495E09F938F930E94DC0483E4B1
:1042D00095E00E94430480914402282F082E000C90
:1042E000330B3F938F9380E495E09F938F930E94CD
:1042F000DC048EE395E00E94430480914502282F60
:10430000082E000C330B3F938F938BE395E09F9324
:104310008F930E94DC0488E395E00E94430480911F
:104320003E021F928F9385E395E09F938F930E94A7
:10433000DC0483E395E00E94430480913F021F92D6
:104340008F9380E395E09F938F930E94DC048DE22E
:1043500095E00E9443048DB79EB74C960FB6F89433
:104360009EBF0FBE8DBF80E492E00E94720F0E943C
:10437000C51D90933D0280933C0208951F93CF93F7
:10438000DF9380913C0290913D020E94D11DAC01CF
:1043900090913E02992321F02091060130E006C061
:1043A00020913B028AE0289F900111244217530775
:1043B00008F47BC080914202C0914302D091440234
:1043C00010914502811107C0C1116BC0D11169C0A4
:1043D000111167C06AC09F3F19F09F5F90933E0222
:1043E000181624F40E94C21F809342028091420258
:1043F00087FF05C00E94C21F8195809342021C1650
:1044000024F40E94C21F809343028091430287FFDD
:1044100005C00E94C21F81958093430230914202E1
:104420003323E1F0209143022223C1F045EB340312
:10443000C0011124892F990F990B009709F481E08D
:104440008093420235EB2303C0011124892F990F79
:10445000990B009709F481E0809343021D1624F420
:104460000E940B20809344028091440287FF05C084
:104470000E940B20819580934402111624F40E941F
:104480000B20809345028091450287FF05C00E9462
:104490000B20819580934502DF91CF911F910C9461
:1044A00031219F3F09F099CFA1CFDF91CF911F918B
:1044B0000895E0E4F2E086E0DF011D928A95E9F7D5
:1044C00010923E0210923F0208950E94F01B81114B
:1044D00002C00E94891C0E94161C80937902282F1A
:1044E00026952695269530E02430310524F08770F6
:1044F0008861809379028091790280FF04C086955B
:104500008695869501C080E00C942D092091790252
:10451000822F869586958695482F50E04330510529
:1045200054F48F5F982F990F990F990F822F8770EE
:10453000892B80937902809179028160809379023E
:104540000E941A1C8091390280FF11C0809179026B
:104550008695869586951F928F938EED95E09F9315
:104560008F930E94DC040F900F900F900F9080911A
:1045700079028695869586950C942D09809179020D
:10458000982F969596959695A1F0915E990F990F13
:10459000990F8770892B80937902887F91E009F4C5
:1045A00090E08091790290FB80F9809379020E94DB
:1045B0001A1C8091390280FF11C080917902869582
:1045C000869586951F928F9386EC95E09F938F93A7
:1045D0000E94DC040F900F900F900F908091790251
:1045E0008695869586950C942D098091790280FD9B
:1045F0001FC0816080937902813019F489E0809333
:104600007902809179020E941A1C8091390280FF00
:1046100008C08EE995E09F938F930E94DC040F9071
:104620000F90809179028695869586950C942D0938
:1046300008958091790280FF14C08E7F8093790263
:104640000E941A1C8091390280FF08C08BE895E017
:104650009F938F930E94DC040F900F9080E00C9446
:104660002D090895CF93C0917902C17080913902CC
:1046700080FF0CC01F92CF9380EB95E09F938F93A8
:104680000E94DC040F900F900F900F90CC2319F034
:10469000CF910C941923CF910C94F522909179022B
:1046A000892F8695869586958F5F8F719770843058
:1046B00038F4880F880F880F892B8093790202C005
:1046C0009093790280917902887F91E009F490E0DB
:1046D0008091790290FB80F9809379020E941A1CE4
:1046E0008091390280FF11C080917902869586956C
:1046F00086951F928F9387E795E09F938F930E94F3
:10470000DC040F900F900F900F90809179028695A6
:10471000869586950C942D09843008F083E0880FE7
:10472000880F880F909179029770892B8093790276
:10473000887F91E009F490E08091790290FB80F904
:10474000809379020E941A1C809179028695869541
:1047500086950C942D098091690208959FB7F8946D
:10476000109248029FBF90917E02943009F057C08A
:104770009091E9009F703091EC00232F217030FD63
:1047800020E8922B23E02093E9002091EB0020FF0A
:1047900043C02091EE0027FF3FC020914602222314
:1047A00021F02091E80025FF37C01092460226E054
:1047B0003091E80035FD15C030917E02343061F54E
:1047C0003091EB0035FD28C0215021F481E0809329
:1047D000460222C0EFE9FFE03197F1F700C0000088
:1047E000E7CF8093F1008091E80085FD0AC08091B9
:1047F000E80080FFFCCF8091E8008E778093E8008E
:1048000006C08FB7F89421E0209348028FBF9F70B5
:104810009093E90080E008959F709093E9008FEFF6
:1048200008950F931F93CF93DF9300D01F92CDB7BE
:10483000DEB78C010E94E026823011F0843021F531
:1048400084E089831B830A8382E08093E9008FEFF1
:104850009091E800815095FD06C095ED9A95F1F78D
:1048600000008111F5CF8091E80085FF0DC040E088
:1048700050E063E070E0CE0101960E94FD26809139
:10488000E8008E778093E8000F900F900F90DF91F3
:10489000CF911F910F910895CF93DF9300D01F9276
:1048A000CDB7DEB720917E02243031F523E0298395
:1048B000805891099B838A8382E08093E9008FEF7F
:1048C0009091E800815095FD06C095ED9A95F1F71D
:1048D00000008111F5CF8091E80085FF0DC040E018
:1048E00050E063E070E0CE0101960E94FD268091C9
:1048F000E8008E778093E8000F900F900F90DF9183
:10490000CF910895CF93DF93EC010E94E02682308F
:1049100011F08430F9F482E08093E9009FEF8091F8
:10492000E800915085FD06C085ED8A95F1F70000FD
:104930009111F5CF8091E80085FF0CC040E050E078
:1049400066E070E0CE010E94FD268091E8008E773F
:104950008093E800DF91CF910895CF93DF93EC012E
:104960000E94E026823011F08430D9F58091110147
:10497000882339F08091770287FF03C060E282E0EC
:1049800002C068E081E08093E9008FEF9091E80039
:10499000815095FD06C095ED9A95F1F700008111C3
:1049A000F5CF8091E80085FF1CC080911101811135
:1049B00005C040E050E068E070E003C070E040E017
:1049C00050E0CE010E94FD268091E8008E77809312
:1049D000E80080E2FE01A9E4B2E001900D928A9520
:1049E000E1F7DF91CF9108958BE196E00E944304B7
:1049F00080917D02811109C00E9492280E94EF28B7
:104A00008091E20084608093E200089587E196E05F
:104A10000E94430410927D02089583E196E00C9475
:104A200043048FE096E00C9443048BE096E00E94F0
:104A300043040C94891D209147022F5F822F62E36B
:104A40000E94A82B992319F02093470208951092F1
:104A5000470280914802882371F180917E02843060
:104A600041F58091E9008F702091EC00922F9170B8
:104A700020FD90E8892B93E09093E9009091EB0062
:104A800090FF14C09091EE0097FF10C09091E80045
:104A900095FF03C01092F100F9CF9091E80090FFCC
:104AA00005C09091E8009E779093E8008F70809306
:104AB000E90010924802089542E061EC81E00E9412
:104AC0000C2842E261EC82E00E940C2842E261EC98
:104AD00083E00C940C2880918002833009F460C03C
:104AE00030F4813071F0823009F499C008958A3031
:104AF00009F485C08B3009F46BC0893009F0A7C078
:104B000020C080917F02813A09F0A1C08091E80025
:104B1000877F8093E8008091830290918402892BA3
:104B200021F460E289E492E003C060E080E090E07C
:104B300070E00E9448278091E8008B778093E8001E
:104B4000089580917F02813209F081C080918302B3
:104B500090918402029708F07AC08091E800877FE4
:104B60008093E8008091E80082FD05C080917E027C
:104B70008111F8CF6CC02091F3008091F20090E099
:104B8000922B029729F48091F1008B7F813021F4E0
:104B90008091F100809369028091E8008B7753C087
:104BA00080917F02813A09F052C0809183029091F6
:104BB0008402892B09F04BC08091E800877F8093A5
:104BC000E8008091E80080FFFCCF8091110136C0A1
:104BD00080917F028132D9F5809183029091840285
:104BE000892BA9F58091E800877F8093E8000E94D7
:104BF000412880918102809311010C94531580917A
:104C00007F02813221F58091E800877F8093E80060
:104C10000E9441288091820280936A0208958091C7
:104C20007F02813AA1F48091E800877F8093E800B9
:104C30008091E80080FFFCCF80916A028093F100B0
:104C40008091E8008E778093E8000C9441280895C5
:104C500084B7877F84BF0FB6F894A89580916000D1
:104C6000886180936000109260000FBE80E880939E
:104C70006100109261000E94BA0F0E9492280E9467
:104C8000EF288091E20084608093E2008EEA93E254
:104C90000E94BB1B78940E947D2B0E94C20F87E06C
:104CA00091E00E940C0F8AEF95E00E9443048091EE
:104CB0007E02853089F486EF95E00E9443040E94CD
:104CC0003D1D80917C02882391F30E94711D8823F1
:104CD00071F30E94E726EBCF0E94F40FE8CF0C940B
:104CE0007126292F332723303105C9F064F4213090
:104CF000310581F02230310509F049C08BE590E0A3
:104D00002DE436E048C02132310521F1223231054F
:104D100071F13DC082E190E028EA36E03CC099277D
:104D20008130910571F02CF4892B89F5E9E4F6E0E6
:104D30000DC08230910541F0039749F5EFE1F6E0AF
:104D400005C0E5E3F6E002C0E5E2F6E0849190E01C
:104D50009F0121C063307105D0F4660F771FFB01FE
:104D6000E55EFE4F2081318189E090E014C0633020
:104D7000710568F4FB01EE0FFF1FEB5EFE4F208113
:104D80003181FB01EE5EFE4F808190E004C080E047
:104D900090E020E030E0FA01318320830895089507
:104DA000CF93C82F0E94CF26C0936B02CF91089556
:104DB00080917E02843011F081E0089582E00895B0
:104DC00080916B02811102C00C94D826089580E175
:104DD00089BD82E189BD09B400FEFDCF8091D80074
:104DE0008F7D8093D8008091E00082608093E00006
:104DF0008091E00081FDFCCF0895CF92DF92EF9289
:104E0000FF920F931F93CF93DF93EC018B016A0105
:104E10000E946028811133C0C114D10439F0F60119
:104E200080819181081B190BC80FD91FE12CF12C2F
:104E30000115110519F18091E80085FD16C08091DA
:104E4000E8008E778093E800C114D10449F0F601A0
:104E500080819181E80EF91EF182E08285E00FC029
:104E60000E946028882321F30AC089918093F10071
:104E700001501109FFEFEF1AFF0ADACF80E0DF914E
:104E8000CF911F910F91FF90EF90DF90CF900895F9
:104E900020918502309186022617370748F0611568
:104EA000710539F42091E8002E772093E80001C0C5
:104EB000B90140E061157105A9F120917E0222231C
:104EC00009F443C0253009F442C02091E80023FDD5
:104ED00040C02091E80022FD32C02091E80020FF70
:104EE000E9CF4091F3002091F20030E0342BFC0137
:104EF000CF016115710559F02830310540F48191D9
:104F00008093F100615071092F5F3F4FF1CF41E075
:104F10002830310509F040E02091E8002E772093F9
:104F2000E800C8CF4111C9CF0AC080917E02882312
:104F300061F0853061F08091E80083FD0AC08091C6
:104F4000E80082FFF2CF80E0089582E0089583E0D8
:104F5000089581E0089520918502309186022617F8
:104F6000370748F06115710539F42091E8002E7774
:104F70002093E80001C0B901FC0120E06115710532
:104F800091F180917E02882309F440C0853009F4B4
:104F90003FC08091E80083FD3DC08091E80082FD24
:104FA0002FC08091E80080FFE9CF2091F30080912D
:104FB000F20090E0922B6115710559F0883091054F
:104FC00040F424912093F1003196615071090196CB
:104FD000F2CF21E0089709F020E08091E8008E7779
:104FE0008093E800CBCF2111CCCF0AC080917E0204
:104FF000882361F0853061F08091E80083FD0AC06C
:105000008091E80082FFF2CF80E0089582E0089569
:1050100083E0089581E00895982F973058F5909394
:10502000E900981739F07091EC002091ED00509153
:10503000F00003C0242F762F50E021FF19C03091DB
:10504000EB003E7F3093EB003091ED003D7F3093DD
:10505000ED003091EB0031603093EB007093EC0089
:105060002093ED005093F0002091EE0027FF07C041
:105070009F5FD3CF8F708093E90081E0089580E037
:10508000089580917F0287FF11C08091E80082FD22
:1050900005C080917E028111F8CF11C08091E80097
:1050A0008B770BC080917E02882349F08091E800C5
:1050B00080FFF8CF8091E8008E778093E800089514
:1050C0002091E4003091E50095E64091EC00842FBA
:1050D000817040FF22C08091E80080FD1CC080915B
:1050E0007E02882391F0853091F08091EB0085FD60
:1050F00010C04091E4005091E5004217530729F396
:105100009A01915011F784E0089582E0089583E0B8
:10511000089581E0089580E008954091E80042FFFD
:10512000DECF08950E9400290E940829E0EEF0E0F9
:10513000808181608083E8EDF0E080818F778083DB
:1051400019BCA7EDB0E08C918E7F8C9380818F7E0F
:10515000808310927D0208950F931F93CF93DF9366
:105160000E9400290E940829C8EDD0E088818F772D
:10517000888388818068888388818F7D888319BC33
:1051800010927E0210927A0210927C0210927B02A0
:1051900000EE10E0F80180818B7F80838881816040
:1051A000888342E060E080E00E940C28E1EEF0E0BD
:1051B00080818E7F8083E2EEF0E080818160808359
:1051C000808188608083F80180818E7F80838881E0
:1051D00080618883DF91CF911F910F910895E8ED51
:1051E000F0E080818F7E8083E7EDF0E08081816058
:1051F000808384E082BF81E080937D020C94AC28A0
:10520000E8EDF0E080818E7F80831092E2000895C7
:105210001092DA001092E10008951F920F920FB6DB
:105220000F9211242F933F934F935F936F937F932C
:105230008F939F93AF93BF93EF93FF938091E10080
:1052400082FF0BC08091E20082FF07C08091E100E5
:105250008B7F8093E1000E941B258091DA0080FF04
:105260001FC08091D80080FF1BC08091DA008E7F24
:105270008093DA008091D90080FF0DC080E189BD64
:1052800082E189BD09B400FEFDCF81E080937E02FA
:105290000E94F42405C019BC10927E020E940625CB
:1052A0008091E10080FF19C08091E20080FF15C06D
:1052B0008091E2008E7F8093E2008091E200806125
:1052C0008093E2008091D80080628093D80019BC5E
:1052D00085E080937E020E9411258091E10084FF89
:1052E00030C08091E20084FF2CC080E189BD82E162
:1052F00089BD09B400FEFDCF8091D8008F7D8093D9
:10530000D8008091E1008F7E8093E1008091E200DF
:105310008F7E8093E2008091E20081608093E200C2
:1053200080917A02882311F084E007C08091E30025
:1053300087FD02C081E001C083E080937E020E946D
:1053400015258091E10083FF29C08091E20083FF51
:1053500025C08091E100877F8093E10082E0809307
:105360007E0210927A028091E1008E7F8093E100AC
:105370008091E2008E7F8093E2008091E200806164
:105380008093E20042E060E080E00E940C2880917F
:10539000F00088608093F0000E940D25FF91EF914E
:1053A000BF91AF919F918F917F916F915F914F913D
:1053B0003F912F910F900FBE0F901F9018951F9245
:1053C0000F920FB60F9211242F933F934F935F9339
:1053D0006F937F938F939F93AF93BF93CF93DF93FD
:1053E000EF93FF93C091E900CF708091EC00D82F2C
:1053F000D17080FDD0E81092E9008091F000877FA5
:105400008093F00078940E94232A1092E900809102
:10541000F00088608093F000CD2BCF70C093E9003E
:10542000FF91EF91DF91CF91BF91AF919F918F91BC
:105430007F916F915F914F913F912F910F900FBE90
:105440000F901F9018951F93CF93DF93CDB7DEB7C2
:10545000AA970FB6F894DEBF0FBECDBFEFE7F2E01C
:1054600088E08E0F9091F10091938E13FBCF0E94F4
:105470006B258091E80083FF28C180917F02909185
:105480008002492F50E04A30510508F01EC1FA0150
:10549000E556FF4F0C94FE2B803821F0823809F03E
:1054A00014C108C080917B0290917C02992389F0FD
:1054B00082600FC0809183028F70873008F005C131
:1054C0008093E9008091EB0085FB882780F910929A
:1054D000E9009091E800977F9093E8008093F100B5
:1054E0001092F100D0C0282F2D7F09F0EEC0882344
:1054F00019F0823061F0E9C080918102813009F0B9
:10550000E4C0933009F080E080937C022EC080914B
:10551000810281112AC0809183028F702FEF280FA2
:10552000263008F0D2C08093E9002091EB0020FFE4
:105530001CC0933021F48091EB00806214C09091E4
:10554000EB0090619093EB0021E030E0A90102C0F4
:10555000440F551F8A95E2F74093EA001092EA0043
:105560008091EB0088608093EB001092E9008091BD
:10557000E800877F8093E8000E944128A6C081113F
:10558000A4C0109181021F778091E3008078812B65
:105590008093E3008091E800877F8093E8000E9479
:1055A00041288091E80080FFFCCF8091E300806873
:1055B0008093E300111102C082E001C083E0809378
:1055C0007E0283C08058823008F07FC080918102C3
:1055D000909182028C3D53E0950779F583E08A83B0
:1055E0008AE289834FB7F894DE01139620E03EE00B
:1055F00051E2E32FF0E050935700E49120FF03C005
:10560000E295EF703F5FEF708E2F90E0EA3010F080
:10561000C79601C0C0968D939D932F5F243149F7A3
:105620004FBF8091E800877F8093E8006AE270E0D6
:10563000CE0101960E94482715C0609183027091A7
:105640008402AE014F5F5F4F0E946F26BC01892B21
:10565000E1F19091E800977F9093E80089819A8129
:105660000E94AB278091E8008B778093E8002DC0E3
:10567000803859F58091E800877F8093E800809119
:105680007A028093F1008091E8008E7773CF8111C8
:105690001CC0909181029230C0F48091E800877F15
:1056A0008093E80090937A020E94412880917A02C8
:1056B000811106C08091E30087FD02C081E001C036
:1056C00084E080937E020E945C258091E80083FF45
:1056D0000AC08091E800877F8093E8008091EB000A
:1056E00080628093EB00AA960FB6F894DEBF0FBEDF
:1056F000CDBFDF91CF911F910895CF9380917E020E
:105700008823A1F0C091E900CF709091EC00892F1F
:10571000817090FD80E8C82B1092E9008091E8002C
:1057200083FD0E94232ACF70C093E900CF91089592
:10573000DB018F939F930E94132CBF91AF91A29F87
:10574000800D911DA39F900DB29F900D112408957F
:10575000991B79E004C0991F961708F0961B881FC3
:105760007A95C9F780950895AA1BBB1B51E107C024
:10577000AA1FBB1FA617B70710F0A61BB70B881FE1
:10578000991F5A95A9F780959095BC01CD01089570
:1057900097FB072E16F4009407D077FD09D00E94DE
:1057A000B42B07FC05D03EF4909581959F4F08954A
:1057B000709561957F4F0895A1E21A2EAA1BBB1B1D
:1057C000FD010DC0AA1FBB1FEE1FFF1FA217B307CD
:1057D000E407F50720F0A21BB30BE40BF50B661FE3
:1057E000771F881F991F1A9469F7609570958095A7
:1057F00090959B01AC01BD01CF010895EE0FFF1FF5
:105800000590F491E02D0994A29FB001B39FC001CF
:10581000A39F700D811D1124911DB29F700D811DDC
:105820001124911D08950E94042CA59F900DB49FF2
:10583000900DA49F800D911D11240895F999FECF1C
:1058400092BD81BDF89A992780B50895A8E1B0E08E
:1058500042E050E00C94522C262FF999FECF92BDD5
:1058600081BDF89A019700B4021639F01FBA20BD25
:105870000FB6F894FA9AF99A0FBE08950396272F57
:105880000E942D2C0E942C2C252F0E942D2C242F81
:105890000C942D2C0196272F0E942D2C0C942C2C2F
:1058A000DC01CB01FC01F999FECF06C0F2BDE1BDE0
:1058B000F89A319600B40D9241505040B8F70895CF
:0458C000F894FFCF8A
:1058C400160228083C0714AB23AD2482244C24116F
:1058D400240140C0229C07DC06BA065F06780691C4
:0258E4000600BC
:00000001FF
