:100000000C94FB030C94EA2B0C9442040C944204D1
:100010000C9442040C9442040C9442040C94420448
:100020000C9442040C9442040C946A1B0C94A61A7F
:100030000C945A280C9442040C9442040C944204EC
:100040000C9442040C9442040C9442040C94420418
:100050000C9442040C9419280C9442040C9442040D
:100060000C9442040C9442040C9442040C944204F8
:100070000C9442040C9442040C9442040C944204E8
:100080000C94FF060C9442040C9442040C94420419
:100090000C9442040C9442040C9442040C944204C8
:1000A0000C9442040C9442040C9442045E145E14BA
:1000B00098149814EE149116911691160A15E815D5
:1000C000F915F915C913DB16E016E516EA16EF1651
:1000D000F416F916FE16031708170F17121715173F
:1000E00018171B171E17211724172917B518DC1806
:1000F0007E1ADC187E1A241947197E1A421A551ADC
:10010000882488249B249B2491249B249B249B2427
:100110008824882496249B249B24962407634236B3
:10012000B79BD8A71A39685618AEBAAB558C1D3C88
:10013000B7CC5763BD6DEDFD753EF6177231BF004C
:100140000000803F08000000BE922449123EABAA86
:10015000AA2ABECDCCCC4C3E00000080BEABAAAAE1
:10016000AA3E00000000BF000000803F0000000029
:1001700000084178D3BB4387D1133D190E3CC3BD62
:100180004282AD2B3E68EC8276BED98FE1A93E4C0F
:1001900080EFFFBE01C4FF7F3F00000000000001B0
:1001A0000101010101010101020202020202020237
:1001B0000203030303030303030404040404040409
:1001C00005050505050606060606070707070708CD
:1001D000080808090909090A0A0A0B0B0B0C0C0C80
:1001E0000D0D0D0E0E0E0F0F0F101011111112121A
:1001F00013131414151516161717181819191A1A97
:100200001B1B1C1D1D1E1E1F2020212222232424F7
:10021000252626272829292A2B2C2D2D2E2F303133
:100220003232333435363738393A3B3C3D3E3F4045
:100230004142434445464748494A4C4D4E4F505130
:100240005354555658595A5B5D5E5F6162646566EA
:1002500068696B6C6D6F7072737577787A7B7D7E71
:100260008082838587888A8C8E8F91939596989AC1
:100270009C9EA0A2A3A5A7A9ABADAFB1B3B5B7BAD9
:10028000BCBEC0C2C4C6C9CBCDCFD1D4D6D8DBDDAD
:10029000DFE2E4E7E9EBEEF0F3F5F8FAFDFFFFAAA1
:1002A0007F5540010014001A0008001500170001D6
:1002B0000004001600070009000A0001001D001BD1
:1002C00000060019000500065101000100010001AF
:1002D0000001001C0018000C001200130001000BAC
:1002E000000D000E000F0033003400110010003626
:1002F0000037003800010001000100010001000189
:10030000000100010034003600370013001C00011A
:100310000004001200080018000C00010033001453
:10032000000D000E001B000651010001000100013C
:1003300000010009000A00060015000F0001000777
:10034000000B001700110016003800050010001AFD
:100350000019001D00010001000100010001000161
:100360000001002B00010001000100010001002933
:100370000001000100010001000100E10001000195
:10038000000100010001000651E000E208E2000562
:1003900051E300010001000100010001002A0001F9
:1003A0000001000100010001000100010001000145
:1003B0000001000100D95C2C000451500051005292
:1003C000004F002B00010001000100010001002985
:1003D0000001000100010001000100E10001000135
:1003E000000100010001000651E300E101E2000507
:1003F00051E000010001000100010001002A00019C
:1004000000010001000100010001000100010001E4
:100410000001000100D95C2C000451500051005231
:10042000004F0035001E001F002000210022004C5C
:10043000003A003B003C003D003E0001004000410E
:1004400000420043004400010001000100010001DE
:100450000001002300240025002600270001003FA2
:10046000002D002E022F0030000100450035000154
:1004700000010031000100010001004A004E004B64
:10048000004D0035021E021F022002210222024CF2
:100490000001000100010001000100010001000154
:1004A0000001000100010001000100010001000144
:1004B0000001002302240225022602270201000176
:1004C000002D022E002F0230020100010035020132
:1004D00000010031020100010001004A004E004B02
:1004E000004D000100010001000100C25C0100009C
:1004F0005CC45CC35CC65CC55C01003900CA5CC9F5
:100500005CC85CC75C010001000100010001000142
:10051000000100010001000100010001004C000782
:10052000531050115002520352010001000100010A
:1005300000010001000100AE000100AC00AA00A90A
:1005400000AB0001001E001F00200021002200015E
:100550000001000100010001000100010001000193
:100560000001000100010006510100010001000529
:10057000510100230024002500260027000100016E
:100580000001000100010001000100010001000163
:1005900000010001000100010004510100010001FF
:1005A00000010005010980A101850319012AB70096
:1005B000150126B700950175108100C0050C0901D1
:1005C000A101850419012AA002150126A0029501A6
:1005D00075108100C005010906A1018505050719EF
:1005E000E029E71500250195087501810205071925
:1005F0000029EF1500250195F07501810205081904
:10060000012905950575019102950175039101C0B8
:1006100005010906A101050719E029E715002501D3
:10062000950875018102950175088101050719007A
:1006300029FF150026FF0095067508810005081999
:10064000012905950575019102950175039101C078
:1006500009023B00020100A0FA09040000010301A5
:100660000100092111010001224000070581030852
:10067000000A090401000103000000092111010022
:1006800001226D000705820320000A1201100100FB
:100690000000080912E5BE02000102030104033054
:1006A000000000240356006900740061006D0069B9
:1006B000006E007300200069006E0063006C00751E
:1006C00000640065006400000012034400750063CC
:1006D000006B006C00650032003900000004030963
:1006E0000432190A00047F3F1F6432146432147804
:1006F0003C1E1E140A052223252628292A2C2D2FCC
:100700003032333536383A3B3D3E40424345474927
:100710004A4C4E5051535557595A5C5E606264665C
:1007200068696B6D6F71737577797B7D7F81838568
:1007300087898A8C8E90929496989A9C9E9FA1A36A
:10074000A5A7A8AAACAEAFB1B3B4B6B8B9BBBCBE8E
:10075000BFC1C2C3C5C6C7C9CACBCCCDCED0D1D20A
:10076000D2D3D4D5D6D7D7D8D9D9DADADBDBDBDC0C
:10077000DCDCDCDCDDDDDDDDDCDCDCDCDCDBDBDBB8
:10078000DADAD9D9D8D7D7D6D5D4D3D2D2D1D0CE18
:10079000CDCCCBCAC9C7C6C5C3C2C1BFBEBCBBB91D
:1007A000B8B6B4B3B1AFAEACAAA8A7A5A3A19F9E9B
:1007B0009C9A98969492908E8C8A89878583817F63
:1007C0007D7B79777573716F6D6B69686664626044
:1007D0005E5C5A5957555351504E4C4A4947454310
:1007E00042403E3D3B3A3836353332302F2D2C2AAD
:1007F00029282625232211241FBECFEFDAE0DEBFF1
:10080000CDBF04B603FE27C0809114069091150653
:10081000A0911606B09117068730904BA740B04BB9
:10082000D1F410921406109215061092160610922A
:10083000170614BE84B7877F84BF0FB6F894A895B7
:1008400080916000886180936000109260000FBE0C
:10085000E0E0F8E3099526E0A8E3B4E001C01D92CA
:10086000A431B207E1F714E0A0E0B1E0EEE2F4E673
:1008700002C005900D92A833B107D9F70E94351D2B
:100880000C9415320C9400009091F80492FF0DC066
:10089000282F2871283019F4877F846006C0282FFC
:1008A0002471243011F48B7F886093FF0DC0282FB2
:1008B0002871283119F4877E846106C0282F24719D
:1008C000243111F48B7E88612091F90420FF0DC042
:1008D000382F3871383019F4877F816006C0382F7F
:1008E0003171313011F48E7F886021FF0DC0282FC7
:1008F0002871283119F4877E816106C0282F217163
:10090000213111F48E7E886194FD877E08953091A7
:100910007E0380910F0580FF16C0E0917D0363E0A8
:10092000E69FF0011124EC5DFA4F809A81B38E7F2F
:1009300091B391602FB7F894AF0163E0369F400DFB
:10094000511D112414C080917F0390918003891759
:1009500020F7E82FF0E0AF01440F551FE40FF51F1B
:10096000EC5DFA4F1182108212828F5FF0CFE41794
:10097000F50789F0319168E091BB000000C037FFB6
:1009800081BB330F000000C000C000C081BB00C0AD
:100990006A9591F7ECCF2FBF8FE594E00197F1F7BF
:1009A00000C00000089590910F0590FF16C090912F
:1009B0007F0320918003921770F4E92FF0E0DF01AC
:1009C000AA0FBB1FEA0FFB1FEC5DFA4F8183608308
:1009D00042839F5FF0CF0C948704089580910F05A8
:1009E000282F269530E02115310519F48170826099
:1009F00005C02B32310524F08170846580930F058A
:100A00000895CF92DF92EF92FF926B017C010E94DA
:100A1000EE04B701A60188E090E0FF90EF90DF9030
:100A2000CF900C947F2D80911305882319F081506D
:100A30008093130560910F05709110058091110549
:100A4000909112050C94010580911305833018F4E0
:100A50008F5F8093130560910F0570911005809151
:100A60001105909112050C940105EFE0F5E083E08B
:100A7000808311828FEF828383831482A4E1B5E0A7
:100A800012968C911297836012968C93608171817B
:100A9000828193810C940105BF92CF92DF92EF92F5
:100AA000FF920F931F93CF93DF93E82EF62EE90169
:100AB000E42FF0E0611106C0E256FE4F8491B82E9B
:100AC000E82F71C0262F30E0E256FE4FE491FE2F52
:100AD000CE2ED12C46E0849FC00111240FEF10E0F0
:100AE000B8010E94DA314BEA4603C001479F900DDE
:100AF00011248E0D911D8E0D911D982F990F890F28
:100B0000D801A21BB30BAC9DA001AD9D500DBC9DA7
:100B1000500D1124B52EF89ED0011124AB2FBB2708
:100B20007801EA1AFB0AEC9CD001ED9CB00DFC9C0C
:100B3000B00D11247801E81AF108E29EC001E39E8D
:100B4000900DF29E900D1124892F9927081B190BE7
:100B50000C9D90010D9D300D1C9D300D1124832F97
:100B60006230710591F048F461157105E1F0613072
:100B70007105B9F48E2FEB2F16C06430710569F042
:100B800040F06630710579F00CC08E2FE52FB32E42
:100B90000AC0E52FBF2E8B2F06C0852FBE2EE32F58
:100BA00002C0852FBB2EE9838883BA82DF91CF9163
:100BB0001F910F91FF90EF90DF90CF90BF9008951D
:100BC000CF93DF9300D01F92CDB7DEB790910F0582
:100BD00090FF0AC09E012F5F3F4F0E944C054B8142
:100BE00069818A810E94D3040F900F900F90DF914A
:100BF000CF910895AF92BF92CF92DF92EF92FF9282
:100C00000F931F93CF93DF9300D01F92CDB7DEB722
:100C1000182FF62E042FE22E90910F0590FF7EC024
:100C2000E92FE695AE2FB0E0A353BC4F8C91809393
:100C300014059E7F923061F49E012F5F3F4F812FFC
:100C40000E944C054B8169818A810E94D30443C074
:100C5000823019F4009112053EC0863019F41091CB
:100C6000100539C08930D9F38931A9F5E9518E2FA2
:100C70008170D82EE695F0E0E256FD4FA590B49035
:100C8000C12CBB2460918103C61618F52C2D30E0D1
:100C9000A29EC001A39E900DB29E900D112470E003
:100CA0000E94DA31812FD11002C0860F01C0861B4D
:100CB00090917F03290F311DA901440F551F240F67
:100CC000351F2C5D3A4F402F6F2D0E944C05C39469
:100CD000D9CF0E94870480911005181308C0809115
:100CE0001105F81204C080911205081729F08091AF
:100CF000160582608093160510931005F092110579
:100D000000931205EE2051F060910F0570911005CF
:100D100080911105909112050E9401050F900F908E
:100D20000F90DF91CF911F910F91FF90EF90DF9087
:100D3000CF90BF90AF900895EFE0F5E0438121E1BF
:100D4000421B08F440E021E0628181810C94FA05A5
:100D5000EFE0F5E0438121E1420F08F44FEF21E09D
:100D6000628181810C94FA05EFE0F5E0628121E176
:100D7000621B08F460E021E0438181810C94FA0554
:100D8000EFE0F5E0628121E1620F08F46FEF21E00E
:100D9000438181810C94FA05EFE0F5E0818121E047
:100DA0004381628188500C94FA05EFE0F5E081817F
:100DB00021E043816281885F0C94FA0581E0809391
:100DC000940468E070E081EC91E00C94411781E0BC
:100DD0008093950468E070E081E491E00C94411701
:100DE0006091DE0461606093DE0487E090E00E9421
:100DF0006D2D62E070E081E291E00C9441171F924A
:100E00000F920FB60F9211244F925F926F927F92C2
:100E10008F929F92AF92BF92CF92DF92EF92FF920A
:100E20002F933F934F935F936F937F938F939F93F2
:100E3000AF93BF93CF93DF93EF93FF938091DD0444
:100E4000882309F4C2C1C0917A04D0917B041C1696
:100E50001D060CF0BAC14090760450907704609063
:100E600078047090790420E030E0A901C301B20158
:100E70000E94C92F18160CF065C0C130D10509F4C5
:100E800052C08091740490917504BE010E94EE31AD
:100E90007C0190937504809374048090D3049090A7
:100EA000D404A090D504B090D60420E030E040E80F
:100EB0005FE3C501B4010E94052E6093D3047093D3
:100EC000D4048093D5049093D604F701EE0FFF1F4E
:100ED000EE0FFF1FEC5AFB4FA3019201608171815D
:100EE000828193810E94762E20E030E040E05EE334
:100EF0000E94CE2F9B01AC01C501B4010E94C92FF5
:100F000018168CF4C7010196BE010E94EE31909331
:100F10007504809374041092D3041092D404109238
:100F2000D5041092D604E0917404F0917504EE0F8C
:100F3000FF1FEE0FFF1FEC5AFB4FC080D180E280F5
:100F4000F380E0C0809120012197882309F4BFC07D
:100F5000C0905004D0905104E0905204F09053049B
:100F600020E030E0A901C701B6010E94712E88235C
:100F700009F4A2C0FE01EE0FFF1FEE0FFF1FEC5A97
:100F8000FB4F80809180A280B380A5019401C701AE
:100F9000B6010E94712E87FF31C0A501940160E067
:100FA00070E08CED93EC0E94762E20E030E040E47F
:100FB00051E40E94762E20E030E040E05FE30E94A2
:100FC000CE2F9B01AC0160E070E080E090E40E94D5
:100FD0003B309B01AC01C501B4010E94CE2F9B01A7
:100FE000AC01C701B6010E94712E87FF07C0A7019F
:100FF000960160E070E08CED93E439C0A5019401A6
:10100000C701B6010E94C92F18160CF055C0A501E2
:10101000940160E070E08CED93E40E94762E20E075
:1010200030E040E451E40E94762E20E030E040E0E1
:101030005FE30E94CE2F9B01AC0160E070E080E096
:1010400090E40E943B309B01AC01C501B4010E94B9
:10105000CE2F9B01AC01C701B6010E94C92F181603
:101060005CF5A701960160E070E08CED93EC0E94C6
:10107000762E20E030E040E451E40E94762E20E01D
:1010800030E040E05FE30E94CE2F9B01AC0160E0C6
:1010900070E080E090E40E943B309B01AC01C7010E
:1010A000B6010E94CE2F6093500470935104809338
:1010B0005204909353041EC0CC0FDD1FCC0FDD1FD4
:1010C000CC5ADB4F88819981AA81BB810BC0FE017C
:1010D000EE0FFF1FEE0FFF1FEC5AFB4F8081918137
:1010E000A281B3818093500490935104A093520441
:1010F000B0935304C0905004D0905104E090520437
:10110000F090530480914E0490914F048F3F2FEF45
:10111000920729F0019690934F0480934E0480919A
:101120007C04811116C01092200180E090E0A0E0C4
:10113000BFE380931C0190931D01A0931E01B09307
:101140001F01109276041092770410927804109286
:10115000790420E034E244EF51E4C701B6010E9473
:10116000712E87FF08C046EFC42E48E2D42E44EF0C
:10117000E42E41E4F42E20E030E040E051E4C701E9
:10118000B6010E94CE2F9B01AC0160E074E284E7BF
:101190009BE40E94762E6B017C010E94E82E7093E6
:1011A00097006093960020911C0130911D014091A1
:1011B0001E0150911F01C701B6010E94CE2F0E944F
:1011C000E82E70939900609398008091DC04882346
:1011D00009F45AC1C090CD04D090CE04E090CF0461
:1011E000F090D00420E030E0A901C701B6010E94D0
:1011F000C92F18160CF052C080914E0490914F04E4
:101200008F3F2FEF920729F0019690934F04809320
:101210004E0480917C04811116C01092200180E060
:1012200090E0A0E0BFE380931C0190931D01A09388
:101230001E01B0931F011092760410927704109251
:1012400078041092790420E030E040E051E4C701D6
:10125000B6010E94CE2F9B01AC0160E074E284E7EE
:101260009BE40E94762E6B017C010E94E82E709315
:1012700097006093960020911C0130911D014091D0
:101280001E0150911F01C701B6010E94CE2F0E947E
:10129000E82E709399006093980008C01092970010
:1012A0001092960010929900109298006091C704D5
:1012B0007091C8046F5F7F4F7093C8046093C70438
:1012C000209196003091970080E090E0232B71F1FF
:1012D00020914D0421112AC0C0919600D091970011
:1012E0000E94172F6B017C01BE0180E090E00E94FC
:1012F000172F9B01AC016091C9047091CA048091C1
:10130000CB049091CC040E94762E20E03FEF4FE773
:1013100057E40E94CE2F20E030E040E85FE30E94D7
:10132000042E9B01AC01C701B6010AC00E94172F11
:101330002091C9043091CA044091CB045091CC044F
:101340000E94C92F87FDA0C08091D1049091D20442
:1013500001969093D2048093D1042091D8043091C7
:10136000D90482179307B0F08091D704882329F01D
:101370001092D2041092D1040DC0809171008D7F23
:1013800080937100809190008F73809390001092F1
:10139000DC0482C020914D048091D1049091D2044C
:1013A000E091DA04F091DB0421113FC021E02093A9
:1013B0004D049C01215031093093D2042093D10473
:1013C00033E0880F991F3A95E1F7E80FF91FDF0125
:1013D0001897CD90DD90ED90FC9020813181428175
:1013E0005381C701B6010E94712E811109C010926C
:1013F000CD041092CE041092CF041092D00408C0F5
:10140000C092CD04D092CE04E092CF04F092D004EA
:1014100080E090E0A0E8BFE38093C9049093CA0401
:10142000A093CB04B093CC042BC010924D04109227
:101430004F0410924E0423E0880F991F2A95E1F77C
:10144000E80FF91F80819181A281B3818093CD043F
:101450009093CE04A093CF04B093D00420E030E06A
:1014600040E85EE364817581868197810E94CE2F7A
:101470006093C9047093CA048093CB049093CC0406
:101480001092C8041092C7048091DE0480FD04C04D
:101490001092DC041092DD04FF91EF91DF91CF9167
:1014A000BF91AF919F918F917F916F915F914F917C
:1014B0003F912F91FF90EF90DF90CF90BF90AF9032
:1014C0009F908F907F906F905F904F900F900FBE86
:1014D0000F901F9018950E94F128811102C00E9460
:1014E000FC2887E090E00E94592D8093DE048091D3
:1014F000DF04811129C03E9A809171008D7F809315
:10150000710082E0809390008AE18093910081ECE9
:1015100091E1909397008093960023EA3BE04EE898
:1015200055E460911C0170911D0180911E01909104
:101530001F010E94CE2F0E94E82E709399006093A5
:10154000980081E08093DF048091DE0480FF06C074
:1015500063E070E084E091E00C944117089580917D
:10156000DF04811102C00E946B0A10927B0410926A
:101570007A04809171008D7F80937100809190003A
:101580008F73809390001092DC041092DD0410920F
:101590005004109251041092520410925304E4E546
:1015A000F4E0ADE3B4E011921192119211921D9208
:1015B0001D9284E0E437F807B1F70895809195040F
:1015C00081110C94AF0A08950E94DE0A10929504CE
:1015D00068E070E081E891E00C94411762E070E00F
:1015E00081E391E00E9441172FEF81EE94E02150BA
:1015F00080409040E1F700C000000E94AF0A609177
:10160000DE046E7F6093DE0487E090E00C946D2D25
:10161000CF92DF92EF92FF920F931F93CF93DF93BE
:10162000682F70E065547109072E000C880B990B28
:101630000E94192F20E030E040E451E40E94762E11
:101640009B01AC0160E070E080E090E40E943B30E0
:101650006B017C018091DD04882309F488C08091AE
:10166000DF04811102C00E946B0A20E030E04CEDE3
:1016700053E4C701B6010E94CE2F6B017C0104E741
:1016800014E0C7E0D0E0A7019601F80192918291A1
:10169000729162918F010E94712E811131C0FE0101
:1016A000EE0FFF1FEE0FFF1FEC5AFB4F108211824F
:1016B00012821382DE01AA0FBB1FA35CBB4F1196DF
:1016C0001C921E92C730D105E9F0219644815581C4
:1016D000668177814083518362837383148215828C
:1016E0001682178212968D919C91139711969C9356
:1016F0008E9313961C921E92129734961296E2CFF6
:10170000219708F680917A0490917B04019797FDC8
:1017100005C090937B0480937A0404C010927B04EC
:1017200010927A0480917A0490917B042091740441
:10173000309175042817390724F01092750410921F
:101740007404892BA1F4809171008D7F80937100C6
:10175000809190008F7380939000109250041092AB
:10176000510410925204109253041092DD04DF9140
:10177000CF911F910F91FF90EF90DF90CF90089540
:10178000CF92DF92EF92FF92682F70E0655471095B
:10179000072E000C880B990B0E94192F20E030E0D7
:1017A00040E451E40E94762E9B01AC0160E070E0C1
:1017B00080E090E40E943B306B017C018091DF046B
:1017C000811102C00E946B0A8091DE0480FF52C02A
:1017D00080917A0490917B0408970CF04BC0809123
:1017E00071008D7F809371008091DC0481110E94D3
:1017F000AF0A20E030E04CED53E4C701B6010E948F
:10180000CE2F6B017C0181E08093DD0410924F04A8
:1018100010924E0420E030E0A901C701B6010E94F9
:10182000C92F1816ECF480917A0490917B04FC0186
:10183000EE0FFF1FEE0FFF1FEC5AFB4FC082D1824D
:10184000E282F382FC01EE0FFF1FE35CFB4F2FE00F
:1018500030E031832083019690937B0480937A0457
:101860008091710082608093710080919000806807
:1018700080939000FF90EF90DF90CF90089580913B
:101880003C04811112C08091D80080618093D800FF
:101890008AE18A95F1F700C08091D90080FD02C0ED
:1018A00082E001C081E080933C0481E090913C049F
:1018B000913009F080E00895CF93DF9320E3829F79
:1018C000C0011124FC0146E0749FE00DF11D1124BC
:1018D000E60FF11DEE0FFF1FED55FD4FC591D491A1
:1018E000CE01C238D10569F1B0F4C133D10509F494
:1018F00075C048F4C932D10509F469C0CA32D105AE
:1019000009F473C085C0C533D10509F459C0C93382
:10191000D105B9F07DC0C33ED10571F138F4C03EA8
:10192000D105B1F0C23ED10511F172C0C63ED1055C
:10193000B9F1C73ED105C9F1C43ED10509F068C06F
:1019400024C02091F80420FD5DC021FD5BC060C073
:101950002091F80420FD50C02091F90420FF42C1DD
:101960008091F80484FD3CC183EE90E03BC120915E
:10197000F80422FF37C1F4CF8091F80482FD3FC004
:101980008091F90480FD3EC0EBCF2091F90421FF46
:1019900029C18091F80484FD23C187EE90E022C123
:1019A0002091F80423FF1EC1F4CF8091F80483FD39
:1019B0002CC08091F90481FFECCF84EE90E012C13D
:1019C0002091F80425FF0EC189E290E00BC120911F
:1019D000F80425FF07C185E390E004C12091F804D5
:1019E00026FF00C18AE290E0FDC02091F80426FFA6
:1019F000F9C081E390E0F6C089E390E0F3C082EEA5
:101A000090E0F0C080EE90E0EDC086EE90E0EAC09D
:101A1000C11552E5D50708F06BC0C11521E5D20705
:101A200028F09C2F8827816F906ADCC0C83ED105C2
:101A300070F5C03ED10508F0D5C0C83AD105B8F45C
:101A4000C53AD10550F08C2F855AC82FD0E0CA5F17
:101A5000DB4F888190E09064C5C0C130D10509F4A6
:101A6000C1C008F4BDC0249708F4BAC0BBC0CF3BC6
:101A7000D10508F0B5C08C2F885AC82FD0E0CC0F04
:101A8000DD1FC75FDB4F888199819464ABC0C115AE
:101A900040E5D407F0F0CE01F4E096958795FA95ED
:101AA000E1F7282F23703C2F337081E090E002C0D3
:101AB000880F991F3A95E2F79C68922B2C2F2F7074
:101AC0002695269550E2259F90011124822B932B79
:101AD00089C0C11550E4D50720F0CE019F70906AEF
:101AE00081C09E013A9521153F4108F47BC078C022
:101AF000C11556E5D50708F03FC0C11585E5D807E3
:101B000048F08C2F0E9444048F7190E0982F882712
:101B1000906268C0C11524E5D20728F09C2F882761
:101B2000846F906A5FC09E01237033279C2F969527
:101B30009695C115D34580F441E050E002C0440FB2
:101B4000551F2A95E2F780E2989F90011124CA015F
:101B5000822B932B9C6846C041E050E002C0440FAA
:101B6000551F2A95E2F780E2989F90011124CA013F
:101B7000822B932B9A6836C0C1155AE5D507B0F46D
:101B8000C11589E5D80718F18C2F8F700E94440485
:101B90009E0194E0369527959A95E1F72F7030E0F5
:101BA000322F22273069A901482B0FC0CE01905651
:101BB00081159042A8F48D2F8F710E9444049E01DC
:101BC000332730628F71A901582BCA010BC0C11590
:101BD00028E5D20728F09C2F8827806F906A02C0E2
:101BE00080E090E0DF91CF91089590910F0590FFF4
:101BF0003BC09170811102C0926006C08B3210F020
:101C0000946502C0880F982B90930F05809116055C
:101C1000816080931605662351F060910F057091E5
:101C2000100580911105909112050E9401056091A7
:101C30000F05669570E04BE050E08DE993E00E945F
:101C40000832892B19F00E94542402C00E945B24A0
:101C500081E080930C0520E0409112056091110510
:101C6000809110050C94FA05089580910F058695D2
:101C7000815009F48AE261E00C94F50D80910F0522
:101C800086958F5F8B3208F081E061E00C94F50D52
:101C90006F927F928F929F92AF92BF92CF92DF927C
:101CA000EF92FF920F931F93CF93DF9368EF73E050
:101CB0000EEE14E022EFE22E24E0F22E3801C0E016
:101CC000AA24A394B12CDB018D91BD01E82FE295EC
:101CD000EF70F0E021A18F70A50102C0440F551FE5
:101CE0008A95E2F7CA01242B21A322A1942E909475
:101CF000292122A350EA5A95F1F790E0C92E94E0E9
:101D0000D92E20E030E0D0E0D6018D906D01482D35
:101D100042954F7050E0DA0190964C9150E0B82D0A
:101D2000BF7002C055954795BA95E2F740FD07C0D0
:101D30004A2D022E01C0440F0A94EAF701C040E088
:101D4000D42B2F5F3F4F26303105F1F691A1992218
:101D500091A292A1892B82A3F3018081D81719F057
:101D6000D08381E001C080E0C82BFFEF6F1A7F0AAB
:101D7000E614F70409F0A7CFD090F704CC2349F07C
:101D800081E080933A040E944E2890933904809316
:101D9000380480913A048823A9F080913804909106
:101DA00039040E943F28069768F0ED2DF0E0E250DC
:101DB000FB4FD8018D918D018193EA16FB06C9F77F
:101DC00010923A040E943F0C8823D1F11091F6043E
:101DD000809116058823E9F085E0EFE0F5E0A0EEBC
:101DE000B4E001900D928A95E1F7809114059091ED
:101DF0001505A09116058093E5049093E604A09341
:101E0000E70481E090E00E947A2C892B11F4109273
:101E1000160580E090E00E947A2C892B09F074C0AE
:101E2000E12FF0E0E250FB4F80E090E0DC01A751B1
:101E3000BB4F2C912193019684309105B9F7BEC018
:101E4000E091F7040E2F10E08091E804883009F04B
:101E50004CC08091E70480FF25C09091E004809100
:101E60000F0590FF0AC0816080930F058091E00408
:101E700060E086950E94F50D15C08E7F80930F055A
:101E80000E94542480911605816080931605BFEF4F
:101E9000E0E7F2E0B150E040F040E1F700C00000C0
:101EA0000E9487048091E70481FF09C020E04091EF
:101EB000E3046091E2048091E1040E94FA058091BC
:101EC000E70482FF09C08091E604882319F00E948C
:101ED0005B2402C00E9454248091E70483FF03C066
:101EE00081E080930C051092E804F801E250FB4F6A
:101EF00080E090E02191DC01A751BB4F2C9301962B
:101F000084309105B9F75DC080913B048F5F809369
:101F10003B04863008F048C080919104882309F47E
:101F200050C080918D0490918E04009781F40E949E
:101F30004E2890938E0480938D0420918F0430E07E
:101F40002115310571F48091900490E00BC00E943E
:101F50003F2820910203309103032817390738F3F3
:101F600030C0C9010197F901E358FB4FD08120919E
:101F70009504222331F0FC01E358FB4F80810E943D
:101F8000080B80919504882319F08D2F0E94C00BB7
:101F900080918F0490E001966091900470E00E941F
:101FA000EE3180938F040DC0E091F604F0E0E25032
:101FB000FB4F1082118212821382AECF10923B042B
:101FC000ABCF8C2FDF91CF911F910F91FF90EF90AE
:101FD000DF90CF90BF90AF909F908F907F906F9049
:101FE00008958F929F92AF92BF92CF92DF92EF921D
:101FF000FF920F931F93CF93DF93CDB7DEB7AD97CB
:102000000FB6F894DEBF0FBECDBFFC010081D180BA
:1020100083819481892B39F01FEFD11206C091E0A2
:102020000F3F19F403C091E001C090E090FD16C786
:102030007F0185E0DE01999601900D928A95E1F786
:10204000D70112962C9189A59AA5222349F00E94C6
:10205000AB29182F682F89A59AA50E94252A03C0AD
:102060000E94F829182FB0E31B9FF001112416E0FD
:10207000D19EE00DF11D1124E00FF11DEE0FFF1FA9
:10208000ED55FD4F059114910D312CE5120749F4E2
:10209000D70112968C91882309F459C00E94F0064A
:1020A0009BC30E31BCE51B0741F4F70182818823F5
:1020B00009F44DC00E94EE0A8FC30F31FCE51F07E3
:1020C00059F4D70112968C91882309F440C080916D
:1020D000DE0480FDEFCFE2CFC8018A529C45029713
:1020E00058F4F7018281882391F110927C0464E016
:1020F00070E081E092E023C006322CE5120711F176
:102100000732BCE51B0709F4FDC00832FCE51F07D8
:1021100009F4EBC00C32BCE51B0709F4FBC00D321F
:10212000FCE51F0709F0FEC0D70112968C918823A9
:1021300071F01092940468E070E081E292E00E94F5
:1021400041174AC3D70112968C918111D8C02091B2
:102150009504211105C080919404882309F411C1CC
:10216000F7013281332309F44BC0003E110561F4BD
:102170000E94DE0A81E080939304109292041092F0
:1021800091041092900428C3023E110571F40E943C
:10219000DE0A80919304882319F081E080939204F1
:1021A000109293041092910417C3033E110591F409
:1021B00080919204882321F10E94DE0A10929304F8
:1021C00081E08093910410928F0410928E041092FB
:1021D0008D0402C30235110531F480910203909100
:1021E00003030A9708C00135110551F480910203D9
:1021F000909103030A969093030380930203ECC229
:102200008091010381110DC0D70111964C91119756
:1022100088E090E0841B91094C91405FD42EBCE093
:102220001DC0813069F4F701418188E090E0841B92
:102230009109D82EDD0CDD0CD80E80818D5C31C06B
:10224000823081F4D70111964C91119788E090E08B
:10225000841B91094C914D5CD42EB7E08B9FD00C20
:10226000112423C08330F9F483E2EAEAF3E0DE01CB
:10227000119601900D928A95E1F7F7018081FE0198
:10228000E80FF11DD70111964C9188E090E0841B76
:102290009109D084BCE08B9FD00C11248D2D59E086
:1022A000D52ED80E02C04CE0D42E3323A1F0222329
:1022B00019F08D2D0E94C00B80919304882381F02A
:1022C00080919004E82FF0E0E358FB4FD0828F5FBD
:1022D0008093900405C0222319F08D2D0E94080BD5
:1022E0000F3F110508F04DC077C2D70112968C91AF
:1022F000882309F42CCF80919504811108C00E9495
:10230000E7066AC2F7018281882309F420CF0E9480
:10231000E40A62C2F7018281882309F418CF0E947F
:10232000DE065AC20E32BCE51B0751F4F70182816A
:10233000882309F40CCF809194048111FACEEFCF59
:102340000932FCE51F0709F002CFD70112968C91E4
:10235000882309F4FCCE0E94DE0A2091010330E0BC
:102360002F5F3F4F237033272093010348E2429FA2
:10237000C001439F900D112465E070E08F599D4F7F
:10238000DECE033F3CE5130739F426E241EE60EE72
:10239000C7010E94C12320C2043F4CE5140708F086
:1023A0006CC1083D5CE5150721F427E245EE65EEBA
:1023B000EFCF093D8CE5180719F428E241E0F7CF8B
:1023C000073D9CE5190721F426E241EE61EEE0CFDE
:1023D000F7019281992309F47FC11092960402308B
:1023E000FCE51F0708F462C106312CE5120738F03E
:1023F00098012A5F3C452930310508F057C10E94F9
:10240000E0289093F9048093F80400313CE5130729
:1024100009F4CAC008F042C008305CE5150709F4A9
:10242000A0C0F0F404309CE5190709F486C068F4F4
:102430000230BCE51B0709F47CC003301C4509F0E1
:102440000CC18091F80482607BC00630FCE51F0758
:1024500009F47FC008F081C08091F804886070C0E2
:102460000C303CE5130709F48BC068F40A305CE5D6
:10247000150709F47AC008F07FC00E945C2680919D
:10248000F80480685DC00E309CE5190709F47CC033
:1024900008F086C08091F8048B7F52C00B3FBCE5EA
:1024A0001B0709F450C020F50331FCE51F0709F4B0
:1024B00083C078F401313CE5130709F479C0023197
:1024C0001C4509F0CAC00E945C268091F8048F77F1
:1024D00037C005315CE5150709F47CC008F4ACC0D1
:1024E0000A3F1C4509F0B9C08091F90481602EC0F3
:1024F0000F3FACE51A0709F466C070F40D3FECE538
:102500001E0709F449C008F443C08091F9048260B1
:1025100081608093F90484C001302DE5120709F42D
:1025200097C008F470C002301D4509F096C060E005
:1025300090C08091F804816003C08091F8048460A9
:102540008093F8048AC08091F90482608093F90432
:1025500084C08091F8048061F3CF8091F804806298
:10256000EFCF8091F8048064EBCF8091F80488600D
:1025700084608093F8043DC08091F8048E7FE0CFA2
:102580008091F8048D7FDCCF8091F804877FD8CFCD
:102590008091F9048E7FDACF8091F9048D7FD6CFB8
:1025A0008091F8048F7ECCCF8091F8048F7DC8CFC6
:1025B0008091F8048F7BC4CF8091F804877F8B7F54
:1025C0008093F8041BC08091F9048D7F8E7F8093E7
:1025D000F9042BC08091F80482FB222720F991E0B6
:1025E000922790FB82F990FB83F98093F80499235A
:1025F00029F064E070E084E493E01BC062E070E0E6
:1026000084E193E016C08091F904982F9095917021
:102610008E7F892B90FB81F98093F904992329F00F
:1026200064E070E084E293E004C062E070E084E083
:1026300093E00E94411711C00E945C268091F8042B
:1026400087FB222720F991E0922790FB87F978CF2A
:1026500061E08EE090E00E946D2D6091F804109191
:10266000F90484E090E00E946D2D612F81E290E0FA
:102670000E946D2D0E945C26AFC0053FACE51A0795
:1026800021F426E241EE62EE83CE053FBCE51B0756
:1026900020F427E245EE64EE7BCE063FECE51E0714
:1026A00009F096CE27E245EE66EE72CE0631FCE5E5
:1026B0001F0721F5809107068A7A91E009F490E0DE
:1026C00090939704882311F065E301C069E28AE8DA
:1026D00095E00E94AB280FC00631BCE51B0709F04E
:1026E0009BC080919704882309F459C365E38AE865
:1026F00095E00E9483280E9465296EC00115ACE513
:102700001A0739F00E3D1C4509F090C00E94FC28C4
:1027100063C00E945C260E94DE0A0E944E288C0143
:1027200063E070E084E693E00E944117C8010E94D4
:102730003F288A3F910538F4EFE9FFE03197F1F740
:1027400000C00000F3CF0E94AF0A81E08093E00058
:1027500080E28093D8001092C9008FE19EE4019737
:10276000F1F700C0000087E090EBDC0180931406D5
:1027700090931506A0931606B09317069CE088E187
:102780000FB6F894A895809360000FBE90936000F8
:10279000FFCF80910F0580FF08C38E7F80930F05C8
:1027A00060910F05709110058091110590911205AF
:1027B0000E9401050E945424809116058160809337
:1027C00016055FEF80E792E0515080409040E1F7BE
:1027D00000C000000E94870480910406877009F4FD
:1027E0003DC3D70112968C91882309F437C382E048
:1027F000AD960FB6F894DEBF0FBECDBFDF91CF917F
:102800001F910F91FF90EF90DF90CF90BF90AF900E
:102810009F908F900C94802A809107068272F80115
:10282000E25CFC45E431F10508F4BBC2D7010D912F
:102830001C91992349F0C8010E94AB29D82E682F1A
:10284000C8010E94252A04C0C8010E94F829D82E78
:10285000B8018D2D0E945C0C8C01982EF701A5808B
:10286000A2942FE0A222D280D1101092060680916D
:102870000406877099F0DD2089F0812F807F8034F5
:1028800021F080E2800F883048F082E00E94802AA8
:10289000809104068770CC24C3948111C12CB12E81
:1028A000B2949FE0B9228B2D90E08C30910508F016
:1028B00038C2FC01EA5AFF4F0C940232812F807F0C
:1028C0001F70882311F01295107FDD20B9F01123BD
:1028D00009F412C280E2800F883010F0911006C017
:1028E00080910706182B1093070605C080910606F5
:1028F000182B109306060E946529FEC1802F0E94A6
:102900008626112309F40DC2005E1095083010F0E0
:10291000911006C08091070618231093070605C082
:10292000809106061823109306060E946529F9C1B6
:10293000812F807F1F70803211F01295107F9920B7
:1029400021F0F1E09F16E1F02AC0DD2081F08091B6
:102950000806AA2051F001E0A01207C0182B181792
:1029600009F4DFC110930806DCC1812B10C0AA2036
:1029700021F021E0A21609F4D4C10E945F292AC0E7
:10298000DD2041F035E03A1508F4CBC1812F0E94DB
:102990007C26C7C144E04A1508F4C3C11BC0DD2032
:1029A00061F0AA2099F3D70115968C91159780FFB5
:1029B000A3C18F7015968C93E9CFAA2059F00933E3
:1029C00009F0ACC1BFEFE7EEF3E0B150E040F040FA
:1029D000E1F7A2C1812F0E947126A3C1812F8695A4
:1029E0008695837019F0813059F09BC1DD2019F074
:1029F000C801937002C080E090E00E949F2397C1BD
:102A0000DD2019F0C801937002C080E090E00E94C0
:102A100089238DC1812F837009F069C0D11085C1D0
:102A2000902F929596959770990F990F802F8F7090
:102A3000882E912CA12CB12C092E04C0880C991C35
:102A4000AA1CBB1C0A94D2F704FF12C04FE050E04E
:102A500060E070E004C0440F551F661F771F9A9511
:102A6000D2F7DB01CA0180959095A095B09503C07F
:102A700080E090E0DC0116951695412F43704230BE
:102A800019F1C8F40091090610910A0620910B066D
:102A900030910C06413059F088299929AA29BB297F
:102AA000BC01CD0160237123822393230AC0802AB5
:102AB000912AA22AB32ABC01CD01682979298A2941
:102AC0009B290E94BA2A31C188299929AA29BB29A0
:102AD0000091090610910A0620910B0630910C0610
:102AE000BC01CD016027712782279327EACFDD2023
:102AF00019F0812F817001C08695882309F415C1D2
:102B0000902F929596959770990F990F802F8F70AF
:102B1000882E912CA12CB12C092E04C0880C991C54
:102B2000AA1CBB1C0A94D2F704FF12C04FE050E06D
:102B300060E070E004C0440F551F661F771F9A9530
:102B4000D2F7DB01CA0180959095A095B09503C09E
:102B500080E090E0DC0116951695412F43704230DD
:102B6000D9F068F500910006109101062091020647
:102B700030910306413059F088299929AA29BB29A7
:102B8000BC01CD0160237123822393231EC0802AC0
:102B9000912AA22AB32A13C088299929AA29BB29D4
:102BA0000091000610910106209102063091030663
:102BB000BC01CD01602771278227932706C0BC0185
:102BC000CD01682979298A299B290E94512AADC003
:102BD0001F70DD2039F0812F0E94992A802F0E94DA
:102BE0007C26A3C0802F0E947126812F0E945B2A21
:102BF0009CC0802F22EF921609F440C0291538F0AE
:102C000030EF931661F041EF941699F170C053EFD5
:102C10009516D9F194EF991609F44EC068C0DD20DD
:102C200019F1A4E0AA1508F47CC01F7181E090E0BE
:102C3000A0E0B0E0AC01BD0104C0440F551F661F09
:102C4000771F1A95D2F78091000690910106A09106
:102C50000206B09103068A019B01082719272A273B
:102C60003B27C901B80125C025E02A1508F459C041
:102C7000DCCFDD2029F0812F8F712CC0DD20D9F32E
:102C8000812F8F710E945B2A4CC0DD2079F01F716B
:102C900081E090E0A0E0B0E0BC01CD0104C0660F8F
:102CA000771F881F991F1A95D2F703C060E070E064
:102CB000CB010E94512A35C0DD2079F01F71812F90
:102CC0000E94992A38E0139FC001112483608093E9
:102CD0000406812F0E94992A24C081E00E94802A44
:102CE00041E04A15F0F482E00E94802A1AC0DD20FB
:102CF00039F0AA2009F4BFCF802F0E94E22611C02C
:102D0000AA2009F4BDCF893349F45FEF87EE93E041
:102D1000515080409040E1F700C00000802F0E9499
:102D2000862688EF8B0D843010F40E94B523CC20CA
:102D3000B1F08091040680FD12C0D70112961C925A
:102D40008595859585950E94992AC7010E94F10F66
:102D5000809104068595859585950E945B2A85E07E
:102D6000F701DE01949601900D928A95E1F78CA10E
:102D70009DA10E94F8299DA1B0E38B9FF001112431
:102D800006E0909FE00DF11D11248CA1E80FF11DCC
:102D9000EE0FFF1FED55FD4F859194915FC069E2E5
:102DA000A6CCEE59FF4F0C940232816080930F0540
:102DB00061E0869550C045E35EE06EE37EE02CC0A6
:102DC0004EE35EE065E37EE027C04CEC56E065ED47
:102DD00076E022C045ED56E06CEC76E01DC044EB99
:102DE00056E060EC76E018C040EC56E064EB76E02C
:102DF00013C04CE956E068EA76E00EC048EA56E0B7
:102E00006CE976E009C043E155E064E275E004C096
:102E100044E255E063E175E00E944E24DDCC61E0C0
:102E200081E019C065E082E011C068E086E00EC074
:102E30006EE089E00BC064E18FE008C067E185E1E6
:102E400005C061E088E107C062E289E10E943C249C
:102E5000C3CC61E083E20E94F50DBECCAD960FB607
:102E6000F894DEBF0FBECDBFDF91CF911F910F91C0
:102E7000FF90EF90DF90CF90BF90AF909F908F909A
:102E800008950F931F93CF93DF93EC018B018091F3
:102E9000DF04811102C00E946B0A8091DE0480FF72
:102EA0004FC0809171008D7F809371008091DD040F
:102EB00081110E94AF0A81E08093DC04D093DB048F
:102EC000C093DA041093D9040093D8041092D70465
:102ED0001092D3041092D4041092D5041092D60408
:102EE0001092D2041092D10488819981AA81BB8169
:102EF0008093CD049093CE04A093CF04B093D004DC
:102F000020E030E040E85EE36C817D818E819F812E
:102F10000E94CE2F6093C9047093CA048093CB049F
:102F20009093CC041092C8041092C7048091710051
:102F300082608093710080919000806880939000FF
:102F4000DF91CF911F910F910895EF92FF920F9310
:102F50001F93CF93DF937C018B010E94501C811142
:102F600019C0E70101151105A1F08091E80085FD68
:102F70000AC08091E8008E778093E8000E94501C80
:102F8000882381F307C089918093F10001501109D2
:102F9000E9CF80E0DF91CF911F910F91FF90EF90EB
:102FA00008951F93CF93DF93CDB7DEB7AA970FB6DF
:102FB000F894DEBF0FBECDBFEFEBF4E08091F100DF
:102FC000819324E0E73CF207C9F78091C004833085
:102FD00009F460C030F4813071F0823009F49AC095
:102FE000B1C08A3009F486C08B3009F46BC08930D7
:102FF00009F0A8C020C08091BF04813A09F0A2C0A6
:103000008091E800877F8093E8008091C3049091CD
:10301000C404892B21F460E28BE994E003C060E0F2
:1030200080E090E070E00E94D71C8091E8008B77F0
:103030008093E80087C08091BF04813209F082C08C
:103040008091C3049091C404029708F07BC08091E2
:10305000E800877F8093E8008091E80082FD05C04A
:103060008091BD048111F8CF6DC02091F300809153
:10307000F20090E0922B029729F48091F1008B7F6F
:10308000813021F48091F10080939A048091E800CE
:103090008B7754C08091BF04813A09F053C080916E
:1030A000C3049091C404892B09F04CC08091E800BE
:1030B000877F8093E8008091E80080FFFCCF8091BB
:1030C0007C0337C08091BF048132E1F58091C30455
:1030D0009091C404892BB1F58091E800877F80939B
:1030E000E8000E94831C8091C10480937C030E94AD
:1030F0005C2628C08091BF04813221F58091E800D0
:10310000877F8093E8000E94831C8091C204809393
:10311000990418C08091BF04813AA1F48091E8001D
:10312000877F8093E8008091E80080FFFCCF80914A
:1031300099048093F1008091E8008E778093E800F5
:103140000E94831C8091E80083FFD8C18091BF0456
:103150009091C004492F50E04A30510508F0CEC18B
:10316000FA01EA58FF4F0C940232803821F082387D
:1031700009F0C4C108C08091BB049091BC0499239C
:1031800089F082600FC08091C3048F70873008F08F
:10319000B5C18093E9008091EB0085FB882780F919
:1031A0001092E9009091E800977F9093E800809357
:1031B000F1001092F10071C1282F2D7F09F09EC1FE
:1031C000882319F0823061F099C18091C104813067
:1031D00009F094C1933009F080E08093BC042EC0C4
:1031E0008091C10481112AC08091C3048F702FEF98
:1031F000280F263008F082C18093E9002091EB006F
:1032000020FF1CC0933021F48091EB00806214C039
:103210009091EB0090619093EB0021E030E0A901E8
:1032200002C0440F551F8A95E2F74093EA001092BE
:10323000EA008091EB0088608093EB001092E90037
:103240008091E800877F2CC1811158C11091C10481
:103250001F778091E3008078812B8093E300809139
:10326000E800877F8093E8000E94831C8091E8003B
:1032700080FFFCCF8091E30080688093E300111110
:1032800002C082E001C083E08093BD0437C1805852
:10329000823008F033C18091C1049091C2048C3D0A
:1032A00053E0950779F583E08A838AE289834FB7F3
:1032B000F894DE01139620E03EE051E2E32FF0E0C7
:1032C00050935700E49120FF03C0E295EF703F5FF9
:1032D000EF708E2F90E0EA3010F0C79601C0C096D4
:1032E0008D939D932F5F243149F74FBF8091E80064
:1032F000877F8093E8006AE270E0CE0101960E9429
:10330000D71CBAC04091C3045091C404292F33275D
:1033100023303105B1F068F42130310509F4FDC0E6
:103320002230310509F0EAC08BE390E0E0E5F6E0F9
:1033300050C02132310581F12232310509F439C002
:10334000DDC0992781309105B9F070F08230910588
:10335000D9F0039709F0D2C0EDE9F6E0E4918E2FA1
:1033600090E0EDE9F6E032C0EDEDF6E0E4918E2F6D
:1033700090E0EDEDF6E02AC0E9ECF6E0E4918E2F66
:1033800090E0E9ECF6E022C0E3EAF6E0E4918E2F6B
:1033900090E0E3EAF6E01AC04115510509F4C2C015
:1033A0004130510509F0AAC089E090E0EBE7F6E072
:1033B00010C04115510509F4BAC04130510509F05A
:1033C0009DC08DE690E0E3EAF5E003C0009709F4C4
:1033D00095C02091E800277F2093E8002091C50444
:1033E0003091C6048217930708F49C0140E0211530
:1033F000310589F18091BD04882309F43DC08530F1
:10340000D9F18091E80083FD37C08091E80082FD0A
:103410002FC08091E80080FFEACF4091F3008091B7
:10342000F20090E0942B2115310559F08830910578
:1034300040F444914093F1003196215031090196B6
:10344000F2CF41E0089709F040E08091E8008E77E4
:103450008093E800CCCF4111CDCF0AC08091BD044C
:10346000882351F0853041F08091E80083FD04C04D
:103470008091E80082FFF2CF8091E8008B77809303
:10348000E8003CC08038D1F58091E800877F8093C8
:10349000E8008091BE048093F1008091E8008E776F
:1034A0008093E8000E94831C29C0811127C080916D
:1034B000C1049091C2049927029704F58091E80015
:1034C000877F8093E8001091C1041093BE040E948E
:1034D000831C111106C08091E30087FD02C081E0CA
:1034E00001C084E08093BD0442E061EC81E00E9471
:1034F000A21C42E261EC82E00E94A21C8091E800E2
:1035000083FF1AC08091E800877F8093E800809154
:10351000EB0080628093EB000FC082E190E0EBE86B
:10352000F6E057CF89E090E0E2E6F6E052CF80E4A3
:1035300090E0E0E1F6E04DCFAA960FB6F894DEBF3A
:103540000FBECDBFDF91CF911F9108951F920F92B3
:103550000FB60F9211242F933F934F935F936F9366
:103560007F938F939F93AF93BF93CF93DF93EF930B
:10357000FF93C091E900CF708091EC00D82FD170FB
:1035800080FDD0E81092E9008091F000877F809361
:10359000F00078940E94D1171092E9008091F00019
:1035A00088608093F000CD2BCF70C093E900FF912D
:1035B000EF91DF91CF91BF91AF919F918F917F91CB
:1035C0006F915F914F913F912F910F900FBE0F9090
:1035D0001F901895E8EDF0E080818E7F8083109237
:1035E000E2001092DA001092E100A0EEB0E08C91BF
:1035F00081608C9380818F77808319BCA7EDB0E0C8
:103600008C918E7F8C9380818F7E80831092980422
:103610000895CF92DF92EF92FF920F931F93CF9373
:10362000DF93C8EDD0E088818F7E8883E7EDF0E0FE
:1036300080818160808384E082BF81E080939804F0
:1036400088818E7F888302EE10E0F801108210924C
:10365000DA0081EEC82ED12CF601108288818F7796
:10366000888388818068888388818F7D888319BC5E
:103670001092BD041092BE041092BC041092BB04C0
:1036800090EEE92EF12CF70180818B7F8083888179
:103690008160888342E060E080E00E94A21CF60125
:1036A00080818E7F8083F80180818160808380812A
:1036B00088608083F70180818E7F8083888180612C
:1036C0008883DF91CF911F910F91FF90EF90DF9052
:1036D000CF9008951F920F920FB60F9211242F933F
:1036E0003F934F935F936F937F938F939F93AF938A
:1036F000BF93EF93FF938091E10082FF09C0809117
:10370000E20082FF05C08091E1008B7F8093E100A1
:103710008091DA0080FF2AC08091D80080FF26C007
:103720008091DA008E7F8093DA008091D90080FF4B
:1037300018C080E189BD82E189BD09B400FEFDCFDA
:1037400081E08093BD048091980481110FC00E9494
:10375000EA1A0E94091B8091E20084608093E200D3
:1037600005C019BC1092BD04109298048091E1002C
:1037700080FF17C08091E20080FF13C08091E200BB
:103780008E7F8093E2008091E20080618093E2006E
:103790008091D80080628093D80019BC85E0809326
:1037A000BD048091E10084FF32C08091E20084FF7B
:1037B0002EC080E189BD82E189BD09B400FEFDCF44
:1037C0008091D8008F7D8093D8008091E1008F7E1A
:1037D0008093E1008091E2008F7E8093E2008091EF
:1037E000E20081608093E2008091BE04882311F0A2
:1037F00084E007C08091E30087FD02C081E001C042
:1038000083E08093BD040E945C260E94B5238091D2
:10381000E10083FF27C08091E20083FF23C08091F5
:10382000E100877F8093E10082E08093BD041092E5
:10383000BE048091E1008E7F8093E1008091E200E0
:103840008E7F8093E2008091E20080618093E200AD
:1038500042E060E080E00E94A21C8091F00088605D
:103860008093F000FF91EF91BF91AF919F918F9165
:103870007F916F915F914F913F912F910F900FBE6C
:103880000F901F9018952091BD04243021F4BC01A5
:1038900084E00C94E6270895BC0183E00C94E627AD
:1038A0002091E4003091E50095E64091EC00842FF2
:1038B000817040FF23C08091E80080FD1DC0809191
:1038C000BD04882399F0853099F08091EB0085FD47
:1038D00011C04091E4005091E5002417350729F309
:1038E000915011F09A01E1CF84E0089582E00895AB
:1038F00083E0089581E0089580E008954091E80014
:1039000042FFDDCF08958091BF0487FF11C08091F1
:10391000E80082FD05C08091BD048111F8CF11C07F
:103920008091E8008B770BC08091BD04882349F01B
:103930008091E80080FFF8CF8091E8008E77809337
:10394000E8000895982F973068F59093E90098174C
:1039500039F07091EC002091ED005091F00003C01F
:10396000242F762F50E021FD02C09F5FECCF3091D5
:10397000EB003E7F3093EB003091ED003D7F3093C4
:10398000ED003091EB0031603093EB007093EC0070
:103990002093ED005093F0002091EE0027FDE5CF3D
:1039A00080E008958F708093E90081E00895209170
:1039B000C5043091C6042617370748F06115710514
:1039C00039F42091E8002E772093E80001C0B90176
:1039D000FC0120E06115710579F18091BD04882317
:1039E000F1F18530F1F18091E80083FD3CC08091D8
:1039F000E80082FD2EC08091E80080FFEBCF20918F
:103A0000F3008091F20090E0922B6115710551F066
:103A10008830910538F421912093F10061507109AB
:103A20000196F3CF21E0089709F020E08091E800AB
:103A30008E778093E800CECF2111CFCF0AC080913E
:103A4000BD04882361F0853061F08091E80083FD3A
:103A50000AC08091E80082FFF2CF80E0089582E002
:103A6000089583E0089581E00895CF93DF93CDB763
:103A7000DEB72A970FB6F894DEBF0FBECDBF84B76E
:103A8000877F84BF0FB6F894A89580916000886105
:103A900080936000109260000FBE90E080E80FB647
:103AA000F89480936100909361000FBE85B78068A1
:103AB00085BF85B7806885BF0E94EA1A0E94091BEE
:103AC0008091E20084608093E20078948091BD044C
:103AD0008823A1F01091E9001F709091EC00892FCC
:103AE000817090FD80E8182B1092E9008091E80029
:103AF00083FD0E94D1171F701093E90082E084BDFE
:103B000093E095BD9AEF97BD80936E0024982C9A10
:103B100083B18295817091E0892724982C988093B5
:103B2000920380919203882321F010927D0386E016
:103B300003C086E080937D0380937E030E943F0C48
:103B4000882331F062E070E082E893E00E94982BD5
:103B50008091920380919203811102C094E001C090
:103B600090E09093F70484E0891B8093F604A8EF1B
:103B7000B3E041E050E08D91E82FE295EF70F0E086
:103B800021A18F70BA0102C0660F771F8A95E2F7F4
:103B9000CB01962F9095922391A392A1892B82A37A
:103BA00073E0AC3FB70739F7A0E0B4E041E050E084
:103BB0008D91E82FE295EF70F0E021A18F70BA01AE
:103BC00002C0660F771F8A95E2F7CB01962F90957A
:103BD000922391A392A1892B82A374E0A630B70708
:103BE00039F7EEEEF4E0AEEFB4E011921D9284E00E
:103BF000E63FF807D1F70E94F128811102C00E9428
:103C0000FC280E946B0A0E943F0C811106C062E0F2
:103C100070E082E893E00E94A12B0E94F1288111BC
:103C200002C00E94FC2882E090E00E94592D8093FF
:103C300018050E94E0289093F9048093F80483E02B
:103C400090E00E94592D682F70E080E090E00E9483
:103C5000BA2A8091FA04811138C00E94F12881119A
:103C600004C00E94FC280E94350588E090E00E9474
:103C7000612D60930F05709310058093110590934B
:103C80001205809116058360809316056E7F71F48E
:103C90000E94350588E090E00E94612D60930F0539
:103CA0007093100580931105909312050E94EE0405
:103CB0000E94542480910F0580FF04C060E0869527
:103CC0000E94F50D81E08093FA0483E993E09093DC
:103CD000FC048093FB04A4EEEA2EA6E0FA2E809169
:103CE000BD04853009F03AC08091BD04843021F1D3
:103CF0001092FD0420E488E190E00FB6F894A895B6
:103D0000809360000FBE2093600083B7817F846042
:103D100083BF83B7816083BF7894889583B78E7F94
:103D200083BF0FB6F894A895809160008861809356
:103D30006000109260000FBE8091BC04882309F4DB
:103D4000CECF0E94480E86E095E0EEEFF4E02191A0
:103D5000211133C18E179F07D1F7C1CF0E94480EA2
:103D60000E943F0C8823A1F1E9E1F5E0AEEFB4E059
:103D700000E010E0302F2D919191922721F180E009
:103D8000DD24D394492F4D21D1F089833A832D210D
:103D900081E009F480E08B830E944E288160782FB7
:103DA0009D838C8349815A816B818D810E94ED2294
:103DB000F801E75EFA4F8081D826D08219C08F5F64
:103DC000DD0C8630F9F60F5F1F4F0830110591F6B4
:103DD0008FEF8E838F8318860E944E288160782F04
:103DE0009A8789874E815F8168858A850E94ED2246
:103DF00080911505882309F4D4C080911405E091C1
:103E00000F05E695E81BE0930B05823059F4F0E0CE
:103E1000EE50F94FE4910E2F10E0F9EDCF2EF2E2C3
:103E2000DF2E6AC0863059F4F0E0E151F94FE49199
:103E30000E2F10E0E9ECCE2EE2E2DE2E5DC08930DE
:103E400061F4E695F0E0E451F94FE4910E2F10E0B3
:103E50007EE4C72E72E2D72E4FC08F3061F4E69514
:103E6000F0E0E751F94FE4910E2F10E061EBC62E20
:103E700061E2D62E41C0853159F4F0E0EA51F94FA4
:103E8000E4910E2F10E05BE2C52E51E2D52E34C036
:103E90008831F1F0833241F4F7010591149149E83A
:103EA000C42E42E2D42E28C08432C9F08532F1F407
:103EB0008E2F63E00E94C031E92FF0E0EF51F94FFF
:103EC000E4910E2F10E034EFC32E3FE1D32E14C047
:103ED00008EE13E022EFC22E20E2D22E0DC004EF36
:103EE00011E093EBC92E90E2D92E06C000ED17E049
:103EF00083EFC82E8FE1D82E80910C05882389F09E
:103F000010920C050E944E28980120953095820F42
:103F1000931F90930A058093090510920E05109245
:103F20000D058091090590910A050E943F28801790
:103F30009107B8F1809108058823B1F01092080527
:103F400080910605909107050E943F288033954790
:103F500058F00E944E2890930705809306058091A3
:103F60001605886080931605A0900D05B0900E058B
:103F7000E0910905F0910A050E0F1F1F10930A0525
:103F80000093090589E095E0F601099580910D05FA
:103F900090910E05892B29F4AB2819F081E08093CC
:103FA00008050E94B52390911705891709F497CE4B
:103FB0000E94B5238093170592CE80E189BD82E1EE
:103FC00089BD09B400FEFDCF8091D8008F7D80931C
:103FD000D8008091E00082608093E0008091E00052
:103FE00081FDFCCF7CCE08958F929F92AF92BF92BD
:103FF000CF92DF92EF92FF920F931F93CF93DF93B5
:10400000FC01B280948081E0848300E015E05BE4F1
:10401000A52E88248394EE24EA94F12C7BE4C72E09
:10402000D12C80918103081708F08FC0C02FD0E0F9
:104030001C9FF0011D9FF00D1124E85BFA4F9110B9
:1040400003C01382128267C02381222389F1215089
:1040500023833481332319F09A2D921B01C0922FB0
:10406000809112051C9FF0011D9FF00D1124E85B4B
:10407000FA4F899FC0011124B6010E94DA31628390
:10408000211104C0332311F01482A38222E02B15E6
:1040900008F441C01C9FF0011D9FF00D1124E85B46
:1040A000FA4F80911005808380911105818333C080
:1040B0000E94492D8230914074F582E08B1530F4D6
:1040C0000E94492DB7010E94EE3102C08091100577
:1040D0001C9FF0011D9FF00D1124E85BFA4F8083B7
:1040E00022E02B1558F40E94492D209111052695A8
:1040F000622F70E00E94EE31820F02C080911105A4
:104100001C9FF0011D9FF00D1124E85BFA4F818385
:104110001282A382848280917F039E01280F311D29
:10412000C901880F991F280F391F2C5D3A4F1C9F1A
:10413000F0011D9FF00D1124E85BFA4F428161816F
:1041400080810E944C050F5F6CCFDF91CF911F9152
:104150000F91FF90EF90DF90CF90BF90AF909F9026
:104160008F900C9487040F931F93CF93DF93EC01F0
:1041700000E010E080918103282F30E00217130740
:1041800024F590917F039801290F311DA901440F57
:10419000551F240F351F2C5D3A4F869590E04C81BA
:1041A000081719071CF4442331F002C0411103C061
:1041B0004091120501C040E0609111058091100509
:1041C0000E944C050F5F1F4FD5CF0E9487048C8142
:1041D00090E00196817099278C83DF91CF911F9198
:1041E0000F9108950F931F93CF93DF938C01FC01E0
:1041F0008481958101968170992795838483C0E09D
:10420000D5E580918103C81700F580917F032C2F9D
:1042100030E0280F311DC901880F991F280F391F61
:104220002C5D3A4F4C2F4695F80184819581840F7F
:10423000911D817040911205609111058D9F802D17
:1042400011240E944C05CF5FDCCFDF91CF911F91ED
:104250000F910C9487041F93CF93DF93EC018C8113
:10426000811109C081E08C831092220592E0909325
:10427000A9038093A80380917F03909180038917FD
:1042800070F4E82FF0E09F01220F331FE20FF31FBD
:10429000EC5DFA4F1182108212828F5FF0CF10E036
:1042A000609181031617C0F5E12FF0E070E0CF01B7
:1042B0000E94EE3120917F03820F20912205022E71
:1042C000000C330B90E0E217F307CCF02091A90328
:1042D000022E000C330B2E173F078CF09C01220F8F
:1042E000331F820F931F9C012C5D3A4F40911205A2
:1042F00060911105809110050E944C050BC0FC01D6
:10430000EE0FFF1F8E0F9F1FFC01EC5DFA4F118215
:10431000108212821F5FC4CF0E9487048091A8037D
:1043200020912205280F209322059091A903980F30
:104330009093A90319165CF4022E000C330B4091E4
:10434000810350E0415051092417350734F081951D
:104350008093A803813009F41C82DF91CF911F91D3
:1043600008958F929F92AF92BF92CF92DF92EF9279
:10437000FF920F931F93CF93DF93EC018A8180FF0D
:1043800003C0BB24BA9402C0BB24B3948C818111B6
:104390000DC081E0B81206C08091810381508093E6
:1043A000210502C01092210581E08C83A12C4CE0F4
:1043B000942E80918103A81608F044C080917F0359
:1043C000CA2CD12C8601080F111DC801880F991F16
:1043D000080F191F0C5D1A4FF8011182108212820A
:1043E00034E0E32EF12C812C80912105880D8D3055
:1043F0002CF0692D0E94CC31892F05C087FF03C0A6
:1044000090918103890F082E000C990BC816D906CC
:1044100091F4809112058E9DA0018F9D500D112465
:10442000559547955595479598016091110580914F
:1044300010050E944C058B0CF1E0EF1AF108A1F673
:10444000A394B7CF0E9487048091210591E0B9120F
:104450000EC0811107C08091810381508093210596
:104460001C820FC0815080932105BC820AC090E05D
:1044700001966091810370E00E94EE3180932105E6
:104480008C83DF91CF911F910F91FF90EF90DF9080
:10449000CF90BF90AF909F908F900895FF920F9311
:1044A0001F93CF93DF93EC01F12C0FEF10E060919D
:1044B0008103F616F0F480917F032F2D30E0280F52
:1044C000311DC901880F991F280F391F2C5D3A4FE4
:1044D00070E0C8010E94EE31962F8C814091120548
:1044E00060911105F99E800D11240E944C05F394F2
:1044F000DECF0E9487049A818C8190FF02C08F5F7B
:1045000001C081508C83DF91CF911F910F91FF905B
:1045100008950F931F93CF93DF9300D01F92CDB7D1
:10452000DEB78C018091230581110AC09E012F5FA7
:104530003F4F4FEF6FEF0E944C058A818093230518
:10454000F8018481813051F028F0823061F440918B
:1045500023050AC08091230540E007C06091230530
:1045600040E080E003C040E080E060E00E94D304CF
:10457000F801848190E0019663E070E00E94EE31E2
:1045800084830F900F900F90DF91CF911F910F9127
:104590000895CF93DF93EC01EFE0F5E04381628172
:1045A0008C810E94E0058C818F5F8C83DF91CF919D
:1045B0000895CF93DF93EC01EC81F0E0EA50F94FDE
:1045C0004491EFE0F5E0628181810E94E0058C81F9
:1045D0008F5F8C83DF91CF9108951F93CF93DF93EB
:1045E000CDB7DEB767970FB6F894DEBF0FBECDBF6D
:1045F0004B8B5C8B6D8B7E8B8F8B86E09E01235F5C
:104600003F4FD901E82F1D92EA95E9F795E0FE01A9
:104610007396D90101900D929A95E1F7F901DE01A7
:10462000179601900D928A95E1F7CE0107960E94A8
:104630009F2481113EC086E0FE013796DE0111966F
:1046400001900D928A95E1F7FF81E8856A857B8567
:104650006115710531F0EF3F31F481E0FF3F19F44E
:1046600003C081E001C080E080FD23C02091B0053F
:1046700030E0C9010196877099274091E10550E02B
:104680008417950779F1F983EA837D836C8396E03B
:10469000929FD001939FB00D1124AF54BA4FFE01E9
:1046A000319601900D929A95E1F78093B0050E94A2
:1046B000C42A16E08091E1059091B0058917F9F0C0
:1046C000189FC00111248F549A4F0E949F24882361
:1046D000B1F08091E10590E0019687709927809371
:1046E000E105E8CF0E945C261092B0051092E1052A
:1046F000EAEAF5E086E0DF011D928A95E9F7679620
:104700000FB6F894DEBF0FBECDBFDF91CF911F91E2
:10471000089520918805309189052817390771F08F
:104720009093890580938805E091FB04F091FC0447
:10473000309721F00084F185E02D099408952091AF
:104740008605309187052817390771F09093870502
:1047500080938605E091FB04F091FC04309721F0F2
:104760000680F781E02D09940895E091FB04F09113
:10477000FC04309721F00190F081E02D099480E055
:1047800008950F931F93CF93DF93C62FD42F122F2B
:10479000FC0182818823C9F0609396040E944E2810
:1047A000909385058093840580E28C0F883008F013
:1047B0005EC0C77081E001C0880FCA95EAF7DF913B
:1047C000CF911F910F910C947C26809196046813D1
:1047D0003EC080918405909185050E943F28883CC9
:1047E0009105A8F500E20D0FCD17B9F080E28C0F0E
:1047F000883040F4C77081E001C0880FCA95EAF79D
:104800000E947126083048F481E09D2F977001C006
:10481000880F9A95EAF70E947C26812F0E94E22653
:10482000193349F4FFEF27EE83E0F1502040804038
:10483000E1F700C00000812F0E9486260830B8F4FE
:10484000D77081E001C0880FDA95EAF70AC080E2EC
:104850008C0F883060F4C77081E001C0880FCA9562
:10486000EAF7DF91CF911F910F910C947126DF91A0
:10487000CF911F910F91089590910F0590FF04C063
:104880009695981740F003C0811105C090E09617E7
:1048900010F40C943E0E61E00C94F50D882311F099
:1048A000FA0101C0FB010994E4E1F5E01182828183
:1048B00084608283089560910F05669570E04BE0F7
:1048C00050E08DE993E00E940832892B19F481E0D1
:1048D000809315050E944E2890930A058093090540
:1048E0008091160584608093160508950E94ED2935
:1048F000292F2F70E92FE295EF704E2F50E0FA012B
:104900003297EE30F105B8F4E058FF4F0C940232C4
:10491000803F99F018F4883E70F40FC0843F59F43A
:104920000CC0883E50F0813F31F407C0822F86953D
:1049300086958695089580E0089581E008959F9278
:10494000AF92BF92CF92DF92EF92FF920F931F939D
:10495000CF93DF93CDB7DEB761970FB6F894DEBF84
:104960000FBECDBF8C0185E0F801DE011D960190E0
:104970000D928A95E1F7F80190818181E280309172
:10498000AA056091AB054091AD055091AE0541156A
:10499000510531F06F3F31F421E03F3F19F403C07E
:1049A00021E001C020E0F22FF1709F2E20FD23C1F5
:1049B000F801C380D4802AEAA22E25E0B22EF0901E
:1049C000AC05F601E41BF50BFF2009F4CEC02091E5
:1049D000AF05E83CF10508F099C0422F407F09F08F
:1049E00051C0681311C039130FC0FE2CE1100CC068
:1049F0002F7020612093AF05C5010E94F10F8091B7
:104A0000AF05F801858337C1CD2831F08F3F31F4F0
:104A100021E09F3F19F403C021E001C020E020FD08
:104A200003C021E02E2502C020E030E0F22FF1701B
:104A3000FF2E20FF1DC02091E1054091B00556E0FA
:104A4000241709F4F6C030E0529FF001539FF00D97
:104A50001124EF54FA4F6181861306C060819613CA
:104A600003C06281E61204C02F5F3F4F2770E8CF7A
:104A7000FE2CEE2009F4FFC08091AF058160809389
:104A8000AF0550C0681307C0391305C0E11003C05B
:104A9000F80125838DC09D878E878D859E850E9418
:104AA0007624882369F1EE2059F12091AF05822FF9
:104AB00082958F7090E0029774F08091AA05909192
:104AC000AB0598878F831986DB86CA862C87CE0133
:104AD00007960E94F10F86E0F801AAEAB5E001907E
:104AE0000D928A95E1F70E94CE2A0DC06817E1F079
:104AF0009D878E878D859E850E94762481111EC09C
:104B0000C8010E94F10FFF24F394B5C0422F407FEB
:104B100069F78AEA95E00E94F10F86E0F5011192AB
:104B20008A95E9F7F12CA7C03913E2CFE110E0CF65
:104B3000F8012583C8010E94F10F57C0EE2001F350
:104B40002091AF05822F82958F7090E002971CF222
:104B50008091AA059091AB059A8389831B82DD829F
:104B6000CC822E83CE010196B4CFE83CF105E8F566
:104B7000FE2CEE2029F2681327C0391325C020919E
:104B8000AF0520FD18C0822F82958F70482F50E00E
:104B90004115510581F0F80125834F30510541F051
:104BA0008F5F982F9295907F822F8F70892B8583AE
:104BB000C8010E94F10F86E0F801AAEAB5E0019071
:104BC0000D928A95E1F757C09D878E878D859E85CA
:104BD0000E94762481117FCF8091AF058160809300
:104BE000AF05C8010E94F10F46C086E0F5011192A1
:104BF0008A95E9F740C0EE2009F482CF9D878E8721
:104C00008D859E850E947624F82E882309F478CF1E
:104C100086E0F801AAEAB5E001900D928A95E1F7E5
:104C20008091AA059091AB050E94ED290E94CE2AA1
:104C300022C09D878E878D859E850E94ED29292F14
:104C400022952F70223028F49F7039F0811105C011
:104C50000BC0243028F49F7049F4805E883020F027
:104C6000C8010E94F10F9F2CF92C05C0F801958115
:104C7000907F99F7F9CF8F2D61960FB6F894DEBF2C
:104C80000FBECDBFDF91CF911F910F91FF90EF909D
:104C9000DF90CF90BF90AF909F900895109206063E
:104CA000109205060E94652980E090E00E949F23F3
:104CB00080E090E00C9489231092070680917C0399
:104CC000882331F08091F80487FF02C08EE101C093
:104CD00086E0ECE8F5E0DF011D928A95E9F70C9497
:104CE0004E26882341F08095909107068923809372
:104CF00007060C9465290895882339F090910706DA
:104D0000892B809307060C9465290895882309F45C
:104D100058C0682F823869F40E94B52381FF51C0C2
:104D200069E38AE895E00E94AB280E94652969E35F
:104D30000EC0833891F40E94B52380FF42C063E522
:104D40008AE895E00E94AB280E94652963E58AE81D
:104D500095E00E9483280C946529843869F40E94A8
:104D6000B52382FF2EC067E48AE895E00E94AB2855
:104D70000E94652967E4EBCF8CEF860F813A38F308
:104D800080E2860F883070F4677081E090E001C0A7
:104D9000880F6A95EAF7809590910706892380939A
:104DA0000706D9CF8BE5860F833020F480E090E0B2
:104DB0000C949F23685A673120F480E090E00C94B3
:104DC00089230895CF93882309F4B5C0C82F82386A
:104DD000B1F40E94B52381FDAEC069E38AE895E095
:104DE0000E94AB280E9465292FEF81EE94E02150AC
:104DF00080409040E1F700C0000069E317C08338AD
:104E0000E1F40E94B52380FD96C063E58AE895E051
:104E10000E94AB280E9465292FEF81EE94E021507B
:104E200080409040E1F700C0000063E58AE895E02B
:104E30000E948328CF910C9465298438B1F40E9494
:104E4000B52382FD78C067E48AE895E00E94AB282C
:104E50000E9465292FEF81EE94E021508040904020
:104E6000E1F700C0000067E4E1CF8CEF8C0F813ADE
:104E7000B8F580917C038823E1F08091F80487FFE6
:104E800018C0EC2FE695E695E695F0E0E657FA4F68
:104E90008281282F30E04C2F477081E090E002C0E3
:104EA000880F991F4A95E2F782239323892B59F49F
:104EB00011C0ECE8F5E08191C81729F025E0E2394E
:104EC000F207C9F707C06C2F8AE895E00E94832893
:104ED0000E9465296C2F8AE895E00E94AB28AACF32
:104EE00080E28C0F883068F4C77081E090E001C0E8
:104EF000880FCA95EAF790910706892B80930706D9
:104F000099CFEBE5EC0FE33040F4F0E0EA5FFB4FC4
:104F1000808190E0CF910C949F23C85AC73158F4F8
:104F2000EC2FF0E0EE0FFF1FE75FFB4F80819181D8
:104F3000CF910C948923CF910895089580919A047C
:104F40000895CF93DF932091BD042430E1F52091A3
:104F50007C03222339F02091F80427FF03C060E28C
:104F600022E002C068E021E02093E9002FEF3091B9
:104F7000E800215035FD06C035ED3A95F1F7000007
:104F80002111F5CF2091E80025FF1DC0EC01809193
:104F90007C03811105C040E050E068E070E003C090
:104FA00070E040E050E0CE010E94A5178091E8003B
:104FB0008E778093E80080E2FE01ABE9B4E00190D7
:104FC0000D928A95E1F7DF91CF910895CF93DF930A
:104FD00000D01F92CDB7DEB79091BD04943019F583
:104FE00089837B836A8382E08093E9008FEF9091CD
:104FF000E800815095FD06C095ED9A95F1F7000007
:105000008111F5CF8091E80085FF0DC040E050E0B0
:1050100063E070E0CE0101960E94A5178091E80040
:105020008E778093E8000F900F900F90DF91CF91D3
:10503000089578941F920F920FB60F9211248F93B8
:105040009F93AF93BF9380910D0690910E06A09110
:105050000F06B09110060196A11DB11D80930D069B
:1050600090930E06A0930F06B0931006BF91AF91D8
:105070009F918F910F900FBE0F901F9018959C01DC
:105080004FB7F89480910D0690910E06A0910F06EF
:10509000B09110064FBF821B930B08952FB7F89461
:1050A00080910D0690910E06A0910F06B09110060A
:1050B0002FBF08951F920F920FB60F9211248F9356
:1050C0009F93AF93BF938091FD04811113C0809192
:1050D0000D0690910E06A0910F06B0911006419614
:1050E000A11DB11D80930D0690930E06A0930F068F
:1050F000B0931006BF91AF919F918F910F900FBE0B
:105100000F901F90189520917C032223C9F02091C5
:10511000F80427FF15C0262F2695269526952E31B3
:10512000C8F4FC01E20FF11D677081E090E001C05E
:10513000880F6A95EAF78095928189238283089582
:10514000FC0106962281621301C012823196E81793
:10515000F907C1F7089520917C032223C1F0209123
:10516000F80427FF14C0262F2695269526952E3164
:1051700030F5FC01E20FF11D677081E090E001C0A5
:10518000880F6A95EAF79281892B82830895FC0142
:1051900032962FEF30E04191641789F02F3F19F4D8
:1051A000411101C0232F3F5F3630A9F72F3F39F05F
:1051B000FC01E20FF11D27FDFA9562830895089521
:1051C000CF9384E090E00E94592DC82F81E290E0B7
:1051D0000E94592D2C2F30E0A901582BCA01CF91E4
:1051E000089580E090E00E94672D21E08C3E9E4F64
:1051F00009F020E0822F08956CEE7EEF80E090E0D1
:105200000E948B2D60E082E090E00E946D2D60E0B6
:1052100083E090E00E946D2D1092090610920A061C
:1052200010920B0610920C0660E084E090E00E9461
:105230006D2D60E081E290E00E946D2D60E085E0E0
:1052400090E00E946D2D60E086E090E00E946D2D60
:105250006FEF87E090E00E946D2D40E050E0BA01D2
:1052600088E090E00E947F2D60E08DE090E00E9459
:105270006D2D40E050E0BA0188E190E00E947F2D62
:1052800060E087E190E00E946D2D40E050E0BA01BF
:105290008CE190E00E947F2D60E080E290E00E942F
:1052A0006D2D40E050E0BA018FE090E00E947F2D2C
:1052B00040E050E0BA0183E190E00C947F2D8091B2
:1052C00008068111109208060895909107068091B2
:1052D0000606892B20910506982F922B90938A051C
:1052E000809108068823D9F0892B80938A058091C4
:1052F0007C03882331F08091F80487FF02C08EE19F
:1053000001C086E0ECE8F5E090E0815028F02191C2
:105310002223D9F39F5FF9CF91110E945F29E09179
:10532000FB04F091FC043097A9F080917C03882362
:1053300059F08091F80487FF07C080918A05809317
:105340008B0585E080938A050280F381E02D8AE851
:1053500095E009940895BF92CF92DF92EF92FF9269
:105360000F931F93CF93DF938C01C0900006D090D2
:105370000106E0900206F0900306809109069091E4
:105380000A06A0910B06B0910C06C82AD92AEA2A6F
:10539000FB2ACFE1D0E0D701C6010C2E04C0B695A0
:1053A000A795979587950A94D2F780FD04C0219719
:1053B00090F7B12C07C0BC2EB8018C2F0E945C0C5A
:1053C0000197A9F38B2DDF91CF911F910F91FF9042
:1053D000EF90DF90CF90BF900895CF93DF93EC01D3
:1053E0000E94AB29BE010E945C0CDF91CF91089511
:1053F000292F220F920F990F890F682F66956695B6
:105400006695982F977085E0689FB001112440E061
:1054100050E080E0FB01E40FF51FEE51FA4F2081D0
:1054200030E0092E02C0369527950A94E2F72170E4
:105430003327042E01C0220F0A94EAF7822B4F5F14
:105440005F4F4530510531F70895292F220F920FF4
:10545000990F890FE82FE695E695E695877051E05C
:1054600001C0550F8A95EAF785E0E89FF001112405
:10547000EE51FA4F20E030E070E04081CB01022E87
:1054800002C0969587950A94E2F7817081958427EA
:105490008523842781932F5F3F4F2530310569F79E
:1054A000089560930006709301068093020690931E
:1054B00003060C944E260F931F9341E050E060E0EA
:1054C00070E004C0440F551F661F771F8A95D2F7FE
:1054D00040955095609570958091000690910106D9
:1054E000A0910206B09103068A019B0108231923AB
:1054F0002A233B23C901B8011F910F910C94512A13
:10550000209104068095822380930406982F97703B
:1055100079F430E0482F082E000C550B241735077E
:1055200039F08595859585950E945B2A1092040631
:1055300008950F931F9341E050E060E070E004C0D5
:10554000440F551F661F771F8A95D2F7809100067A
:1055500090910106A0910206B09103068A019B0179
:10556000082B192B2A2B3B2BC901B8011F910F9136
:105570000C94512A6093090670930A0680930B06D7
:1055800090930C060C944E268091E1059091B00505
:10559000891719F08F5F8770FBCF08950F931F93C2
:1055A000CF93DF938091AF0582958F7009F05DC036
:1055B0008091AC05882309F458C08091E1051091D1
:1055C000B0056091AA057091AB05C091AD05D09171
:1055D000AE0591E06F3F09F090E0292F06E08117BA
:1055E00009F443C0209721F07F3F21F030E003C051
:1055F00031E001C0322F90E030FD34C0089FF0014F
:10560000099FF00D1124DF01AF54BA4F11963C9160
:105610001197371327C03C91361324C012963C9142
:10562000129731111FC013964D915C9114974C1B2A
:105630005D0B483C5105B0F48091AF058F708061DF
:105640008093AF05EA54FA4F80818F708061808328
:105650008AEA95E00E94F10FDF91CF911F910F919F
:105660000C94C42A01968770BACFDF91CF911F9115
:105670000F9108958EE1489B02C08150E1F7489B4D
:10568000FECF0895589880E28A95F1F7589A0895C8
:10569000FC012AE02A95F1F790E020E080E031E07B
:1056A000261779F040E14A95F1F7880F489B02C030
:1056B0008160932700C0000040E14A95F1F72F5F19
:1056C000EFCF20E12A95F1F729B100C0000030E1C9
:1056D0003A95F1F7217092272081920F90830895D7
:1056E000EF92FF920F931F93CF93DF931F92CDB74B
:1056F000DEB719828C017C01E60EF11C0E151F0528
:1057000059F00E943A2B68E0CE0101960E94482B86
:10571000F80181938F01F2CF81E09981911180E0AE
:105720000F90DF91CF911F910F91FF90EF9008950F
:10573000909313068093120660931106509A589A1C
:105740000895909313068093120660931106509863
:10575000589AE89AE9E6F0E080818C7F808308958A
:10576000615091E001C0990F6A95EAF720E031E0BD
:10577000992361F0492F482319F0589A232701C033
:10578000589840E24A95F1F79695F2CF222311F00E
:10579000589A01C0589880E28A95F1F75898089570
:1057A000FF920F931F93CF93DF93EC018C01060FB1
:1057B000111DC017D10741F0F9900E94422B68E0FB
:1057C0008F2D0E94B02BF5CFDF91CF911F910F91BC
:1057D000FF9008951F920F920FB60F9211240F930E
:1057E0001F932F933F934F935F936F937F938F9369
:1057F0009F93AF93BF93EF93FF93CF93DF931F924A
:10580000CDB7DEB719820E943A2B67E0CE01019630
:105810000E94482B382F369536953695932F9695BE
:105820009570232F2570920F292F237096959695AA
:105830008770920F891348C08981811145C080917A
:105840001106831708F440C080E18A95F1F7589A51
:10585000509AA2E0AA95F1F700C0009112061091AB
:105860001306B8E03B9F000D111D11245898F80154
:105870006581662321F0868197810E94D02B0E944A
:10588000422BF0E1FA95F1F758985098589A80E138
:105890008A95F1F7D80112966C911297662369F0F8
:1058A00013968D919C9114970E94702BD801ED91C5
:1058B000FC91811105C082E004C0D801ED91FC91FA
:1058C00088E080830E943A2B0F90DF91CF91FF9167
:1058D000EF91BF91AF919F918F917F916F915F9168
:1058E0004F913F912F911F910F910F900FBE0F90ED
:1058F0001F9018950F931F93CF93DF93209111065C
:1059000030E0281739070CF471C09C0193E0220F96
:10591000331F9A95E1F7C0911206D0911306C20F7A
:10592000D31FF894509A589845E04A95F1F7000033
:10593000982F969595708570890F982F93708695FE
:105940008695890F8901082B0E94422B84E08A9555
:10595000F1F700C067E0802F0E94B02B40E14A952C
:10596000F1F75098589A489902C000C0FCCF87E0E0
:1059700090E0489B0EC0019751F4509A589AE881E4
:10598000F98181E08083789481E090E031C000C0AB
:10599000F0CF6D81662381F08E819F810E94702BF4
:1059A00081110AC0509A589AE881F98182E0808377
:1059B000789482E090E01CC00E943A2B80E28A95A5
:1059C000F1F75898509A40E14A95F1F76A816623B9
:1059D00021F08B819C810E94D02B0E94422BE88178
:1059E000F9811082789480E090E002C084E090E039
:1059F000DF91CF911F910F9108958F929F92AF9257
:105A0000BF92CF92DF92EF92FF92CF93DF93EC01A0
:105A1000688179818A819B81611571058105910574
:105A200021F464E279ED8BE597E02DE133EF41E07D
:105A300050E00E94A12D49015A019B01AC01A7EA47
:105A4000B1E40E94C02D6B017C01ACEEB4EFA50166
:105A500094010E94CE2DDC01CB018C0D9D1DAE1D4D
:105A6000BF1DB7FF03C00197A109B0488883998380
:105A7000AA83BB839F77DF91CF91FF90EF90DF9058
:105A8000CF90BF90AF909F908F9008950E94FD2C73
:105A9000089580E091E00E94FD2C0895A0E0B0E020
:105AA0008093000190930101A0930201B093030140
:105AB0000895F999FECF92BD81BDF89A992780B5D6
:105AC0000895A6E1B0E044E050E00C94932DA8E1E5
:105AD000B0E042E050E00C94932D262FF999FECFD0
