:100000000C94EE010C9435020C9435020C943502DC
:100010000C9435020C9435020C9435020C94350284
:100020000C9435020C9435020C94B2210C94842269
:100030000C94061A0C9435020C9435020C9435027B
:100040000C9435020C9435020C9435020C94350254
:100050000C9435020C94531A0C9435020C9435020E
:100060000C9435020C9435020C9435020C94350234
:100070000C9435020C9435020C9435020C94350224
:100080000C9435020C9435020C9435020C94350214
:100090000C9435020C9435020C9435020C94350204
:1000A0000C9435020C9435020C943502BA08BD0844
:1000B000C208C908CE08D308D808DD08E208E70856
:1000C000EC08F108F708F708F708F708F708F70849
:1000D000F708F7087C0F7C0FAE0FAE0FFB0F19105F
:1000E0003A113A112410B910CA10CA102A113A1143
:1000F0003A113311DA11DA11EC11EC11E311EC11B0
:10010000EC11EC11DA11DA11E811EC11EC11E81133
:10011000F122182310241823102464238723102489
:10012000DE23ED2304121E001F0020000512210013
:1001300022002300061224002500260007120812C0
:100140000912274133002E022502230220022D002E
:10015000380028000100260227020100BF5CC05CB5
:100160000100010000010101010101010101020280
:100170000202020202020203030303030303030455
:100180000404040404040505050505060606060620
:10019000070707070708080808090909090A0A0ADA
:1001A0000B0B0B0C0C0C0D0D0D0E0E0E0F0F0F107C
:1001B0001011111112121313141415151616171706
:1001C000181819191A1A1B1B1C1D1D1E1E1F202072
:1001D000212222232424252626272829292A2B2CBC
:1001E0002D2D2E2F30313232333435363738393ADF
:1001F0003B3C3D3E3F404142434445464748494AD7
:100200004C4D4E4F50515354555658595A5B5D5EA4
:100210005F616264656668696B6C6D6F707273753F
:1002200077787A7B7D7E8082838587888A8C8E8FA3
:1002300091939596989A9C9EA0A2A3A5A7A9ABADD1
:10024000AFB1B3B5B7BABCBEC0C2C4C6C9CBCDCFBF
:10025000D1D4D6D8DBDDDFE2E4E7E9EBEEF0F3F56D
:10026000F8FAFDFF040330000000120343006800A9
:100270006F0063006F0070006100640000000E03F7
:100280004B0065006500620069006F000000040318
:10029000090409023B00020100A0FA090400000160
:1002A000030101000921110100012240000705811D
:1002B0000308000A090401000103000000092111DC
:1002C00001000122BC000705820320000A12011070
:1002D000010000000810CB441100010102030105D8
:1002E000010902A10185020901A1000509190129DD
:1002F000051500250195057501810295017503819C
:10030000010501093009311581257F9502750881A4
:100310000609381581257F950175088106050C0AA7
:1003200038021581257F950175088106C0C0050139
:100330000980A101850319012AB700150126B7001C
:10034000950175108100C0050C0901A101850419F2
:10035000012AA002150126A002950175108100C096
:1003600005010906A1018505050719E029E7150022
:1003700025019508750181020507190029EF15006F
:10038000250195F0750181020508190129059505DA
:1003900075019102950175039101C005010906A13E
:1003A00001050719E029E715002501950875018168
:1003B000029501750881010507190029FF1500261E
:1003C000FF009506750881000508190129059505A6
:1003D00075019102950175039101C00011241FBEA2
:1003E000CFEFDAE0DEBFCDBF04B603FE27C08091B9
:1003F0006B0290916C02A0916D02B0916E028730F9
:10040000904BA740B04BD1F410926B0210926C024B
:1004100010926D0210926E0214BE84B7877F84BF63
:100420000FB6F894A8958091600088618093600071
:10043000109260000FBEE0E0F8E3099511E0A0E043
:10044000B1E0E0E1FAE402C005900D92A638B107F0
:10045000D9F722E0A6E8B1E001C01D92AB36B207A1
:10046000E1F70E94E11E0C9406250C9400000E9406
:10047000630985E00E94D1090E945A084FEF6FEF8F
:1004800080E00E94200860E070E0CB010E947D18AF
:100490000C94891881E0089581E008950C944C0231
:1004A00008950C9450021F93CF93DF9300D000D097
:1004B0001F92CDB7DEB749835A836B8330919B017E
:1004C00089819A81311114C0662359F0222349F0A1
:1004D0000E941117182F682F89819A810E94BC16DB
:1004E00003C00E94E616182F69817A81812F04C00B
:1004F0000E94111769817A810F900F900F900F90D1
:100500000F90DF91CF911F910C941303FC01262FC4
:10051000408151816281738184810C945302CF9315
:10052000DF93EC0160E00E948602BE01DF91CF9173
:100530000C9451020E944318811102C00E94E518D8
:100540000E946E0A0C9430050C942C0508950C94AE
:10055000A60281E008950C94A902CF93C82F0E94AF
:10056000A7028C2F0E94AB02CF91089508950E949C
:10057000C8110E94B6022FEF84E39CE02150804016
:100580009040E1F700C000000C94791A0F931F937C
:10059000CF93DF93EC0161E00E9486028C01BE01E3
:1005A0000E944E028823A9F1BE01C8010E94D7090A
:1005B000882379F1BE01C8010E941D0B882349F1EF
:1005C000BE01C8010E945E0B882319F1BE01C8015B
:1005D0000E94890C8823E9F0BE01C8010E94A3088B
:1005E0008823B9F08A81882369F001158CE5180702
:1005F00031F00E3D1C4531F40E94E5180AC00E94FE
:10060000B70207C0CE01DF91CF911F910F910C94DB
:100610004A0280E0DF91CF911F910F91089580E011
:1006200090E008950895E72FF0E094E0899FE00DB1
:10063000F11D1124EE0FFF1FEE0FFF1FE60FF11D3E
:10064000EE0FFF1FEC5DFE4F859194910895880F8A
:10065000991FFC01EC59FE4F859194910895CF9319
:10066000DF930E9413030E944704EC01811590451B
:1006700008F041C0C11580E4D80708F0D1C0C83ED9
:10068000D10510F5C03ED10508F0FDC0C83AD1052E
:1006900078F4C53AD10508F0A2C0C130D10509F4FB
:1006A000F2C008F4EEC0C430D10508F0ECC0E9C0D7
:1006B000CF3BD10508F49BC0C03CD10508F4E1C094
:1006C000CE01805C91099EC0C11590E2D90758F413
:1006D000C11521E0D20708F0D6C0C03FD10508F40B
:1006E000D0C0D065D0C0C11580E3D80708F08EC057
:1006F000CE019F7087C0C11595E5D90708F043C0AA
:10070000C11524E5D20708F0A2C0C11582E5D807BB
:1007100008F5C11591E5D90708F085C0CE0174E050
:10072000969587957A95E1F783709C2F937021E0D9
:1007300030E002C0220F331F9A95E2F73C68382B55
:10074000CF70C695C69580E2C89FE0011124C22BE8
:10075000D32B99C09E01237033278C2F86958695C5
:10076000C115D34508F064C0C1E0D0E002C0CC0F91
:10077000DD1F2A95E2F720E2829FC0011124C82BD9
:10078000D92BDC6880C0C11529E5D207A0F4C115BA
:1007900088E5D80708F060C0C11596E5D90708F0CC
:1007A00070C08C2F0E94DB048F71C82FD0E0DC2F2B
:1007B000CC27D06268C0C1152AE5D20708F451C021
:1007C000CE0190568115904208F05BC08D2F8F713D
:1007D0000E94DB04DD27D0628F71D82B54C0C55A2C
:1007E000D0E0C85BDE4FC881D0E0D0644CC0C85AAE
:1007F000D0E0CC0FDD1FC65EDE4F0990D881C02D42
:10080000D46441C00E942703EC013DC0CE0199276A
:10081000D3FF03C0EC01D86C36C0EC01D06C33C000
:10082000DF70D06A30C0DC2FCC27C16FD06A2BC0FC
:10083000C1E0D0E002C0CC0FDD1F2A95E2F720E234
:10084000829FC0011124C82BD92BDA681CC0DC2F71
:10085000CC27C46FD06A17C0DC2FCC27C06FD06AFA
:1008600012C08C2F8F700E94DB0494E0D695C79540
:100870009A95E1F7CF70D0E0DC2FCC27D069C82B58
:1008800002C0C0E0D0E0CE01DF91CF910895823860
:10089000910569F1B0F48133910509F46DC048F414
:1008A0008932910509F463C08A32910509F469C05F
:1008B00008958533910509F455C089339105B9F040
:1008C0000895833E910569F138F4803E9105B1F0B9
:1008D000823E910509F10895863E9105A9F1873E72
:1008E0009105B9F1843E910509F064C023C02091BF
:1008F0005C0220FD4FC021FD4DC0089580915C0237
:1009000080FD44C080915D0280FF44C080915C0204
:1009100084FD42C083EE4DC080915C0282FF38C0EE
:10092000F5CF80915C0282FD33C080915D0280FD35
:1009300031C0ECCF80915D0281FF32C080915C02BA
:1009400084FD2AC087EE35C080915C0283FF26C0FB
:10095000F5CF80915C0283FD21C080915D0281FD15
:100960001FC0ECCF80915C0285FD1CC01DC0809132
:100970005C0285FD19C016C080915C0286FD16C020
:1009800017C080915C0286FD13C010C089E311C0BE
:1009900082EE0FC080EE0DC080E00BC086EE09C075
:1009A00084EE07C089E205C085E303C08AE201C086
:1009B00081E390E0089590915C0292FF0DC0282F92
:1009C0002871283019F4877F846006C0282F24718D
:1009D000243011F48B7F886093FF0DC0282F28717D
:1009E000283119F4877E846106C0282F24712431B0
:1009F00011F48B7E886120915D0220FF0DC0382F9D
:100A00003871383019F4877F816006C0382F317112
:100A1000313011F48E7F886021FF0DC0282F28719E
:100A2000283119F4877E816106C0282F2171213178
:100A300011F48E7E886194FD877E0895E82FF0E0A2
:100A4000EE5BFD4F80810895089580EA8A95F1F765
:100A5000089508950C9429050C942A050C942905F1
:100A60000C942E05CF93DF93AFE4B1E043E551E062
:100A700061E070E08D91E82FE295EF70F0E021A148
:100A80008F70EB0102C0CC0FDD1F8A95E2F7CE011B
:100A90009C2F9095922391A392A1892B82A34A1710
:100AA0005B0741F7ABE4B1E041E050E08D91E82F06
:100AB000E295EF70F0E021A18F70BA0102C0660FDD
:100AC000771F8A95E2F7CB01962F9095922391A3F9
:100AD00092A1892B82A371E0AF34B70739F7109246
:100AE0003E021092420210923F0210924302109274
:100AF000400210924402109241021092450284E09A
:100B00000E940C06DF91CF910C949A026F927F9213
:100B10008F929F92AF92BF92CF92DF92EF92FF920D
:100B20000F931F93CF93DF938FE4882E81E0982E4D
:100B30000EE312E092E4A92E92E0B92E712CCC249F
:100B4000C394D12CF40181914F01C82FC295CF706D
:100B5000D0E099A18F70760101C0EE0C8A95EAF77A
:100B6000892F8E2989A38AA16E2C609486218AA35D
:100B70000E942505EBE4F1E040E050E020E03191F7
:100B8000A32FA295AF70B0E090968C9190E03F704B
:100B900002C0959587953A95E2F780FD07C08C2DA8
:100BA000042E01C0880F0A94EAF701C080E0282BC8
:100BB0004F5F5F4F4430510511F789A1682269A248
:100BC0008AA1E82AEAA2F8018081281719F0208377
:100BD00081E001C080E0782A0F5F1F4FA016B106A8
:100BE00009F0B0CF272D44E062E472E08EE392E09A
:100BF0000E940D060E94A402872DDF91CF911F91C4
:100C00000F91FF90EF90DF90CF90BF90AF909F90AB
:100C10008F907F906F9008950895FF920F931F9388
:100C2000CF93DF938C01F62ED72FC42F222349F0C8
:100C300081E0809388010E94381A90938701809305
:100C40008601809188018823C1F08091860190916E
:100C500087010E94441A069780F0EF2DFD2FD801DE
:100C60004C2F50E0CD01801B910B841795071CF48D
:100C70008D918193F7CF10928801DF91CF911F91D1
:100C80000F91FF900895EF92FF920F931F93CF93D0
:100C9000DF93F62E472FE82FF0E0711106C0EC59D4
:100CA000FE4F6491762F862F72C0272F30E0EC59CB
:100CB000FE4FE4910E2F10E056E0659FC001112415
:100CC000CFEFD0E0BE010E9454245BEA5603C0017E
:100CD000579F900D11248F0D911D8F0D911D982FF1
:100CE000990F890F7E01E21AF30AE09ED001E19E7E
:100CF000B00DF09EB00D1124489FA0011124452F86
:100D000055277E01E41AF50AE09EA001E19E500DF0
:100D1000F09E500D11247E01E81AF108E29EC001F8
:100D2000E39E900DF29E900D1124892F9927C81BE8
:100D3000D90BC09FC001C19F900DD09F900D112471
:100D40006230710591F048F461157105E1F0613090
:100D50007105A9F48B2F752F19C06430710561F0EE
:100D600038F06630710579F00AC0892F7B2F0EC0EC
:100D70008E2F7B2FE52F0AC08E2F792F02C0852F53
:100D80007E2FEB2F03C08B2F7E2FE92F6E2FDF914D
:100D9000CF911F910F91FF90EF900895CF93DF9324
:100DA000762FE901682F842F0E9443067983688398
:100DB0008A83DF91CF91089580914602982F96956E
:100DC000913021F08170826080934602089588E01E
:100DD00090E00C94C624CF92DF92EF92FF926B01C9
:100DE0007C010E94DC06B701A60188E090E0FF903C
:100DF000EF90DF90CF900C94E424E6E4F2E083E0FF
:100E0000808311828FEF828383831482608171815A
:100E1000828193810C94EB0680914A02833018F40E
:100E20008F5F80934A0260914602709147028091E1
:100E30004802909149020C94EB0680914A02882363
:100E400019F0815080934A026091460270914702E6
:100E500080914802909149020C94EB0670E00C944A
:100E60007E0A609101018091460280FF0AC0809154
:100E7000000123E0829FC0011124855B9D4F0C94EB
:100E80002E078091020190910301891780F7E82FC6
:100E9000F0E09F01220F331FE20FF31FE55BFD4FD0
:100EA0001182108212828F5FF0CFE6E4F2E080813F
:100EB0008E7F808360817181828193810E94EB06A5
:100EC0002FEF80E792E0215080409040E1F700C092
:100ED00000000C9431079091460290FF16C090914B
:100EE000020120910301921770F4E92FF0E0DF0175
:100EF000AA0FBB1FEA0FFB1FE55BFD4F81836083D9
:100F000042839F5FF0CF0C9431070895EF92FF92D8
:100F10000F931F93CF93DF9300D01F92CDB7DEB70F
:100F20009091460290FF2CC0E22E142F062FF82E2F
:100F3000E92FE695F0E0ED5AFE4F808180938A011B
:100F40009E7F923059F49E012F5F3F4F8F2D0E945C
:100F5000CE064B8169818A810E946B07F09247021D
:100F60000093480210934902EE2051F0609146022E
:100F70007091470280914802909149020E94EB06CD
:100F80000F900F900F90DF91CF911F910F91FF90D5
:100F9000EF900895E6E4F2E09181282F4381628189
:100FA00088E0890F0C94860781E00C94CA07E6E478
:100FB000F2E09181282F4381628188EF890F0C94A0
:100FC000860781E00C94D707E6E4F2E0628121E134
:100FD000620F08F46FEF282F438181810C948607FC
:100FE00081E00C94E407E6E4F2E0628121E1621B17
:100FF00008F460E0282F438181810C94860781E00A
:101000000C94F307E6E4F2E0438121E1420F08F497
:101010004FEF282F628181810C94860781E00C9428
:101020000208E6E4F2E0438121E1421B08F440E0DB
:10103000282F628181810C94860781E00C9411082D
:1010400021E00C94860720E00C94860780914602EC
:1010500080FF18C08170826080934602662351F041
:101060006091460270914702809148029091490236
:101070000E94EB064091490260914802809147022C
:101080000C9423080895682F81E00C94260881E0D1
:101090000C944308682F9091460296958FEF890F24
:1010A00009F481E00C94260881E00C944A0861E080
:1010B0000C942608E6E4F2E08081816080838695C6
:1010C0000C9457088091460280FD0C9455070C94AF
:1010D0005A0860E00C9426088091890181112CC087
:1010E0000E944318811104C00E94E5180E94FD0669
:1010F0000E94E7066093460270934702809348027D
:10110000909349026E7F61F40E94FD060E94E706FB
:10111000609346027093470280934802909349027D
:101120000E94DC068091460280FF03C086950E94E3
:10113000690881E0809389010895882311F0FA01FC
:1011400001C0FB0109940F931F93CF93FB01C28150
:10115000CC2309F44AC08C010E9492178272F801D4
:10116000E25CFC45E431F10508F042C0EA5AFF4F69
:101170000C949E240E9462083AC044E558E067E45B
:1011800078E004C047E458E064E578E00E949D08F8
:101190002EC041EE57E064ED77E0F8CF44ED57E024
:1011A00061EE77E0F3CF4FEF57E060EF77E0EECFFF
:1011B00040EF57E06FEF77E0E9CF4DE158E06EE0A8
:1011C00078E0E4CF4EE058E06DE178E0DFCF4DE12C
:1011D00057E06CE077E0DACF4CE057E06DE177E084
:1011E000D5CF81E00E94570802C0C1E001C0C0E035
:1011F0008C2FCF911F910F9108950E944318811158
:1012000002C00E94E5180E94741880935702282F8C
:1012100026952695269530E02730310524F08770F5
:101220008063809357028091570280FF04C08695A7
:101230008695869501C080E00C940C0A2091570297
:10124000822F869586958695482F50E04630510529
:1012500054F48F5F982F990F990F990F822F8770F1
:10126000892B8093570280915702816080935702A7
:101270000E947818809157028695869586950C94E1
:101280000C0A80915702982F969596959695A1F005
:10129000915E990F990F990F8770892B8093570250
:1012A000887F91E009F490E08091570290FB80F9EB
:1012B000809357020E9478188091570286958695F0
:1012C00086950C940C0A8091570280FD13C08160B2
:1012D00080935702813019F489E0809357028091FE
:1012E00057020E94781880915702869586958695B8
:1012F0000C940C0A08958091570280FF08C08E7FDD
:10130000809357020E94781880E00C940C0A08958C
:101310008091570280FD0C947B090C946309909195
:101320005702892F8695869586958F5F8F71977066
:10133000873038F4880F880F880F892B80935702E5
:1013400002C09093570280915702887F91E009F480
:1013500090E08091570290FB80F9809357020E94A1
:101360007818809157028695869586950C940C0A7C
:10137000873008F086E0909157029770282F220F4F
:10138000220F220F922B90935702987F21E009F4AD
:1013900020E09091570220FB90F9909357020C9413
:1013A0000C0A0E94B809809157020C9478189C018D
:1013B000FB018281882349F12D3BFCE53F07C9F001
:1013C00040F42B3BECE53E0769F02C3B3C4561F0DB
:1013D00008952F3B9CE5390791F070F0203C3C4587
:1013E00089F0089586E001C080E00E94D10980E084
:1013F00008950E944109FBCF0E941E09F8CF0E9468
:101400008809F5CF0E948F09F2CF81E00895259ACF
:101410002D9808952D980895CF92DF92EF92FF9224
:10142000CF93C82F873050F4811109C0809180007C
:101430008F77809380000E940A0A06C0C6E08091E0
:1014400080008068809380002C2F30E0AFEFBFEFEA
:101450000E94A42426E030E040E050E00E947C247A
:10146000C9012C3764E1360728F469E070E00E9476
:10147000542429C0DA01C9018A50974DAF4FBF4F9C
:101480006627782F892F9A2F25EF38E241E050E028
:101490000E947C2469017A01CA01B9010E94442496
:1014A0009B01AC01C701B6010E944424BB27A92FB0
:1014B000982F872F009721E0A207B10511F0BC01FA
:1014C00002C06FEF7FEF7093890060938800CF9127
:1014D000FF90EF90DF90CF90089508950E94070A43
:1014E00082E88093800089E1809381008FEF9FEFF5
:1014F00090938700809386000C94FD08539A2BB13B
:10150000277F3BB138604FB7F894FC01CB01880FBF
:10151000991F680F791F6E0F7F1FE617F70789F075
:10152000819198E03BB9000000C087FF2BB9880F7C
:10153000000000C000C000C02BB900C09A9591F710
:10154000ECCF4FBF8FE594E00197F1F700C00000AA
:1015500008950F931F93CF93DF93C62FD42F122F8D
:10156000FC0182818823C9F060938E010E94381AA1
:1015700090938D0180938C0180E28C0F883008F06D
:1015800057C0C77081E001C0880FCA95EAF7DF91A4
:10159000CF911F910F910C94380F80918E01681399
:1015A00030C080918C0190918D010E94441A883C3A
:1015B000910538F500E20D0FCD17B9F080E28C0FE0
:1015C000883040F4C77081E001C0880FCA95EAF7FF
:1015D0000E943F0F083028F581E09D2F977001C0D1
:1015E000880F9A95EAF70E94380F812F0E94250FE5
:1015F0000830F0F4D77081E001C0880FDA95EAF77F
:101600000AC080E28C0F883098F4C77081E001C076
:10161000880FCA95EAF7DF91CF911F910F910C9433
:101620003F0F812FDF91CF911F910F910C94250FC8
:10163000DF91CF911F910F9108959C01CB01233F22
:101640004CE53407F9F078F4283DFCE53F07B9F0A4
:10165000293D4CE5340711F1273D3C4531F526E2A3
:1016600041EE61EE1EC0253FFCE53F0799F070F0AA
:10167000263F3C45D1F427E245EE66EE12C027E254
:1016800045EE0EC026E241EE60EE0BC027E245EECD
:1016900064EE07C026E241EE62EE03C028E241E0BC
:1016A00065EE0E94A90A80E00895FC0182818823EA
:1016B00019F010928E01089581E00895CF93DF9381
:1016C000EC01FB018281882309F41FC1C230FCE5D3
:1016D000DF0708F41BC1C6319CE5D90738F09E012D
:1016E0002A5F3C452930310508F010C10E94561888
:1016F00090935D0280935C02C031ECE5DE0709F453
:10170000C3C008F041C0C8308CE5D80709F49AC0BE
:10171000F0F4C430ECE5DE0709F487C068F4C230A9
:101720008CE5D80709F477C0C330DC4509F0E3C085
:1017300080915C02826076C0C630ECE5DE0709F479
:101740006EC008F07BC080915C0288606BC0CC30BA
:101750008CE5D80709F485C068F4CA30ECE5DE07EB
:1017600009F474C008F079C00E94C81180915C022D
:10177000806858C0CE308CE5D80709F476C008F0F0
:101780007FC080915C028BC0CB3FECE5DE0709F4A3
:101790004FC018F5C3318CE5D80709F47DC078F443
:1017A000C131ECE5DE0709F473C0C231DC4509F054
:1017B000A2C00E94C81180915C028F7733C0C531EE
:1017C0008CE5D80709F472C008F486C0CA3FDC452E
:1017D00009F091C080915D023EC0CF3FFCE5DF077C
:1017E00009F45FC058F4CD3F9CE5D90709F444C023
:1017F00008F43FC080915D0282602DC0C130FDE5DC
:10180000DF0709F475C008F45DC0C230DD4509F09A
:1018100072C080E06EC080915C02816003C08091E4
:101820005C02806180935C0266C080915C0211C0A2
:1018300080915D02826080935D025DC080915C0258
:101840008062F0CF80915C028064ECCF80915C027A
:1018500088608460E7CF8160EECF80915C028E7FEC
:10186000E1CF80915C028D7FDDCF80915C02877F2C
:10187000D9CF80915D0218C080915D028D7FDBCF52
:1018800080915C028F7ECECF80915C028F7DCACF2B
:1018900080915C028F7BC6CF80915C02877F8B7FBB
:1018A000C1CF80915D028D7F8E7FC5CF80915C021C
:1018B00082FB222720F991E0922790FB82F990FB8E
:1018C00083F9B0CF80915D02982F909591708E7FB3
:1018D000892B90FB81F9AFCF0E94C81180915C02E7
:1018E00087FB222720F991E0922790FB87F99ACF76
:1018F00081E00E94E71880915C0290915D020E9455
:1019000067180E94C81180E001C081E0DF91CF918B
:101910000895CF93DF9386319C4541F5EB010E94FA
:101920009217982F8A812091050130910601882312
:1019300079F09A7A81E009F480E080938F01911127
:1019400002C069E201C065E3C9010E9482190AC0B0
:1019500080918F01811102C069E201C065E3C90174
:101960000E948D190E94E01780E001C081E0DF91A4
:10197000CF91089590939501809394010895E091FB
:101980009401F0919501309721F00190F081E02DC4
:10199000099480E00895E0919401F09195013097C9
:1019A00099F020911901222359F020915C0227FF20
:1019B00007C0DC012C9111962C93119725E02C93F4
:1019C0000280F381E02D09940895E0919401F09153
:1019D0009501309739F022E0DC012C930480F581E9
:1019E000E02D0994089520919201309193012817D8
:1019F000390771F09093930180939201E0919401E3
:101A0000F0919501309721F00680F781E02D09943F
:101A1000089520919001309191012817390771F0B4
:101A20009093910180939001E0919401F091950140
:101A3000309721F00084F185E02D0994089585B751
:101A4000806885BF85B7806885BF089508950C9428
:101A5000260D0C94270D0C94260D0C94260D0E9437
:101A60001F0D0E942B0D0C94290D81E008950C94FC
:101A7000350D0E942F1A0E9432050E948A1A0E9478
:101A8000FD080E946C080C942D0DAF92BF92CF926E
:101A9000DF92EF92FF920F931F93CF93DF93CDB717
:101AA000DEB72A970FB6F894DEBF0FBECDBF0E94F7
:101AB00086050E94370D811111C08FEF89838A83BB
:101AC0001B820E94381A8160782F9D838C83498104
:101AD0005A816B818D810E94DF0D40C087E9A82E5D
:101AE00081E0B82E00E010E0C02E802F0E941E057D
:101AF000E82EF501D1905F01D82631F40F5F1F4F1A
:101B00000430110589F7D9CF80910B0281FD0E9425
:101B1000240580E0FF24F3949D2D9F21D1F08E8336
:101B2000CF82EF2081E009F480E088870E94381A94
:101B30008160782F9A8789874E815F8168858A8541
:101B40000E94DF0DF801E956FE4F8081F826F082F1
:101B500005C08F5FFF0C8430F9F6D0CF0E946D0A6C
:101B60000E941C1C0E94BF0C909196018917B1F035
:101B70000E94BF0C809396012A960FB6F894DEBFA0
:101B80000FBECDBFDF91CF911F910F91FF90EF90CE
:101B9000DF90CF90BF90AF900C94AD022A960FB615
:101BA000F894DEBF0FBECDBFDF91CF911F910F9193
:101BB000FF90EF90DF90CF90BF90AF900895CF93BC
:101BC000DF93CDB7DEB72B970FB6F894DEBF0FBE0D
:101BD000CDBF4F83588769877A878B87DE0111963F
:101BE00086E0FD0111928A95E9F785E0FE013796BE
:101BF00001900D928A95E1F749815A816B817C8130
:101C00008D819E810E9481142B960FB6F894DEBFC1
:101C10000FBECDBFDF91CF910895FC0180819181EE
:101C20000E9453170895CF93882309F4A4C0C82FA6
:101C30008238C1F40E94BF0C81FD9DC069E3809190
:101C40000501909106010E9482190E94E0172FEF72
:101C500081EE94E0215080409040E1F700C0000008
:101C600069E319C0833801F50E94BF0C80FD83C071
:101C700063E580910501909106010E9482190E94FE
:101C8000E0172FEF81EE94E0215080409040E1F783
:101C900000C0000063E580910501909106010E945B
:101CA0008D19CF910C94E0178438C1F40E94BF0CB9
:101CB00082FD61C067E480910501909106010E9458
:101CC00082190E94E0172FEF81EE94E021508040AE
:101CD0009040E1F700C0000067E4DDCF8CEF8C0F8F
:101CE000813AD0F46C2F80910501909106010E94F9
:101CF0000219882349F06C2F80910501909106010B
:101D00000E948D190E94E0176C2F8091050190911F
:101D100006010E948219C5CF80E28C0F883048F4FA
:101D2000C77081E001C0880FCA95EAF70E94951735
:101D3000B8CFEBE5EC0FE33040F4F0E0ED57FE4FA9
:101D4000808190E0CF910C94F30CE8E5EC0FE73143
:101D500050F4F0E0EE0FFF1FEB5AFE4F80819181AF
:101D6000CF910C94090DC03F30F08C2F0E94241BA2
:101D7000CF910C94111CCF910895882309F464C06D
:101D8000823879F40E94BF0C81FF5EC069E38091C4
:101D90000501909106010E9482190E94E01769E3F3
:101DA00010C08338B1F40E94BF0C80FF4DC063E5C2
:101DB00080910501909106010E9482190E94E0170E
:101DC00063E580910501909106010E948D190C94A4
:101DD000E017843879F40E94BF0C82FF35C067E4B5
:101DE00080910501909106010E9482190E94E017DE
:101DF00067E4E7CF9CEF980F913A10F4682FE1CF9A
:101E000090E2980F983050F4877091E001C0990FDC
:101E10008A95EAF7892F0E949B17D9CF9BE5980FE7
:101E2000933020F480E090E00C94F30C98E5980F48
:101E3000973120F480E090E00C94090D803F20F071
:101E40000E948C1B0C94111C0895CF93C82F0E94E4
:101E5000130EC93349F42FEF87EE93E021508040F1
:101E60009040E1F700C000008C2FCF910C94BD0E84
:101E7000882321F00E9495170C94E0170895882379
:101E800021F00E949B170C94E0170895CF92DF92E7
:101E9000EF92FF920F931F93CF93DF937C01062F56
:101EA000C72FFC01158112951F70D281D1110E949C
:101EB000B2170E948B17882399F0DD2389F08C2FAD
:101EC000807F803421F080E2800F883048F082E00B
:101ED0000E942A180E948B1791E0D82ED92601C0A3
:101EE000D12CCC2EC2948FE0C8228C2D90E0FC0126
:101EF000E659FF4F0C949E248C2F807FCF7088234F
:101F000011F0C295C07FDD2399F0CC2309F48DC177
:101F100080E2800F883010F0011104C08C2F0E94E5
:101F2000951703C08C2F0E94A5170E94E0177DC152
:101F3000802F0E94BD0ECC2309F49CC180E2800F4B
:101F4000883010F0011104C08C2F0E949B1703C031
:101F50008C2F0E94AB170E94E0178CC18C2F807FC2
:101F6000CF70803211F0C295C07F002319F001308C
:101F7000C9F022C0DD2371F0112341F0113031F49A
:101F80000E94C5178C2B0E94CD1774C10E94C517E3
:101F90008C2B1DC0112319F0113009F46BC10E9464
:101FA000D61725C0DD2321F0163008F063C10EC01E
:101FB000153008F05FC11BC0DD2361F0112331F043
:101FC000F701858180FF31C18F7085838C2F0E943E
:101FD000380F50C1112359F0093309F037C1FFEF11
:101FE00027EE83E0F15020408040E1F72DC18C2F97
:101FF0000E943F0F3FC18C2F86958695837019F004
:10200000813061F037C1DD2321F0802F9C2F937048
:1020100002C080E090E00E94F30C34C1DD2321F087
:10202000802F9C2F937002C080E090E00E94090DE9
:1020300029C1802FDD2319F00E94241B02C00E94B9
:102040008C1B0E94111C1EC18C2F837009F045C08F
:10205000D11114C1402F429546954770440F440F4B
:10206000602F6F70862F90E0A0E0B0E0042E04C0D7
:10207000880F991FAA1FBB1F0A94D2F704FF10C034
:102080000FE010E020E030E004C0000F111F221F1D
:10209000331F4A95D2F7009510952095309503C0CF
:1020A00000E010E09801C695C695C370BC01CD0153
:1020B000602B712B822B932BC23049F058F4C13026
:1020C00019F00E94D215DAC00E94C015D7C00E9434
:1020D000E415D4C00E94BE15D1C0DD2319F08C2FA9
:1020E000817001C08695882309F4C8C0402F4295AD
:1020F00046954770440F440F602F6F70862F90E015
:10210000A0E0B0E0042E04C0880F991FAA1FBB1FD7
:102110000A94D2F704FF10C00FE010E020E030E096
:1021200004C0000F111F221F331F4A95D2F70095DC
:1021300010952095309503C000E010E09801C695F9
:10214000C695C370BC01CD01602B712B822B932BE4
:10215000C23049F058F4C13019F00E9497168EC071
:102160000E9485168BC00E94A91688C00E94F8158F
:1021700085C0CF70DD2339F08C2F0E941E16802F72
:102180000E94380F7BC0802F0E943F0F8C2F0E942F
:102190003F1674C0023F01F128F4003F41F0013FB7
:1021A000A1F03FC0033FF9F0043F39F13AC0DD230D
:1021B00041F0153008F05EC08C2F8F710E946416BC
:1021C00059C0163008F056C0F7CFDD2339F08C2FF8
:1021D0008F710E941E164EC0DD23C9F38C2F8F71A4
:1021E0000E943F1647C0DD2329F08C2F8F710E947B
:1021F000091640C00E9404163DC0DD2349F0CF718E
:102200008C2F0E941E1663E08C2F0E94151832C07E
:1022100081E00E942A18123068F182E00E942A1898
:1022200029C0DD2331F0112391F2802F0E94130E7B
:1022300021C0112399F2093349F49FEFE7EEF3E04F
:102240009150E040F040E1F700C00000802F0E9474
:10225000BD0E10C04C2F4F70602FC7010E940F039E
:102260000E942F150FC04C2F4F70602FC7010E9486
:10227000120308C088EF8C0D843020F40E94BF0C3C
:102280000E94AD02DD20C9F00E94871780FD15C0B5
:10229000F70112820E9481170E941E16C7010E9438
:1022A0007E110E948117DF91CF911F910F91FF90B6
:1022B000EF90DF90CF900C943F16DF91CF911F915C
:1022C0000F91FF90EF90DF90CF9008950F931F93A1
:1022D000CF93DF93EC01688179818A810E945E1738
:1022E0008C010E94BB160E94AC15B801CE010E9461
:1022F000460FDF91CF911F910F910895CF93DF93F8
:10230000EC01988189812B813C81232B31F08F3F17
:1023100031F481E09F3F19F403C081E001C080E007
:1023200080FD19C0CE010E94C60281110CC00E941E
:102330008B17882381F08A81882369F082E0DF91FE
:10234000CF910C942A18CE010E946611CE01DF9124
:10235000CF910C948F02DF91CF9108950E94B21714
:102360000E94C2170E94E0170E943B1D0E94111C90
:1023700080E090E00E94F30C80E090E00C94090D66
:1023800080910501909106010E9498190C94AE115C
:102390000E94A2170C94C011E92FE295EF704E2F06
:1023A00050E0FA013297EE30F105B0F4E658FF4FF5
:1023B0000C949E24803F91F018F4883E68F40EC07F
:1023C000843F51F40BC0883E48F0813F29F406C099
:1023D00093FB882780F9089580E0089581E00895AF
:1023E0000E9453170E94CC110895CF93DF9300D021
:1023F00000D01F92CDB7DEB70F900F900F900F90C7
:102400000F90DF91CF910895CF93DF9300D000D04C
:1024100000D0CDB7DEB726960FB6F894DEBF0FBE5C
:10242000CDBFDF91CF9108951F93CF93DF93C091DC
:102430009C0116E080919D01C81799F0D0E01C9F87
:10244000F0011D9FF00D1124E256FE4F4081518195
:1024500062817381848195810E9404122196C770E4
:10246000E9CFDF91CF911F9108954091CE01509116
:10247000CF016091D0017091D1018091D2019091F2
:10248000D3010C9404120F931F93CF93DF93809189
:10249000D30182958F7009F05DC08091D0018823AF
:1024A00009F458C080919C0110919D016091CE016A
:1024B0007091CF01C091D101D091D20191E06F3FD5
:1024C00009F090E0292F06E0811709F443C0209716
:1024D00021F07F3F21F030E003C031E001C0322F16
:1024E00090E030FD34C0089FF001099FF00D1124E9
:1024F000DF01A256BE4F11963C911197371327C0AA
:102500003C91361324C012963C91129731111FC092
:1025100013964D915C9114974C1B5D0B483C5105F3
:10252000B0F48091D3018F7080618093D301ED5519
:10253000FE4F80818F70806180838EEC91E00E94DD
:102540007E11DF91CF911F910F910C94141201967F
:102550008770BACFDF91CF911F910F9108959F920D
:10256000AF92BF92CF92DF92EF92FF920F931F93A1
:10257000CF93DF93CDB7DEB761970FB6F894DEBF88
:102580000FBECDBF8C0185E0F801DE011D960190E4
:102590000D928A95E1F7F80140815181E280909196
:1025A000CE016091CF012091D1013091D20121154E
:1025B000310531F06F3F31F481E09F3F19F403C0E2
:1025C00081E001C080E0F82FF1709F2E80FD46C1B0
:1025D000F801A380B4808EECC82E81E0D82EF09054
:1025E000D001F501E21BF30BFF2009F4DFC080915D
:1025F000D301E83CF10508F09BC0282F207F09F0AB
:1026000052C0561313C0491311C0FE2CE1100EC066
:102610008F7080618093D3010E943512C6010E94A1
:102620007E118091D301F801858358C1AB2831F028
:102630005F3F31F481E04F3F19F403C081E001C0F6
:1026400080E080FD03C081E08E2502C080E090E044
:10265000F82FF170FF2E80FF1CC080919C0120910B
:102660009D0136E0821709F417C190E0389FF00110
:10267000399FF00D1124E256FE4F6181561306C0BA
:102680006081461303C06281E61203C00196877021
:10269000E9CFFE2CEE2009F421C18091D3018160A5
:1026A0008093D3015AC0561306C0491304C0E110E9
:1026B00002C0F8019FC04D875E878D859E850E9470
:1026C000F011882379F1EE2069F12091D301822F56
:1026D00082958F7090E0029774F08091CE01909176
:1026E000CF0198878F831986BB86AA862C87CE0157
:1026F00007960E947E1186E0F801AEECB1E00190F1
:102700000D928A95E1F70E9443120E9435120DC086
:10271000561729F14D875E878D859E850E94F011A1
:1027200081112CC0C8010E947E11FF24F394D6C0F1
:10273000282F207F69F77A2DB98AA88A6E2D89897A
:102740000E94F5118EEC91E00E947E1186E0F60168
:1027500011928A95E9F70E943512F12CBFC04913F6
:10276000D9CFE110D7CFF8018583C8010E947E112F
:1027700086E0F60111928A95E9F7B0C0EE2091F259
:102780002091D301822F82958F7090E002970CF4F4
:10279000B2CF8091CE019091CF019A8389831B8221
:1027A000BD82AC822E83CE010196A3CFE83CF10519
:1027B00008F047C0FE2CEE2009F4B4CF561330C009
:1027C00049132EC02091D30120FD21C0822F829574
:1027D0008F70482F50E041155105C9F0F80125834D
:1027E0004F30510541F08F5F982F9295907F822F47
:1027F0008F70892B8583C8010E947E1186E0F801C5
:10280000AEECB1E001900D928A95E1F742C086E00E
:10281000F801AEECB1E001900D928A95E1F75EC04F
:102820004D875E878D859E850E94F011811163CF53
:102830008091D30181608093D301C8010E947E11F1
:102840004DC07A2DB98AA88A6E2D89890E94F5110A
:1028500086E0F60111928A95E9F71BC0EE2009F493
:1028600061CF4D875E878D859E850E94F011F82E81
:10287000882309F457CF86E0F801AEECB1E001906F
:102880000D928A95E1F78EEC91E00E940D0E0E9468
:1028900043120E94351222C04D875E878D859E852A
:1028A0000E945317292F22952F70223028F49F70F1
:1028B00039F0811105C00BC0243028F49F7049F411
:1028C000805E883020F0C8010E947E119F2CF92C78
:1028D00005C0F8019581907F99F7F9CF8F2D61960A
:1028E0000FB6F894DEBF0FBECDBFDF91CF911F9121
:1028F0000F91FF90EF90DF90CF90BF90AF909F909F
:1029000008951F93CF93DF93CDB7DEB72C970FB603
:10291000F894DEBF0FBECDBF4F83588769877A8793
:102920008B879C87CE0107960E94AF128823D1F037
:102930009F8188852A853B85232B31F08F3F31F499
:1029400081E09F3F19F403C081E001C080E080FD79
:1029500047C04F81588569857A858B859C850E9403
:1029600004123EC086E0FE013796DE01119601900A
:102970000D928A95E1F7FF81E8856A857B8561156F
:10298000710531F0EF3F31F481E0FF3F19F403C0EE
:1029900081E001C080E080FD23C020919D0130E0F6
:1029A000C90101968770992740919C0150E08417D6
:1029B0009507F1F1F983EA837D836C8396E0929F1A
:1029C000D001939FB00D1124A256BE4FFE01319647
:1029D00001900D929A95E1F780939D010E94141247
:1029E00016E080919C0190919D01891771F1189FCB
:1029F000C001112482569E4F0E94AF12882329F1F4
:102A0000E0919C011E9FF0011124E256FE4F40818F
:102A1000518162817381848195810E940412809129
:102A20009C0190E001968770992780939C01D9CFF3
:102A30000E94C81110929D0110929C01EEECF1E0F1
:102A400086E0DF011D928A95E9F72C960FB6F8947F
:102A5000DEBF0FBECDBFDF91CF911F910895EF92E2
:102A6000FF920F931F93CF93DF938C01892B09F46F
:102A70006CC0F12CEE24E394E8012196F8018491D6
:102A8000843740F4843008F051C0813081F08230C6
:102A900019F15BC0853709F444C0A8F19CE7980F91
:102AA000903708F052C08F770E94BD0E41C00E5F74
:102AB0001F4FFE01849190E2980F983050F4877078
:102AC000FE2D01C0FF0F8A95EAF78F2F0E94B517E0
:102AD00014C00E94130E2DC00E5F1F4FFE01849183
:102AE00090E2980F983060F48770FE2D01C0FF0FC0
:102AF0008A95EAF78F2F0E94BB170E94E01719C032
:102B00000E94BD0E16C00E5F1F4FFE01C491CC2364
:102B100081F08FE99FE00197F1F700C00000C150FC
:102B2000F6CF0E5F1F4FFE01F49003C00E94130EFC
:102B30008E018F2D882309F49FCFEFE9FFE03197B5
:102B4000F1F700C000008150F5CFDF91CF911F91C8
:102B50000F91FF90EF900895089508950C94AD158E
:102B60000C94AE150E94B0156093E2017093E301DE
:102B70008093E4019093E5010C94AE110C94B2158E
:102B80000F931F930091E2011091E3012091E40162
:102B90003091E501602B712B822B932B1F910F91AC
:102BA0000C94B2150F931F930091E2011091E30171
:102BB0002091E4013091E501602371238223932366
:102BC0001F910F910C94B2150F931F930091E20186
:102BD0001091E3012091E4013091E5016027712714
:102BE000822793271F910F910C94B2150C94AD1569
:102BF0000E94F6156093DE017093DF018093E0017F
:102C00009093E1010C94AE1160E070E0CB010C9464
:102C1000F8150F931F9341E050E060E070E08A01E7
:102C20009B0104C0000F111F221F331F8A95D2F78A
:102C3000C901B8011F910F910C94F8150F931F93C0
:102C400041E050E060E070E004C0440F551F661F93
:102C5000771F8A95D2F78091DE019091DF01A091D4
:102C6000E001B091E1018A019B01082B192B2A2B6D
:102C70003B2BC901B8011F910F910C94F8150F93CC
:102C80001F9341E050E060E070E004C0440F551F26
:102C9000661F771F8A95D2F740955095609570957D
:102CA0008091DE019091DF01A091E001B091E101FE
:102CB0008A019B01082319232A233B23C901B80158
:102CC0001F910F910C94F8150F931F9341E050E062
:102CD00060E070E004C0440F551F661F771F8A959F
:102CE000D2F78091DE019091DF01A091E001B091D7
:102CF000E1018A019B01082719272A273B27C901DF
:102D0000B8011F910F910C94F8150F931F93009128
:102D1000DE011091DF012091E0013091E101602B93
:102D2000712B822B932B1F910F910C94F8150F93FD
:102D30001F930091DE011091DF012091E00130919D
:102D4000E10160237123822393231F910F910C943F
:102D5000F8150F931F930091DE011091DF01209170
:102D6000E0013091E10160277127822793271F91AD
:102D70000F910C94F8150895990F990F890FE82F6A
:102D8000E695E695E695877051E001C0550F8A9566
:102D9000EAF785E0E89FF0011124EC52FE4F20E0B5
:102DA00030E070E04081CB01022E02C096958795FD
:102DB0000A94E2F781708195842785238427819383
:102DC0002F5F3F4F2530310569F70895990F990F0F
:102DD000890F682F669566956695982F977085E0A0
:102DE000689FB001112440E050E080E0FB01E40F57
:102DF000F51FEC52FE4F208130E0092E02C03695BF
:102E000027950A94E2F721703327042E01C0220F80
:102E10000A94EAF7822B4F5F5F4F4530510531F737
:102E20000895BF92CF92DF92EF92FF920F931F937C
:102E3000CF93DF938C01C090DE01D090DF01E09052
:102E4000E001F090E1018091E2019091E301A09115
:102E5000E401B091E501C82AD92AEA2AFB2ACFE188
:102E6000D0E0D701C6010C2E04C0B695A795979562
:102E700087950A94D2F780FD04C0219790F7B12C72
:102E800007C0BC2EB8018C2F0E942F030197A9F315
:102E90008B2DDF91CF911F910F91FF90EF90DF90DD
:102EA000CF90BF900895CF93DF93EC010E9411174C
:102EB000BE010E942F03DF91CF9108951F93CF93FE
:102EC000DF93EB0190919B01992321F0CB010E94AC
:102ED000531713C0882349F0CB010E941117182FF4
:102EE000682FCE010E94BC1604C0CB010E94E616DA
:102EF000182FBE01812F0E942F03DF91CF911F91C8
:102F000008958091E6018595859585950895809130
:102F1000E601877008959091E601977081E009F4C9
:102F200080E0089580910A02089590910A02892B09
:102F300080930A020895809590910A0289238093D4
:102F40000A02089510920A02089590910902892BAD
:102F500080930902089580959091090289238093B6
:102F60000902089510920902089590910802892B90
:102F70008093080208958095909108028923809398
:102F8000080208951092080208958091E7010895BB
:102F900008950C94C8170C94C9179091E7019817DD
:102FA00021F08093E7010C94CB1708958091E701FD
:102FB000882329F01092E70180E00C94CB17089544
:102FC000E0910501F091060180910A028083E09171
:102FD0000501F0910601908180910902892B80837F
:102FE000E0910501F0910601908180910802892B02
:102FF00080838091E701882381F0E0910501F091C1
:1030000006019081892B80838091050190910601B2
:103010000E94EC1881110E94D617809105019091B1
:1030200006010C94CB0C0C94C81798E0899F900172
:103030001124262B2093E6010E941E168091E601A2
:103040008595859585950C9413181092E60180E07E
:103050000C9413182091E601809582238093E60159
:10306000982F977079F430E0482F082E000C550BFC
:103070002417350739F08595859585950E943F166B
:103080000C942518089580E090E00E94CC2421E063
:103090008C3E9E4F09F020E0822F089582E090E060
:1030A0000C94BE2483E090E00C94BE24CF9384E083
:1030B00090E00E94BE24C82F81E290E00E94BE24CE
:1030C0002C2F30E0A901582BCA01CF910895CF933E
:1030D000C92F682F84E090E00E94D2246C2F81E2F7
:1030E00090E0CF910C94D22486E090E00C94BE2422
:1030F000682F86E090E00C94D224AB01BC018FE0F5
:1031000090E00C94E424AB01BC0183E190E00C94CA
:10311000E42460E070E0CB010C9483186CEE7EEF49
:1031200080E090E00E94F02460E082E090E00E9465
:10313000D22460E083E090E00E94D2241092E20169
:103140001092E3011092E4011092E50160E084E046
:1031500090E00E94D22460E081E290E00E94D224BC
:1031600060E085E090E00E94D22460E086E090E09C
:103170000E94D2246FEF87E090E00E94D22440E0CA
:1031800050E0BA0188E090E00E94E42460E08DE025
:1031900090E00E94D22440E050E0BA0188E190E043
:1031A0000E94E42460E087E190E00E94D22440E0A5
:1031B00050E0BA018CE190E00E94E42460E080E2FB
:1031C00090E00E94D2240C9437020C948E18682F41
:1031D0008EE090E00C94D224FC013296809119018B
:1031E000882331F080915C0287FF02C09EE101C01C
:1031F00096E080E0915028F021912223D9F38F5F4F
:10320000F9CF0895662351F1209119012223E9F0A5
:1032100020915C0227FF19C0462F4695469546959A
:103220004E31E0F4677021E030E002C0220F331F1E
:103230006A95E2F7FC01E40FF11D828190E02823FA
:10324000392381E0232B69F409C0FC0132960896EA
:103250002191621729F0E817F907D1F780E0089566
:1032600081E008959C01FC0132969FEF80E041913E
:10327000461789F09F3F19F4411101C0982F8F5FC5
:103280008630A9F79F3F39F0F901E90FF11D97FD4D
:10329000FA956283089508959C012A5F3F4FFC01CF
:1032A0004281461301C01282019682179307B9F733
:1032B0000895262F2695269526952E3168F4FC0133
:1032C000E20FF11D677021E030E001C0220F6A9526
:1032D000EAF78281282B22830895262F26952695AA
:1032E00026952E3170F4FC01E20FF11D677021E08C
:1032F00030E001C0220F6A95EAF7209582812823E9
:103300002283089520911901222329F020915C0243
:1033100027FD0C9459190C9432192091190122237C
:1033200029F020915C0227FD0C946D190C944C1926
:1033300020911901FC013296222331F080915C0228
:1033400087FF02C08EE101C086E0DF011D928A95F1
:10335000E9F7089508950C94AA190C94AA19CF932B
:103360000E94AD190E9486050E94AB19C0E08C2F07
:103370000E941E05811104C0CF5FC430C1F701C097
:1033800081E0CF9108950C94AA190C94C3190E945E
:10339000C51980916202843061F110920C0220E420
:1033A00088E190E00FB6F894A895809360000FBE76
:1033B0002093600080E00E940C0A80E00E94AD0231
:1033C0000E94C51983B7817F846083BF83B7816002
:1033D00083BF7894889583B78E7F83BF0FB6F894A8
:1033E000A8958091600088618093600010926000D1
:1033F0000FBE08950C94AA190E94C8110E94FD08DE
:103400000E94BF0C0E94AD020C94FA191F920F92F9
:103410000FB60F9211248F939F93AF93BF93809118
:103420000C02811113C08091580290915902A09111
:103430005A02B0915B024196A11DB11D80935802C2
:1034400090935902A0935A02B0935B02BF91AF913F
:103450009F918F910F900FBE0F901F90189582E053
:1034600084BD93E095BD9AEF97BD80936E0008955B
:103470002FB7F8948091580290915902A0915A0266
:10348000B0915B022FBF08959C014FB7F8948091D3
:10349000580290915902A0915A02B0915B024FBF1D
:1034A000821B930B089578941F920F920FB60F9280
:1034B00011248F939F93AF93BF9380915802909163
:1034C0005902A0915A02B0915B020196A11DB11D53
:1034D0008093580290935902A0935A02B0935B02D2
:1034E000BF91AF919F918F910F900FBE0F901F9042
:1034F000189587E797E790930108809300089AE072
:1035000088E10FB6F894A895809360000FBE909361
:103510006000FFCF0E944318811102C00E94E5188D
:103520000E944E1880930B020E94561890935D02E1
:1035300080935C020E945218682F70E080E090E057
:103540000C94BE158091140280FF0BC060910C0199
:1035500085E0689FB001112475956795759567950D
:103560002BC081FF09C060910C0185E0689FB0010C
:1035700011247595679520C082FF07C060910C01EA
:1035800085E0689FB001112417C090911302992320
:10359000D1F060910B01961788F720910C0185E01E
:1035A000289F90011124929FA001939F500D1124F8
:1035B00070E0CA010E9468246038710540F461150A
:1035C000710519F406C065E070E0862F08958FE755
:1035D000089581E008958091140280FF08C06091F1
:1035E000080170E0759567957595679521C081FF15
:1035F00006C06091080170E07595679519C082FF5B
:1036000004C06091080170E010C0909113029923EA
:1036100099F0609107019617A0F780910801899FA2
:10362000C001112470E00E9468246038710540F4E4
:103630006115710519F406C061E070E0862F0895E8
:103640008FE7089581E00895803F21F40E94A21A37
:10365000819504C0813F29F40E94A21A8093180228
:103660000895823F21F40E94A21A819504C0833FED
:1036700029F40E94A21A809317020895893F19F431
:103680000E94EB1A05C08A3F31F40E94EB1A819523
:103690008093190208958B3F21F40E94EB1A8195C3
:1036A00004C08C3F29F40E94EB1A80931A020895FB
:1036B000843F21F480911602816017C0853F21F478
:1036C00080911602826011C0863F21F4809116021B
:1036D00084600BC0873F21F480911602886005C08A
:1036E000883F31F48091160280618093160208951C
:1036F0008D3F21F48091140281600BC08E3F21F434
:1037000080911402826005C08F3F29F480911402D9
:103710008460809314020895803F39F480911802E8
:1037200087FF6CC01092180269C0813F29F4809114
:1037300018021816BCF362C090911702823F29F458
:1037400097FF5CC01092170259C0833F19F41916F5
:10375000CCF354C0893F41F48091190218160CF043
:103760004DC0109219024AC08A3F29F48091190273
:1037700087FF44C0F6CF8B3F39F480911A0287FF50
:103780003DC010921A023AC08C3F29F480911A026F
:103790001816BCF333C0843F21F4809116028E7F4B
:1037A00017C0853F21F4809116028D7F11C0863F9E
:1037B00021F4809116028B7F0BC0873F21F480910A
:1037C0001602877F05C0883F31F4809116028F7EF4
:1037D0008093160213C08D3F21F4809114028E7FD6
:1037E0000BC08E3F21F4809114028D7F05C08F3F66
:1037F00029F4809114028B7F809314028091170228
:1038000081110EC08091180281110AC080911902A5
:10381000811106C080911A02811102C01092130218
:10382000089585E192E00E94E50C0E94381A909379
:103830001202809311020895CF93DF9300D000D03D
:1038400000D0CDB7DEB786E0E5E1F2E0DE0111960B
:1038500001900D928A95E1F780911702811105C0C0
:1038600080911802882309F47AC080910F02909108
:1038700010020E94441AAC0190911302992339F06E
:1038800020910D0130E02417350758F068C02091D1
:103890000E018AE0289F900111242417350718F0A3
:1038A0005EC09F3F19F09F5F909313021092190220
:1038B00010921A0280911702181624F40E94A21A7C
:1038C000809317028091170287FF05C00E94A21AF9
:1038D00081958093170280911802181624F40E9493
:1038E000A21A809318028091180287FF05C00E94D7
:1038F000A21A819580931802309117023323E1F0C8
:10390000209118022223C1F045EB3403C001112499
:10391000992319F09093170203C081E08093170256
:1039200035EB2303C0011124992319F09093180259
:1039300003C081E0809318020E94111C8091110243
:10394000909112029093100280930F0286E0FE0184
:103950003196A5E1B2E001900D928A95E1F7809150
:103960001902811105C080911A02882309F47AC0D6
:1039700080910D0290910E020E94441AAC01909128
:103980001302992339F02091090130E024173507FB
:1039900058F068C020910A018AE0289F9001112404
:1039A0002417350718F05EC09F3F19F09F5F909372
:1039B0001302109217021092180280911902181621
:1039C00024F40E94EB1A809319028091190287FF58
:1039D00005C00E94EB1A81958093190280911A020A
:1039E000181624F40E94EB1A80931A0280911A028E
:1039F00087FF05C00E94EB1A819580931A023091CF
:103A000019023323E1F020911A022223C1F045EB81
:103A10003403C0011124992319F09093190203C0B3
:103A200081E08093190235EB2303C001112499230F
:103A300019F090931A0203C081E080931A020E9449
:103A4000111C809111029091120290930E028093AA
:103A50000D0286E0FE013196A5E1B2E001900D92E3
:103A60008A95E1F726960FB6F894DEBF0FBECDBF5C
:103A7000DF91CF910895E5E1F2E086E0DF011D924C
:103A80008A95E9F71092130210921402089580911A
:103A90003B020895CF93DF9300D01F92CDB7DEB7DE
:103AA00090916202943019F589837B836A8382E066
:103AB0008093E9008FEF9091E800815095FD06C05A
:103AC00095ED9A95F1F700008111F5CF8091E8000E
:103AD00085FF0DC040E050E063E070E0CE0101964C
:103AE0000E94A61F8091E8008E778093E8000F90D7
:103AF0000F900F90DF91CF910895CF93DF93EC015A
:103B00000E94891F823011F0843031F4BE0184E0BC
:103B1000DF91CF910C944A1DDF91CF910895BC01A4
:103B200083E00C944A1DCF93DF93EC010E94891F20
:103B3000823011F08430F9F482E08093E9008FEF55
:103B40009091E800815095FD06C095ED9A95F1F7AA
:103B500000008111F5CF8091E80085FF0CC040E0A6
:103B600050E066E070E0CE010E94A61F8091E80060
:103B70008E778093E800DF91CF910895CF93DF9304
:103B8000EC010E94891F823011F08430D9F58091B8
:103B90001901882339F080915C0287FF03C060E23D
:103BA00082E002C068E081E08093E9008FEF9091AD
:103BB000E800815095FD06C095ED9A95F1F700005B
:103BC0008111F5CF8091E80085FF1CC0809119011B
:103BD000811105C040E050E068E070E003C070E093
:103BE00040E050E0CE010E94A61F8091E8008E7751
:103BF0008093E80080E2FE01ABE1B2E001900D921B
:103C00008A95E1F7DF91CF9108958091610281114A
:103C100009C00E9437210E9494218091E2008460B3
:103C20008093E20008951092610208950895089526
:103C30000C94FC1942E061EC81E00E94B02042E269
:103C400061EC82E00C94B02080916402833009F42E
:103C500060C030F4813071F0823009F499C0089569
:103C60008A3009F485C08B3009F46BC0893009F0C3
:103C7000A7C020C080916302813A09F0A1C0809161
:103C8000E800877F8093E800809167029091680246
:103C9000892B21F460E28BE192E003C060E080E0D8
:103CA00090E070E00E94F11F8091E8008B77809394
:103CB000E800089580916302813209F081C080910B
:103CC000670290916802029708F07AC08091E8003C
:103CD000877F8093E8008091E80082FD05C0809195
:103CE00062028111F8CF6CC02091F3008091F20044
:103CF00090E0922B029729F48091F1008B7F813024
:103D000021F48091F10080933B028091E8008B7751
:103D100053C080916302813A09F052C080916702DA
:103D200090916802892B09F04BC08091E800877F51
:103D30008093E8008091E80080FFFCCF809119011A
:103D400036C0809163028132D9F5809167029091EB
:103D50006802892BA9F58091E800877F8093E800AD
:103D60000E94E52080916502809319010C94C8118E
:103D700080916302813221F58091E800877F8093F2
:103D8000E8000E94E5208091660280933C0208953D
:103D900080916302813AA1F48091E800877F80934B
:103DA000E8008091E80080FFFCCF80913C02809386
:103DB000F1008091E8008E778093E8000C94E52074
:103DC000089584B7877F84BF0FB6F894A895809133
:103DD0006000886180936000109260000FBE90E0E8
:103DE00080E80FB6F89480936100909361000FBE55
:103DF0000E942F0D0E9437210E9494218091E200A1
:103E000084608093E20078940E9429240E94390DF6
:103E10008FE091E00E94BA0C80916202853069F4D3
:103E20000E94C719809160028823B1F30E94AF19E4
:103E3000882391F30E94901FEFCF0E94450DECCF95
:103E40000C94221F292F332723303105C9F060F449
:103E50002130310581F02230310509F04AC08BE371
:103E600090E022E932E049C02132310511F12232DD
:103E7000310579F13EC082E190E02DEC32E03DC0A9
:103E800099278130910561F040F08230910559F019
:103E9000039779F5E4E6F2E008C0EEE8F2E005C049
:103EA000EEE7F2E002C0EAE6F2E0849190E09F01E2
:103EB00024C06115710541F061307105D1F489E0CC
:103EC00090E02DEB32E019C089E090E024EA32E086
:103ED00014C06115710541F06130710551F48CEB2E
:103EE00090E02FED32E009C080E490E02BE933E070
:103EF00004C080E090E020E030E0FA0131832083CC
:103F0000089580916202843011F081E0089582E08A
:103F1000089580913D02811102C00C94811F089583
:103F200080E189BD82E189BD09B400FEFDCF8091A9
:103F3000D8008F7D8093D8008091E00082608093CC
:103F4000E0008091E00081FDFCCF0895CF92DF92E8
:103F5000EF92FF920F931F93CF93DF93EC018B01AE
:103F60007A010E940421811133C0E114F10439F077
:103F7000F70180819181081B190BC80FD91FC12C33
:103F8000D12C0115110519F18091E80085FD16C0AD
:103F90008091E8008E778093E800E114F10449F005
:103FA000F70180819181C80ED91ED182C08285E03F
:103FB0000FC00E940421882321F30AC089918093B5
:103FC000F10001501109FFEFCF1ADF0ADACF80E0CC
:103FD000DF91CF911F910F91FF90EF90DF90CF90E5
:103FE00008952091690230916A022617370748F038
:103FF0006115710539F42091E8002E772093E800CF
:1040000001C0B901FC0120E06115710579F18091D1
:1040100062028823F1F18530F1F18091E80083FD9F
:104020003CC08091E80082FD2EC08091E80080FFB6
:10403000EBCF2091F3008091F20090E0922B61157C
:10404000710551F08830910538F421912093F100E9
:10405000615071090196F3CF21E0089709F020E043
:104060008091E8008E778093E800CECF2111CFCFEA
:104070000AC080916202882361F0853061F08091EE
:10408000E80083FD0AC08091E80082FFF2CF80E063
:10409000089582E0089583E0089581E008952091D5
:1040A000690230916A022617370748F061157105D9
:1040B00039F42091E8002E772093E80001C0B9017F
:1040C000FC0120E06115710591F180916202882365
:1040D00009F440C0853009F43FC08091E80083FDB9
:1040E0003DC08091E80082FD2FC08091E80080FFF4
:1040F000E9CF2091F3008091F20090E0922B6115BE
:10410000710559F08830910540F424912093F10015
:104110003196615071090196F2CF21E0089709F0BC
:1041200020E08091E8008E778093E800CBCF2111CA
:10413000CCCF0AC080916202882361F0853061F0A3
:104140008091E80083FD0AC08091E80082FFF2CFF1
:1041500080E0089582E0089583E0089581E0089565
:10416000982F973068F59093E900981739F070917F
:10417000EC002091ED005091F00003C0242F762F29
:1041800050E021FD02C09F5FECCF3091EB003E7FFD
:104190003093EB003091ED003D7F3093ED00309196
:1041A000EB0031603093EB007093EC002093ED0056
:1041B0005093F0002091EE0027FDE5CF80E00895B8
:1041C0008F708093E90081E008958091630287FFFA
:1041D00011C08091E80082FD05C0809162028111CA
:1041E000F8CF11C08091E8008B770BC080916202FC
:1041F000882349F08091E80080FFF8CF8091E800A3
:104200008E778093E80008952091E4003091E500D6
:1042100095E64091EC00842F817040FF23C080918F
:10422000E80080FD1DC080916202882399F08530EE
:1042300099F08091EB0085FD11C04091E400509110
:10424000E5002417350729F3915011F09A01E1CFC9
:1042500084E0089582E0089583E0089581E0089560
:1042600080E008954091E80042FFDDCF08950E946C
:10427000A5210E94AD21E0EEF0E080818160808385
:10428000E8EDF0E080818F77808319BCA7EDB0E086
:104290008C918E7F8C9380818F7E808310926102BF
:1042A00008950F931F93CF93DF930E94A5210E943F
:1042B000AD21C8EDD0E088818F77888388818068C0
:1042C000888388818F7D888319BC10926202109246
:1042D0005E021092600210925F0200EE10E0F801A0
:1042E00080818B7F808388818160888342E060E069
:1042F00080E00E94B020E1EEF0E080818E7F80833C
:10430000E2EEF0E08081816080838081886080833C
:10431000F80180818E7F8083888180618883DF912E
:10432000CF911F910F910895E8EDF0E080818F7E8D
:104330008083E7EDF0E080818160808384E082BF4C
:1043400081E0809361020C945121E8EDF0E08081DE
:104350008E7F80831092E20008951092DA0010920E
:10436000E10008951F920F920FB60F9211242F9320
:104370003F934F935F936F937F938F939F93AF93ED
:10438000BF93EF93FF938091E10082FF0BC0809178
:10439000E20082FF07C08091E1008B7F8093E10003
:1043A0000E9428248091DA0080FF1FC08091D800ED
:1043B00080FF1BC08091DA008E7F8093DA008091AD
:1043C000D90080FF0DC080E189BD82E189BD09B4BB
:1043D00000FEFDCF81E0809362020E94051E05C0B1
:1043E00019BC109262020E94131E8091E10080FFAE
:1043F00019C08091E20080FF15C08091E2008E7F9D
:104400008093E2008091E20080618093E2008091DD
:10441000D80080628093D80019BC85E08093620246
:104420000E94171E8091E10084FF30C08091E2005D
:1044300084FF2CC080E189BD82E189BD09B400FE02
:10444000FDCF8091D8008F7D8093D8008091E100CE
:104450008F7E8093E1008091E2008F7E8093E20066
:104460008091E20081608093E20080915E02882367
:1044700011F084E007C08091E30087FD02C081E075
:1044800001C083E0809362020E94181E8091E100C7
:1044900083FF29C08091E20083FF25C08091E10065
:1044A000877F8093E10082E08093620210925E0237
:1044B0008091E1008E7F8093E1008091E2008E7F09
:1044C0008093E2008091E20080618093E20042E00C
:1044D00060E080E00E94B0208091F00088608093CE
:1044E000F0000E94161EFF91EF91BF91AF919F9136
:1044F0008F917F916F915F914F913F912F910F908D
:104500000FBE0F901F9018951F920F920FB60F922B
:1045100011242F933F934F935F936F937F938F93C8
:104520009F93AF93BF93CF93DF93EF93FF93C0918C
:10453000E900CF708091EC00D82FD17080FDD0E8D9
:104540001092E9008091F000877F8093F0007894CA
:104550000E94C8221092E9008091F0008860809348
:10456000F000CD2BCF70C093E900FF91EF91DF9168
:10457000CF91BF91AF919F918F917F916F915F91FB
:104580004F913F912F910F900FBE0F901F90189554
:104590001F93CF93DF93CDB7DEB7AA970FB6F894EA
:1045A000DEBF0FBECDBFE3E6F2E08091F100819364
:1045B00022E0EB36F207C9F70E94241E8091E80042
:1045C00083FF2EC18091630290916402492F50E0D5
:1045D0004A30510508F024C1FA01E857FF4F0C9406
:1045E0009E24803821F0823809F01AC108C08091D9
:1045F0005F0290916002992389F082600FC08091E0
:1046000067028F70873008F00BC18093E9008091BA
:10461000EB0085FB882780F91092E9009091E80073
:10462000977F9093E8008093F1001092F100D1C041
:10463000282F2D7F09F0F4C0882319F0823061F013
:10464000EFC080916502813009F0EAC0933009F033
:1046500080E0809360022EC08091650281112AC0A3
:10466000809167028F702FEF280F263008F0D8C096
:104670008093E9002091EB0020FF1CC0933021F4CF
:104680008091EB00806214C09091EB009061909358
:10469000EB0021E030E0A90102C0440F551F8A95CC
:1046A000E2F74093EA001092EA008091EB00886004
:1046B0008093EB001092E9008091E800877F80935F
:1046C000E8000E94E520ACC08111AAC010916502EB
:1046D0001F778091E3008078812B8093E3008091A5
:1046E000E800877F8093E8000E94E5208091E80041
:1046F00080FFFCCF8091E30080688093E30011117C
:1047000002C082E001C083E08093620289C08058C9
:10471000823008F085C080916502909166028C3DE0
:1047200053E0950779F583E08A838AE289834FB75E
:10473000F894DE01139620E03EE051E2E32FF0E032
:1047400050935700E49120FF03C0E295EF703F5F64
:10475000EF708E2F90E0EA3010F0C79601C0C0963F
:104760008D939D932F5F243149F74FBF8091E800CF
:10477000877F8093E8006AE270E0CE0101960E9494
:10478000F11F16C06091670270916802AE014F5F21
:104790005F4F0E94201FBC01892B09F441C09091FA
:1047A000E800977F9093E80089819A810E944F20CA
:1047B0008091E8008B778093E80032C0803881F5E3
:1047C0008091E800877F8093E80080915E0280936B
:1047D000F1008091E8008E7772CF811121C0809125
:1047E00065029091660299270297D4F48091E800BF
:1047F000877F8093E8008091650280935E020E942B
:10480000E52080915E02811106C08091E30087FD62
:1048100002C081E001C084E0809362020E941A1EFF
:104820008091E80083FF0AC08091E800877F809331
:10483000E8008091EB0080628093EB00AA960FB6AF
:10484000F894DEBF0FBECDBFDF91CF911F910895C9
:104850000895CF93809162028823A1F0C091E9006E
:10486000CF709091EC00892F817090FD80E8C82B6B
:104870001092E9008091E80083FD0E94C822CF7069
:10488000C093E900CF910895DB018F939F930E941D
:10489000B324BF91AF91A29F800D911DA39F900D56
:1048A000B29F900D11240895AA1BBB1B51E107C0B4
:1048B000AA1FBB1FA617B70710F0A61BB70B881FB0
:1048C000991F5A95A9F780959095BC01CD0108953F
:1048D00097FB072E16F4009407D077FD09D00E94AD
:1048E000542407FC05D03EF4909581959F4F089580
:1048F000709561957F4F0895A1E21A2EAA1BBB1BEC
:10490000FD010DC0AA1FBB1FEE1FFF1FA217B3079B
:10491000E407F50720F0A21BB30BE40BF50B661FB1
:10492000771F881F991F1A9469F760957095809575
:1049300090959B01AC01BD01CF010895EE0FFF1FC3
:104940000590F491E02D0994A29FB001B39FC0019E
:10495000A39F700D811D1124911DB29F700D811DAB
:104960001124911D08950E94A424A59F900DB49F29
:10497000900DA49F800D911D11240895F999FECFEB
:1049800092BD81BDF89A992780B50895A6E1B0E05F
:1049900044E050E00C94F824A8E1B0E042E050E09C
:1049A0000C94F824262FF999FECF92BD81BDF89A78
:1049B000019700B4021639F01FBA20BD0FB6F89463
:1049C000FA9AF99A0FBE08950396272F0E94D324CE
:1049D0000E94D224252F0E94D324242F0C94D32468
:1049E0000196272F0E94D3240C94D224DC01CB0102
:1049F000FC01F999FECF06C0F2BDE1BDF89A3196EF
:104A000000B40D9241505040B8F70895F894FFCF8C
:104A10000004000404E8012808641E140A321E473A
:104A20001DBE1D931D8F1D7D1D01E200E900EA00E2
:104A3000B500B600B700CD008301CC008A01920119
:104A400094012102230224022502260227022A02BF
:104A5000B300B4006F0070008182839294F6F597E2
:104A6000C633320001E200E900EA00B500B600B743
:104A700000CD008301CC008A019201940121022320
:104A80000224022502260227022A02B300B4006F84
:064A90000070008182832A
:00000001FF
