:100000000C9475020C94060A0C94BC020C94BC026D
:100010000C94BC020C94BC020C94BC020C94BC0268
:100020000C94BC020C94BC020C9438210C940A224F
:100030000C9492170C94BC020C94BC020C94BC025D
:100040000C94BC020C94BC020C94BC020C94BC0238
:100050000C94BC020C94DF170C94BC020C94BC02F0
:100060000C94BC020C94BC020C94BC020C94BC0218
:100070000C94BC020C94BC020C94BC020C94BC0208
:100080000C94BC020C94BC020C94BC020C94BC02F8
:100090000C94BC020C94BC020C94BC020C94BC02E8
:1000A0000C94BC020C94BC020C94BC02500D500D7C
:1000B000820D820DCF0DED0D450F450F2F0EC40E95
:1000C000D50ED50E350F450F450F3E0FDA0FDA0F5F
:1000D000EC0FEC0FE30FEC0FEC0FEC0FDA0FDA0F75
:1000E000E80FEC0FEC0FE80F77229E2296239E225A
:1000F0009623EA220D239623642373230100140020
:100100001A0008001500170001000400160007007F
:1001100009000A0001001D001B000600190005006F
:10012000065101000100010001000100010013005F
:1001300012000C0018001C00340033000F000E00E9
:100140000D000B00010038003700360010001100D0
:100150000100010001000100010001000100340064
:100160003600370013001C000100040012000800D4
:1001700018000C000100330014000D000E001B00DD
:1001800006510100010001000100010001000F0003
:10019000150006000A0009003800160011001700BB
:1001A0000B00070001001D0019001A0010000500D7
:1001B0000100010001000100010001002B0001000D
:1001C00001000100010001002900010001000100FF
:1001D00001000100E1000100010001000100010037
:1001E0000651E000E208E2000551E3002A000100A8
:1001F00001000100010001000100010001000100F7
:1002000001000100D95C01000100010001000100B2
:100210004F0052005100500004512C002B000100EF
:10022000010001000100010029000100010001009E
:1002300001000100E10001000100010001000100D6
:100240000651E300E101E2000551E0002A0001004F
:100250000100010001000100010001000100010096
:1002600001000100D95C0100010001000100010052
:100270004F0052005100500004512C0035001E0068
:100280001F002000210022004C003A003B003C00EF
:100290003D003E0001004000410042004300440098
:1002A0000100010001000100010001000100270020
:1002B0002600250024002300010030002F002E001E
:1002C0002D003F0001003100010001003500450014
:1002D0004D004B004E004A000100010035021E0295
:1002E0001F022002210222024C0001000100010035
:1002F00001000100010001000100010001000100F6
:1003000001000100010001000100010001002702BD
:100310002602250224022302010030022F022E02AF
:100320002D0201000100310201000100350201002F
:100330004D004B004E004A00010001000100010089
:100340000100010001000100005C0100010001004A
:10035000010001003900010001000100010001005D
:100360000100010001000100010001004C0001003A
:10037000010001000100010001000352025211506E
:100380001050010001000100010001000100010006
:10039000AB00A900AA00AC000100AE0004033000CD
:1003A00000001C034C006500740073002000530023
:1003B00070006C00690074002000760032000000BC
:1003C000160357006F006F00740070006100740026
:1003D0006F006F00740000000403090409023B0071
:1003E000020100A0FA090400000103010100092133
:1003F000110100012240000705810308000A0904D9
:100400000100010300000009211101000122810007
:100410000705820320000A1201100100000008ED08
:10042000FE603001000102030105010902A10185FE
:10043000020901A1000509190129051500250195E9
:1004400005750181029501750381010501093009D6
:10045000311581257F95027508810609381581259A
:100460007F950175088106050C0A38021581257FE4
:10047000950175088106C0C005010980A1018503A9
:1004800019012AB700150126B700950175108100E2
:10049000C0050C0901A101850419012AA00215015A
:1004A00026A002950175108100C005010906A10171
:1004B000050719E029E71500250195087501810256
:1004C0009501750881010507190029FF150026FF10
:1004D000009506750881000508190129059505751F
:1004E000019102950175039101C011241FBECFEF48
:1004F000DAE0DEBFCDBF04B603FE27C080916702FD
:1005000090916802A0916902B0916A028730904B85
:10051000A740B04BD1F4109267021092680210927B
:10052000690210926A0214BE84B7877F84BF0FB637
:10053000F894A89580916000886180936000109283
:1005400060000FBEE0E0F8E3099511E0A0E0B1E043
:10055000E8E7F8E402C005900D92A839B107D9F791
:1005600022E0A8E9B1E001C01D92A736B207E1F789
:100570000E94671E0C943A240C9400000C9495057C
:1005800081E0089581E008950C94C20208950C94CE
:10059000C6021F93CF93DF9300D000D01F92CDB738
:1005A000DEB749835A836B833091B70189819A8181
:1005B000311114C0662359F0222349F00E94151509
:1005C000182F682F89819A810E94BC1403C00E9451
:1005D000E814182F69817A81812F04C00E941515B3
:1005E00069817A810F900F900F900F900F90DF919B
:1005F000CF911F910C947B03FC01262F40815181E8
:100600006281738184810C94C902CF93DF93EC01E2
:1006100060E00E94FC02BE01DF91CF910C94C70202
:100620000E944716811102C00E94E7160C94BE0278
:100630000C94930508950C941A0381E008950C948A
:100640001D03CF93C82F0E941B038C2F0E941F03F2
:10065000CF91089508950E94C80F0E942A032FEF9A
:1006600084E39CE0215080409040E1F700C000000E
:100670000C9405180F931F93CF93DF93EC0161E067
:100680000E94FC028C01BE010E94C402882349F131
:10069000BE01C8010E94C007882319F1BE01C8012C
:1006A0000E9401088823E9F0BE01C8010E942C09BC
:1006B0008823B9F08A81882369F001158CE5180731
:1006C00031F00E3D1C4531F40E94E7160AC00E942D
:1006D0002B0307C0CE01DF91CF911F910F910C9496
:1006E000C00280E0DF91CF911F910F91089580E0CB
:1006F00090E00895089520E3829FC0011124FC0139
:1007000026E0729FE00DF11D1124E60FF11DEE0FA2
:10071000FF1FE450FF4F859194910895880F991F12
:10072000FC01E456FC4F859194910895CF93DF939B
:100730000E947B030E94AE04EC018115904508F0F5
:1007400041C0C11580E4D80708F0D1C0C83ED1052A
:1007500010F5C03ED10508F0FDC0C83AD10578F4C7
:10076000C53AD10508F0A2C0C130D10509F4F2C0E4
:1007700008F4EEC0C430D10508F0ECC0E9C0CF3BAE
:10078000D10508F49BC0C03CD10508F4E1C0CE01FE
:10079000805C91099EC0C11590E2D90758F4C1153B
:1007A00021E0D20708F0D6C0C03FD10508F4D0C080
:1007B000D065D0C0C11580E3D80708F08EC0CE0147
:1007C0009F7087C0C11595E5D90708F043C0C115D2
:1007D00024E5D20708F0A2C0C11582E5D80708F5C4
:1007E000C11591E5D90708F085C0CE0174E0969552
:1007F00087957A95E1F783709C2F937021E030E024
:1008000002C0220F331F9A95E2F73C68382BCF7055
:10081000C695C69580E2C89FE0011124C22BD32B58
:1008200099C09E01237033278C2F86958695C1151C
:10083000D34508F064C0C1E0D0E002C0CC0FDD1F9A
:100840002A95E2F720E2829FC0011124C82BD92B00
:10085000DC6880C0C11529E5D207A0F4C11588E580
:10086000D80708F060C0C11596E5D90708F070C038
:100870008C2F0E9442058F71C82FD0E0DC2FCC272F
:10088000D06268C0C1152AE5D20708F451C0CE0174
:1008900090568115904208F05BC08D2F8F710E9499
:1008A0004205DD27D0628F71D82B54C0C55AD0E0E5
:1008B000C45BDE4FC881D0E0D0644CC0C85AD0E0E1
:1008C000CC0FDD1FC25EDE4F0990D881C02DD464ED
:1008D00041C00E948E03EC013DC0CE019927D3FF99
:1008E00003C0EC01D86C36C0EC01D06C33C0DF70B3
:1008F000D06A30C0DC2FCC27C16FD06A2BC0C1E0DA
:10090000D0E002C0CC0FDD1F2A95E2F720E2829FE3
:10091000C0011124C82BD92BDA681CC0DC2FCC27CE
:10092000C46FD06A17C0DC2FCC27C06FD06A12C04A
:100930008C2F8F700E94420594E0D695C7959A95AA
:10094000E1F7CF70D0E0DC2FCC27D069C82B02C0F4
:10095000C0E0D0E0CE01DF91CF91089582389105BB
:1009600069F1B0F48133910509F46DC048F489321E
:10097000910509F463C08A32910509F469C00895AC
:100980008533910509F455C089339105B9F008956F
:10099000833E910569F138F4803E9105B1F0823EC5
:1009A000910509F10895863E9105A9F1873E9105CB
:1009B000B9F1843E910509F064C023C0209158022A
:1009C00020FD4FC021FD4DC008958091580280FD4B
:1009D00044C08091590280FF44C08091580284FD38
:1009E00042C083EE4DC08091580282FF38C0F5CFDF
:1009F0008091580282FD33C08091590280FD31C040
:100A0000ECCF8091590281FF32C08091580284FD61
:100A10002AC087EE35C08091580283FF26C0F5CFEB
:100A20008091580283FD21C08091590281FD1FC031
:100A3000ECCF8091580285FD1CC01DC080915802EA
:100A400085FD19C016C08091580286FD16C017C0DA
:100A50008091580286FD13C010C089E311C082EE58
:100A60000FC080EE0DC080E00BC086EE09C084EEA2
:100A700007C089E205C085E303C08AE201C081E3C3
:100A800090E008959091580292FF0DC0282F287190
:100A9000283019F4877F846006C0282F2471243001
:100AA00011F48B7F886093FF0DC0282F28712831A7
:100AB00019F4877E846106C0282F2471243111F433
:100AC0008B7E88612091590220FF0DC0382F38712C
:100AD000383019F4877F816006C0382F317131308A
:100AE00011F48E7F886021FF0DC0282F28712831D6
:100AF00019F4877E816106C0282F2171213111F4FC
:100B00008E7E886194FD877E0895E82FF0E0E85B93
:100B1000FD4F80810895089580EA8A95F1F7089540
:100B200008950C9490050C9491050C9490050895EB
:100B3000CF93DF930E94050780910001809100010F
:100B4000811102C094E001C090E09093510284E0D2
:100B5000891B80935002A5E5B1E049E551E061E0D1
:100B600070E08D91E82FE295EF70F0E021A18F7099
:100B7000EB0102C0CC0FDD1F8A95E2F7CE019C2F5E
:100B80009095922391A392A1892B82A34A175B0788
:100B900041F7AFE4B1E045E551E061E070E08D91EF
:100BA000E82FE295EF70F0E021A18F70EB0102C019
:100BB000CC0FDD1F8A95E2F7CE019C2F90959223F2
:100BC00091A392A1892B82A34A175B0741F7E0E426
:100BD000F2E0A8E4B2E088E492E011921D928E1750
:100BE0009F07D9F784E00E94AF060E941003DF91AF
:100BF000CF910C940F070E94E6068823F1F08091B4
:100C0000500290E0885B9D4F0E942207811111C025
:100C1000809198018F5F80939801863060F0E09119
:100C20005002F0E0E85BFD4F1082118212821382C5
:100C300002C0109298010C9418038091510290E028
:100C4000885B9D4F0E943D070C9497056F927F92A1
:100C50008F929F92AF92BF92CF92DF92EF92FF92CC
:100C60000F931F93CF93DF9385E5882E81E0982E15
:100C700000E412E094E4A92E92E0B92E712CCC2469
:100C8000C394D12CF40181914F01C82FC295CF702C
:100C9000D0E099A18F70760101C0EE0C8A95EAF739
:100CA000892F8E2989A38AA16E2C609486218AA31C
:100CB0000E948C05EFE4F1E040E050E020E031914B
:100CC000A32FA295AF70B0E090968C9190E03F700A
:100CD00002C0959587953A95E2F780FD07C08C2D67
:100CE000042E01C0880F0A94EAF701C080E0282B87
:100CF0004F5F5F4F4630510511F789A1682269A205
:100D00008AA1E82AEAA2F8018081281719F0208335
:100D100081E001C080E0782A0F5F1F4FA016B10666
:100D200009F0B0CF6091510270E0685B7D4F272DD4
:100D300044E080E492E00E94B0060E94FB05872D0B
:100D4000DF91CF911F910F91FF90EF90DF90CF90A7
:100D5000BF90AF909F908F907F906F90089508956F
:100D6000FF920F931F93CF93DF938C01F62ED72F13
:100D7000C42F222349F081E080939B010E94C41775
:100D800090939A018093990180919B018823C1F0EF
:100D90008091990190919A010E94D017069780F056
:100DA000EF2DFD2FD8014C2F50E0CD01801B910B72
:100DB000841795071CF48D918193F7CF10929B01B6
:100DC000DF91CF911F910F91FF90089580919C0129
:100DD000811112C08091D80080618093D8008AE18F
:100DE0008A95F1F700C08091D90080FD02C082E0B1
:100DF00001C081E080939C0181E090919C01913041
:100E000009F080E008950C94E6060E9403078093A1
:100E100000010E94E60681110C94160708950E94B5
:100E2000E606811102C00C941C07089561E070E091
:100E300081E091E00C94B80961E070E081E091E01C
:100E40000C94BF09CF93DF93D82FC92F0E94570A64
:100E5000892B79F4ED2FFC2F80E090E0DC01A25685
:100E6000BE4F2C912193019684309105B9F781E012
:100E700001C080E0DF91CF91089520E030E0FC01D7
:100E80004191CF01F901E256FE4F40832F5F3F4F62
:100E900024303105A1F708950F931F93CF93DF936B
:100EA000C62FD42F122FFC0182818823C9F06093B2
:100EB000A4010E94C4179093A3018093A20180E231
:100EC0008C0F883008F057C0C77081E001C0880FD0
:100ED000CA95EAF7DF91CF911F910F910C94100DF5
:100EE0008091A401681330C08091A2019091A30168
:100EF0000E94D017883C910538F500E20D0FCD1700
:100F0000B9F080E28C0F883040F4C77081E001C0F6
:100F1000880FCA95EAF70E94170D083028F581E07E
:100F20009D2F977001C0880F9A95EAF70E94100DC7
:100F3000812F0E94FD0C0830F0F4D77081E001C0D1
:100F4000880FDA95EAF70AC080E28C0F883098F4AF
:100F5000C77081E001C0880FCA95EAF7DF91CF9191
:100F60001F910F910C94170D812FDF91CF911F913D
:100F70000F910C94FD0CDF91CF911F910F9108956B
:100F80009C01CB01233F4CE53407F9F078F4283D70
:100F9000FCE53F07B9F0293D4CE5340711F1273D49
:100FA0003C4531F526E241EE61EE1EC0253FFCE5F1
:100FB0003F0799F070F0263F3C45D1F427E245EE1B
:100FC00066EE12C027E245EE0EC026E241EE60EE6C
:100FD0000BC027E245EE64EE07C026E241EE62EE6A
:100FE00003C028E241E065EE0E944C0780E00895CE
:100FF000FC018281882319F01092A401089581E0F8
:101000000895CF93DF93EC01FB018281882309F4DB
:101010001FC1C230FCE5DF0708F41BC1C6319CE5E7
:10102000D90738F09E012A5F3C452930310508F088
:1010300010C10E945A169093590280935802C031F1
:10104000ECE5DE0709F4C3C008F041C0C8308CE508
:10105000D80709F49AC0F0F4C430ECE5DE0709F4CF
:1010600087C068F4C2308CE5D80709F477C0C33074
:10107000DC4509F0E3C080915802826076C0C6303A
:10108000ECE5DE0709F46EC008F07BC080915802E1
:1010900088606BC0CC308CE5D80709F485C068F453
:1010A000CA30ECE5DE0709F474C008F079C00E948C
:1010B000C80F80915802806858C0CE308CE5D807A0
:1010C00009F476C008F07FC0809158028BC0CB3FF6
:1010D000ECE5DE0709F44FC018F5C3318CE5D807FD
:1010E00009F47DC078F4C131ECE5DE0709F473C082
:1010F000C231DC4509F0A2C00E94C80F809158029D
:101100008F7733C0C5318CE5D80709F472C008F475
:1011100086C0CA3FDC4509F091C0809159023EC0AB
:10112000CF3FFCE5DF0709F45FC058F4CD3F9CE5F5
:10113000D90709F444C008F43FC080915902826085
:101140002DC0C130FDE5DF0709F475C008F45DC0AE
:10115000C230DD4509F072C080E06EC08091580257
:10116000816003C08091580280618093580266C0FC
:101170008091580211C08091590282608093590277
:101180005DC0809158028062F0CF809158028064E7
:10119000ECCF8091580288608460E7CF8160EECF09
:1011A000809158028E7FE1CF809158028D7FDDCFF4
:1011B00080915802877FD9CF8091590218C08091C1
:1011C00059028D7FDBCF809158028F7ECECF8091E8
:1011D00058028F7DCACF809158028F7BC6CF8091F5
:1011E0005802877F8B7FC1CF809159028D7F8E7F80
:1011F000C5CF8091580282FB222720F991E09227E7
:1012000090FB82F990FB83F9B0CF80915902982F1F
:10121000909591708E7F892B90FB81F9AFCF0E94C2
:10122000C80F8091580287FB222720F991E092276E
:1012300090FB87F99ACF81E00E94E91680915802CD
:10124000909159020E946B160E94C80F80E001C065
:1012500081E0DF91CF910895CF93DF9386319C4554
:1012600041F5EB010E949615982F8A812091090182
:1012700030910A01882379F09A7A81E009F480E0BC
:101280008093A501911102C069E201C065E3C90123
:101290000E9430170AC08091A501811102C069E245
:1012A00001C065E3C9010E9432170E94E41580E085
:1012B00001C081E0DF91CF9108958EE1489B02C08B
:1012C0008150E1F7489BFECF0895589880E28A95B7
:1012D000F1F7589A0895FC012AE02A95F1F728E0E1
:1012E00090E080E031E040E14A95F1F7880F489BBB
:1012F00002C08160932700C0000040E14A95F1F7E9
:10130000215089F720E12A95F1F729B100C00000AA
:1013100030E13A95F1F7217092272081920F908366
:101320000895EF92FF920F931F93CF93DF931F9235
:10133000CDB7DEB719828C017C01E60EF11C0E15CB
:101340001F0551F00E945D09CE0101960E946B09B4
:10135000F80181938F01F3CF81E09981911180E0B1
:101360000F90DF91CF911F910F91FF90EF90089513
:101370009093A7018093A601509A589A089590934C
:10138000A7018093A6015098589AE89AE9E6F0E000
:1013900080818C7F80830895615091E001C0990F16
:1013A0006A95EAF720E031E0992361F0492F48235C
:1013B00019F0589A232701C0589840E24A95F1F74E
:1013C0009695F2CF222311F0589A01C0589880E2E6
:1013D0008A95F1F758980895FF920F931F93CF9332
:1013E000DF93EC018C01060F111DC017D10741F0EE
:1013F000F9900E94650968E08F2D0E94CC09F5CF15
:10140000DF91CF911F910F91FF9008951F920F923E
:101410000FB60F9211242F933F934F935F936F93C7
:101420007F938F939F93AF93BF93CF93DF93EF936C
:10143000FF935898509AC091A601D091A7016D8151
:10144000662321F08E819F810E94EC090E9465092C
:1014500080E18A95F1F758985098589A80E18A95DA
:10146000F1F76A81662351F08B819C810E9491097A
:10147000E881F981811104C082E003C0E881F9812B
:1014800088E080830E945D09FF91EF91DF91CF9109
:10149000BF91AF919F918F917F916F915F914F918C
:1014A0003F912F910F900FBE0F901F901895CF93E3
:1014B000DF93C091A601D091A701F894509A589853
:1014C00085E08A95F1F700005098589A80E28A9555
:1014D000F1F7489B0AC0509A589AE881F98181E057
:1014E0008083789481E090E02CC06D81662381F048
:1014F0008E819F810E94910981110AC0509A589A49
:10150000E881F98182E08083789482E090E019C0DC
:101510000E945D0980E28A95F1F75898509A80E11F
:101520008A95F1F76A81662321F08B819C810E9464
:10153000EC090E946509E881F9811082789480E0C5
:1015400090E0DF91CF9108959093AD018093AC012D
:101550000895E091AC01F091AD01309721F0019038
:10156000F081E02D099480E00895E091AC01F091C4
:10157000AD01309721F00280F381E02D09940895A8
:10158000E091AC01F091AD01309739F022E0DC013F
:101590002C930480F581E02D099408952091AA01EF
:1015A0003091AB012817390771F09093AB0180930C
:1015B000AA01E091AC01F091AD01309721F00680D5
:1015C000F781E02D099408952091A8013091A90197
:1015D0002817390771F09093A9018093A801E09131
:1015E000AC01F091AD01309721F00084F185E02D40
:1015F0000994089585B7806885BF85B7806885BFE1
:10160000089508950C94010B0C94020B0C94010B9B
:101610000C94010B0E94FA0A0E94060B0C94040B16
:101620000C94E6060E94BB170E9498050E941618AB
:101630000C94080BAF92BF92CF92DF92EF92FF9281
:101640000F931F93CF93DF93CDB7DEB72A970FB6D3
:10165000F894DEBF0FBECDBF0E9426060E94100B7D
:10166000811111C08FEF89838A831B820E94C41766
:101670008160782F9D838C8349815A816B818D8114
:101680000E94B20B40C08FEAA82E81E0B82E00E085
:1016900010E0C02E802F0E948505E82EF501D19024
:1016A0005F01D82631F40F5F1F4F0830110589F70D
:1016B000D9CF8091230281FD0E948B0580E0FF2419
:1016C000F3949D2D9F21D1F08E83CF82EF2081E076
:1016D00009F480E088870E94C4178160782F9A8778
:1016E00089874E815F8168858A850E94B20BF801E7
:1016F000E155FE4F8081F826F08205C08F5FFF0C18
:101700008630F9F6D0CF0E94A8190E94A90A9091BC
:10171000AE018917B1F00E94A90A8093AE012A9602
:101720000FB6F894DEBF0FBECDBFDF91CF911F91F2
:101730000F91FF90EF90DF90CF90BF90AF900C94FF
:1017400021032A960FB6F894DEBF0FBECDBFDF91FE
:10175000CF911F910F91FF90EF90DF90CF90BF90AE
:10176000AF900895CF93DF93CDB7DEB72B970FB629
:10177000F894DEBF0FBECDBF4F83588769877A8745
:101780008B87DE01119686E0FD0111928A95E9F7BB
:1017900085E0FE01379601900D928A95E1F7498127
:1017A0005A816B817C818D819E810E9481122B9652
:1017B0000FB6F894DEBF0FBECDBFDF91CF91089575
:1017C000FC01808191810E9457150895CF93882351
:1017D00009F4A9C0C82F8238C1F40E94A90A81FD6A
:1017E000A2C069E38091090190910A010E9430171B
:1017F0000E94E4152FEF81EE94E02150804090404C
:10180000E1F700C0000069E319C0833801F50E94C8
:10181000A90A80FD88C063E58091090190910A01C1
:101820000E9430170E94E4152FEF81EE94E02150C2
:1018300080409040E1F700C0000063E5809109011D
:1018400090910A010E943217CF910C94E4158438CC
:10185000C1F40E94A90A82FD66C067E48091090173
:1018600090910A010E9430170E94E4152FEF81EE3B
:1018700094E0215080409040E1F700C0000067E410
:10188000DDCF8CEF8C0F813AF8F48C2F0E94501C26
:10189000811149C06C2F8091090190910A010E9429
:1018A000FA16882349F06C2F8091090190910A0162
:1018B0000E9432170E94E4156C2F809109019091CB
:1018C0000A010E943017C0CF80E28C0F883048F4A4
:1018D000C77081E001C0880FCA95EAF70E94991588
:1018E000B3CFEBE5EC0FE33040F4F0E0E557FE4F0B
:1018F000808190E0CF910C94CE0AE8E5EC0FE731BF
:1019000050F4F0E0EE0FFF1FE35AFE4F808191810B
:10191000CF910C94E40AC03F30F08C2F0E94B01895
:10192000CF910C949D19CF910895882309F464C038
:10193000823879F40E94A90A81FF5EC069E3809130
:10194000090190910A010E9430170E94E41569E391
:1019500010C08338B1F40E94A90A80FF4DC063E52E
:101960008091090190910A010E9430170E94E415AC
:1019700063E58091090190910A010E9432170C944D
:10198000E415843879F40E94A90A82FF35C067E41F
:101990008091090190910A010E9430170E94E4157C
:1019A00067E4E7CF9CEF980F913A10F4682FE1CFEE
:1019B00090E2980F983050F4877091E001C0990F31
:1019C0008A95EAF7892F0E949F15D9CF9BE5980F3A
:1019D000933020F480E090E00C94CE0A98E5980FC4
:1019E000973120F480E090E00C94E40A803F20F0EE
:1019F0000E9418190C949D190895CF93C82F0E9426
:101A0000E60BC93349F42FEF87EE93E02150804075
:101A10009040E1F700C000008C2FCF910C94950C02
:101A2000882321F00E9499150C94E41508958823C9
:101A300021F00E949F150C94E4150895CF92DF9237
:101A4000EF92FF920F931F93CF93DF937C01062FAA
:101A5000C72FFC01158112951F70D281D1110E94F0
:101A6000B6150E948F15882379F0DD2369F080E296
:101A7000800F883048F082E00E942E160E948F1559
:101A800091E0D82ED92601C0D12CCC2EC2948FE063
:101A9000C8228C2D90E0FC01EA5AFF4F0C94DE2303
:101AA0008C2F807FCF70882311F0C295C07FDD23FB
:101AB00099F0CC2309F4C4C180E2800F883010F083
:101AC000011104C08C2F0E94991503C08C2F0E9415
:101AD000A9150E94E415B4C1802F0E94950CCC2357
:101AE00009F4D3C180E2800F883010F0011104C0E6
:101AF0008C2F0E949F1503C08C2F0E94AF150E944F
:101B0000E415C3C18C2F807FCF70803211F0C29555
:101B1000C07F002319F00130C9F022C0DD2371F02D
:101B2000112341F0113031F40E94C9158C2B0E9411
:101B3000D115ABC10E94C9158C2B1DC0112319F002
:101B4000113009F4A2C10E94DA1525C0DD2321F06D
:101B5000163008F09AC10EC0153008F096C11BC0AF
:101B6000DD2361F0112331F0F701858180FF68C129
:101B70008F7085838C2F0E94100D87C1112359F01F
:101B8000093309F06EC1FFEF27EE83E0F1502040EA
:101B90008040E1F764C18C2F0E94170D76C18C2F15
:101BA00086958695837019F0813061F06EC1DD23D2
:101BB00021F0802F9C2F937002C080E090E00E9463
:101BC000CE0A6BC1DD2321F0802F9C2F937002C0C1
:101BD00080E090E00E94E40A60C1DD23F9F0053F57
:101BE00051F0063F71F0043FA9F4809152029091A8
:101BF000530281600BC08091520290915302826027
:101C000005C08091520290915302846090935302D8
:101C100080935202802F0E94B0181EC0053F51F0E1
:101C2000063F71F0043FA9F4809152029091530253
:101C30008E7F0BC080915202909153028D7F05C020
:101C400080915202909153028B7F90935302809324
:101C50005202802F0E9418190E949D191EC18C2FBC
:101C6000837009F045C0D11114C1402F42954695AB
:101C70004770440F440F602F6F70862F90E0A0E0F4
:101C8000B0E0042E04C0880F991FAA1FBB1F0A943E
:101C9000D2F704FF10C00FE010E020E030E004C0F5
:101CA000000F111F221F331F4A95D2F70095109580
:101CB0002095309503C000E010E09801C695C695C8
:101CC000C370BC01CD01602B712B822B932BC230D2
:101CD00049F058F4C13019F00E94D213DAC00E94C2
:101CE000C013D7C00E94E413D4C00E94BE13D1C059
:101CF000DD2319F08C2F817001C08695882309F4AB
:101D0000C8C0402F429546954770440F440F602F3E
:101D10006F70862F90E0A0E0B0E0042E04C0880F22
:101D2000991FAA1FBB1F0A94D2F704FF10C00FE02F
:101D300010E020E030E004C0000F111F221F331F0D
:101D40004A95D2F7009510952095309503C000E094
:101D500010E09801C695C695C370BC01CD01602BFB
:101D6000712B822B932BC23049F058F4C13019F0FB
:101D70000E9497148EC00E9485148BC00E94A914E3
:101D800088C00E94F81385C0CF70DD2339F08C2FF6
:101D90000E941E14802F0E94100D7BC0802F0E9475
:101DA000170D8C2F0E943F1474C0023F01F128F4DC
:101DB000003F41F0013FA1F03FC0033FF9F0043F75
:101DC00039F13AC0DD2341F0153008F05EC08C2FA8
:101DD0008F710E94641459C0163008F056C0F7CFB6
:101DE000DD2339F08C2F8F710E941E144EC0DD232D
:101DF000C9F38C2F8F710E943F1447C0DD2329F057
:101E00008C2F8F710E94091440C00E9404143DC0A1
:101E1000DD2349F0CF718C2F0E941E1463E08C2FBC
:101E20000E94191632C081E00E942E16123068F10D
:101E300082E00E942E1629C0DD2331F0112391F299
:101E4000802F0E94E60B21C0112399F2093349F437
:101E50009FEFE7EEF3E09150E040F040E1F700C083
:101E60000000802F0E94950C10C04C2F4F70602FE7
:101E7000C7010E9477030E942F130FC04C2F4F7091
:101E8000602FC7010E947A0308C088EF8C0D843050
:101E900020F40E94A90A0E942103DD20C9F00E94BB
:101EA0008B1580FD15C0F70112820E9485150E94D6
:101EB0001E14C7010E94890F0E948515DF91CF91E2
:101EC0001F910F91FF90EF90DF90CF900C943F14F3
:101ED000DF91CF911F910F91FF90EF90DF90CF9006
:101EE00008950F931F93CF93DF93EC01688179815D
:101EF0008A810E9462158C010E94BB140E94AC135F
:101F0000B801CE010E941E0DDF91CF911F910F915C
:101F10000895CF93DF93FC019081818123813481E7
:101F2000232B31F08F3F31F481E09F3F19F403C040
:101F300081E001C080E080FD0EC0EF01CF010E9472
:101F40003A03882341F0CE010E94710FCE01DF9148
:101F5000CF910C940503DF91CF9108950E94B6159F
:101F60000E94C6150E94E4150E94C71A0E949D197E
:101F700080E090E00E94CE0A80E090E00C94E40AB9
:101F80008091090190910A010E9434170C94AE0FC0
:101F90000E94A6150C94C00FE92FE295EF704E2F0A
:101FA00050E0FA013297EE30F105B0F4EA59FF4FF4
:101FB0000C94DE23803F91F018F4883E68F40EC044
:101FC000843F51F40BC0883E48F0813F29F406C09D
:101FD00093FB882780F9089580E0089581E00895B3
:101FE0000E9457150E94CC0F0895CF93DF9300D025
:101FF00000D01F92CDB7DEB70F900F900F900F90CB
:102000000F90DF91CF910895CF93DF9300D000D050
:1020100000D0CDB7DEB726960FB6F894DEBF0FBE60
:10202000CDBFDF91CF9108951F93CF93DF93C091E0
:10203000B80116E08091B901C81799F0D0E01C9F53
:10204000F0011D9FF00D1124E654FE4F4081518197
:1020500062817381848195810E9404102196C770EA
:10206000E9CFDF91CF911F9108954091EA015091FE
:10207000EB016091EC017091ED018091EE01909186
:10208000EF010C9404100F931F93CF93DF93809173
:10209000EF0182958F7009F05DC08091EC0188237B
:1020A00009F458C08091B8011091B9016091EA011A
:1020B0007091EB01C091ED01D091EE0191E06F3F85
:1020C00009F090E0292F06E0811709F443C020971A
:1020D00021F07F3F21F030E003C031E001C0322F1A
:1020E00090E030FD34C0089FF001099FF00D1124ED
:1020F000DF01A654BE4F11963C911197371327C0AC
:102100003C91361324C012963C91129731111FC096
:1021100013964D915C9114974C1B5D0B483C5105F7
:10212000B0F48091EF018F7080618093EF01E154F2
:10213000FE4F80818F70806180838AEE91E00E94E3
:10214000890FDF91CF911F910F910C94141001967C
:102150008770BACFDF91CF911F910F9108959F9211
:10216000AF92BF92CF92DF92EF92FF920F931F93A5
:10217000CF93DF93CDB7DEB761970FB6F894DEBF8C
:102180000FBECDBF8C0185E0F801DE011D960190E8
:102190000D928A95E1F7F80140815181E28090919A
:1021A000EA016091EB012091ED013091EE012115E2
:1021B000310531F06F3F31F481E09F3F19F403C0E6
:1021C00081E001C080E0F82FF1709F2E80FD46C1B4
:1021D000F801A380B4808AEEC82E81E0D82EF0905A
:1021E000EC01F501E21BF30BFF2009F4DFC0809145
:1021F000EF01E83CF10508F09BC0282F207F09F093
:1022000052C0561313C0491311C0FE2CE1100EC06A
:102210008F7080618093EF010E943510C6010E948B
:10222000890F8091EF01F801858358C1AB2831F007
:102230005F3F31F481E04F3F19F403C081E001C0FA
:1022400080E080FD03C081E08E2502C080E090E048
:10225000F82FF170FF2E80FF1CC08091B8012091F3
:10226000B90136E0821709F417C190E0389FF001F8
:10227000399FF00D1124E654FE4F6181561306C0BC
:102280006081461303C06281E61203C00196877025
:10229000E9CFFE2CEE2009F421C18091EF0181608D
:1022A0008093EF015AC0561306C0491304C0E110D1
:1022B00002C0F8019FC04D875E878D859E850E9474
:1022C000F00F882379F1EE2069F12091EF01822F40
:1022D00082958F7090E0029774F08091EA0190915E
:1022E000EB0198878F831986BB86AA862C87CE013F
:1022F00007960E94890F86E0F801AAEEB1E00190EE
:102300000D928A95E1F70E9443100E9435100DC08E
:10231000561729F14D875E878D859E850E94F00FA7
:1023200081112CC0C8010E94890FFF24F394D6C0EC
:10233000282F207F69F77A2DB98AA88A6E2D89897E
:102340000E94F50F8AEE91E00E94890F86E0F60167
:1023500011928A95E9F70E943510F12CBFC04913FC
:10236000D9CFE110D7CFF8018583C8010E94890F2A
:1023700086E0F60111928A95E9F7B0C0EE2091F25D
:102380002091EF01822F82958F7090E002970CF4DC
:10239000B2CF8091EA019091EB019A8389831B82ED
:1023A000BD82AC822E83CE010196A3CFE83CF1051D
:1023B00008F047C0FE2CEE2009F4B4CF561330C00D
:1023C00049132EC02091EF0120FD21C0822F82955C
:1023D0008F70482F50E041155105C9F0F801258351
:1023E0004F30510541F08F5F982F9295907F822F4B
:1023F0008F70892B8583C8010E94890F86E0F801C0
:10240000AAEEB1E001900D928A95E1F742C086E014
:10241000F801AAEEB1E001900D928A95E1F75EC055
:102420004D875E878D859E850E94F00F811163CF59
:102430008091EF0181608093EF01C8010E94890FB4
:102440004DC07A2DB98AA88A6E2D89890E94F50F10
:1024500086E0F60111928A95E9F71BC0EE2009F497
:1024600061CF4D875E878D859E850E94F00FF82E87
:10247000882309F457CF86E0F801AAEEB1E0019075
:102480000D928A95E1F78AEE91E00E94E00B0E949E
:1024900043100E94351022C04D875E878D859E8532
:1024A0000E945715292F22952F70223028F49F70F3
:1024B00039F0811105C00BC0243028F49F7049F415
:1024C000805E883020F0C8010E94890F9F2CF92C73
:1024D00005C0F8019581907F99F7F9CF8F2D61960E
:1024E0000FB6F894DEBF0FBECDBFDF91CF911F9125
:1024F0000F91FF90EF90DF90CF90BF90AF909F90A3
:1025000008951F93CF93DF93CDB7DEB72C970FB607
:10251000F894DEBF0FBECDBF4F83588769877A8797
:102520008B879C87CE0107960E94AF108823D1F03D
:102530009F8188852A853B85232B31F08F3F31F49D
:1025400081E09F3F19F403C081E001C080E080FD7D
:1025500047C04F81588569857A858B859C850E9407
:1025600004103EC086E0FE013796DE011196019010
:102570000D928A95E1F7FF81E8856A857B85611573
:10258000710531F0EF3F31F481E0FF3F19F403C0F2
:1025900081E001C080E080FD23C02091B90130E0DE
:1025A000C9010196877099274091B80150E08417BE
:1025B0009507F1F1F983EA837D836C8396E0929F1E
:1025C000D001939FB00D1124A654BE4FFE01319649
:1025D00001900D929A95E1F78093B9010E94141031
:1025E00016E08091B8019091B901891771F1189F97
:1025F000C001112486549E4F0E94AF10882329F1F8
:10260000E091B8011E9FF0011124E654FE4F408175
:10261000518162817381848195810E94041080912F
:10262000B80190E00196877099278093B801D9CFBF
:102630000E94C80F1092B9011092B801EAEEF1E0C1
:1026400086E0DF011D928A95E9F72C960FB6F89483
:10265000DEBF0FBECDBFDF91CF911F910895EF92E6
:10266000FF920F931F93CF93DF938C01892B09F473
:102670006CC0F12CEE24E394E8012196F8018491DA
:10268000843740F4843008F051C0813081F08230CA
:1026900019F15BC0853709F444C0A8F19CE7980F95
:1026A000903708F052C08F770E94950C41C00E5FA2
:1026B0001F4FFE01849190E2980F983050F487707C
:1026C000FE2D01C0FF0F8A95EAF78F2F0E94B915E2
:1026D00014C00E94E60B2DC00E5F1F4FFE018491B7
:1026E00090E2980F983060F48770FE2D01C0FF0FC4
:1026F0008A95EAF78F2F0E94BF150E94E41519C032
:102700000E94950C16C00E5F1F4FFE01C491CC2392
:1027100081F08FE99FE00197F1F700C00000C15000
:10272000F6CF0E5F1F4FFE01F49003C00E94E60B30
:102730008E018F2D882309F49FCFEFE9FFE03197B9
:10274000F1F700C000008150F5CFDF91CF911F91CC
:102750000F91FF90EF900895089508950C94AD1394
:102760000C94AE130E94B013609312027093130284
:1027700080931402909315020C94AE0F0C94B21334
:102780000F931F93009112021091130220911402D3
:1027900030911502602B712B822B932B1F910F917F
:1027A0000C94B2130F931F93009112021091130215
:1027B0002091140230911502602371238223932308
:1027C0001F910F910C94B2130F931F93009112025B
:1027D0001091130220911402309115026027712785
:1027E000822793271F910F910C94B2130C94AD1371
:1027F0000E94F61360930E0270930F0280931002F2
:10280000909311020C94AE0F60E070E0CB010C9439
:10281000F8130F931F9341E050E060E070E08A01ED
:102820009B0104C0000F111F221F331F8A95D2F78E
:10283000C901B8011F910F910C94F8130F931F93C6
:1028400041E050E060E070E004C0440F551F661F97
:10285000771F8A95D2F780910E0290910F02A09176
:102860001002B09111028A019B01082B192B2A2B0F
:102870003B2BC901B8011F910F910C94F8130F93D2
:102880001F9341E050E060E070E004C0440F551F2A
:10289000661F771F8A95D2F7409550956095709581
:1028A00080910E0290910F02A0911002B09111023E
:1028B0008A019B01082319232A233B23C901B8015C
:1028C0001F910F910C94F8130F931F9341E050E068
:1028D00060E070E004C0440F551F661F771F8A95A3
:1028E000D2F780910E0290910F02A0911002B09148
:1028F00011028A019B01082719272A273B27C901B2
:10290000B8011F910F910C94F8130F931F9300912E
:102910000E0210910F022091100230911102602BD3
:10292000712B822B932B1F910F910C94F8130F9303
:102930001F9300910E0210910F022091100230910E
:10294000110260237123822393231F910F910C9412
:10295000F8130F931F9300910E0210910F02209114
:1029600010023091110260277127822793271F914F
:102970000F910C94F8130895292F220F920F990F9D
:10298000890FE82FE695E695E695877051E001C03E
:10299000550F8A95EAF785E0E89FF0011124E05190
:1029A000FE4F20E030E070E04081CB01022E02C0FB
:1029B000969587950A94E2F78170819584278523FF
:1029C000842781932F5F3F4F2530310569F70895A4
:1029D000292F220F920F990F890F682F6695669500
:1029E0006695982F977085E0689FB001112440E0AC
:1029F00050E080E0FB01E40FF51FE051FE4F208125
:102A000030E0092E02C0369527950A94E2F721702E
:102A10003327042E01C0220F0A94EAF7822B4F5F5E
:102A20005F4F4530510531F70895BF92CF92DF9245
:102A3000EF92FF920F931F93CF93DF938C01C0907F
:102A40000E02D0900F02E0901002F09011028091DF
:102A5000120290911302A0911402B0911502C82A9B
:102A6000D92AEA2AFB2ACFE1D0E0D701C6010C2EF1
:102A700004C0B695A795979587950A94D2F780FDDF
:102A800004C0219790F7B12C07C0BC2EB8018C2F41
:102A90000E9496030197A9F38B2DDF91CF911F918F
:102AA0000F91FF90EF90DF90CF90BF900895CF935C
:102AB000DF93EC010E941515BE010E949603DF9181
:102AC000CF9108951F93CF93DF93EB019091B701BE
:102AD000992321F0CB010E94571513C0882349F098
:102AE000CB010E941515182F682FCE010E94BC142F
:102AF00004C0CB010E94E814182FBE01812F0E9450
:102B00009603DF91CF911F910895809116028595CC
:102B10008595859508958091160287700895909106
:102B20001602977081E009F480E0089580912202F6
:102B3000089590912202892B809322020895809516
:102B400090912202892380932202089510922202FA
:102B5000089590912102892B8093210208958095F8
:102B600090912102892380932102089510922102DD
:102B7000089590912002892B8093200208958095DA
:102B800090912002892380932002089510922002C0
:102B9000089580911702089508950C94CC150C9413
:102BA000CD1590911702981721F0809317020C947D
:102BB000CF15089580911702882329F010921702EB
:102BC00080E00C94CF150895E0910901F0910A017D
:102BD000809122028083E0910901F0910A019081A5
:102BE00080912102892B8083E0910901F0910A01F3
:102BF000908180912002892B808380911702882305
:102C000081F0E0910901F0910A019081892B808384
:102C10008091090190910A010E94EE1681110E9493
:102C2000DA158091090190910A010C94B50A0C946F
:102C3000CC1598E0899F90011124262B2093160231
:102C40000E941E14809116028595859585950C9499
:102C500017161092160280E00C9417162091160297
:102C60008095822380931602982F977079F430E034
:102C7000482F082E000C550B2417350739F0859581
:102C8000859585950E943F140C942916089580E03F
:102C900090E00E94002421E08C3E9E4F09F020E04D
:102CA000822F089582E090E00C94F82383E090E076
:102CB0000C94F823CF9384E090E00E94F823C82F6F
:102CC00081E290E00E94F8232C2F30E0A901582BDC
:102CD000CA01CF910895CF93C92F682F84E090E067
:102CE0000E9406246C2F81E290E0CF910C94062480
:102CF000AB01BC018FE090E00C941824AB01BC0147
:102D000083E190E00C94182460E070E0CB010C9417
:102D10007E1660E070E0CB010E9478160C94841659
:102D20006CEE7EEF80E090E00E94242460E082E080
:102D300090E00E94062460E083E090E00E94062478
:102D400010921202109213021092140210921502A5
:102D500060E084E090E00E94062460E081E290E080
:102D60000E94062460E085E090E00E94062460E076
:102D700086E090E00E9406246FEF87E090E00E94DA
:102D8000062440E050E0BA0188E090E00E94182458
:102D900060E08DE090E00E94062440E050E0BA013F
:102DA00088E190E00E94182460E087E190E00E94B2
:102DB000062440E050E0BA018CE190E00E94182423
:102DC00060E080E290E00E9406240C9489160C9446
:102DD0009016682F8EE090E00C940624FC01329649
:102DE00097E080E0915029F021912223D9F38F5F61
:102DF000F9CF0895662349F0FC0132960896219197
:102E0000621729F0E817F907D1F780E0089581E00B
:102E100008959C01FC0132969FEF80E04191461796
:102E200089F09F3F19F4411101C0982F8F5F8630C0
:102E3000A9F79F3F39F0F901E90FF11D97FDFA95C8
:102E40006283089508959C012A5F3F4FFC014281EF
:102E5000461301C01282019682179307B9F70895AD
:102E60000C9409170C942317029626E0FC0111928A
:102E70002A95E9F7089508950C943B170C943B1795
:102E8000CF930E943E170E9426060E943C17C0E086
:102E90008C2F0E948505811104C0CF5FC830C1F717
:102EA00001C081E0CF9108950C943B170C94541706
:102EB0000E94561780915E02843049F110922402DC
:102EC00020E488E190E00FB6F894A8958093600024
:102ED0000FBE2093600080E00E9421030E945617DD
:102EE00083B7817F846083BF83B7816083BF789419
:102EF000889583B78E7F83BF0FB6F894A89580918D
:102F00006000886180936000109260000FBE089599
:102F10000C943B170E94C80F0E94A90A0E9421032B
:102F20000C9488171F920F920FB60F9211248F9353
:102F30009F93AF93BF9380912402811113C080911E
:102F4000540290915502A0915602B09157024196B9
:102F5000A11DB11D8093540290935502A093560277
:102F6000B0935702BF91AF919F918F910F900FBE79
:102F70000F901F90189582E084BD93E095BD9AEF65
:102F800097BD80936E0008952FB7F89480915402F6
:102F900090915502A0915602B09157022FBF08950B
:102FA0009C014FB7F8948091540290915502A091E2
:102FB0005602B09157024FBF821B930B089578942D
:102FC0001F920F920FB60F9211248F939F93AF937E
:102FD000BF938091540290915502A0915602B091F6
:102FE00057020196A11DB11D809354029093550282
:102FF000A0935602B0935702BF91AF919F918F91CA
:103000000F900FBE0F901F90189587E797E790934A
:103010000108809300089AE088E10FB6F894A8951B
:10302000809360000FBE90936000FFCF0E94471610
:10303000811102C00E94E7160E945216809323025B
:103040000E945A1690935902809358020E94561675
:10305000682F70E080E090E00C94BE1380912C0209
:1030600080FF0BC06091100185E0689FB0011124C2
:1030700075956795759567952BC081FF09C060911F
:10308000100185E0689FB00111247595679520C0F7
:1030900082FF07C06091100185E0689FB001112494
:1030A00017C090912B029923D1F060910F019617D0
:1030B00088F72091100185E0289F90011124929FAC
:1030C000A001939F500D112470E0CA010E94CA23F1
:1030D0006038710540F46115710519F406C065E0AA
:1030E00070E0862F08958FE7089581E0089580911C
:1030F0002C0280FF08C060910C0170E07595679507
:103100007595679521C081FF06C060910C0170E044
:103110007595679519C082FF04C060910C0170E03D
:1031200010C090912B02992399F060910B01961792
:10313000A0F780910C01899FC001112470E00E94CA
:10314000CA236038710540F46115710519F406C091
:1031500061E070E0862F08958FE7089581E008957B
:10316000803F21F40E942E18819504C0813F29F4EC
:103170000E942E18809330020895823F21F40E940D
:103180002E18819504C0833F29F40E942E18809345
:103190002F020895893F19F40E94771805C08A3FCD
:1031A00031F40E94771881958093310208958B3F06
:1031B00021F40E947718819504C08C3F29F40E9465
:1031C0007718809332020895843F21F480912E0273
:1031D000816017C0853F21F480912E02826011C06A
:1031E000863F21F480912E0284600BC0873F21F43A
:1031F00080912E02886005C0883F31F480912E02B4
:10320000806180932E0208958D3F21F480912C02DD
:1032100081600BC08E3F21F480912C02826005C03A
:103220008F3F29F480912C02846080932C020895B2
:10323000803F39F48091300287FF6CC010923002D9
:1032400069C0813F29F4809130021816BCF362C036
:1032500090912F02823F29F497FF5CC010922F02B9
:1032600059C0833F19F41916CCF354C0893F41F477
:103270008091310218160CF04DC0109231024AC0F4
:103280008A3F29F48091310287FF44C0F6CF8B3FFB
:1032900039F48091320287FF3DC0109232023AC069
:1032A0008C3F29F4809132021816BCF333C0843F5E
:1032B00021F480912E028E7F17C0853F21F48091EA
:1032C0002E028D7F11C0863F21F480912E028B7FCC
:1032D0000BC0873F21F480912E02877F05C0883F75
:1032E00031F480912E028F7E80932E0213C08D3F89
:1032F00021F480912C028E7F0BC08E3F21F48091AF
:103300002C028D7F05C08F3F29F480912C028B7F8A
:1033100080932C0280912F0281110EC08091300287
:1033200081110AC080913102811106C08091320260
:10333000811102C010922B0208958DE292E00E944A
:10334000C00A0E94C41790932A028093290208950C
:10335000CF93DF9300D000D000D0CDB7DEB786E0AA
:10336000EDE2F2E0DE01119601900D928A95E1F70F
:1033700080912F02811105C080913002882309F4C9
:103380007AC080912702909128020E94D017AC0148
:1033900090912B02992339F02091110130E02417EC
:1033A000350758F068C0209112018AE0289F9001EB
:1033B00011242417350718F05EC09F3F19F09F5F56
:1033C00090932B02109231021092320280912F02C0
:1033D000181624F40E942E1880932F0280912F0239
:1033E00087FF05C00E942E18819580932F0280913F
:1033F0003002181624F40E942E1880933002809117
:10340000300287FF05C00E942E18819580933002FC
:1034100030912F023323E1F0209130022223C1F0BA
:1034200045EB3403C0011124992319F090932F0226
:1034300003C081E080932F0235EB2303C0011124E8
:10344000992319F09093300203C081E080933002F9
:103450000E949D198091290290912A02909328023E
:103460008093270286E0FE013196ADE2B2E0019042
:103470000D928A95E1F780913102811105C080910A
:103480003202882309F47AC08091250290912602A5
:103490000E94D017AC0190912B02992339F0209112
:1034A0000D0130E02417350758F068C020910E0157
:1034B0008AE0289F900111242417350718F05EC078
:1034C0009F3F19F09F5F90932B0210922F02109252
:1034D000300280913102181624F40E9477188093EC
:1034E00031028091310287FF05C00E9477188195D3
:1034F0008093310280913202181624F40E947718CA
:10350000809332028091320287FF05C00E947718B3
:10351000819580933202309131023323E1F0209182
:1035200032022223C1F045EB3403C0011124992358
:1035300019F09093310203C081E08093310235EBA2
:103540002303C0011124992319F09093320203C080
:1035500081E0809332020E949D198091290290910E
:103560002A02909326028093250286E0FE0131967E
:10357000ADE2B2E001900D928A95E1F726960FB682
:10358000F894DEBF0FBECDBFDF91CF910895EDE27D
:10359000F2E086E0DF011D928A95E9F710922B0296
:1035A00010922C020895833081F128F4813059F073
:1035B0008230D1F00895853009F449C0B8F18630E1
:1035C00009F456C0089580911201262F30E0280F8B
:1035D000311D2F3F310524F4680F609312010895C7
:1035E0008FEF80931201089580911101262F30E012
:1035F000280F311D2F3F310524F4680F609311010E
:1036000008958FEF80931101089580911001262F66
:1036100030E0280F311D2F3F310524F4680F6093EF
:10362000100108958FEF80931001089580910F018C
:10363000262F30E0280F311D2F3F310524F4680F6D
:1036400060930F0108958FEF80930F01089580918B
:103650000C01262F30E0280F311D2F3F310524F4B7
:10366000680F60930C0108958FEF80930C0108950B
:1036700080910B01262F30E0280F311D2F3F31059F
:1036800024F4680F60930B0108958FEF80930B0172
:103690000895833011F128F4813049F0823091F09F
:1036A0000895853081F120F18630C1F1089580912F
:1036B0001201681720F4861B80931201089510925E
:1036C0001201089580911101681720F4861B8093E0
:1036D0001101089510921101089580911001681749
:1036E00020F4861B80931001089510921001089514
:1036F00080910F01681720F4861B80930F010895B5
:1037000010920F01089580910C01681720F4861B18
:1037100080930C01089510920C01089580910B0183
:10372000681720F4861B80930B01089510920B01FB
:1037300008950F931F9341E050E060E070E08A012C
:103740009B0104C0000F111F221F331F8A95D2F75F
:10375000C901B8010E94BE131F910F910C94C80FAC
:103760008B3109F468C058F58B3009F486C078F4C1
:10377000863009F445C020F4853009F44BC07FC081
:10378000873009F44AC0883009F477C078C08031A6
:1037900009F464C068F48E3009F071C0809123028E
:1037A00082FB222720F991E0922790FB82F94CC0FE
:1037B000863109F462C0893109F45FC060C08A3281
:1037C000E1F060F4873209F455C028F48E3108F432
:1037D00056C08D5150C08932E9F051C0833450F445
:1037E0008A3308F045C0853309F444C0883309F4AE
:1037F00044C045C08334F1F142C00E94E7163DC089
:1038000080912302817F8E7F8093230281E08093C9
:10381000340208950E942B0330C080912302982F18
:103820009095917090FB80F980932302911125C0AF
:10383000897F877F10C08091230281FB222720F996
:1038400091E0922790FB81F9809323029923A9F0BC
:10385000809123028160809323020FC08091230214
:1038600083FB222720F991E0922790FB83F9ECCF8C
:10387000895301C080E00E94991B81E0089580E097
:10388000089580E008950C94411C8E518A3030F4E4
:10389000E82FF0E0E257FE4F8081089580E0089520
:1038A000CF93C82F80913402813051F018F08230CC
:1038B00099F17DC00E949615823209F07AC004C049
:1038C0000E949615823261F48C2F0E94431C811154
:1038D00004C08C2F0E94B01B1DC081E090E01AC074
:1038E0008C2F0E94411C811114C0C43179F048F41E
:1038F000CB3079F0C03109F060C082E080933402AF
:1039000008C0C93219F0C83321F057C010923402F0
:1039100054C081E0817053C0C93289F118F5C431B7
:1039200071F1B0F4C73009F046C08EE18093120106
:1039300082E3809311018AE08093100184E18093F7
:103940000F0188E080930C0188E280930B0133C063
:1039500082EE8C0F863078F58C2F0E94451C809368
:10396000330229C0CE34E9F020F4CB3421F56AE0EB
:1039700013C0C13579F0C235F1F461E00DC080911A
:103980003302882319F01092330215C081E080932E
:10399000340215C061E006C0809133020E94D31A40
:1039A0000AC06AE0809133020E94491B04C0109251
:1039B000340280E004C081E002C080E0ABCFCF9150
:1039C000089580913D020895CF93DF9300D01F9218
:1039D000CDB7DEB790915E02943019F589837B8371
:1039E0006A8382E08093E9008FEF9091E800815034
:1039F00095FD06C095ED9A95F1F700008111F5CF80
:103A00008091E80085FF0DC040E050E063E070E089
:103A1000CE0101960E942C1F8091E8008E77809342
:103A2000E8000F900F900F90DF91CF910895CF9302
:103A3000DF93EC010E940F1F823011F0843031F4CB
:103A4000BE0184E0DF91CF910C94E41CDF91CF9113
:103A50000895BC0183E00C94E41CCF93DF93EC0148
:103A60000E940F1F823011F08430F9F482E08093BD
:103A7000E9008FEF9091E800815095FD06C095ED2B
:103A80009A95F1F700008111F5CF8091E80085FF4C
:103A90000CC040E050E066E070E0CE010E942C1FB8
:103AA0008091E8008E778093E800DF91CF910895B0
:103AB000CF93DF93EC010E940F1F823011F084300E
:103AC00039F581E08093E9008FEF9091E800815013
:103AD00095FD06C095ED9A95F1F700008111F5CF9F
:103AE0008091E80085FF14C040E050E068E070E09D
:103AF000CE010E942C1F8091E8008E778093E80011
:103B000088E0FE01A5E3B2E001900D928A95E1F70D
:103B1000DF91CF91089580915D02811109C00E94CB
:103B2000BD200E941A218091E20084608093E2000F
:103B3000089510925D020895089508950C948A17CF
:103B400042E061EC81E00E94362042E261EC82E0DA
:103B50000C94362080916002833009F460C030F408
:103B6000813071F0823009F499C008958A3009F4E7
:103B700085C08B3009F46BC0893009F0A7C020C024
:103B800080915F02813A09F0A1C08091E800877FAF
:103B90008093E8008091630290916402892B21F464
:103BA00068E085E392E003C060E080E090E070E0D0
:103BB0000E94771F8091E8008B778093E80008953A
:103BC00080915F02813209F081C0809163029091FF
:103BD0006402029708F07AC08091E800877F8093A2
:103BE000E8008091E80082FD05C080915E028111AD
:103BF000F8CF6CC02091F3008091F20090E0922BFE
:103C0000029729F48091F1008B7F813021F480911B
:103C1000F10080933D028091E8008B7753C0809142
:103C20005F02813A09F052C0809163029091640270
:103C3000892B09F04BC08091E800877F8093E800D2
:103C40008091E80080FFFCCF80911D0136C08091FB
:103C50005F028132D9F58091630290916402892BD1
:103C6000A9F58091E800877F8093E8000E946B208F
:103C70008091610280931D010C94C80F80915F02B6
:103C8000813221F58091E800877F8093E8000E94CF
:103C90006B208091620280933E02089580915F02C2
:103CA000813AA1F48091E800877F8093E8008091B9
:103CB000E80080FFFCCF80913E028093F10080916C
:103CC000E8008E778093E8000C946B20089584B709
:103CD000877F84BF0FB6F894A895809160008861B3
:103CE00080936000109260000FBE90E080E80FB6F5
:103CF000F89480936100909361000FBE0E940A0BBC
:103D00000E94BD200E941A218091E200846080936D
:103D1000E20078940E94AF230E94120B83E191E0AD
:103D20000E94A40A80915E02853069F40E945817AF
:103D300080915C028823B1F30E944017882391F39D
:103D40000E94161FEFCF0E941A0BECCF0C94A81EF6
:103D5000292F332723303105C9F060F42130310594
:103D600081F02230310509F04AC08BE390E02CED60
:103D700033E049C02132310511F12232310579F1A8
:103D80003EC082E190E027E134E03DC099278130D8
:103D9000910561F040F08230910559F0039779F573
:103DA000ECE9F3E008C0E8EDF3E005C0E0ECF3E097
:103DB00002C0E2EAF3E0849190E09F0124C0611523
:103DC000710541F061307105D1F489E090E027E0A0
:103DD00034E019C089E090E02EEE33E014C06115A4
:103DE000710541F06130710551F481E890E029E2FC
:103DF00034E009C080E490E02AEA34E004C080E0C6
:103E000090E020E030E0FA01318320830895809132
:103E10005E02843011F081E0089582E0089580917F
:103E20003F02811102C00C94071F089580E189BDF3
:103E300082E189BD09B400FEFDCF8091D8008F7D5D
:103E40008093D8008091E00082608093E0008091B0
:103E5000E00081FDFCCF0895CF92DF92EF92FF92B8
:103E60000F931F93CF93DF93EC018B017A010E9494
:103E70008A20811133C0E114F10439F0F701808107
:103E80009181081B190BC80FD91FC12CD12C01150A
:103E9000110519F18091E80085FD16C08091E800B8
:103EA0008E778093E800E114F10449F0F7018081F6
:103EB0009181C80ED91ED182C08285E00FC00E94B8
:103EC0008A20882321F30AC089918093F100015050
:103ED0001109FFEFCF1ADF0ADACF80E0DF91CF912F
:103EE0001F910F91FF90EF90DF90CF900895209158
:103EF0006502309166022617370748F06115710593
:103F000039F42091E8002E772093E80001C0B90130
:103F1000FC0120E06115710579F180915E02882332
:103F2000F1F18530F1F18091E80083FD3CC0809192
:103F3000E80082FD2EC08091E80080FFEBCF209149
:103F4000F3008091F20090E0922B6115710551F021
:103F50008830910538F421912093F1006150710966
:103F60000196F3CF21E0089709F020E08091E80066
:103F70008E778093E800CECF2111CFCF0AC08091F9
:103F80005E02882361F0853061F08091E80083FD56
:103F90000AC08091E80082FFF2CF80E0089582E0BD
:103FA000089583E0089581E008952091650230919D
:103FB00066022617370748F06115710539F420911C
:103FC000E8002E772093E80001C0B901FC0120E051
:103FD0006115710591F180915E02882309F440C05A
:103FE000853009F43FC08091E80083FD3DC0809199
:103FF000E80082FD2FC08091E80080FFE9CF20918A
:10400000F3008091F20090E0922B6115710559F058
:104010008830910540F424912093F100319661504D
:1040200071090196F2CF21E0089709F020E0809114
:10403000E8008E778093E800CBCF2111CCCF0AC067
:1040400080915E02882361F0853061F08091E80004
:1040500083FD0AC08091E80082FFF2CF80E00895DE
:1040600082E0089583E0089581E00895982F9730C5
:1040700068F59093E900981739F07091EC00209161
:10408000ED005091F00003C0242F762F50E021FD69
:1040900002C09F5FECCF3091EB003E7F3093EB008E
:1040A0003091ED003D7F3093ED003091EB003160B9
:1040B0003093EB007093EC002093ED005093F000F0
:1040C0002091EE0027FDE5CF80E008958F7080936A
:1040D000E90081E0089580915F0287FF11C080911F
:1040E000E80082FD05C080915E028111F8CF11C009
:1040F0008091E8008B770BC080915E02882349F0A5
:104100008091E80080FFF8CF8091E8008E7780935F
:10411000E80008952091E4003091E50095E6409193
:10412000EC00842F817040FF23C08091E80080FD67
:104130001DC080915E02882399F0853099F08091AE
:10414000EB0085FD11C04091E4005091E50024177B
:10415000350729F3915011F09A01E1CF84E00895D9
:1041600082E0089583E0089581E0089580E0089555
:104170004091E80042FFDDCF08950E942B210E946C
:104180003321E0EEF0E0808181608083E8EDF0E0B3
:1041900080818F77808319BCA7EDB0E08C918E7FF2
:1041A0008C9380818F7E808310925D0208950F939F
:1041B0001F93CF93DF930E942B210E943321C8EDE0
:1041C000D0E088818F778883888180688883888120
:1041D0008F7D888319BC10925E0210925A02109251
:1041E0005C0210925B0200EE10E0F80180818B7F90
:1041F000808388818160888342E060E080E00E9463
:104200003620E1EEF0E080818E7F8083E2EEF0E008
:10421000808181608083808188608083F8018081D3
:104220008E7F8083888180618883DF91CF911F9109
:104230000F910895E8EDF0E080818F7E8083E7EDB7
:10424000F0E080818160808384E082BF81E08093A0
:104250005D020C94D720E8EDF0E080818E7F8083B2
:104260001092E20008951092DA001092E100089591
:104270001F920F920FB60F9211242F933F934F93DB
:104280005F936F937F938F939F93AF93BF93EF93BE
:10429000FF938091E10082FF0BC08091E20082FFDA
:1042A00007C08091E1008B7F8093E1000E94AE23E4
:1042B0008091DA0080FF1FC08091D80080FF1BC072
:1042C0008091DA008E7F8093DA008091D90080FFA0
:1042D0000DC080E189BD82E189BD09B400FEFDCF3A
:1042E00081E080935E020E948B1D05C019BC109274
:1042F0005E020E94991D8091E10080FF19C08091AB
:10430000E20080FF15C08091E2008E7F8093E20082
:104310008091E20080618093E2008091D800806209
:104320008093D80019BC85E080935E020E949D1D99
:104330008091E10084FF30C08091E20084FF2CC0B6
:1043400080E189BD82E189BD09B400FEFDCF809185
:10435000D8008F7D8093D8008091E1008F7E80937C
:10436000E1008091E2008F7E8093E2008091E20084
:1043700081608093E20080915A02882311F084E0EA
:1043800007C08091E30087FD02C081E001C083E0A7
:1043900080935E020E949E1D8091E10083FF29C0F0
:1043A0008091E20083FF25C08091E100877F8093A8
:1043B000E10082E080935E0210925A028091E10057
:1043C0008E7F8093E1008091E2008E7F8093E200F7
:1043D0008091E20080618093E20042E060E080E052
:1043E0000E9436208091F00088608093F0000E9447
:1043F0009C1DFF91EF91BF91AF919F918F917F9104
:104400006F915F914F913F912F910F900FBE0F9041
:104410001F9018951F920F920FB60F9211242F9391
:104420003F934F935F936F937F938F939F93AF933C
:10443000BF93CF93DF93EF93FF93C091E900CF70C9
:104440008091EC00D82FD17080FDD0E81092E90067
:104450008091F000877F8093F00078940E944E2234
:104460001092E9008091F00088608093F000CD2BDD
:10447000CF70C093E900FF91EF91DF91CF91BF9191
:10448000AF919F918F917F916F915F914F913F91EC
:104490002F910F900FBE0F901F9018951F93CF93E1
:1044A000DF93CDB7DEB7AA970FB6F894DEBF0FBE85
:1044B000CDBFEFE5F2E08091F100819322E0E73695
:1044C000F207C9F70E94AA1D8091E80083FF2EC160
:1044D00080915F0290916002492F50E04A3051056F
:1044E00008F024C1FA01EC58FF4F0C94DE23803809
:1044F00021F0823809F01AC108C080915B029091C6
:104500005C02992389F082600FC0809163028F70F2
:10451000873008F00BC18093E9008091EB0085FBA8
:10452000882780F91092E9009091E800977F909396
:10453000E8008093F1001092F100D1C0282F2D7F68
:1045400009F0F4C0882319F0823061F0EFC0809147
:104550006102813009F0EAC0933009F080E0809375
:104560005C022EC08091610281112AC08091630299
:104570008F702FEF280F263008F0D8C08093E90005
:104580002091EB0020FF1CC0933021F48091EB00C0
:10459000806214C09091EB0090619093EB0021E059
:1045A00030E0A90102C0440F551F8A95E2F74093FD
:1045B000EA001092EA008091EB0088608093EB00A3
:1045C0001092E9008091E800877F8093E8000E94C4
:1045D0006B20ACC08111AAC0109161021F7780913D
:1045E000E3008078812B8093E3008091E800877F4F
:1045F0008093E8000E946B208091E80080FFFCCF50
:104600008091E30080688093E300111102C082E092
:1046100001C083E080935E0289C08058823008F038
:1046200085C080916102909162028C3D53E09507B4
:1046300079F583E08A838AE289834FB7F894DE01B3
:10464000139620E03EE051E2E32FF0E05093570054
:10465000E49120FF03C0E295EF703F5FEF708E2F73
:1046600090E0EA3010F0C79601C0C0968D939D93FC
:104670002F5F243149F74FBF8091E800877F8093F7
:10468000E8006AE270E0CE0101960E94771F16C032
:104690006091630270916402AE014F5F5F4F0E94B0
:1046A000A61EBC01892B09F441C09091E800977FB8
:1046B0009093E80089819A810E94D51F8091E8003B
:1046C0008B778093E80032C0803881F58091E800D4
:1046D000877F8093E80080915A028093F100809157
:1046E000E8008E7772CF811121C080916102909194
:1046F000620299270297D4F48091E800877F809323
:10470000E8008091610280935A020E946B208091A0
:104710005A02811106C08091E30087FD02C081E04A
:1047200001C084E080935E020E94A01D8091E80099
:1047300083FF0AC08091E800877F8093E800809122
:10474000EB0080628093EB00AA960FB6F894DEBF70
:104750000FBECDBFDF91CF911F9108950895CF93E4
:1047600080915E028823A1F0C091E900CF70909102
:10477000EC00892F817090FD80E8C82B1092E90031
:104780008091E80083FD0E944E22CF70C093E90023
:10479000CF91089597FB072E16F4009407D077FD6C
:1047A00009D00E94E42307FC05D03EF49095819542
:1047B0009F4F0895709561957F4F0895EE0FFF1FED
:1047C0000590F491E02D0994AA1BBB1B51E107C091
:1047D000AA1FBB1FA617B70710F0A61BB70B881F91
:1047E000991F5A95A9F780959095BC01CD01089520
:1047F000F999FECF92BD81BDF89A992780B50895A9
:10480000A8E1B0E042E050E00C942C24262FF99966
:10481000FECF92BD81BDF89A019700B4021639F01F
:104820001FBA20BD0FB6F894FA9AF99A0FBE0895F0
:104830000396272F0E9407240E940624252F0E94FA
:104840000724242F0C9407240196272F0E94072465
:104850000C940624DC01CB01FC01F999FECF06C0C3
:10486000F2BDE1BDF89A319600B40D92415050402E
:08487000B8F70895F894FFCF9A
:10487800019D01009E01049E0118022808641E146F
:104888000A321EE11C581D2D1D291D171D01E200AD
:10489800E900EA00B500B600B700CD008301CC00FE
:1048A8008A01920194012102230224022502260290
:1048B80027022A02B300B4006F007000818283F6D9
:1048C800F73133323697C6343500000000E200E98C
:1048D80000EA00B500B600B700CD008301CC008A1D
:1048E80001920194012102230224022502260227B3
:1048F800022A02B300B4006F0070008182830102B3
:0849080003040506070809007D
:00000001FF
